:020000040800F2
:10000000F807002089010008110F0008AD0800085A
:100010000D0F0008E9020008071E0008000000009C
:100020000000000000000000000000003512000881
:10003000ED02000800000000290F0008BD130008B1
:10004000A3010008A3010008A3010008A301000800
:10005000A3010008A3010008A3010008A3010008F0
:10006000A3010008A3010008A3010008A3010008E0
:10007000A3010008A3010008A3010008A3010008D0
:10008000A3010008A3010008A3010008A3010008C0
:10009000A3010008A3010008A3010008F102000861
:1000A000A3010008A3010008A3010008A3010008A0
:1000B00061160008791600083D170008A301000822
:1000C000A3010008A3010008A3010008A301000880
:1000D000A3010008A3010008A3010008F11900080A
:1000E000A3010008A3010008A301000800F002F822
:1000F00000F03AF80AA090E8000C82448344AAF188
:100100000107DA4501D100F02FF8AFF2090EBAE885
:100110000F0013F0010F18BFFB1A43F0010318473B
:100120005046000070460000103A24BF78C878C1DD
:10013000FAD8520724BF30C830C144BF04680C60ED
:10014000704700000023002400250026103A28BF35
:1001500078C1FBD8520728BF30C148BF0B60704739
:100160001FB51FBD10B510BD00F090F81146FFF788
:10017000F7FF02F0B7F900F0AEF803B4FFF7F2FFB3
:1001800003BC01F009FF0000094880470948004707
:10019000FEE7FEE7FEE7FEE7FEE7FEE7FEE7FEE737
:1001A000FEE7FEE704480549054A064B7047000094
:1001B000C1130008ED000008F8010020F807002036
:1001C000F8030020F803002070474FF000020429D4
:1001D000C0F0128010F0030C00F02A80CCF1040C67
:1001E000BCF1020F18BF00F8012BA8BF20F8022BAA
:1001F000A1EB0C0100F01CB85FEAC17C24BF00F841
:10020000012B00F8012B48BF00F8012B7047704705
:1002100070477047704710B500F030F8006810BDA7
:1002200010B5044600F02AF8046010BD4FF000023B
:1002300000B5134694469646203922BFA0E80C50DC
:10024000A0E80C50B1F12001BFF4F7AF090728BFB7
:10025000A0E80C5048BF0CC05DF804EB890028BF33
:1002600040F8042B08BF704748BF20F8022B11F05C
:10027000804F18BF00F8012B7047000000487047FE
:100280009401002000487047940100207546FFF754
:10029000F9FFAE4605006946534620F00700854643
:1002A00018B020B5FFF77EFFBDE820404FF00006F4
:1002B0004FF000074FF000084FF0000B21F007014E
:1002C000AC46ACE8C009ACE8C009ACE8C009ACE891
:1002D000C0098D46704710B50446AFF30080204634
:1002E000BDE81040FFF749BF00BFFEE770470000C0
:1002F00010B55648006800287ED120205449086077
:100300005448007808B9012000E0002051490870E5
:100310005148007801280BD150480078401CC0B2E9
:100320004E4908700A2803D1002008704A49087015
:1003300048480078012812D100F0F0F948480068D8
:10034000401C47490860962807D14649464800683E
:1003500004F050F801D200F0F1F8002010BD0220A6
:1003600000F0F8FE404241490860042000F0F2FE2F
:100370003F49086000F0D2F900F0B2FE3D48007835
:1003800010B9642000F07CFD3A480078012802D1C1
:10039000002000F075FD00F045FD37480168324847
:1003A000006801F0CBFF35490860314801682F48EB
:1003B000006802F097FE32490860324802682C4813
:1003C00001682A48006802F0BFFD2F4908602B48E9
:1003D00000682B490968401A2B49096808442B49D1
:1003E00008602648006826490968401A26490968B5
:1003F000401A2749086000E026E001F007FD1C488C
:1004000003681A480268184801682248006800F02A
:100410008DFD10B10120204908701548026813486D
:1004200001681148006800F0F5FD10B100201A497C
:1004300008700D48006801F0AFFA28B91448016847
:100440001248006800F06CFF002087E71481214209
:10045000140401400C000020FD000020FC000020DE
:10046000100000200000F041E4000020D000002037
:10047000D4000020FE000020E80000200000002042
:1004800004000020EC00002008000020D80000201C
:10049000DC000020F0000020CD00002000B587B077
:1004A0000121084600F0FCFD0121042000F008FEB7
:1004B0000320ADF8000004208DF8030069461E48B3
:1004C00000F0A0F804A801F05DFA0020ADF81000DB
:1004D0004FF6FF70ADF814000020ADF81600ADF82F
:1004E000120004A94FF0804001F0FAF900231A46E7
:1004F00003214FF0804001F03CF901A801F0B0F970
:100500000A20ADF80C0001A9400701F053F90121C0
:10051000880701F01FF901221146900701F0A9F99F
:1005200000214FF0804001F0ADF90121880701F072
:1005300014F907B000BD00000008014010B50A2200
:100540002649274800F062FE244800884FF6FF71D4
:10055000884219D121484088884215D11F48808897
:10056000884211D11D48C08888420DD11D481E49BE
:1005700008604FF07E501D4908601D481D49086005
:100580001D481E49086027E01449088803F01EFE34
:1005900004461B4903F0F0FC134908600F494888E2
:1005A00003F014FE0446164903F0E6FC0F49086008
:1005B0000A49888803F00AFE0446114903F0DCFC6E
:1005C0000C4908600549C88803F000FE04460C4940
:1005D00003F0D2FC0949086010BD00006A01002048
:1005E00000E00008000096430401002008010020FC
:1005F0000000A0420C010020CDCCCC3E1001002018
:100600000000C8422DE9F0410246002500260020E6
:1006100000230024002791F803C00CF00F0591F887
:1006200003C00CF0100CBCF1000F03D091F802C015
:100630004CEA050591F800C0BCF1000F31D01468F8
:1006400000202BE04FF0010C0CFA00F3B1F800C0D1
:100650000CEA03069E4220D183004FF00F0C0CFAE7
:1006600003F7BC4305FA03FC4CEA040491F803C009
:10067000BCF1280F06D14FF0010C0CFA00FCC2F8B7
:1006800014C00AE091F803C0BCF1480F05D14FF047
:10069000010C0CFA00FCC2F810C0401C0828D1D391
:1006A0001460B1F800C0BCF1FF0F34DD54680020C5
:1006B0002EE000F1080C4FF0010808FA0CF3B1F835
:1006C00000C00CEA03069E4221D183004FF00F0CBC
:1006D0000CFA03F7BC4305FA03FC4CEA040491F856
:1006E00003C0BCF1280F05D100F1080C08FA0CF882
:1006F000C2F8148091F803C0BCF1480F07D100F193
:10070000080C4FF0010808FA0CF8C2F81080401CE1
:100710000828CED35460BDE8F08100002DE9F04FE9
:1007200087B000F033FD574908604621D02000F023
:10073000BFF880464521D02000F0BAF808EB00272A
:10074000384603F02BFD04464821D02000F0B0F8D5
:1007500080464721D02000F0ABF808EB0027384650
:1007600003F01CFD81463C21D02000F0A1F880461A
:100770003B21D02000F09CF808EB0027384603F01E
:100780000DFD06904021D02000F092F880463F21D8
:10079000D02000F08DF808EB0027384603F0FEFC6F
:1007A00006464FF08E41204603F024FE05D24FF05E
:1007B0008F41204603F05AFE04464FF08E414846D2
:1007C00003F018FE05D24FF08F41484603F04EFE6D
:1007D00081464FF08E41069803F00CFE05D24FF093
:1007E0008F41069803F042FE06904FF08E4130464E
:1007F00003F000FE05D24FF08F41304603F036FE85
:10080000064684F0004020490860304603F01AFB99
:1008100007468846069803F015FB82463A4643464B
:1008200001F0CCFC0022194BCDE9000102F0FAFFE7
:10083000174A184BCDE9020102F048FECDE9040148
:1008400002F056FD0546204603F0FCFA82464FF0C2
:100850006632114B02F03AFE074602F049FD0446AB
:1008600084F000473946284600F0A0F90B4800689C
:100870000B4908600B48C0F800900B48066007B0B1
:10088000BDE8F08FE0000020E80000200080664016
:10089000F1D4C853FB210940666630404C0000206B
:1008A000E4000020EC000020F000002000BFFEE784
:1008B00070B505460E46002400F0D4F8284600F036
:1008C0009FF8641C00F026F9304600F099F8641C8B
:1008D00000F020F900F0C6F8691CC8B200F090F8EA
:1008E000641C00F017F9002000F052F8044600F0F4
:1008F000EDF8204670BD000010B500200E490860DC
:100900000E48006820F0F0000C49086008460068B6
:1009100040F03000086000200949C1F8A40101201E
:1009200001F0BAFD01200449086001F0B5FD002086
:100930000349C1F8A00110BDA0812142040C01406F
:100940000080214210B500200E4908600E48006862
:1009500020F0F0000C4908600846006840F03000C4
:10096000086001200949C1F8A40101F095FD0120AA
:100970000449086001F090FD00200449C1F8A0017D
:1009800010BD0000A0812142040C014000802142E2
:1009900070B5054600241748006820F0F00015499E
:1009A00008600846006840F080000860002616E0F5
:1009B000002011490860022001F06EFD01200F495E
:1009C000C1F8A0016006040E0B487C38006808B12D
:1009D000601CC4B2022001F05FFD701CC6B2082E7C
:1009E000E6DB15B1FFF788FF01E0FFF7ABFF20461C
:1009F00070BD0000040C0140A08121420080214212
:100A000070B504461448006820F0F00012490860F0
:100A10000846006840F03000086000200F49086078
:100A2000002516E0E0090D49091D08606006040E66
:100A3000012001F031FD01200949C1F8A00101F0B8
:100A40002BFD002005490860012001F025FD681CF0
:100A5000C5B2082DE6DB70BD040C0140A081214227
:100A60000080214210B51648006820F0F0001449BB
:100A700008600846006840F0300008600120114915
:100A800008601148D0F8240108B9002010BD0120E9
:100A90000C49091F086001F0FFFC00200A49C1F859
:100AA000A40108488038006808B10020EEE7012062
:100AB00001F0F2FC00200349091F08600120E5E76E
:100AC000040C0140A48121420080214210B50E484F
:100AD000006820F0F0000C4908600846006840F00B
:100AE000300008600020094908600949C1F8A401E4
:100AF000012001F0D1FC0120044908600449C1F83B
:100B0000A40101F0C9FC10BD040C0140A0812142E8
:100B10000080214210B500241548006820F0F00044
:100B2000134908600846006840F080000860012012
:100B30001049086001F0B0FC01200F49C1F8A00184
:100B400001F0AAFC0AE0601CC4B2322C03DDFFF7FE
:100B5000BDFF002010BD012001F09EFC054880383B
:100B600000680028EFD10349091F08600120F1E760
:100B7000040C0140A4812142008021420146490623
:100B8000084A926942F00102064B9A61064A52688D
:100B900022F0E062044B5A601A4652680A435A60D7
:100BA0007047000000100240000001402DE9F041B4
:100BB00005460C4689480168204603F057FC074665
:100BC00087480168384603F049FB064685480168B6
:100BD000304603F063F983490860834841688348DD
:100BE000006803F043FC06467F488168304603F006
:100BF0003DFC7F4908607C48C06880F00040486048
:100C00007948C06880F0004088607A480068C86011
:100C100008687349096803F021FB064672480168B9
:100C2000304603F03BF970490860714948686C49E7
:100C3000096803F013FB06466B484168304603F031
:100C40002DF9694948606A4988686549096803F06F
:100C500005FB064664488168304603F01FF9624987
:100C600088606349C8685E49096803F0F7FA064678
:100C70005D48C168304603F011F95B49C8605948C6
:100C80000168284603F0F2FB5B4908605B48007886
:100C900003F09CFA064654480168304603F0DEFA39
:100CA000574908605548007803F090FA06464E48C8
:100CB0008168304603F0D2FA524908604F48007804
:100CC00003F084FA07464E480168384603F0C6FA36
:100CD00006464D480168304603F0E0F84B4908608D
:100CE000084601684648006803F046F9484908602C
:100CF000464801684348006803F03EF945490860EA
:100D00003F480068444908603C48007803F05EFAB8
:100D1000064635484168304603F0A0FA3F4908606E
:100D20003D4801683A48006803F098FA06462E48A4
:100D30000168304603F08FFB2B4908603748016893
:100D40003348006803F08AFA06462748416830466F
:100D500003F081FB244948602F4801682D48006852
:100D600003F07CFA064620488168304603F073FBA6
:100D70001D498860294801682648006803F06EFA1A
:100D800006461948C168304603F065FB1649C8603D
:100D9000194801681E48006803F060FA06461148C9
:100DA0000168304603F07AF80E490860124801687D
:100DB0001848006803F052FA0646084801683046B1
:100DC00003F06CF80549086008460168204603F006
:100DD0004DFB13490860BDE8F08100006800002069
:100DE000600000204C0000208C00002054000020F7
:100DF00028010020580000206C0000206400002022
:100E000070000020740000205C00002078000020AA
:100E10007C0000208000002084000020880000204A
:100E20005000002070B5322001F0ACFA0546012DCB
:100E300007D11048007808B9012000E000200D49D2
:100E40000870022D07D10C48007808B9012000E095
:100E500000200949087000F02FF80446012C07D142
:100E60000648007808B9012000E000200349087016
:100E700070BD0000CD000020CE000020FE0000204C
:100E800018B90021094A11600FE009490968491C95
:100E9000074A1160814208D104490968C943054ADB
:100EA000C2F8BC110021024A11607047BC01214206
:100EB000AC000020000021421148008840B91148D0
:100EC000006828B910480088401C0F49088002E0DB
:100ED00000200D4908800C480088C82807DD012043
:100EE000074908800020084908800120704704480D
:100EF0000088012802D10020014908800020F5E780
:100F0000A800002008012142A600002000BFFEE743
:100F10007047000002490143024A11607047000017
:100F20000000FA050CED00E0704700002DE9F041EB
:100F300007460E4614461D462F480088E0B9204655
:100F400001F0E8FA0246284601F0E4FA10441E28AF
:100F500005DA2A480088401C2849088002E0002061
:100F600026490880254800880A2805DD01202249F5
:100F700008800020214908801F48008801281DD1D1
:100F80001F480088401C80B21D490880C82803DD26
:100F900000200880184908801A49384603F02AFAC8
:100FA0000CD21949304603F025FA07D217493046CA
:100FB00003F020F902D202200F4908800E48008871
:100FC000022816D112480088401C80B210490880BF
:100FD000642803DD0020088007490880601901F0BB
:100FE00099FA872805DD0020034908800120BDE823
:100FF000F0810020FBE700004000002042000020BC
:10100000440000200020CB460000A0C10000A04109
:101010004600002070B506460C4615461B48007871
:1010200008B9002070BD1A48008870B919493046C7
:1010300003F0E0F909D21849304603F0DBF804D296
:101040001CB915B9012012490880114800880128EF
:1010500019D112480088401C80B2104908803228FB
:1010600003DD002008800A490880032C0BDD032DD6
:1010700009DD3C2C07DA3C2D05DA00200449088004
:1010800008800120CEE70020CCE70000CD00002042
:1010900048000020000020C1000020414A0000203C
:1010A00029B1064AD2690243044BDA6104E0034ADB
:1010B000D2698243014BDA617047000000100240A0
:1010C00029B1064A92690243044B9A6104E0034A3B
:1010D00092698243014B9A61704700000010024000
:1010E00010B50120164908600F2001F0D5F9002045
:1010F0001449C1F884011448007800F08000E8B178
:101100001148007800F03F00104908600846008848
:1011100000040860084600680D49098808440B4926
:10112000086008460068AA2148434FF47A71B0FB72
:10113000F1F00649086000200349088010BD000056
:101140008481214200802142B0000020F80000206C
:10115000B20000200146022902D0042910D108E083
:101160004FF08042928C10B200224FF080439A845C
:1011700008E0054A128810B20022034B1A8001E0F1
:10118000002000BF00BF7047240800402DE9F05F39
:101190004221D020FFF78CFB05464121D020FFF7EC
:1011A00087FB05EB0024204602F0F8FF82464FF053
:1011B0008E41504603F01EF905D24FF08F41504644
:1011C00003F054F982460D49504602F0D5FE83469D
:1011D00002F038FE80460A4A0A4B02F0BBF8064687
:1011E0000022094B02F01EFB044602F081F8824601
:1011F000504602F0B7FFBDE8F09F00000000AA4390
:10120000A4703D0AD74342400000244030B5034655
:101210000C461546002207E0184600F008F824F8AE
:1012200012009B1C501C82B2AA42F5DB30BD014665
:1012300008887047704710B500F002F810BD000034
:101240000CB50020019000903348006840F48030D5
:101250003149086000BF3048006800F40030009059
:101260000198401C0190009818B90198B0F5A06F42
:10127000F1D12948006800F4003010B1012000903D
:1012800001E0002000900098012843D12348006825
:1012900040F01000214908600846006820F0030073
:1012A00008600846006840F0020008601A4840687C
:1012B000194948600846406848600846406840F45C
:1012C000806048600846406820F47C10486008460A
:1012D000406840F4E81048600846006840F08070BC
:1012E000086000BF0C48006800F000700028F9D0CA
:1012F0000948406820F003000749486008464068F4
:1013000040F00200486000BF0348406800F00C0055
:101310000828F9D10CBD0000001002400020024056
:1013200000B503460A46002B07DA0120164908607B
:1013300000201649C1F8BC0106E0002012490860EF
:1013400001201249C1F8BC01184601F0E3F8104928
:101350000880002A08DA00200B49091F08600120D4
:101360000A49C1F8B00107E001200749091F0860D8
:1013700000200649C1F8B001104601F0CBF804493D
:101380000C31088000BD0000B8812142008021425C
:10139000342C0140042808D14FF0E021096941F0C4
:1013A00004014FF0E022116107E04FF0E0210969EC
:1013B00021F004014FF0E0221161704770470000F6
:1013C00010B51348006840F0010011490860084654
:1013D0004068104908400E494860084600680E49B8
:1013E00008400B4908600846006820F48020086027
:1013F0000846406820F4FE0048604FF41F008860F3
:10140000FFF719FF4FF000600449086010BD0000AD
:10141000001002400000FFF8FFFFF6FE08ED00E0BC
:10142000F0B50C46154600220021068C4FF6FE77DB
:101430003E400684028B018C4FF60C7632407E1CB7
:1014400006EA03162E433243104EB0420ED0104E21
:10145000B0420BD0B0F1804F08D00E4EB04205D054
:101460000D4EB04202D00D4EB04206D14FF6FD7681
:10147000314044F00106314305E04FF6F576314046
:1014800044F00106314302830184F0BD002C014089
:10149000003401400004004000080040000C0040FF
:1014A000F0B50C461546002200210026078C4FF6A9
:1014B000EF7C07EA0C070784028B018C4FF6FF775D
:1014C00007EA041640F6FF473A404FF6FF7707EA6F
:1014D00003373A434FF6FF7707EA05273A43114FA0
:1014E000B8420ED0104FB8420BD0B0F1804F08D0A8
:1014F0000E4FB84205D00E4FB84202D00D4FB84241
:1015000006D14FF6DF77394046F01007394305E042
:101510004FF65F77394044F0100739430283018466
:10152000F0BD0000002C01400034014000040040E8
:1015300000080040000C0040F0B50C4615460022A3
:1015400000210026078C4FF6FF6C07EA0C07078482
:10155000828B018C4FF6FF7707EA04264FF60C7753
:101560003A404FF6FF7707EA03172F433A43114FEC
:10157000B8420ED0104FB8420BD0B0F1804F08D017
:101580000E4FB84205D00E4FB84202D00D4FB842B0
:1015900006D14FF6FF57394046F48077394305E0CE
:1015A0004FF2FF57394044F48077394382830184F6
:1015B000F0BD0000002C0140003401400004004058
:1015C00000080040000C0040F0B50C461546002213
:1015D00000210026078C4EF6FF7C07EA0C070784E3
:1015E000828B018C4FF6FF7707EA043640F6FF47FF
:1015F0003A404FF6FF7707EA05273A434FF6FF7761
:1016000007EA03373A43114FB8420ED0104FB842A1
:101610000BD0B0F1804F08D00E4FB84205D00E4F1E
:10162000B84202D00D4FB84206D14DF6FF7739408F
:1016300046F48057394305E047F6FF57394044F4F4
:101640008057394382830184F0BD0000002C0140A3
:10165000003401400004004000080040000C00403D
:101660004FF08040008A4FF08040008A20F0010057
:101670004FF08041088270472D4908882D4909782C
:1016800001F0800100294ED100F00101D1B12949BA
:10169000097801F04001A9B12649097801F03F011C
:1016A0003F290AD12349098841F08001214A11804C
:1016B0004FF6FF71204A118004E01E490988491C39
:1016C0001C4A118000F0080169B31A49097801F039
:1016D000400199B11749098841F08001154A1180EC
:1016E00013492C310988144A118011491031098895
:1016F00021F400710E4A1032118014E000210D4ACD
:1017000011800D4A11800B49098841F04001094AB6
:1017100011800021064A14321180111F098841F4FA
:101720000071121F11800021014A118070470000D2
:1017300010040040B0000020B200002004480088DF
:101740000348008820F0010001490880704700002C
:1017500010080040CA430282704721B1028842F05B
:101760000102028004E002884FF6FE731A400280F4
:101770007047F0B50C4615461E4600210022002396
:101780000189028B038C4FF6F877394021434FF6DD
:10179000FC473A4040F201173A434FF6DD773B40B1
:1017A0004FF6FF7707EA06172F433B430181028379
:1017B0000384F0BD70B505460C46244885420ED022
:1017C000234885420BD0B5F1804F08D0214885428F
:1017D00005D02148854202D02048854200D100E052
:1017E00000BF208850B92389A28861882846FFF766
:1017F00017FEE188284600F047F825E020880428F5
:101800000AD12389A28861882846FFF749FEE1882A
:10181000284600F042F817E0208808280AD12389DA
:10182000A28861882846FFF787FEE188284600F0F5
:1018300041F809E02389A28861882846FFF7C4FEA1
:10184000E188284600F03FF870BD0000002C014000
:10185000003401400004004000080040000C00403B
:10186000002101804180012181800021C18001810E
:1018700070471AB183890B43838102E083898B43CC
:101880008381704781847047028B4FF6F3731A404F
:101890000283028B0A4302837047028B4FF2FF33AD
:1018A0001A400283028B4FF6FF7303EA01231A43A7
:1018B00002837047828B4FF6F3731A408283828BC8
:1018C0000A4382837047828B4FF2FF331A40828330
:1018D000828B4FF6FF7303EA01231A43828370471A
:1018E000002202881D4B98420ED01D4B98420BD00F
:1018F000B0F1804F08D01B4B984205D01A4B98424C
:1019000002D01A4B984204D14FF68F731A404B887D
:101910001A43174B984207D0164B984204D04FF603
:10192000FF431A40CB881A4302808B8883850B883B
:1019300003850A4B98420BD0094B984208D00E4BB6
:10194000984205D00D4B984202D00D4B984201D1E0
:101950000B7A03860123838270470000002C01402C
:10196000003401400004004000080040000C00402A
:1019700000100040001400400040014000440140BD
:10198000004801404FF6FF71818000210180C18035
:10199000418001727047000070B505460F49284626
:1019A00002F028FC08D30E49284602F023FD03D399
:1019B0000C48007801280DD1012400200A49086054
:1019C0000A49C1F8B8010849083908600749C1F84F
:1019D000B00100E00024204670BD0000000020C2DD
:1019E00000002042CD000020BC8121420080214225
:1019F0002DE9FF5F40F22551D54800F0D5F90028C8
:101A000076D0D34800F0FAF9D24908600846007849
:101A1000D1490870CF480068592802D10220CF4927
:101A20000870CC480068582802D10120CB490870C2
:101A3000C84800680A2865DDC64800685A2809D1E8
:101A40000020C7490870C7490870C7490870C749CE
:101A5000087057E0BF48006841280AD10120C049FA
:101A600008700020BF490870BF490870BF4908705E
:101A700048E0B848006845280BD10020B8490870F4
:101A80000120B84908700020B7490870B7490870AC
:101A900038E0B0480068422807D0AE4800684328C4
:101AA00003D0AC48006844280AD10020AC49087033
:101AB000AC490870AC4908700120AC49087021E0BD
:101AC000A4480068462807D0A2480068472803D0E9
:101AD000A048006848280CD10020A1490870A149FD
:101AE00008700120A04908700020A049087009E092
:101AF00007E100209A4908709A4908709A490870CD
:101B00009A490870934800680A2865DA01209349C9
:101B100008709048006848B90020914908709149C0
:101B20000870914908709149087055E0894800682B
:101B3000012809D18A49087000208A4908708A4919
:101B400008708A49087047E08248006805280BD170
:101B500000208349087001208249087000208249D2
:101B600008708249087037E07A480068022807D078
:101B700078480068032803D07648006804280AD112
:101B8000002077490870774908707749087001206C
:101B90007649087020E06F480068062807D06D4835
:101BA0000068072803D06B48006808280BD1002084
:101BB0006B4908706B49087001206B490870002060
:101BC0006A49087008E00020654908706549087096
:101BD00065490870654908705F4800787B2802D124
:101BE0000120634908705C4800787D2802D10220FA
:101BF0005F4908705E48007801280AD1564800788D
:101C00005C495D4A127888545B480078401C5A4908
:101C1000087057480078022873D15748007802F0BE
:101C2000D5FA564908605348C078502803D101209E
:101C3000534908707CE04F48C078572803D10120F1
:101C40005049087074E04B484078232870D04A48C7
:101C500000784D49087034E0474909784A4A1278BB
:101C6000881A01F08BFD804642460B46002047490A
:101C700000F058FC04460D4643490978491E3D4A88
:101C8000515CA1F1300001F079FD064622462B4659
:101C900001F0C8FD82468B463D48006802F0D2F84C
:101CA00052465B46CDE9000101F054FBCDE902014B
:101CB00001F01EFB3649086033480078401E324967
:101CC0000870314800780428C6DA2A48407830384D
:101CD00009282CD2DFE800F0050D161E262728293A
:101CE0002A002C492A48006802F046F92A4908606F
:101CF0001DE028492648006802F03EF9274908609F
:101D000015E022E023492248006802F035F9244911
:101D100008600CE01F491E48006802F02DF92149B7
:101D2000086004E003E002E001E000E000BF00BF63
:101D300000200F49087010490870134908701449B1
:101D4000086032210B48FEF740FABDE8FF9F000013
:101D500000480040B8000020B4000020CC00002063
:101D6000C8000020C9000020CA000020CB000020CD
:101D7000BC00002038010020BD000020F40000203D
:101D8000FF00002000010020BE00002000002440D1
:101D9000C00000200000C84204010020080100200B
:101DA0000C0100201001002070B502460024002321
:101DB0000025002040F66A16B14200D100BFC1F3F1
:101DC000421501F01F03012606FA03F3012D02D18B
:101DD0009689334006E0022D02D1168A334001E095
:101DE000968A33400C12012606FA04F41688344011
:101DF00013B10CB1012000E0002070BD01468888BD
:101E0000C0F30800704700BFFEE7000041F6F42071
:101E100017490978012904D1164909686439154A16
:101E2000116015490978012904D114490968643100
:101E3000124A11600F4909684242914202DA414256
:101E40000C4A11600B490968814201DD09490860AB
:101E50000A4909684242914202DA4142074A116046
:101E600006490968814201DD0449086070470000A5
:101E7000C8000020D8000020C9000020DC0000209D
:101E8000490050EAC12018BF04204A0D18BF40F095
:101E9000010040F2FF72B2EB515F08BF40F0020058
:101EA000012808BF052070472DE9F0414F1E00EBC7
:101EB000C7010446D1E9000115461E4637F0060267
:101EC0000DD02A46334601F0ADFC7F1E04EBC7035C
:101ED000D3E9002301F03EFA37F00602F1D1022FD8
:101EE00025D0042F13D0062F18BFBDE8F0812A4655
:101EF000334601F097FCD4E90A2301F02BFA2A4675
:101F0000334601F08FFCD4E9082301F023FA2A4676
:101F1000334601F087FCD4E9062301F01BFA2A4678
:101F2000334601F07FFCD4E9042301F013FA2A467A
:101F3000334601F077FCD4E9022301F00BFA2A467C
:101F4000334601F06FFCD4E90023BDE8F04101F015
:101F500001BA0000002213461046014901F0B6BA4A
:101F60000000F03F012202F028BB01F0F3B900228B
:101F700013461046114601F0A9BA40F20132002082
:101F80004FF0E04102F019BB024A0020110702F0B5
:101F900014BB000001FDFFFF00BF70472DE9F84FA3
:101FA00004460D4621F0004000917349814211DC46
:101FB0007249884201DC06D12CB120462946BDE891
:101FC000F84FFFF7CFBF6E48002DCCBF6D496E496B
:101FD000BDE8F88F6D49814211DD6D498142D8BF5E
:101FE0004FF0FF366DDD20462946FFF749FF0428F4
:101FF00008BFFFF7C9FF20462946BDE8F88F6549AD
:10200000654F25F00045814233DD6449814219DD89
:10201000002632464FF080432046294601F09AF9C7
:1020200080468A4601222046294602F0C6FA00224E
:102030003B4601F01DFE4246534601F047FA044676
:102040000D463EE001260022BA463B462046294680
:1020500001F080F980460F4600225346204629466B
:1020600001F006FE42463B4601F030FA04460D46BA
:1020700027E04B4981421BDDDFF828A10226002220
:1020800053462046294601F0CDFB00223B4601F095
:1020900061F980460F46002253462046294601F04A
:1020A000E7FD42463B4601F011FA04460D4608E0C2
:1020B000032622462B4600203B4901F007FA04463E
:1020C0000D4622462B461046194601F0ABFB8B46C7
:1020D000824602460B4601F0A5FB074602463348FE
:1020E00088460B4606217844FFF7DEFE52465B46E3
:1020F00001F098FB82462E488B463A46434605211E
:102100007844FFF7D1FE3A46434601F08BFB024686
:102110000B46002E504659460CDA01F01BF92246B8
:102120002B4601F07FFB01B022462B46BDE8F04F65
:1021300001F0ACBC01F00EF922462B4601F072FB17
:102140001C4A7A4402EBC603D3E9002301F090FD58
:1021500022462B4601F08CFD174A7A4402EBC60357
:10216000D3E9002301F092FC009A002AB8BF81F065
:102170000041BDE8F88F0000000010440000F07F2F
:10218000182D4454FB21F93FFB21F9BF0000DC3F2F
:102190000000203E0000F33F0000F03F0000E63F5B
:1021A000008003400000F83F0000F0BF4E26000012
:1021B0000C260000AA250000722500002DE9F04D34
:1021C0009446CCF1000423F000464CEA0404524F3C
:1021D00046EAD4749A46884621F00042BC4206D8AA
:1021E000454240EA050442EAD474BC4204D9BDE841
:1021F000F04D6246FFF7B9BEAAF14055A5F17F65E3
:1022000055EA0C040BD0022404EAAA74434DDFF80B
:1022100010E144EAD87452EA000B04D00CE0BDE8A7
:10222000F04DFFF7BBBE002C14BF012CBDE8F08DB4
:10223000022C30D0032C32D056EA0C0B0AD0BE420E
:1022400020D1BA4209D126F0804622F0804233469E
:10225000114617E000291ADB25E0DFF8C8B0FB447F
:10226000002C04BFDBE90001BDE8F08D012C02BFAA
:10227000DBE9000181F00041BDE8F08D022C0AD0BD
:10228000032C0CD0BA4212D1B8F1000F0BDA23485C
:102290002549BDE8F08D28462449BDE8F08D284643
:1022A0007146BDE8F08D1D482149BDE8F08D921BB7
:1022B00012153C2AC4BF19481D490EDCBAF1000FA3
:1022C000BEBF12F13C0F0020014606DB624601F062
:1022D000FDF821F00041FFF761FE002C08BFBDE8CA
:1022E000F08D012C04BF81F00041BDE8F08D114A52
:1022F000114B022C07D001F0BBFC2A46BDE8F04D83
:102300000A4B01F0B5BC01F0B3FC2A46BDE8F04D24
:10231000064B01F0BBBB00000000F07F182D4454B9
:10232000FB2109C006250000FB21F9BFFB21094064
:10233000FB21F93F075C143326A6A13C2DE9F047A9
:1023400005460C460021284602F090F880460B48CE
:102350000168204601F082FF814641460848006836
:1023600001F07CFF8246494601F098FD074601F0E6
:10237000F9FE06463046BDE8F0870000080100205F
:102380000401002001462D48006828B92C48008827
:10239000401C2B4A108002E00020294A1080274868
:1023A000006828B92748007810B90120254A107024
:1023B00025480078B0B923480078012807D1234880
:1023C0000078401C214A107001201F4A10701F48DD
:1023D0000078022806D100201C4A10701C4A108088
:1023E0000220704715480068012804D10020154AD2
:1023F0001070154A10701548007801281CD1144837
:102400000088401C124A10801046008888420ADD6D
:102410000B480088884206DA00200C4A10700C4AEB
:1024200010800120DDE706480088884204DD002096
:10243000064A1070064A10800020D2E708012142A7
:10244000A20000209C0000209D0000209E00002093
:10245000A000002010B56FF00400FEF79BFF0A48B3
:1024600000680A49B0FBF1F0094908700846007895
:1024700000EB4001C1EBC0104FF6FF7101EAC00054
:102480000449088010BD00001401002000127A00E9
:10249000C4000020C60000200146114A12784A43B9
:1024A0004FF0E0235A6100229A611A46126942F005
:1024B00001021A6100BF4FF0E022106900F0010232
:1024C0001AB100F48032002AF5D04FF0E0221269F0
:1024D00022F001024FF0E0231A6100229A61704756
:1024E000C40000204FF4A060FEF714FD0220FEF7A8
:1024F00045FB0120FEF742FBFFF7ACFFFDF7CEFFE7
:1025000004E00220FEF726FE01490860F9E700001A
:10251000D00000200146002901DA484200E00846C8
:10252000704700002DE9F04D1D460C4698B0174647
:1025300021F0004123F00043002814BF4FF0010CAC
:102540004FF0000C0CEB440CFE4A0CEB02064FEA79
:10255000620C66452BD33E0018BF012606EB4506EC
:102560001644F94A964222D3F84A53EA070C02D09D
:10257000944205D148B918B000201146BDE8F08D4D
:10258000002808BF4FF0000C01D04FF0010C0CEBFD
:10259000440212F5001F0AD8002F14BF4FF0010C9F
:1025A0004FF0000C0CEB450212F5001F07D918B0D4
:1025B0003A462B462146BDE8F04DFFF7D6BC002237
:1025C000DFF88CA3002CB8BF534526DADFF884C3AC
:1025D0006345A8BF022220DADFF870C39C451CDCEB
:1025E000DFF874C30CEB235CBCF1140F08DDCCF1F5
:1025F000340627FA06FC0CFA06F6BE420DD108E0B6
:102600005FB9CCF1140623FA06FC0CFA06F69E42DA
:1026100003D10CF00102C2F1020251EA000C19D1FF
:10262000002D17DA002C18BF022A01D0012A07D08A
:102630000220FDF7F5FD18B0BDE8F04DFFF78ABCAC
:102640000220FDF7EDFDFFF785FC18B081F0004199
:10265000BDE8F08DB7F1000C6CD1534525D104F1E4
:10266000804212F5801201BF00280020B74918B03F
:1026700008BFBDE8F08DB548884207DC002DA1BF3A
:102680006046294618B0BDE8F08D07E0281E05DA3F
:1026900080F0004118B06046BDE8F08DAF49794444
:1026A000D1E9000118B0BDE8F08DDFF8A0C26345A4
:1026B00025D1002D1FDA19B1514512D1D8B909E041
:1026C000002840F0EC82A24A214618B062F31E01B5
:1026D000BDE8F08D0020214618B060F31E01BDE872
:1026E000F08D08DA18B02346BDE8F04D0246002010
:1026F000614600F0EBBE18B02146BDE8F08D5145B3
:1027000018DAB5F1804F0DD0A5F1005CBCF1FF5C8B
:1027100010D1B4F1000C0DDB18B06146BDE8F04DEE
:1027200000F0ECBB234618B00246BDE8F04D194658
:1027300001F078B8060024F0004C3BD1D9B15145E6
:1027400033D1002C06DD002DA1BF0020514618B06A
:10275000BDE8F08D002C01DD002D1BDB002C13DA11
:10276000002D11DB012A4FF0000014BF78497C498D
:1027700018B0BDE8F08D022A18BF002C0AD0012A3B
:1027800008D1002C06DA0AE0002CB8BF002D11DABF
:10279000012A04D0002018B00146BDE8F08D18B021
:1027A00000204FF00041BDE8F08DA1F14050B0F1A4
:1027B0007F601AD0012000EBE47050EA020421D0BF
:1027C000624C521E4FF0000B104304BF4FF0000B41
:1027D000644C654883427CDD644A654893421FDD52
:1027E000884217DB002D25DB37E0002C00DA4AB1E8
:1027F000022A0CBF01204FF0FF3018B0BDE8F04DA9
:1028000000F0BCBF0120FDF70BFD18B0BDE8F04D96
:10281000FFF7ADBB4D4A8A4202DC002D0ADC1CE00A
:10282000814202DA002D18DA04E0484B994220DD9B
:10283000002D12DD0220FDF7F3FCFFF79EFB05469D
:102840000E46002253465846214600F0EBFF18B0D2
:1028500066F31E012846BDE8F08D0220FDF7E0FC7E
:10286000FFF792FB0A46214618B062F31E01BDE84D
:10287000F08D00223046614601F0FAF980460E469E
:102880006FF0010201F099FE4FF05532394B01F023
:10289000FDF84246334600F0C5FF0022364B01F0FA
:1028A000F5F882464246334604911046194600F038
:1028B000B9FF5246049B00F0B5FF8A4600904FF0E6
:1028C000C0422E4B4046314600F0ACFF2C4A2B4B09
:1028D00000E027E0CDE906015146009800F0A2FF94
:1028E00082460191274A284B4046314600F09AFF24
:1028F0005246019B01F0BCF982460B460246059107
:10290000DDE9060100F026FDDDE906230026884604
:10291000304601F0ADF95246059B01F0B7F802468A
:1029200000F07EB90020B1F5801F07DA352230466D
:10293000614601F042FE06466FF0340000EB215084
:1029400024E00000FFFF1F00FFFF0F000000F03F2A
:102950000000F07F0000404301FCFFFFC6200000A4
:102960000000F0FF0000F0BF0000E0410000F04375
:10297000FFFFEF3F5555D53F0000E03F4715F73FBC
:10298000FE822B6544DF5DF80BAE543EA0F2FF30B3
:102990000190C1F3130040F07F6141F0405102917A
:1029A000FE498842D8BF002004DDFD498142C8BFEE
:1029B000012001DD0D9008E000200D900198401CE1
:1029C00001900298A0F5801002900299F548784491
:1029D0000B910D9900EBC100D0E900230F93304615
:1029E0000A920B9901F044F9CDE90601DDE90A21CB
:1029F00030460F9B00F0AEFC02460B460020EA4931
:102A000000F064FD059102460B460090DDE90601E9
:102A100000F008FF1490E5488A464FF0000878441B
:102A20000299006812904FF0005040EA61010D9841
:102A30000F9B01EB804000F5002109910A9A129842
:102A400001F016F932460B9B01F020F8424653463E
:102A500000F0E8FE0646029140465146099B129A54
:102A600000F0E0FEDDE9062301F010F83246029B9B
:102A700001F0FEF8059B009A00F0D4FE0091149A34
:102A8000049053461046194600F0CCFE0646024616
:102A9000C7480B46029106217844FFF705FACDE9B5
:102AA0000510029B32461046194600F0BBFEDDE9D8
:102AB000053200F0B7FE05910646534640461946DA
:102AC000149A00F047FC009B049A00F0ABFE3246DB
:102AD000059B00F03FFCCDE90510424653461046E9
:102AE000194600F09FFE0022B24B02910A9000F0BE
:102AF00031FCDDE9053200F02DFC0E464246AD4BBF
:102B0000404601F0B5F8029B0A9A01F0B1F8DDE900
:102B1000053200F0BBFF424602910A903346104650
:102B2000514600F07FFECDE906015346149A029902
:102B30000A9800F077FE8A46029033464246009992
:102B4000049800F06FFE5346029A00F003FC8246A0
:102B50000B4602460591DDE9060100F0FBFBDDE9CD
:102B6000062300208846064601F082F85246059B5F
:102B700000F08CFF824609914FF060428E4B304648
:102B8000414600F04FFE049006918C4A8A4B504615
:102B9000099900F047FE82460291894A894B3046E6
:102BA000414600F03FFE5246029B00F0D3FB864BAD
:102BB0007B440D9A03EBC203D3E9002300F0CAFB68
:102BC0000E900791019800F0D9FD0591DDE90613FB
:102BD00082460E9A049800F0BDFB7C4A7A440D9B15
:102BE00002EBC303D3E900230093029200F0B2FB8F
:102BF0005246059B00F0AEFB002688465246304602
:102C0000059B01F035F8009B029A01F031F8069B14
:102C1000049A01F02DF8079B0E9A00F037FF024648
:102C200000200B4602903846294600F0FBFD824604
:102C300001912B4638461946029A01F019F832469E
:102C4000434600F0EFFD5246019B00F083FB074630
:102C50008A46324643462946029800F0E3FD05467F
:102C60000E463A46534600F075FB594A8846914253
:102C700021DBA8EB020353EA000210D12A463346B7
:102C800000F0F6FFCDE90401524A534B3846514655
:102C900000F060FBDDE9042300F0C2FE21D2022037
:102CA000FDF7BEFAFFF769F90A46214618B062F34C
:102CB0001E01BDE8F08D494B28F000429A4210D326
:102CC000474A08EB020353EA00027FF4C6AD2A46E6
:102CD000334600F0CDFF3A46534600F0A1FE7FF6A2
:102CE000BCAD0022019228F000403E493E4A01EB73
:102CF0002051824223DA481C4FF4801121FA00F05F
:102D000040443A4AC0F30A517A44394BA1F2FF31A8
:102D1000CB4020EA0303C0F3130040F48010C1F15C
:102D20001401C84012680190B8F1000FBCBF4042C6
:102D300001902846314600F09BFF05460E462A4684
:102D400033463846514600F005FB4FF00008424636
:102D5000284B4046059100F065FDCDE90601264A65
:102D6000264B4046059900F05DFD009102902A46F1
:102D700033464046059900F07BFF3A46534600F043
:102D800085FE1F4A1F4B00F04DFD009B029A00F08C
:102D9000E1FA0746884602460B4635E08E98030066
:102DA0007AB60B00761C00000000F03F461D0000C4
:102DB000DC1B00000000084009C7EE3FFD033ADCC1
:102DC000F5015B14E02F3EBEB41A0000781A000033
:102DD00000009040FE822B654715973C00CC904048
:102DE00000346F3F01FCFFFF0000E03F5C1A000071
:102DF000FFFF0F00432EE63F396CA80C615C20BE3C
:102E0000EF39FAFE422EE63FDDE9060100F0A2FAB4
:102E1000DDE9062305460E4600F02AFF3A46434602
:102E200000F034FE0F462A463346009010461946FD
:102E300000F0F8FC824602462E4888460B460521E3
:102E40007844FFF731F85246434600F0EBFC2A463F
:102E5000334600F01BFE80468A463B4628463146F4
:102E6000009A00F0DFFC3B46009A00F073FA0691EE
:102E7000009000224FF080434046514600F0F8FE9B
:102E80000F460C90424653462846314600F0CAFC95
:102E90003B460C9A00F01AFB069B009A00F0E8FEF5
:102EA0002A46334600F0E4FE0022134B00F0EEFD0C
:102EB000054601980E4601EB00510815002810DC6C
:102EC00028463146019A01F078FBFEF7D9FF042825
:102ED00008BFFFF759F828463146019A01F06DFB0B
:102EE00005460B4618B02A4658462146BDE8F04D27
:102EF00000F098BC641800000000F03F2DE9F0419C
:102F000006460F4600F0CEFD041E0D4618BF0120F8
:102F1000284320F00040C0F17F6000F1E040C00F86
:102F20000ED0301C18BF0120384320F00040C0F103
:102F30007F6000F1E040C00F04BF0120FDF770F991
:102F400020462946BDE8F0812DE9F84F05460E469A
:102F5000914654480078582191FBF0F7384601F02B
:102F60001DF90446DFF840A14FF0000B4F480078F0
:102F7000012803D04E480078012834D14FF07E510B
:102F80004C48006800F08AFF4A49074608604FF045
:102F90007E5101F0B3F807D1A819FFF7BBFA074635
:102FA00001F0FCF84449086043480168434800F0D8
:102FB000E3FF434908600846006800F043FF074606
:102FC0004FF033323F4B00F0F1FB02D23E483C4918
:102FD00008603E493A48006801F00CFA0BD23B48C1
:102FE0003749086007E03A48354908600020314910
:102FF0000860314908602D480078012808D1304820
:1030000001683448006801F031FA324908600FE085
:1030100027480078012808D1294801682D48006810
:1030200000F03CFF2B49086002E0002029490860BD
:1030300021462848006801F0DDF901D225480460E6
:1030400084F0004723480168384601F0D3F903D2E1
:1030500084F000401F4908601F480078012803D011
:103060001E480078012802D14FF07C5B01E04FF050
:10307000000B5946484601F0F1F8009015480068E9
:1030800080F000485146404601F0E8F807460099B4
:1030900001F0ECF9124908600846006801F062F896
:1030A000BDE8F88FCC000020000028C2CA00002034
:1030B000CB0000203C0000203400002000004842EB
:1030C000380000203333E33F9A99193F0000404015
:1030D0006666663F2C000020C8000020C900002062
:1030E000300000202DE9F05F67480078012807D103
:1030F00066480078012803D165486649086002E007
:103100006548644908606548007801280CD15F482B
:10311000007801F05BF8044621465E48006800F044
:103120002BFF5F49086016E05E48007801280FD148
:103130005648007801F04AF805465648006880F085
:1031400000442946204600F017FF5549086002E078
:103150000020534908604C48007801281BD1524890
:103160000068B0F5FA7F16D250480078012812D0D6
:103170004F48007801280ED04448007801F026F826
:1031800005464448006880F000442946204600F087
:10319000F3FE4349086047490968474A12681144E9
:1031A000084600F0FBFF454908604548006800F00C
:1031B00049FE0646434A444B00F034FB044600F007
:1031C00097F83F4908603D48006800F03BFE8046A4
:1031D0003C4A3E4B00F026FB04460D46384800684A
:1031E00000F030FE064622462B4600F0B3F8824639
:1031F00000F07EF8324908600846016834480068EB
:1032000000F04CFE324908602548016830480068EB
:1032100001F02CF92E4908602E492D48006801F074
:10322000E9F802D22B482A4908602B49284800684F
:1032300000F0E0FF02D228482549086027480168CD
:103240002348006801F00AF80446254801681C4834
:10325000006801F003F80546214600F01FFE2149F1
:10326000086021480068FEF797FB012803D01F483B
:103270000078012802D1002015490860194800682B
:1032800000F070FFBDE8F09FFE000020CC000020A1
:10329000000034422800002000008242C8000020C4
:1032A00020000020C9000020F8000020CA000020F3
:1032B000CB000020D0000020D40000201800002007
:1032C0001C0000209A9999999999E93F9999C93FC9
:1032D0002400002000401C4600401CC610010020B5
:1032E0000C01002014000020E4000020CD0000208C
:1032F00021F00042A2F16052B2F5801F01F00043BC
:1033000028BFD2F17F6C0BD95FEA001C43EAC202EE
:1033100042EB507018BF704728BF20F00100704783
:10332000B2F5801FBCBF184670474FEA410C1CF530
:10333000001F02D2084601F058B870B500F01CFB1F
:1033400000000089FFF7F6BF4FF00040A0F58000B5
:103350007047000010B591EA030F48BF83F00043A7
:1033600000F18E84841A71EB030C05D2121943EB21
:103370000C03001B61EB0C01DFF824E14FEA115450
:10338000A4EB135C1EEA430F18BF9EEA445F73D0A0
:1033900023EA0E03DCF1200E21EA045143F48013EA
:1033A00032D322FA0CFE10EB0E0023FA0CFE41EB96
:1033B0000E01CCF1200E03FA0EFE10EB0E0051F1BF
:1033C0000001B1F5801FCCF1200E32D201EB045187
:1033D00012FA0EF2BDE8104058BF7047401C38BFCB
:1033E0005FEA420218BF7047002814BF20F00100B6
:1033F00041F100014FEA410313F5001F38BF704748
:10340000A1F1C04100F006BB012A43EB0302ACF17D
:10341000200CDCF11F0E32BF4FF0000E23FA0CF32C
:1034200010EB030041EB0451B4EB115FD0D0A1EBE2
:10343000045101F5801149085FEA300001EB0451A5
:103440000ED350F1000038BF12FA0EFE08D1BDE8CD
:103450001040C9E7401C38BF5FEA4202CAD1C3E747
:10346000BDE810404FEA410313F5001F38BF704715
:10347000A1F1C04100F0CEBA9EEA445F08D011EA43
:103480005E0FBDE8104004BF01F00041002070470E
:10349000BDE8104070B500F06FFA00BF64FBBE3E9F
:1034A0000000E0FF02494FF0000001F054B800BFF7
:1034B0000000F87F491058BFC1F140415B1058BF70
:1034C000C3F140438B42EFF3008070472DE9C041C8
:1034D00030B4DFF8A0C23CEA111418BF3CEA131460
:1034E00000F0EC8081EA03051CEA111444EAD5746B
:1034F00018BF1CEA131500F0C780A4EB05044FF0B9
:10350000004545EAC12145EAC32341EA505143EA57
:10351000525304F17F74994204F500344FEAC020FD
:103520004FEAC22208BF904200F09C804FEA136528
:103530000FF24016765D4FEA134506FB05F7C7F11B
:10354000807706FB07F74FEAD737A7FB0368764279
:10355000C8F58038A7FB06CE38BFA8F1010807FBE5
:1035600008E64FF0000EA6FB028CE6FB03CEDCF172
:10357000000CCEF1004E38BFAEF1010EA6FB0C5888
:103580004FF000074FF00005E6FB0E87A1FB08C6D1
:10359000A0FB07CE16EB0E0645F10005E1FB076523
:1035A00015F1E04E7EBFA4F580345FEA46066D411A
:1035B00016F1800745F100054FEA17274FEA066626
:1035C00047EA0567A6F1DE46B6F1805F4FEA1525AA
:1035D0001FD9384624F0010C05EBC471BCF1FE6F15
:1035E00001EB0C1102D8F0BCBDE8008124425CBFA5
:1035F00001F5801E9EEAC47F02D4F0BCBDE80081C4
:10360000244238D4F0BCA1F1C041BDE8004100F033
:1036100001BA4FEAD22242EA43524FEAD323A7FB30
:1036200002864FEAD02040EA415007FB03661EEABB
:103630000E0F4FEAD12105FB026658BFA6EB0056DC
:10364000B6EB00564FEA520E4EEAC37E18EB0E0E52
:1036500056EB530EBDD518EB02085E417F1C55F1A9
:103660000005B6E74FF480154FF000074FF0000655
:103670004FF00008ADE7F0BC4FF0000001F1C04191
:1036800001F00041BDE8008111EA0C1F0CEA13159E
:1036900000D00CE013EA0C1F00F025804FF0000072
:1036A000F0BC81EA030101F00041BDE80081F0BCFB
:1036B000BDE8004181EA030100F0ACB9F0BCBDE80F
:1036C000004170B500F058F9097EFC3E00F007B8E3
:1036D00081EA03014FF0000001F00041704781EAE8
:1036E000030100F097B9F0BCBDE800414FF00000C5
:1036F00021497047FFFDFBF9F7F5F4F2F0EEEDEB31
:10370000E9E8E6E4E3E1E0DEDDDBDAD8D7D5D4D3DF
:10371000D1D0CFCDCCCBCAC8C7C6C5C4C2C1C0BF2B
:10372000BEBDBCBBBAB9B8B7B6B5B4B3B2B1B0AF31
:10373000AEADACABAAA9A8A8A7A6A5A4A3A3A2A115
:10374000A09F9F9E9D9C9C9B9A99999897979695D0
:1037500095949393929191908F8F8E8E8D8C8C8B6C
:103760008B8A8989888887878685858484838382F4
:10377000828181800000FF070000F87F10F0004286
:1037800048BF4042B0FA80F310FA03F10AD0C3F107
:103790001D0303F580634FEA415002EB035202EB35
:1037A000D12170474FF000007047000051EA030C30
:1037B00017D41CF5801F58BFBCF5801F00F1068090
:1037C000994218BF704708BF9042704707D711F55C
:1037D000801F58BF13F5801F19D499427047894242
:1037E00070471CF5801F08D5BCF5801FF7D58B42AC
:1037F00018BF704708BF824270474FF4001C1CEB93
:10380000410F38BF1CEB430F01D28B42704770B59C
:1038100000F0B2F8922449004FF000514FF080536D
:10382000FFF748BEDFF848C170B51CEA111E1EBF85
:103830001CEA13159EEA0C0F95EA0C0F00F06F803E
:1038400081EA030423EA4C134EEAD47E21EA4C11A8
:1038500041F4801143F48013AE44A1FB024CA0FB61
:103860000365AEF17F7E361955EB0C05A1FB034CC9
:103870004CF10003A0FB021C16EB0C06654153F152
:103880000003094218BF46F0010613F4007F0BD174
:103890004FEA03314FEA0530340341EA155140EA5B
:1038A00016506FF003020AE04FEAC3214FEAC52029
:1038B000F40241EA555140EA56506FF0020202EB21
:1038C0002E4201EB025585EACE710AD05FEA440C24
:1038D00018BF24F0004450F1000041F1000120EA3B
:1038E000D47040F2FE7C624500D270BDA84214BF85
:1038F0004FF080444FF04044002E08BF0024BEF13A
:10390000806FA8BFA1F1C041BDE8704080F2828005
:103910004FF0000001F1C04101F0004170479EEA04
:103920000C0F0CEA131518BF95EA0C0F06D04FF0D8
:10393000000081EA030E0EF0004170BD00F01CF89B
:103940008900013E00F007B800F009B84FEA430CC7
:103950005FEA5C5C08D081EA030100F05BB84FEAE3
:10396000410C5FEA5C5CF6D14FF000000149704702
:103970000000FF070000F87F0EF1020E2EF0030E8C
:103980005EF8046B364205D4012A43EB030515F5B6
:10399000001F12D8012841EB010C1CF5001F0CD8A8
:1039A0000ED14FEAD17C15F5001F0CEB4C0C0CF13D
:1039B000020C08BF4CEBD37C04E04FF0080C01E094
:1039C0004FEAD37C0CEB4C0526FA05F606F0070609
:1039D000B6F1040C06D20EEB860CBDE870404CF03C
:1039E000010C6047DFE80CF0090B02024FF00041C8
:1039F0004FF00000A1F5002170BD194610460128C6
:103A000051EB010418BFD4F5001484BF002001F06D
:103A1000004170BD0808A0F500114FEA3101704760
:103A200053EA010C17D41CF5801F58BFBCF5801F4A
:103A300000F106808B4218BF704708BF8242704772
:103A400007D713F5801F58BF11F5801F19D48B427B
:103A500070479B4270471CF5801F08D5BCF5801F3E
:103A6000F7D5994218BF704708BF904270474FF48E
:103A7000001C1CEB430F38BF1CEB410F01D29942D5
:103A800070470FB40CBC03BCFFF7C1BE91EA030F33
:103A900010B581F000413FF565AC83F0004300F0C4
:103AA000EFB800002DE9F04101F5801CBCF5001FC6
:103AB000C0F2C3804FEA115C21EA0C510CF1FD0CFD
:103AC00041F480115FEA5C0C0CF5C07C01D340002E
:103AD00049413DA4890241EA905187028E0E0A0CA9
:103AE000A45D04FB04F602FB06F6C6F14046A4FB07
:103AF0000662F60D46EA422606FB06F4A4FB012305
:103B00005242C3F1404338BF5B1EA6FB0242002471
:103B1000E6FB0324D20B42EA4446A6FB0623A1FBA4
:103B200002E2A3FB07E4A4184FF0000252F10002E6
:103B3000E3FB01426442C2F1404E38BFAEF1010ED8
:103B4000A6FB04234FF00002E6FB0E32A2FB034665
:103B50004FF00004B61954F10004E2FB0264A1FB2B
:103B600006E6A4FB07E816EB08064FF0000858F13C
:103B70000008E4FB01687642C8F1405838BFA8F15C
:103B80000108A2FB06E4A3FB08E52D194FF0000491
:103B900054F10004E2FB0854A1FB05E6A7FB04E88E
:103BA00018EB06084FF0000656F10006E1FB04860C
:103BB00018F1200556F10006A809A8F11B08B10963
:103BC00008F03F08B8F10A0F40EA86601CD901EB03
:103BD0000C51BDE8F08100BFFCF5EEE8E2DDD8D382
:103BE000CFCBC7C3C0BDB9B6B4B1AEACA9A7A5A36E
:103BF000A19F9D9B9A9896959392908F8D8C8B897F
:103C00008887868584838281A0FB006800FB01F29F
:103C100008EB4208B8EB872807D5341858EB0104A5
:103C2000D5D5401C51F10001D1E7341A78EB0104DD
:103C3000CDD4401E71F10001C9E75FEA4C0C5FEA88
:103C40009C5C0DD105D34FF0000001F00041BDE8B0
:103C5000F081BDE8F04170B5FFF78EFE6DDBFFBE71
:103C6000BDE8F0414FF00000004970470000F87FC8
:103C700010B591EA030F48BF83F000433FF572ABE4
:103C8000841A71EB030C07D212198CF0004C43EB31
:103C90000C03001B61EB0C01DFF8A4E14FEA1154A7
:103CA000A4EB135C1EEA430F18BF9EEA445F00F0CA
:103CB000B08023EA6E03524221EA0451C3EB6E0343
:103CC00038BF5B1EDCF1200E25D322FA0CFE10EB70
:103CD0000E0043FA0CFE41EB0E01CCF1200E03FA6C
:103CE0000EFE10EB0E0051F10001CCF1200E29D494
:103CF00012FA0EF201EB0451BDE8104058BF7047B4
:103D0000401C1CBFB2F1004F704700280CBF491C7B
:103D100020F00100704712EB020E43EB030218BFC4
:103D20004FF0010E4EEA4202ACF1200CDCF11E0E07
:103D300054D943FA0CFE10EB0E0051F1FF31CCF1D7
:103D40001E0ED5D50EF1010E12FA0EFE404141EBCA
:103D5000010101EB445C5FEA5C5C10D910EBDE70A2
:103D600001EB045138BFBEF1004FBDE8104018BF51
:103D7000704700280CBF491C20F00100704730D26A
:103D80004FEAD42C11F5001124F400641BD0B1FAD1
:103D900081F20B3AA41AA41ED2F12003914030FA0A
:103DA00003F31943904001EBCC71002C01EB04515B
:103DB000BDE81040A8BF704701F1C0414FF00000BE
:103DC00001F000417047B0FA80F310FA03F100D11E
:103DD00010BDE41A173C4805C90AE4E701EB045199
:103DE00010BD491001EB0451BDE810404FEA30000E
:103DF00002E04FF0000170474A0008BF0042F8D0CF
:103E0000B2F5001F28BF704701F000414FF00000DD
:103E100070479EEA445F07D011EA5E0FBDE810408C
:103E200004BF002100207047BDE8104070B5FFF7C7
:103E3000A3FD00BF40DFF63E83F00041104670470F
:103E40000000E0FF43004FEAD30C4FEA3C0C434034
:103E50001FBF40070CF1605113F0FE4F70471CF07C
:103E6000006F03D100200CF0004170470CF00043BC
:103E700043EA507010B540EACC0000F070FA00BF81
:103E8000000000924FEA0001FFF7C4BD4FF000416F
:103E90004FF00000A1F500217047000090EA010FEB
:103EA00048BF81F0004100F1E882421A3CBF801A0D
:103EB00089184FEAD0524FF07F4C1CEA410FA2EB19
:103EC000D15318BF9CEA026F00F03B804FF0004CCA
:103ED0004CEA00204CEA012121FA03FC10EB0C0C07
:103EE0001ED202F1FF325FEA1C2040EBC25038BF05
:103EF00070471CF07F0F4FEA400C18BFBCF17F4F9A
:103F000038BF7047C3F12003994008BF20F001007B
:103F1000BCF17F4F38BF7047A0F1C04000F065BAD8
:103F20004FEA3C00000A40EBC25028BF1CF0FF0FD4
:103F30004FEA400CE6D018BFBCF17F4F38BF704746
:103F4000EAE79CEA026F05D010EA5C0F08BF00F0B8
:103F50000040704710B500F002FA00BF64FBBE3E9F
:103F6000401058BFC0F14040491058BFC1F1404116
:103F70008142EFF3008070474FF47F0C1CEAD012AF
:103F80001EBF1CEAD11392EA0C0F93EA0C0F00F04B
:103F9000858090EA010F48BF42F4807240F4000C23
:103FA00041F400002CF07F4120F07F4000B58142B9
:103FB000A2EB03020FF2081CACEB504EC0F1000064
:103FC0009EF800E04FEA4E0E00FB0EFC38BF4900A1
:103FD0004FEA2C1C02F5FA020CFB0EF34FEACE1E40
:103FE0004FEA112C4FEAC1210EEB635E42EB2242F5
:103FF0000EFB0CFC4FEA1C5300FB03114FEA112C83
:104000004FEA01310EFB0CFC4FEADC4C00FB0C11BB
:10401000C14228BF09184CEB03335DF804EB10EBE9
:10402000410143EBC250B2F57C0F38BF704729D530
:1040300012F0F00F1CBF00F1C04000F000407047CC
:10404000008182838485868788898B8C8D8E8F9171
:104050009293959697999A9C9D9FA0A2A3A5A7A895
:10406000AAACAEB0B2B3B5B7B9BCBEC0C2C5C7C9C1
:10407000CCCED1D4D7D9DCDFE2E6E9ECF0F3F7FA25
:10408000FE0000004FEA400C0CF1807CBCF17E4F3A
:1040900028BF7047B0F1C04000F0A7B990EA010F07
:1040A0000CEAD11348BF42F48072624538BF6345C1
:1040B00007D213F47F0F16D080EA010000F0004011
:1040C000704710B500F04BF9097EFC3E00F005B8D2
:1040D00080EA010000F00040704780EA010000F033
:1040E000004000F082B912F47F0F04BF024870470D
:1040F00080EA010000F079B90000C07F50EA010CAD
:1041000000F113801CF5000F58BFBCF5000F01D45F
:104110008842704707D710F5000F58BF11F5000F00
:1041200015D488427047894270471CF5000F04D5AA
:10413000BCF5000FF7D5814270474FF0807C1CEB37
:10414000400F38BF1CEB410F01D28142704710B5C0
:1041500000F005F9922449004FF000504FF08051D3
:10416000FFF7FEBE41000B0ED3F19E0208D950F4BA
:1041700000034FEA032323FA02F048BF404270478E
:1041800010B500F0ECF800BF499224800020704781
:104190006FF0004282EA20007047000010F00041FA
:1041A00048BF4042B0FA80F310FA03F2C3F19D0316
:1041B0000BD051EAC35101EB1220530638BF7047B0
:1041C00000F1010008BF20F001007047B0FA80F351
:1041D00010FA03F2C3F19D030AD0D90501EB1220B6
:1041E000530638BF704700F1010008BF20F00100FE
:1041F0007047000050EA010C00F113801CF5000F1D
:1042000058BFBCF5000F01D48842704707D710F59E
:10421000000F58BF11F5000F15D48842704789422E
:1042200070471CF5000F04D5BCF5000FF7D581428F
:1042300070474FF0807C1CEB400F38BF1CEB410FE8
:1042400001D28142704710B500F089F892244900EC
:104250004FF000504FF08051FFF782BE4FF47F0CBB
:104260001CEAD0121EBF1CEAD11392EA0C0F93EA8B
:104270000C0F00F0478090EA010F48BF42F48072B3
:104280004FF0004C4CEA00204CEA012102EB030203
:10429000A0FB0113A2F50002002918BF43F001039F
:1042A0005B0028BF4FEA330342EB22425FEA132C44
:1042B0004CEBC2502EBFBCEB436FB2F57C0F704786
:1042C0004FEA036CBCF1004F08BF20F00100B2F5CB
:1042D0007C0F38BF70470BD582F0FF0212F5803F8C
:1042E000C8BF704700F1C040D8BF00F00040704721
:1042F00000F5000C5FEA4C0C48BF7047B0F1C040BD
:1043000000F073B890EA010F0CEAD11348BF42F4F1
:104310008072624538BF634504D280EA010000F034
:104320000040704710B500F01AF800BF8900013E48
:1043300000F007B800F009B85FEA410C5FEA1C6CB6
:1043400008D080EA010000F050B85FEA400C5FEA54
:104350001C6CF6D14FF00040A0F5800070470EF1C4
:10436000020E2EF0030E5EF8044B244204D44FEAF2
:104370004102B2F17F4F11D84FEA4003B3F17F4FB2
:104380000CD80ED14FEAD07CB2F17F4F0CEB4C0C25
:104390000CF1020C08BF4CEBD17C04E04FF0080C90
:1043A00001E04FEAD17C0CEB4C0324FA03F404F057
:1043B0000704B4F1040C06D20EEB840CBDE81040E7
:1043C0004CF0010C6047DFE80CF0070802024FF0E8
:1043D0000040A0F5800010BD0846420018BFD2F191
:1043E000807288BF00F0004010BDFF2141EAD0502C
:1043F000C005704751EA000C00F113801CF5000F56
:1044000058BFBCF5000F01D48142704707D711F5A2
:10441000000F58BF10F5000F15D481427047894234
:1044200070471CF5000F04D5BCF5000FF7D5884286
:1044300070474FF0807C1CEB410F38BF1CEB400FE6
:1044400001D28842704780EA010081EA000180EAD7
:104450000100FFF7F8BE80F0004090EA010F7FF501
:1044600024AD81F0004100F008B8000090EA010F8F
:1044700048BF81F000413FF518AD421A04D882F0E0
:104480000042A0EB020011444FEAD0524FF07F4CA3
:104490001CEA410FA2EBD15318BF9CEA026F4AD02D
:1044A0004FF0004C4CEA00204CEA012121FA03FCB9
:1044B000B0EB0C0C0FD412F0FE0F36D05FEA4C00BC
:1044C0001DD5001240EBC25038BF70471CF03F0FA3
:1044D00018BF70470BE0A2F101025FEA1C2040EB1D
:1044E000C25038BF70471CF07F0F18BF7047C3F130
:1044F0002003994014BF401E20F00100704780083F
:104500004FEA122308BF7047B0FA80FCA2EB0C02FE
:10451000CCF1280C60FA0CF093EA122F04BF00EBE8
:10452000C25070474FEAC3707047130A5FEADC104D
:1045300008BF7047F6E79CEA026F04D010EA5C0FF0
:1045400008BF0020704710B5FFF709FF40DFF63EB7
:1045500081F0004070470CF00F03092B08BF0820C2
:1045600000F059800A2B0BD0082B18BF704708BFEA
:104570001CF0400F0AD04FF000004FF000017047D0
:104580001CF0400F18BF4FF0004070471CF0100F98
:1045900008D020F0704300F07F4242EAD3014FEA96
:1045A0004370704700F0604021F07F4242EA000211
:1045B00001F07F4040EA727070474FF0FF0C4CF4FE
:1045C000E06C1CEA11531CBF9CEA030C9445C2BF6B
:1045D000DA4201EB02517047002B0DD0BCF1000F05
:1045E0000FD0002A01F00041A4BF41F0E04141F0AA
:1045F0007F614FF00000704701F000414FF0000074
:10460000704750EA01334FF09B0C18BF4CF0806CA0
:104610007EF448AF70471CF4801F11D01CF4E02FCB
:1046200003D06FEACC31490070474FF04050EFF3B0
:10463000008222F0704242EA000282F30088704752
:104640004FF0000070470000000000000000F03F45
:10465000000000000000F83F000000000000000023
:104660000000004003B8E23F00000000000000002E
:1046700006D0CF43EBFD4C3E033333333333E33FBC
:10468000FFAB6FDBB66DDB3F4D268F515555D53FE8
:1046900001411DA96074D13F65DBC9934A86CD3FB6
:1046A000EF4E454A287ECA3F3E5555555555C53FA4
:1046B00093BDBE166CC166BF2CDE25AF6A56113F96
:1046C000F16BD2C541BDBBBED0A4BE726937663E98
:1046D0004FBB610567ACDD3F182D4454FB21E93F1A
:1046E0009BF681D20B73EF3F182D4454FB21F93F09
:1046F000E2652F227F2B7A3C075C143326A6813C8F
:10470000BDCBF07A8807703C075C143326A6913C39
:10471000C4EB98999999C9BF711623FEC671BCBFA5
:104720006D9A74AFF2B0B3BF9AFDDE522DDEADBF0D
:104730002F6C6A2C44B4A2BF0D5555555555D53F25
:10474000FF8300922449C23F6E204CC5CD45B73F40
:10475000513DD0A0660DB13FEB0D76244B7BA93FB8
:1047600011DA22E33AAD903F0000000000000000A3
:1047700090470008000000202801000028010008E0
:10478000B848000828010020D006000044010008B5
:104790000000000000000000000000000000000019
:1047A0000000000000000000000000000000000009
:1047B00000000000000000000000000000000000F9
:1047C00000000000000000006666663F0000000078
:1047D00000000000000000000000000000000000D9
:1047E000000000006F12833AA69B443B0000003F8C
:1047F0000AD7A33B010000000000000000000000F9
:1048000000000000000000000000000000000000A8
:104810000000000000000000000000000000803FD9
:1048200000000000000000000000803F00000000C9
:104830000000000001000000000000000000000077
:104840000000000000000000000000000000000068
:104850000000000000000000000000000100000057
:104860000000000000000000000000000000000048
:104870000000000000000000000000000000000038
:104880000000000000000000000000000000000028
:1048900000000000000096430000803F0000A0C21E
:1048A000CDCCCCBE00A24A040000000000000000F5
:0848B0000102030406070809D8
:04000005080000ED02
:00000001FF
