:020000040800F2
:1000000020120020D10100082D1E00083D13000819
:10001000FD1D0008110700081B3A00080000000041
:10002000000000000000000000000000D72A0008C7
:10003000710B000800000000DB2400085D2C0008A4
:10004000EB010008EB010008EB010008EB010008E0
:10005000EB010008EB010008EB010008EB010008D0
:10006000EB010008EB010008EB010008EB010008C0
:10007000EB010008EB010008EB010008EB010008B0
:10008000EB010008EB010008EB010008EB010008A0
:10009000EB010008EB010008EB010008750B0008FC
:1000A000EB010008EB010008EB010008EB01000880
:1000B000012F0008D52F000899300008EB01000837
:1000C000EB010008EB010008EB010008EB01000860
:1000D000EB010008EB010008EB010008C93400083F
:1000E000EB010008EB010008EB01000800F002F84A
:1000F00000F05FF80AA090E8000C82448344AAF163
:100100000107DA4501D100F054F8AFF2090EBAE860
:100110000F0013F0010F18BFFB1A43F0010318473B
:1001200050A1000070A100000A444FF0000C10F82C
:10013000013B13F0070408BF10F8014B1D1108BF65
:1001400010F8015B641E05D010F8016B641E01F805
:10015000016BF9D113F0080F1EBF10F8014BAD1C55
:100160000C1B09D16D1E58BF01F801CBFAD505E073
:1001700014F8016B01F8016B6D1EF9D59142D6D3CD
:10018000704700000023002400250026103A28BFF5
:1001900078C1FBD8520728BF30C148BF0B607047F9
:1001A000642900F09B80002070471FB51FBD10B56B
:1001B00010BD00F063FA1146FFF7F7FF05F0A2F952
:1001C00000F081FA03B4FFF7F2FF03BC03F09CFDDB
:1001D0000948804709480047FEE7FEE7FEE7FEE7DB
:1001E000FEE7FEE7FEE7FEE7FEE7FEE70448054917
:1001F000054A064B70470000612C0008ED0000081E
:10020000200C002020120020200E0020200E0020B4
:10021000704710B54C1084EA530404D54042C1F134
:10022000000138BF491E1B4204D55242C3F10003EE
:1002300038BF5B1E00F0E8F814F0804F04D0404255
:10024000C1F1000138BF491E14F0004F04D05242E2
:10025000C3F1000338BF5B1E10BD00000FB404499A
:1002600010B503AA029800F0ABF910BC5DF814FBBE
:10027000AC0600202DE9F0410E4604460020206225
:100280002046E168884730B3252805D0D4E901210C
:100290009047206A401CF2E7E16820460027884723
:1002A000050018D0A5F14100192802D820354FF4D7
:1002B00000673246294620462760FFF771FF40B1AC
:1002C000012804D0F61D26F007060836D8E7361DAB
:1002D000D6E72846DAE7206ABDE8F0812DE9F0414B
:1002E0000646002410687529314616A510D0AFF3D4
:1002F0000080002802DA404213A507E031688A072F
:1003000001D512A502E0490704D511A5012401E099
:10031000AFF3008000210A2206F1240709E0B0FBB8
:10032000F2FCB0FBF2F302FB1C00303078541846AC
:10033000491C0028F3D123462A463046BDE8F04147
:1003400000F0E4B8000000002D0000002B000000C9
:100350002000000040EA010310B59B070FD1042ADA
:100360000DD310C808C9121F9C42F8D020BA19BA80
:10037000884201D9012010BD4FF0FF3010BD1AB1E5
:10038000D30703D0521C07E0002010BD10F8013B3A
:1003900011F8014B1B1B07D110F8013B11F8014B61
:1003A0001B1B01D1921EF1D1184610BD02F0FF03B4
:1003B00043EA032242EA024200F002B84FF0000290
:1003C0000429C0F0128010F0030C00F00D81CCF174
:1003D000040CBCF1020F18BF00F8012BA8BF20F8D5
:1003E000022BA1EB0C0100F0FFB85FEAC17C24BF37
:1003F00000F8012B00F8012B48BF00F8012B7047D3
:10040000704770477047704753EA020C00F06980EC
:100410002DE9F04B4FF00006002B1FBFB3FA83F518
:1004200003FA05F424FA05F65E4012BF1643B2FA49
:1004300082F502FA05F4C5F120051EBF22FA05FC7B
:1004400044EA0C04203556EA044C4FEA144418BF21
:10045000641C4FF000084FF00009904271EB030C50
:1004600039D3002919BFB1FA81F701FA07F6B0FABA
:1004700080F700FA07F6C7F120071EBF20FA07FC35
:1004800046EA0C062037B6FBF4FCA7EB0507103F45
:1004900007F01F0BCBF120060CFA0BFB2CFA06F62B
:1004A00044BFB3460026202FA4BF5E464FF0000B8A
:1004B0005BEA060C08BF4FF0010B19EB0B09ABFB15
:1004C000027C48EB0608C01B06FB02CC0BFB03CCEE
:1004D00071EB0C01C1E70B46024641464846BDE8B8
:1004E000F08B13B54FF000004FF00001AFF3008028
:1004F000BDE81C40704710B500F09CF8006810BDC6
:1005000010B5044600F096F8046010BD2DE9F047E0
:100510000D4699469246044600F124080168880673
:1005200004D5E06921F01001216000E00120A8421B
:1005300001DD471B00E00027A1697A1902EB0900E1
:10054000081AA0612078C00602D42046AFF30080CC
:10055000002608E0D4E901211AF806009047206A35
:10056000401C761C20624E45F4DB2078C0060AD57C
:100570002046AFF3008006E0D4E901213020904707
:10058000206A401C2062381EA7F10107F4DC07E056
:10059000D4E9012118F805009047206A401C206228
:1005A000281EA5F10105F3DC2046AFF3008020787A
:1005B000000602D50220BDE8F0870120FBE700001D
:1005C000074B70B50D467B4400F03DF804462846C5
:1005D00000F04CF810B14FF0FF3070BD204670BDF8
:1005E0006F4700004FF0000200B513469446964650
:1005F000203922BFA0E80C50A0E80C50B1F1200136
:10060000BFF4F7AF090728BFA0E80C5048BF0CC0E3
:100610005DF804EB890028BF40F8042B08BF704741
:1006200048BF20F8022B11F0804F18BF00F8012BB3
:100630007047000000487047C00B002001694A1C49
:1006400002610878704700B58FB0CDE90131002113
:10065000059105497944CDE9031011466846FFF735
:1006600009FE0FB000BD0000E5FFFFFF007B00F0BA
:100670008000704700487047C00B00207546FFF7A8
:10068000F9FFAE4605006946534620F0070085464F
:1006900018B020B5FFF7AAFDBDE820404FF00006D6
:1006A0004FF000074FF000084FF0000B21F007015A
:1006B000AC46ACE8C009ACE8C009ACE8C009ACE89D
:1006C000C0098D46704710B50446AFF30080204640
:1006D000BDE81040FFF776BD08B50121042001F008
:1006E000C7FF4FF48050ADF8000010208DF80300D4
:1006F00003208DF802006946044800F0C7FC4FF45F
:100700008051024800F04DFD08BD00000008014086
:1007100000BFFEE738B5002000906B46012275212E
:10072000682004F049FE2CA0FFF798FD9DF800001A
:1007300068280ED000BF3148006800F4E0603049FE
:100740000843001D2D490860BFF34F8F00BF00BF55
:10075000FEE705F045F800283CD1782005F0EAFDD9
:1007600010B91DA0FFF77AFD782004F027FF10B91B
:1007700024A0FFF773FDC82005F08EFD10B92BA053
:10078000FFF76CFD03F05AFF10B932A0FFF766FDCA
:100790003D4804F07CFE044604F0C4F810B93BA0C8
:1007A000FFF75CFD40F2731003F0F0FD10B941A0BB
:1007B000FFF754FDC82003F0E5FF10B947A0FFF78D
:1007C0004DFD06F065FD012005F062FC10B94CA05E
:1007D000FFF744FD38BD00006D70755F7365745F91
:1007E00073656E736F7220636F6D706C65746520D6
:1007F0002E2E2E2E2E2E0D0A000000000CED00E0F5
:100800000000FA056D70755F636F6E6669677572DB
:10081000655F6669666F20636F6D706C65746520D7
:100820002E2E2E2E2E2E0D0A000000006D70755FEC
:100830007365745F73616D706C655F726174652060
:10084000636F6D706C657465202E2E2E2E2E2E0D0E
:100850000A000000646D705F6C6F61645F6D6F749F
:10086000696F6E5F6472697665725F6669726D77D3
:1008700061726520636F6D706C657465202E2E2E1D
:100880002E2E2E0D0A000000BE000020646D705F49
:100890007365745F6F7269656E746174696F6E20E1
:1008A000636F6D706C657465202E2E2E2E2E2E0DAE
:1008B0000A000000646D705F656E61626C655F6662
:1008C00065617475726520636F6D706C6574652009
:1008D0002E2E2E2E2E2E0D0A00000000646D705F4D
:1008E0007365745F6669666F5F7261746520636FBC
:1008F0006D706C657465202E2E2E2E2E2E0D0A0026
:100900006D70755F7365745F646D705F737461742F
:100910006520636F6D706C657465202E2E2E2E2EF3
:100920002E0D0A0070B54FF4C864204607F074FF1E
:100930000546354907F026FE344908600121344850
:10094000006800F0C3F8334800680A21B0FBF1F6F4
:10095000304607F061FF0546022100F0B7F8032199
:100960002A48006800F0B2F82B4800680A2190FB82
:10097000F1F6304607F038FF0546042100F0A6F8EE
:100980002648006807F030FF0546052100F09EF874
:100990002348006807F028FF0546062100F096F876
:1009A0000721002000F092F80821002000F08EF8C6
:1009B0000921002000F08AF80A21002000F086F8C2
:1009C000062000F037F81749087000201649087013
:1009D00012E000BF1548008800F040000028F9D060
:1009E000134811490978405C1049091D08800E48D8
:1009F0000078401C0C4908700B48007809490978B8
:100A00008842E6DB70BD00000000C8424C060020B2
:100A1000CC060020E0060020C8060020B806002012
:100A2000BC0600204906002048060020003801408E
:100A30001007002001460A2900DC09B90020704790
:100A40002420214A10700B293CD2DFE801F03B063C
:100A50000B10151A1F24292F350005201A4A507132
:100A60000620ECE70920184A50720A20E7E70D201B
:100A7000154A50730E20E2E71120134A50741220D9
:100A8000DDE71520104A50751620D8E719200E4AC8
:100A900050761A20D3E71D200B4A50771E20CEE750
:100AA0002120094A82F821002220C8E72520064A91
:100AB00082F825002620C2E72920034A82F829006F
:100AC0002A20BCE70020BAE71007002013B50C4627
:100AD0000A2C00DC04B91CBD0B2C43D2DFE804F067
:100AE00042060C12181E242A30363C0001221F49EF
:100AF000684600F09DFA35E005221C49684600F082
:100B000097FA2FE009221949684600F091FA29E086
:100B10000D221649684600F08BFA23E01122134992
:100B2000684600F085FA1DE015221049684600F07D
:100B30007FFA17E019220D49684600F079FA11E0B2
:100B40001D220A49684600F073FA0BE0212207498A
:100B5000684600F06DFA05E025220449684600F079
:100B600067FA00BF00BF00BFB5E700001007002014
:100B70007047000010B55648006800287ED120203C
:100B8000544908605448007808B9012000E000206A
:100B9000514908705148007801280BD1504800781D
:100BA000401CC0B24E4908700A2803D100200870CA
:100BB0004A49087048480078012812D100F0F6FA36
:100BC00048480068401C47490860962807D14649B4
:100BD0004648006807F034FF01D200F089F9002090
:100BE00010BD022001F0F8FD404241490860042098
:100BF00001F0F2FD3F49086000F0D8FA01F0B2FDC3
:100C00003D48007810B9642000F0D8FF3A480078D9
:100C1000012802D1002000F0D1FF00F081FF374809
:100C200001683248006803F099FA35490860314894
:100C300001682F48006806F05BFD324908603248C1
:100C400002682C4801682A48006806F0EDFB2F492D
:100C500008602B4800682B490968401A2B4909682D
:100C600008442B4908602648006826490968401A4C
:100C700026490968401A2749086000E026E002F08A
:100C80007DFF1C4803681A4802681848016822481A
:100C9000006801F023FC10B10120204908701548BC
:100CA0000268134801681148006801F08BFC10B11C
:100CB00000201A4908700D48006802F0D9FB28B9D5
:100CC000144801681248006801F07AFF002087E7A5
:100CD00014812142140401400C000020E50600208C
:100CE000E4060020100000200000F041CC060020A7
:100CF000B8060020BC060020E6060020D006002032
:100D00000000002004000020D4060020080000207D
:100D1000C0060020C4060020D8060020B50600202A
:100D2000002123498279002A3AD00A4612680368D2
:100D30009A430B461A600A1D126803689A430B1DFA
:100D40001A60027911440A6803681A430A60184A53
:100D50000832126803689A43154B08331A601A1D4B
:100D6000126803689A43124B0C331A604279102AB6
:100D70000ED11A1F126803681A430D4B08331A600C
:100D80001A1D126803681A43094B0C331A600DE0F0
:100D90000749427911440A6803681A430A6005E06A
:100DA000027911440A6803689A430A607047000098
:100DB0000004014000B587B00121084601F048FC5D
:100DC0000121042001F054FC0320ADF800000420B0
:100DD0008DF8030069461E4800F058F904A802F097
:100DE0003DFB0020ADF810004FF6FF70ADF8140089
:100DF0000020ADF81600ADF8120004A94FF08040B5
:100E000002F0DAFA00231A4603214FF0804002F084
:100E100079F901A802F0EEF90A20ADF80C0001A959
:100E2000400702F091F90121880702F04DF90122F3
:100E30001146900702F0E7F900214FF0804002F0E0
:100E40008CFA0121880702F042F907B000BD0000CA
:100E50000008014000B587B00121042001F0F8FB33
:100E60000121082001F004FCC020ADF8000004209E
:100E70008DF8030069461C4800F008F904A802F048
:100E8000EDFA0020ADF810004FF6FF70ADF8140039
:100E90000020ADF81600ADF8120004A9134802F0C6
:100EA0008BFA00231A460321104802F02BF901A8FF
:100EB00002F0A0F90A20ADF80C0001A90B4802F0DD
:100EC00043F90121094802F0FFF8012211460748C1
:100ED00002F099F90021054802F03FFA0121034888
:100EE00002F0F5F807B000BD000C0140000800401A
:100EF00010B50A222649274801F010FD2448008831
:100F00004FF6FF71884219D121484088884215D197
:100F10001F488088884211D11D48C08888420DD161
:100F20001D481E4908604FF07E501D4908601D484D
:100F30001D4908601D481E49086027E014490888BB
:100F400007F06AFC04461B4907F01CFB13490860C4
:100F50000F49488807F060FC0446164907F012FB69
:100F60000F4908600A49888807F056FC0446114971
:100F700007F008FB0C4908600549C88807F04CFCDD
:100F800004460C4907F0FEFA0949086010BD00004C
:100F9000980B002000E0000800009643EC060020BB
:100FA000F00600200000A042F4060020CDCCCC3E8C
:100FB000F80600200000C84210B51649164800681F
:100FC00007F072FC044607F0EFFB14490880114952
:100FD0001348006807F068FC044607F0E5FB0F497A
:100FE00048800C490F48006807F05EFC044607F093
:100FF000DBFB0A49888007490B48006807F054FC6E
:10100000044607F0D1FB0549C8800A22074801F0D1
:10101000BBFC10BD0000C842EC060020AC0B002059
:10102000F0060020F4060020F806002000E000088A
:1010300030B503461C788C545D78541C0D559D7852
:10104000941C0D55DD78D41C0D5530BD30B50022F3
:101050008B071C0F0F2303FA04F20B4B8C1053F871
:1010600024309343084C8D1044F8253023468C10CF
:1010700053F824308C07240F00FA04F42343024C65
:101080008D1044F8253030BD080001402DE9F041B5
:10109000024600250026002000230024002791F8A6
:1010A00003C00CF00F0591F803C00CF0100CBCF15C
:1010B000000F03D091F802C04CEA050591F800C07A
:1010C000BCF1000F31D0146800202BE04FF0010C70
:1010D0000CFA00F3B1F800C00CEA03069E4220D1DE
:1010E00083004FF00F0C0CFA03F7BC4305FA03FC26
:1010F0004CEA040491F803C0BCF1280F06D14FF06C
:10110000010C0CFA00FCC2F814C00AE091F803C00C
:10111000BCF1480F05D14FF0010C0CFA00FCC2F8ED
:1011200010C0401C0828D1D31460B1F800C0BCF135
:10113000FF0F34DD546800202EE000F1080C4FF062
:10114000010808FA0CF3B1F800C00CEA03069E424D
:1011500021D183004FF00F0C0CFA03F7BC4305FAC2
:1011600003FC4CEA040491F803C0BCF1280F05D13C
:1011700000F1080C08FA0CF8C2F8148091F803C0CA
:10118000BCF1480F07D100F1080C4FF0010808FA34
:101190000CF8C2F81080401C0828CED35460BDE87B
:1011A000F081416170470161704700002DE9F04F07
:1011B00087B001F02DFB574908604621D02000F090
:1011C000F3F880464521D02000F0EEF808EB002728
:1011D000384607F009FB04464821D02000F0E4F827
:1011E00080464721D02000F0DFF808EB0027384682
:1011F00007F0FAFA81463C21D02000F0D5F880466D
:101200003B21D02000F0D0F808EB0027384607F04B
:10121000EBFA06904021D02000F0C6F880463F212E
:10122000D02000F0C1F808EB0027384607F0DCFAC0
:1012300006464FF08E41204607F002FC05D24FF0E3
:101240008F41204607F038FC04464FF08E41484657
:1012500007F0F6FB05D24FF08F41484607F02CFC13
:1012600081464FF08E41069807F0EAFB05D24FF019
:101270008F41069807F020FC06904FF08E413046D3
:1012800007F0DEFB05D24FF08F41304607F014FC2B
:10129000064684F0004020490860304607F0D8F840
:1012A00007468846069807F0D3F882463A464346F2
:1012B00002F094FE0022194BCDE9000106F0B8FDC2
:1012C000174A184BCDE9020106F006FCCDE90401EE
:1012D00006F014FB0546204607F0BAF882464FF0A8
:1012E0006632114B06F0F8FB074606F007FB044692
:1012F00084F000473946284600F0D6FA0B480068CB
:101300000B4908600B48C0F800900B48066007B016
:10131000BDE8F08FC8060020D0060020008066409F
:10132000F1D4C853FB210940666630404C000020D0
:10133000CC060020D4060020D806002000BFFEE71F
:1013400010B504210748FFF72EFF80210648FFF75C
:101350002AFF80210448FFF724FF04210148FFF7FA
:1013600020FF10BD00080140000C014010B5042111
:101370000548FFF718FF80210448FFF712FF80217E
:101380000248FFF710FF10BD00080140000C0140AB
:1013900010B504210348FFF706FF04210148FFF7B9
:1013A00000FF10BD0008014070B505460E46002440
:1013B00000F01AF9284600F0E5F8641C00F06CF91A
:1013C000304600F0DFF8641C00F066F900F00CF91C
:1013D000691CC8B200F0D6F8641C00F05DF900206A
:1013E00000F098F8044600F033F9204670BD000084
:1013F00010B540210748FFF7D6FE20210548FFF72A
:10140000D2FE20210348FFF7CCFE40210148FFF720
:10141000C8FE10BD0008014010B540210548FFF787
:10142000C2FE20210348FFF7BCFE20210148FFF740
:10143000BAFE10BD0008014010B540210348FFF777
:10144000B2FE40210148FFF7ACFE10BD000801408C
:1014500010B500200E4908600E48006820F0F0002A
:101460000C4908600846006840F030000860002021
:101470000949C1F8A401012002F044FF01200449F8
:10148000086002F03FFF00200349C1F8A00110BD31
:10149000A0812142040C01400080214208B50121B5
:1014A000082001F0E5F84FF44070ADF8000010207E
:1014B0008DF8030003208DF8020069460148FFF70C
:1014C000E5FD08BD000C014010B500200E49086084
:1014D0000E48006820F0F0000C49086008460068DB
:1014E00040F03000086001200949C1F8A40102F071
:1014F00009FF01200449086002F004FF00200449AC
:10150000C1F8A00110BD0000A0812142040C0140DF
:101510000080214270B5054600241748006820F07D
:10152000F000154908600846006840F08000086037
:10153000002616E0002011490860022002F0E2FEB9
:1015400001200F49C1F8A0016006040E0B487C3849
:10155000006808B1601CC4B2022002F0D3FE701C07
:10156000C6B2082EE6DB15B1FFF772FF01E0FFF708
:10157000ABFF204670BD0000040C0140A081214259
:101580000080214270B504461448006820F0F00045
:10159000124908600846006840F0300008600020EA
:1015A0000F490860002516E0E0090D49091D086093
:1015B0006006040E012002F0A5FE01200949C1F8D1
:1015C000A00102F09FFE002005490860012002F002
:1015D00099FE681CC5B2082DE6DB70BD040C014005
:1015E000A08121420080214210B51648006820F0F9
:1015F000F000144908600846006840F030000860B8
:101600000120114908601148D0F8240108B90020D0
:1016100010BD01200C49091F086002F073FE002074
:101620000A49C1F8A40108488038006808B10020C0
:10163000EEE7012002F066FE00200349091F086062
:101640000120E5E7040C0140A481214200802142F1
:1016500010B50E48006820F0F0000C4908600846FC
:10166000006840F03000086000200949086009491E
:10167000C1F8A401012002F045FE012004490860E0
:101680000449C1F8A40102F03DFE10BD040C014064
:10169000A08121420080214210B500241548006835
:1016A00020F0F000134908600846006840F0800010
:1016B000086001201049086002F024FE01200F4953
:1016C000C1F8A00102F01EFE0AE0601CC4B2322C78
:1016D00003DDFFF7BDFF002010BD012002F012FE68
:1016E0000548803800680028EFD10349091F0860C9
:1016F0000120F1E7040C0140A48121420080214235
:1017000070B505460E46144631462846FFF74CFE96
:101710002070012070BDF8B506460F4614461D46E0
:101720006A4639463046FFF7EBFF2DB10120A04055
:101730009DF80010084305E00120A0409DF800102E
:1017400021EA0000C0B200909DF8002039463046E2
:1017500000F036F8F8BD2DE9F843074688461446F0
:101760001D46089E6A4641463846FFF7C9FF28B322
:10177000601CFF2101FA00F0C4F108012944491E50
:10178000FF220A41104300F0FF09C5F1080006FAE4
:1017900000F0C6B2C4F1070006419DF8000000EA5F
:1017A000090000909DF80000304300909DF8002053
:1017B0004146384600F004F8BDE8F8830020FBE716
:1017C00037B504460D4602AB01222946204600F0FB
:1017D00001F83EBD2DE9F04180460D4616461F46F4
:1017E0000024FFF701FF4046FFF7CCFEFFF754FF50
:1017F0002846FFF7C7FEFFF74FFF00BF06E0385D42
:10180000FFF7C0FEFFF748FF601CC4B2B442F6DB2E
:10181000FFF71EFF0120BDE8F081000008B501219F
:10182000042000F025FF1820ADF8000048208DF8B6
:10183000030069460148FFF729FC08BD0008014084
:1018400001464906084A926942F00102064B9A6134
:10185000064A526822F0E062044B5A601A46526807
:101860000A435A6070470000001002400000014027
:1018700008B501210C2000F0FBFE0420ADF80000AB
:1018800048208DF8030069460548FFF7FFFB10204C
:10189000ADF8000069460348FFF7F8FB08BD0000FB
:1018A00000080140000C01402DE9F04105460C46BE
:1018B00089480168204607F0FFF807468748016815
:1018C000384606F0F1FF064685480168304606F0C6
:1018D000EBFD83490860834841688348006807F04E
:1018E000EBF806467F488168304607F0E5F87F4907
:1018F00008607C48C06880F0004048607948C06853
:1019000080F0004088607A480068C86008687349C1
:10191000096806F0C9FF064672480168304606F0BD
:10192000C3FD70490860714948686C49096806F050
:10193000BBFF06466B484168304606F0B5FD694975
:1019400048606A4988686549096806F0ADFF06463F
:1019500064488168304606F0A7FD624988606349A3
:10196000C8685E49096806F09FFF06465D48C16881
:10197000304606F099FD5B49C86059480168284621
:1019800007F09AF85B4908605B48007806F044FF6E
:10199000064654480168304606F086FF57490860FD
:1019A0005548007806F038FF06464E4881683046B4
:1019B00006F07AFF524908604F48007806F02CFF85
:1019C00007464E480168384606F06EFF06464D4809
:1019D0000168304606F068FD4B490860084601681A
:1019E0004648006806F0CEFD484908604648016850
:1019F0004348006806F0C6FD454908603F48006856
:101A0000444908603C48007806F006FF0646354821
:101A10004168304606F048FF3F4908603D4801688C
:101A20003A48006806F040FF06462E4801683046F6
:101A300007F037F82B4908603748016833480068D9
:101A400006F032FF064627484168304607F029F87D
:101A5000244948602F4801682D48006806F024FF9B
:101A6000064620488168304607F01BF81D4988600B
:101A7000294801682648006806F016FF06461948FE
:101A8000C168304607F00DF81649C860194801686A
:101A90001E48006806F008FF0646114801683046F7
:101AA00006F002FD0E4908601248016818480068F7
:101AB00006F0FAFE064608480168304606F0F4FCD7
:101AC0000549086008460168204606F0F5FF1349FD
:101AD0000860BDE8F0810000680000206000002080
:101AE0004C0000208C000020540000203C07002007
:101AF000580000206C0000206400002070000020CE
:101B0000740000205C000020780000207C00002091
:101B10008000002084000020880000205000002069
:101B200070B5322002F03EFB0546012D07D110486A
:101B3000007808B9012000E000200D490870022D4E
:101B400007D10C48007808B9012000E000200949BD
:101B5000087000F04FF80446012C07D106480078C1
:101B600008B9012000E000200349087070BD0000A2
:101B7000B5060020B6060020E606002008B50121C3
:101B80000C2000F075FD4FF40040ADF8000010206F
:101B90008DF8030003208DF8020069460548FFF721
:101BA00075FA0820ADF8000069460348FFF76EFAA1
:101BB00008BD000000080140000C014018B90021D8
:101BC000094A11600FE009490968491C074A116078
:101BD000814208D104490968C943054AC2F8BC11C9
:101BE0000021024A11607047BC012142AC00002074
:101BF000000021421148008840B91148006828B906
:101C000010480088401C0F49088002E000200D4960
:101C100008800C480088C82807DD01200749088093
:101C200000200849088001207047044800880128E6
:101C300002D10020014908800020F5E7A80000201B
:101C400008012142A600002010B5022000F010F883
:101C5000032000F021F8002000F014F8002000F02C
:101C600037F8002000F02BF8002000F01FF810BD1E
:101C700038B50446032302226B21D0200094FFF7DD
:101C80006AFD38BD38B50446022304221C21D02049
:101C90000094FFF760FD38BD38B5044602230422E6
:101CA0001B21D0200094FFF756FD38BD10B5044627
:101CB000234601223721D020FFF72DFD10BD10B59E
:101CC0000446234605226A21D020FFF724FD10BDDB
:101CD00010B50446234606226B21D020FFF71BFDDA
:101CE00010BD00001FB50121084600F0C1FC012114
:101CF000082000F0BDFC2020ADF80C0048208DF835
:101D00000F0003A91148FFF7C1F905210120FFF7D2
:101D10009DF92020019000208DF808000C208DF8FE
:101D2000090001208DF80A0001A8FEF7F9FF17202D
:101D30008DF8000002208DF8010001208DF80200CE
:101D40008DF80300684600F073F81FBD000C0140D9
:101D500030B589B005460C4600F052F80121C802A2
:101D600000F086FC0121042000F082FC4FF410609A
:101D7000ADF8200018208DF8230003208DF82200F4
:101D800008A91C48FFF782F9ADF81850ADF81440C7
:101D90000020ADF81A00ADF8160005A9164801F0AC
:101DA0000BFB6020ADF804000120ADF80600002018
:101DB000ADF80A00ADF80C0001A90F4801F02CFAAB
:101DC00001A90D4801F07EFA01210B4801F08BF9C1
:101DD0000821094801F06CFA0821074801F0B0FA1F
:101DE0000121054801F064F90121034801F06FF970
:101DF00009B030BD00080140002C014000BFFEE7E3
:101E000008B50121082000F033FC4FF47040ADF814
:101E1000000010208DF8030003208DF802006946B1
:101E20000148FFF733F908BD000C0140704700007E
:101E300070B5002100230F22C47804B3154C246828
:101E400004F4E064C4F5E064210AC1F10403CA406B
:101E5000447804FA03F184781440214309010E4CBC
:101E60000678A155047804F01F050124AC400578DC
:101E70006D11AD0005F1E025C5F8004109E00478D9
:101E800004F01F050124AC40044D0678761145F896
:101E9000264070BD0CED00E000E400E080E100E0D1
:101EA00002490143024A1160704700000000FA0530
:101EB0000CED00E070B5002418E004F1B000002142
:101EC00000F0CFF80021084600F0CBF800211020E8
:101ED00000F0C7F8002505E00121002000F0C1F85E
:101EE000681CC5B2802DF7DB601CC4B2082CE4DB93
:101EF00070BD70B504460D4605F1B000002100F03C
:101F0000B0F8102141EA1410002100F0AAF804F002
:101F10000F00002100F0A5F870BD00002DE9F04190
:101F200080460E461546002731464046FFF7E1FF42
:101F300000240AE0124A02EB8511085D012100F03D
:101F400090F8781CC7B2601CC4B2102CF2DB701C75
:101F5000C1B24046FFF7CDFF00240CE06900491CE8
:101F6000074A02EB4111085D012100F07AF8781C64
:101F7000C7B2601CC4B2102CF0DBBDE8F0810000D9
:101F8000C70000202DE9F04707460E4690469946C7
:101F900000250024A8F12000C5B27F2F02DD002714
:101FA000B01CC6B2B9F1100F24D131463846FFF744
:101FB000A0FF002408E004EB0511194A505C012140
:101FC00000F04FF8601CC4B2082CF4DB701CC1B2E6
:101FD0003846FFF78EFF002409E004EB05110831B5
:101FE0000F4A505C012100F03CF8601CC4B2082C80
:101FF000F3DB12E031463846FFF77BFF00240AE0AE
:1020000005EB4501074A02EB4101085D012100F0A3
:1020100028F8601CC4B2062CF2DBBDE8F087000093
:10202000BA8E0008928C00082DE9F04104460F4654
:102030001546984600260FE0AA5D434639462046DD
:10204000FFF7A0FF04F10800C4B2782C02DD0024E1
:10205000B81CC7B2701CC6B2A85D0028ECD1BDE8A0
:10206000F08170B504460D461DB1E0B201F01AFDD5
:1020700002E0E0B201F000FD70BD70B5002418E090
:1020800004F1B000002100F01CFA0021084600F025
:1020900018FA0021102000F014FA002505E00121B3
:1020A000002000F00EFA681CC5B2802DF7DB601C22
:1020B000C4B2082CE4DB70BD10B5FFF7DEFFFFF7FC
:1020C000F9FE10BD08B501210C2000F0D1FAE02086
:1020D000ADF8000010208DF8030003208DF80200F9
:1020E00069467848FEF7D2FF18217648FFF75BF87B
:1020F0000420ADF8000069467348FEF7C7FF1821B9
:102100007148FFF750F84FF4487002F0D5F80021FD
:10211000AE2000F0D6F90021084600F0D2F90021E7
:10212000102000F0CEF90021402000F0CAF9002173
:10213000B02000F0C6F90021812000F0C2F9002192
:10214000FF2000F0BEF90021A12000F0BAF9002123
:10215000A62000F0B6F90021A82000F0B2F9002175
:102160003F2000F0AEF90021C82000F0AAF90021BC
:10217000D32000F0A6F90021084600F0A2F90021C2
:10218000D52000F09EF90021802000F09AF900216E
:10219000D82000F096F90021052000F092F90021E6
:1021A000D92000F08EF90021F12000F08AF90021F9
:1021B000DA2000F086F90021122000F082F90021D7
:1021C000DB2000F07EF90021302000F07AF90021B8
:1021D0008D2000F076F90021142000F072F9002122
:1021E000AF2000F06EF90021AE20FFF73AFF00218A
:1021F0000846FFF736FF00211020FFF732FF0021CD
:102200004020FFF72EFF0021B020FFF72AFF00211A
:102210008120FFF726FF0021FF20FFF722FF00218A
:10222000A120FFF71EFF0021A620FFF71AFF0021C3
:10223000A820FFF716FF00213F20FFF712FF002123
:10224000C820FFF70EFF0021D320FFF70AFF00216F
:102250000846FFF706FF0021D520FFF702FF002107
:102260008020FFF7FEFE0021D820FFF7FAFE0021B4
:102270000520FFF7F6FE0021D920FFF7F2FE00212E
:10228000F120FFF7EEFE0021DA20FFF7EAFE002141
:102290001220FFF7E6FE0021DB20FFF7E2FE00211F
:1022A0003020FFF7DEFE00218D20FFF7DAFE00214F
:1022B0001420FFF7D6FE0021AF20FFF7D2FEFFF774
:1022C000FBFE08BD00080140000C014070B504464B
:1022D0000D4605F1B000002100F0F3F8102141EAAD
:1022E0001410002100F0EDF804F00F00002100F0C0
:1022F000E8F870BD2DE9F04180460E4615460027EE
:1023000031464046FFF7E2FF00240AE0124A02EBA2
:102310008511085D012100F0D4F8781CC7B2601C5B
:10232000C4B2102CF2DB701CC1B24046FFF7CEFFE6
:1023300000240CE06900491C074A02EB4111085DCA
:10234000012100F0BEF8781CC7B2601CC4B2102C8A
:10235000F0DBBDE8F0810000C70000202DE9F04768
:1023600007460E469046994600250024A8F1200015
:10237000C5B27F2F02DD0027B01CC6B2B9F1100F25
:1023800024D131463846FFF7A1FF002408E004EBD2
:102390000511194A505C012100F093F8601CC4B289
:1023A000082CF4DB701CC1B23846FFF78FFF002405
:1023B00009E004EB051108310F4A505C012100F0DF
:1023C00080F8601CC4B2082CF3DB12E031463846BA
:1023D000FFF77CFF00240AE005EB4501074A02EB0A
:1023E0004101085D012100F06CF8601CC4B2062CAC
:1023F000F2DBBDE8F0870000BA8E0008928C00087E
:102400002DE9FF5F074691461E460E9D4FF0000ADC
:10241000002435E0301B401EC1B20A2004F040FA0F
:10242000B9FBF0F00A21B0FBF1F201FB1208BAF19E
:10243000000F14D1701EA04211DDB8F1000F0CD1B5
:10244000AB4605EBDB71491001FB0471C8B22B46AA
:1024500020220199FFF782FF10E04FF0010AAB46FE
:1024600005EBDB71491001FB0471C8B208F13001C2
:10247000CAB22B460199FFF771FF00BF601CC4B2BE
:10248000B442C7DBBDE8FF9F2DE9F04104460F468B
:102490001546984600260FE0AA5D43463946204679
:1024A000FFF75CFF04F10800C4B2782C02DD0024C1
:1024B000B81CC7B2701CC6B2A85D0028ECD1BDE83C
:1024C000F08170B504460D461DB1E0B201F040FB4D
:1024D00002E0E0B201F026FB70BD70472DE9F0414B
:1024E00007460E4614461D462F480088E0B9204690
:1024F00003F0C8FF0246284603F0C4FF10441E281C
:1025000005DA2A480088401C2849088002E000209B
:1025100026490880254800880A2805DD012022492F
:1025200008800020214908801F48008801281DD10B
:102530001F480088401C80B21D490880C82803DD60
:1025400000200880184908801A49384606F078FAB1
:102550000CD21949304606F073FA07D217493046B3
:1025600006F06EF902D202200F4908800E4800885A
:10257000022816D112480088401C80B210490880F9
:10258000642803DD0020088007490880601903F0F3
:1025900079FF872805DD0020034908800120BDE878
:1025A000F0810020FBE700004000002042000020F6
:1025B000440000200020CB460000A0C10000A04144
:1025C0004600002070B506460C4615461B480078AC
:1025D00008B9002070BD1A48008870B91949304602
:1025E00006F02EFA09D21849304606F029F904D22D
:1025F0001CB915B90120124908801148008801282A
:1026000019D112480088401C80B210490880322835
:1026100003DD002008800A490880032C0BDD032D10
:1026200009DD3C2C07DA3C2D05DA0020044908803E
:1026300008800120CEE70020CCE70000B50600208E
:1026400048000020000020C1000020414A00002076
:1026500029B1064AD2690243044BDA6104E0034A15
:10266000D2698243014BDA617047000000100240DA
:1026700029B1064A92690243044B9A6104E0034A75
:1026800092698243014B9A6170470000001002403A
:1026900030B500210022002400232D4D6D6805F087
:1026A0000C0121B1042905D0082923D105E0294DC9
:1026B000056022E0274D05601FE0254D6D6805F49B
:1026C0007012234D6D6805F48034022505EB9242AB
:1026D0001CB9214D554305600BE01D4D6D6805F497
:1026E00000351DB11C4D5543056002E0194D5543A1
:1026F000056002E0174D056000BF00BF144D6D6816
:1027000005F0F0010909154D6B5C0568DD40456079
:102710000F4D6D6805F4E061090A104D6B5C45686A
:10272000DD4085600A4D6D6805F46051C90A0B4DA6
:102730006B5C4568DD40C560054D6D6805F4404142
:10274000890B074D6B5CC568B5FBF3F5056130BDC2
:102750000010024000127A0000093D00940600209B
:10276000A406002010B50120164908600F2001F0D2
:10277000C9FD00201449C1F884011448007800F014
:102780008000E8B11148007800F03F00104908606F
:102790000846008800040860084600680D4909885A
:1027A00008440B49086008460068AA2148434FF4D2
:1027B0007A71B0FBF1F006490860002003490880F7
:1027C00010BD000084812142008021425206002079
:1027D000E0060020540600200146022902D0042908
:1027E00010D108E04FF08042928C10B200224FF0DE
:1027F00080439A8408E0054A128810B20022034BF5
:102800001A8001E0002000BF00BF7047240800408C
:102810002DE9F05F4221D020FEF7C6FD054641219B
:10282000D020FEF7C1FD05EB0024204605F0DCFFBB
:1028300082464FF08E41504606F002F905D24FF025
:102840008F41504606F038F982460D49504605F052
:1028500099FE834605F0FCFD80460A4A0A4B05F0C6
:102860007FF806460022094B05F0E2FA044605F01F
:1028700045F88246504605F07BFFBDE8F09F00001A
:102880000000AA43A4703D0AD74342400000244000
:1028900070B50546002445F6FF7000F05FF8044669
:1028A000C4B90D48006940F002000B4908610846B0
:1028B0004561006940F04000086145F6FF7000F096
:1028C0004DF80446012C05D00348006920F00200B1
:1028D00001490861204670BD002002400948C168D6
:1028E00001F0010008B10120704701F0040008B1B7
:1028F0000220F9E701F0100008B10320F4E70020FE
:10290000F2E70000002002400348006940F0800028
:1029100001490861704700000020024030B50346BD
:102920000C461546002207E0184600F008F824F887
:1029300012009B1C501C82B2AA42F5DB30BD01463E
:102940000888704702480349486003484860704758
:102950002301674500200240AB89EFCD70B50446E6
:1029600000BFFFF7BBFF0546012D00D006E00120A8
:1029700001F0C8FC601E84B2002CF2D100BF04B983
:10298000FF25284670BD00002DE9F05F80468A468D
:102990001746B8F1006F02D33348804501D3BDE834
:1029A000F09FFFF7CFFFA8F1006B4FEA9B25CBF319
:1029B0004809C9F50074A74200DC3C464EE04FF0E0
:1029C000006101EB85208A142849FFF7A7FF002644
:1029D0000BE009EB0600254931F810004FF6FF71B6
:1029E000884200D003E0701C86B2A642F1DB00BF33
:1029F000A6421BDA4FF0006101EB8520FFF748FF8C
:102A0000002608E03AF8160006EB0901174A22F8FA
:102A10001100701C86B2A642F4DB4FF0006101EB9E
:102A200085208A14114900F043F804E022465146FB
:102A3000404600F03DF8A74200D110E06D1C4FF079
:102A400000090AEB440A08EB4408381B87B2B7F5C3
:102A5000007F02DD4FF4007400E03C46AFE700BFAA
:102A6000FFF752FF00BF9AE7000001084C07002063
:102A700070B505460E46FF20FFF770FF044694B977
:102A80000A48006940F00100084908612E80FF20D3
:102A9000FFF764FF0446012C05D00448006920F0CC
:102AA000010002490861204670BD0000002002407C
:102AB0002DE9F04105460E461746002407E036F89A
:102AC00014102846FFF7D4FFAD1C601C84B2BC4232
:102AD000F5DBBDE8F081704710B500F001F810BDDE
:102AE0000CB50020019000903348006840F480301D
:102AF0003149086000BF3048006800F400300090A1
:102B00000198401C0190009818B90198B0F5A06F89
:102B1000F1D12948006800F4003010B10120009084
:102B200001E0002000900098012843D1234800686C
:102B300040F01000214908600846006820F00300BA
:102B400008600846006840F0020008601A484068C3
:102B5000194948600846406848600846406840F4A3
:102B6000806048600846406820F47C104860084651
:102B7000406840F4E81048600846006840F0807003
:102B8000086000BF0C48006800F000700028F9D011
:102B90000948406820F0030007494860084640683B
:102BA00040F00200486000BF0348406800F00C009D
:102BB0000828F9D10CBD000000100240002002409E
:102BC00000B503460A46002B07DA012016490860C3
:102BD00000201649C1F8BC0106E000201249086037
:102BE00001201249C1F8BC01184603F04BFC104902
:102BF0000880002A08DA00200B49091F086001201C
:102C00000A49C1F8B00107E001200749091F08601F
:102C100000200649C1F8B001104603F033FC044916
:102C20000C31088000BD0000B881214200802142A3
:102C3000342C0140042808D14FF0E021096941F00B
:102C400004014FF0E022116107E04FF0E021096933
:102C500021F004014FF0E02211617047704700003D
:102C600010B51348006840F001001149086008469B
:102C70004068104908400E494860084600680E49FF
:102C800008400B4908600846006820F4802008606E
:102C90000846406820F4FE0048604FF41F0088603A
:102CA000FFF71AFF4FF000600449086010BD0000F4
:102CB000001002400000FFF8FFFFF6FE08ED00E004
:102CC000F0B50C46154600220021068C4FF6FE7723
:102CD0003E400684028B018C4FF60C7632407E1CFF
:102CE00006EA03162E433243104EB0420ED0104E69
:102CF000B0420BD0B0F1804F08D00E4EB04205D09C
:102D00000D4EB04202D00D4EB04206D14FF6FD76C8
:102D1000314044F00106314305E04FF6F57631408D
:102D200044F00106314302830184F0BD002C0140D0
:102D3000003401400004004000080040000C004046
:102D4000F0B50C461546002200210026078C4FF6F0
:102D5000EF7C07EA0C070784028B018C4FF6FF77A4
:102D600007EA041640F6FF473A404FF6FF7707EAB6
:102D700003373A434FF6FF7707EA05273A43114FE7
:102D8000B8420ED0104FB8420BD0B0F1804F08D0EF
:102D90000E4FB84205D00E4FB84202D00D4FB84288
:102DA00006D14FF6DF77394046F01007394305E08A
:102DB0004FF65F77394044F01007394302830184AE
:102DC000F0BD0000002C0140003401400004004030
:102DD00000080040000C0040F0B50C4615460022EB
:102DE00000210026078C4FF6FF6C07EA0C070784CA
:102DF000828B018C4FF6FF7707EA04264FF60C779B
:102E00003A404FF6FF7707EA03172F433A43114F33
:102E1000B8420ED0104FB8420BD0B0F1804F08D05E
:102E20000E4FB84205D00E4FB84202D00D4FB842F7
:102E300006D14FF6FF57394046F48077394305E015
:102E40004FF2FF57394044F480773943828301843D
:102E5000F0BD0000002C014000340140000400409F
:102E600000080040000C0040F0B50C46154600225A
:102E700000210026078C4EF6FF7C07EA0C0707842A
:102E8000828B018C4FF6FF7707EA043640F6FF4746
:102E90003A404FF6FF7707EA05273A434FF6FF77A8
:102EA00007EA03373A43114FB8420ED0104FB842E9
:102EB0000BD0B0F1804F08D00E4FB84205D00E4F66
:102EC000B84202D00D4FB84206D14DF6FF773940D7
:102ED00046F48057394305E047F6FF57394044F43C
:102EE0008057394382830184F0BD0000002C0140EB
:102EF000003401400004004000080040000C004085
:102F00004FF08040008A4FF08040008A20F001009E
:102F10004FF080410882704730B585B005460C46B9
:102F200001210220FFF794FB01210820FFF7A0FBFD
:102F30000120ADF8100028208DF8130004A92248C4
:102F4000FEF7A4F80220ADF8100010208DF8130051
:102F500002208DF8120004A91B48FEF797F8ADF87F
:102F60000850ADF804400020ADF80A00ADF80600A6
:102F700001A9164800F020FA082015490880002011
:102F80004880012088800020C88008810F4800F018
:102F9000DBF81D208DF8000002208DF801000020D4
:102FA0008DF8020001208DF803006846FEF740FF0F
:102FB00001220921054800F026F90121034800F00B
:102FC00086F805B030BD0000000C01400004004050
:102FD0004C0B00202D4908882D49097801F080010B
:102FE00000294ED100F00101D1B12949097801F041
:102FF0004001A9B12649097801F03F013F290AD1D2
:103000002349098841F08001214A11804FF6FF7160
:10301000204A118004E01E490988491C1C4A11807D
:1030200000F0080169B31A49097801F0400199B12B
:103030001749098841F08001154A118013492C3144
:103040000988144A118011491031098821F400714E
:103050000E4A1032118014E000210D4A11800D4AF1
:1030600011800B49098841F04001094A1180002173
:10307000064A14321180111F098841F40071121F91
:1030800011800021014A11807047000010040040A7
:103090005206002054060020044800880348008897
:1030A00020F001000149088070470000100800402E
:1030B00021B1028842F08002028004E002884FF6CB
:1030C0007F731A4002807047CA430282704721B161
:1030D000028842F00102028004E002884FF6FE738B
:1030E0001A400280704731B1B0F8442042F40042E7
:1030F000A0F8442005E0B0F84420C2F30E02A0F886
:1031000044207047F0B50C4615461E4600210022AB
:1031100000230189028B038C4FF6F8773940214355
:103120004FF6FC473A4040F201173A434FF6DD773D
:103130003B404FF6FF7707EA06172F433B430181D9
:1031400002830384F0BD000070B505460C46244898
:1031500085420ED0234885420BD0B5F1804F08D070
:103160002148854205D02148854202D02048854229
:1031700000D100E000BF208850B92389A28861886F
:103180002846FFF79DFDE188284600F0E8F825E095
:10319000208804280AD12389A28861882846FFF75D
:1031A000CFFDE188284600F0E3F817E020880828E2
:1031B0000AD12389A28861882846FFF70DFEE1889D
:1031C000284600F0E2F809E02389A28861882846B1
:1031D000FFF74AFEE188284600F0E0F870BD0000E5
:1031E000002C014000340140000400400008004071
:1031F000000C0040002101804180012181800021DC
:10320000C180018170471AB183890B43838102E039
:1032100083898B438381704770B50024002200238B
:10322000058C4FF6FE7635400584028C8388048B2E
:103230004FF68F752C40B51E2C400D882C43751E03
:103240002A400D892A434D882A43144DA8420BD0A9
:10325000134DA84208D0134DA84205D0124DA842E4
:1032600002D0124DA84213D14FF6F7752A404D896E
:103270002A434FF6FB752A408D882A434FF6FF6597
:103280002B404FF6FF552B408D892B43CD892B4387
:1032900083800483CD888586028470BD002C014024
:1032A000003401400040014000440140004801401A
:1032B0000A460021018B4FF6F77319401143018331
:1032C0007047000070B5002200230024058C4EF6E4
:1032D000FF7635400584038C8488828B48F6FF7521
:1032E0002A404FF6FF452A400D884FF6FF7606EA42
:1032F00005252A434DF6FF752B400D8906EA053555
:103300002B434D8806EA05352B430B4DA84202D0CE
:103310000A4DA84208D14BF6FF752C408D894FF617
:10332000FF7606EA85152C4384808283CD88A0F839
:103330004050038470BD0000002C01400034014067
:103340000A460021818B4FF2FF7319404FF6FF733D
:1033500003EA022319438183704781847047028BFB
:103360004FF6F3731A400283028B0A4302837047BD
:10337000028B4FF2FF331A400283028B4FF6FF732A
:1033800003EA01231A4302837047828B4FF6F373DB
:103390001A408283828B0A4382837047828B4FF26A
:1033A000FF331A408283828B4FF6FF7303EA0123B7
:1033B0001A43828370470000002202881D4B984206
:1033C0000ED01D4B98420BD0B0F1804F08D01B4B54
:1033D000984205D01A4B984202D01A4B984204D119
:1033E0004FF68F731A404B881A43174B984207D0F9
:1033F000164B984204D04FF6FF431A40CB881A432D
:1034000002808B8883850B8803850A4B98420BD0FA
:10341000094B984208D00E4B984205D00D4B98426C
:1034200002D00D4B984201D10B7A0386012383828F
:1034300070470000002C01400034014000040040AF
:1034400000080040000C0040001000400014004044
:103450000040014000440140004801404FF6FF7128
:10346000818000210180C18041800172704700008D
:1034700070B505460F49284605F0E2F908D30E4914
:10348000284605F0DDFA03D30C48007801280DD159
:10349000012400200A4908600A49C1F8B801084916
:1034A000083908600749C1F8B00100E0002420464F
:1034B00070BD0000000020C200002042B5060020C0
:1034C000BC812142008021422DE9FF5F40F225515D
:1034D000D54800F0E1F9002876D0D34800F098FAFA
:1034E000D249086008460078D1490870CF48006882
:1034F000592802D10220CF490870CC4800685828CA
:1035000002D10120CB490870C84800680A2865DD4F
:10351000C64800685A2809D10020C7490870C74921
:103520000870C7490870C749087057E0BF4800686D
:1035300041280AD10120C04908700020BF49087005
:10354000BF490870BF49087048E0B848006845287E
:103550000BD10020B84908700120B849087000203C
:10356000B7490870B749087038E0B0480068422889
:1035700007D0AE480068432803D0AC480068442810
:103580000AD10020AC490870AC490870AC490870F9
:103590000120AC49087021E0A4480068462807D003
:1035A000A2480068472803D0A048006848280CD1EA
:1035B0000020A1490870A14908700120A0490870A5
:1035C0000020A049087009E007E100209A4908702E
:1035D0009A4908709A4908709A4908709348006897
:1035E0000A2865DA0120934908709048006848B9B4
:1035F00000209149087091490870914908709149DB
:10360000087055E089480068012809D18A49087086
:1036100000208A4908708A4908708A49087047E082
:103620008248006805280BD10020834908700120DA
:10363000824908700020824908708249087037E08A
:103640007A480068022807D078480068032803D029
:103650007648006804280AD1002077490870774925
:1036600008707749087001207649087020E06F489B
:103670000068062807D06D480068072803D06B480B
:10368000006808280BD100206B4908706B4908704E
:1036900001206B49087000206A49087008E000208A
:1036A0006549087065490870654908706549087082
:1036B0005F4800787B2802D10120634908705C488C
:1036C00000787D2802D102205F4908705E480078AA
:1036D00001280AD1564800785C495D4A127888541E
:1036E0005B480078401C5A49087057480078022807
:1036F00073D15748007805F08FF856490860534851
:10370000C078502803D10120534908707CE04F480D
:10371000C078572803D101205049087074E04B4805
:103720004078232870D04A4800784D49087034E02A
:10373000474909784A4A1278881A04F025FB8046DE
:1037400042460B460020474903F0B6F804460D46B2
:1037500043490978491E3D4A515CA1F1300004F00B
:1037600013FB064622462B4604F062FB82468B463C
:103770003D48006804F06CFE52465B46CDE900010E
:1037800004F0EEF8CDE9020104F0B8F8364908601B
:1037900033480078401E32490870314800780428C8
:1037A000C6DA2A484078303809282CD2DFE800F001
:1037B000050D161E262728292A002C492A480068AC
:1037C00004F0E0FE2A4908601DE028492648006808
:1037D00004F0D8FE2749086015E022E0234922487A
:1037E000006804F0CFFE244908600CE01F491E4821
:1037F000006804F0C7FE2149086004E003E002E02D
:1038000001E000E000BF00BF00200F490870104930
:103810000870134908701449086032210B48FCF7FE
:10382000CDFDBDE8FF9F0000004800405C06002081
:1038300058060020B4060020B0060020B106002083
:10384000B2060020B306002060060020560B0020C0
:1038500061060020DC060020E7060020E8060020C4
:103860006206002000002440640600200000C842D8
:10387000EC060020F0060020F4060020F8060020E8
:1038800021B1828942F40052828104E082894DF69E
:10389000FF731A408281704770B5024600240023EE
:1038A0000025002040F66A16B14200D100BFC1F3E6
:1038B000421501F01F03012606FA03F3012D02D180
:1038C0009689334006E0022D02D1168A334001E08A
:1038D000968A33400C12012606FA04F41688344006
:1038E00013B10CB1012000E0002070BDF0B503461B
:1038F000002400260025002040F66A17B94200D1B6
:1039000000BF1846C1F3421401F01F06012707FA51
:1039100006F5012C01D10C3004E0022C01D110304D
:1039200000E014301AB107682F43076002E007680F
:10393000AF430760F0BD00002DE9F04786B00546B3
:103940000E460024A24600BFA1460027B08900B160
:1039500000BF2F462C8A4CF6FF700440F0880443C9
:103960002C82AC894EF6F3100440B08831890843AC
:10397000718908430443AC81AC8A4FF6FF40044090
:10398000B0890443AC8201A8FEF782FE1F4887423B
:1039900002D1DDF810A001E0DDF80CA0A88900F448
:1039A000004040B10AEBCA0000EB0A103168490040
:1039B000B0FBF1F807E00AEBCA0000EB0A1031682F
:1039C0008900B0FBF1F86420B8FBF0F00401200995
:1039D000642101FB1089A88900F4004040B1322025
:1039E00000EBC900B0FBF1F000F00700044308E071
:1039F000322000EB09106421B0FBF1F000F00F0061
:103A000004432C8106B0BDE8F08700000038014077
:103A100001468888C0F30800704700BFFEE7000039
:103A20002DE9F04105462C4604211148FDF7B9FB6C
:103A3000002619E0274607F08007802F04D1802157
:103A40000C48FDF7B0FB03E080210A48FDF7A9FB15
:103A50006006040E04210648FDF7A5FB0421044876
:103A6000FDF79FFB701CC6B2082EE3DBBDE8F081BA
:103A700000080140000C014010B50446FDF760FC51
:103A80007820FFF7CDFFFDF783FC0020FFF7C8FF8C
:103A9000FDF77EFC2046FFF7C3FFFDF779FCFDF73D
:103AA00065FC10BD10B50446FDF74AFC7820FFF711
:103AB000B7FFFDF76DFC4020FFF7B2FFFDF768FC94
:103AC0002046FFF7ADFFFDF763FCFDF74FFC10BD8F
:103AD0002DE9F04105462C4640211148FDF761FBD8
:103AE000002619E0274607F08007802F04D1202107
:103AF0000B48FDF758FB03E020210948FDF751FB77
:103B00006006040E40210648FDF74DFB40210448A5
:103B1000FDF747FB701CC6B2082EE3DBBDE8F08161
:103B20000008014010B50446FDF762FC7820FFF75D
:103B3000CFFFFDF781FC0020FFF7CAFFFDF77CFCFB
:103B40002046FFF7C5FFFDF777FCFDF765FC10BDCC
:103B500010B50446FDF74CFC7820FFF7B9FFFDF7E0
:103B60006BFC4020FFF7B4FFFDF766FC2046FFF733
:103B7000AFFFFDF761FCFDF74FFC10BD41F6F420EF
:103B800017490978012904D1164909686439154A89
:103B9000116015490978012904D114490968643173
:103BA000124A11600F4909684242914202DA4142C9
:103BB0000C4A11600B490968814201DD094908601E
:103BC0000A4909684242914202DA4142074A1160B9
:103BD00006490968814201DD044908607047000018
:103BE000B0060020C0060020B1060020C406002058
:103BF000490050EAC12018BF04204A0D18BF40F008
:103C0000010040F2FF72B2EB515F08BF40F00200CA
:103C1000012808BF052070472DE9F0414F1E00EB39
:103C2000C7010446D1E9000115461E4637F00602D9
:103C30000DD02A46334604F0FBF87F1E04EBC70381
:103C4000D3E9002303F08CFE37F00602F1D1022FF6
:103C500025D0042F13D0062F18BFBDE8F0812A46C7
:103C6000334604F0E5F8D4E90A2303F079FE2A4646
:103C7000334604F0DDF8D4E9082303F071FE2A4648
:103C8000334604F0D5F8D4E9062303F069FE2A464A
:103C9000334604F0CDF8D4E9042303F061FE2A464C
:103CA000334604F0C5F8D4E9022303F059FE2A464E
:103CB000334604F0BDF8D4E90023BDE8F04103F039
:103CC0004FBE0000002213461046014903F004BF16
:103CD0000000F03F012204F096BF03F041BE002235
:103CE00013461046114603F0F7BE40F201320020A1
:103CF0004FF0E04104F087BF024A0020110704F0B2
:103D000082BF000001FDFFFF014600BF70470000B9
:103D10002DE9FE4F074688460026684601F02EF83A
:103D2000002444E057F8240058F82410A0EB010ABE
:103D3000BAF1000F01DB514601E0CAF1000108466B
:103D400004F052FD83464FF08F4104F01BFC814686
:103D50005DF82400002104F0D7FC18D05DF8241091
:103D6000484604F00FFC82464FF07E5104F0A4FE5A
:103D7000054600BF25F0004082460F48416A504684
:103D800004F05EFE12D20120A04006430EE00A4875
:103D9000C169484604F054FD05D30748016A484606
:103DA00004F04EFE02D20120A0400643641C032C06
:103DB000B8DB3046BDE8FE8FD49400082DE9F84FFB
:103DC00004460D4621F0004000917349814211DC08
:103DD0007249884201DC06D12CB120462946BDE853
:103DE000F84FFFF777BF6E48002DCCBF6D496E4985
:103DF000BDE8F88F6D49814211DD6D498142D8BF20
:103E00004FF0FF366DDD20462946FFF7F1FE04280E
:103E100008BFFFF771FF20462946BDE8F88F6549C6
:103E2000654F25F00045814233DD6449814219DD4B
:103E3000002632464FF080432046294603F090FD8D
:103E400080468A4601222046294604F0DCFE0022F4
:103E50003B4604F013FA4246534603F03DFE044647
:103E60000D463EE001260022BA463B462046294642
:103E700003F076FD80460F46002253462046294631
:103E800004F0FCF942463B4603F026FE04460D468C
:103E900027E04B4981421BDDDFF828A102260022E2
:103EA00053462046294603F0C3FF00223B4603F059
:103EB00057FD80460F46002253462046294604F00F
:103EC000DDF942463B4603F007FE04460D4608E096
:103ED000032622462B4600203B4903F0FDFD044605
:103EE0000D4622462B461046194603F0A1FF8B468D
:103EF000824602460B4603F09BFF074602463348C4
:103F000088460B4606217844FFF786FE52465B46FC
:103F100003F08EFF82462E488B463A4643460521E3
:103F20007844FFF779FE3A46434603F081FF0246A4
:103F30000B46002E504659460CDA03F011FD22467E
:103F40002B4603F075FF01B022462B46BDE8F04F2B
:103F500004F0A2B803F004FD22462B4603F068FFEC
:103F60001C4A7A4402EBC603D3E9002304F086F925
:103F700022462B4604F082F9174A7A4402EBC60324
:103F8000D3E9002304F088F8009A002AB8BF81F032
:103F90000041BDE8F88F0000000010440000F07FF1
:103FA000182D4454FB21F93FFB21F9BF0000DC3FF1
:103FB0000000203E0000F33F0000F03F0000E63F1D
:103FC000008003400000F83F0000F0BFDE62000008
:103FD0009C6200003A620000026200002DE9F04D90
:103FE0009446CCF1000423F000464CEA0404524FFE
:103FF00046EAD4749A46884621F00042BC4206D86C
:10400000454240EA050442EAD474BC4204D9BDE802
:10401000F04D6246FFF761BEAAF14055A5F17F65FC
:1040200055EA0C040BD0022404EAAA74434DDFF8CD
:1040300010E144EAD87452EA000B04D00CE0BDE869
:10404000F04DFFF7BBBE002C14BF012CBDE8F08D76
:10405000022C30D0032C32D056EA0C0B0AD0BE42D0
:1040600020D1BA4209D126F0804622F08042334660
:10407000114617E000291ADB25E0DFF8C8B0FB4441
:10408000002C04BFDBE90001BDE8F08D012C02BF6C
:10409000DBE9000181F00041BDE8F08D022C0AD07F
:1040A000032C0CD0BA4212D1B8F1000F0BDA23481E
:1040B0002549BDE8F08D28462449BDE8F08D284605
:1040C0007146BDE8F08D1D482149BDE8F08D921B79
:1040D00012153C2AC4BF19481D490EDCBAF1000F65
:1040E000BEBF12F13C0F0020014606DB624603F022
:1040F000F3FC21F00041FFF761FE002C08BFBDE892
:10410000F08D012C04BF81F00041BDE8F08D114A13
:10411000114B022C07D004F0B1F82A46BDE8F04D4F
:104120000A4B04F0ABB804F0A9F82A46BDE8F04DFC
:10413000064B03F0B1BF00000000F07F182D44547F
:10414000FB2109C096610000FB21F9BFFB2109405A
:10415000FB21F93F075C143326A6A13C2DE9F0476B
:1041600005460C460021284604F0A6FC80460B4874
:104170000168204604F098FB8146414608480068E3
:1041800004F092FB8246494604F08EF9074604F09B
:10419000EFFA06463046BDE8F0870000F006002042
:1041A000EC06002001462D48006828B92C480088FC
:1041B000401C2B4A108002E00020294A108027482A
:1041C000006828B92748007810B90120254A1070E6
:1041D00025480078B0B923480078012807D1234842
:1041E0000078401C214A107001201F4A10701F489F
:1041F0000078022806D100201C4A10701C4A10804A
:104200000220704715480068012804D10020154A93
:104210001070154A10701548007801281CD11448F8
:104220000088401C124A10801046008888420ADD2F
:104230000B480088884206DA00200C4A10700C4AAD
:1042400010800120DDE706480088884204DD002058
:10425000064A1070064A10800020D2E70801214269
:10426000A20000209C0000209D0000209E00002055
:10427000A000002010B56FF00400FEF7DBFC0A4838
:1042800000680A49B0FBF1F0094908700846007857
:1042900000EB4001C1EBC0104FF6FF7101EAC00016
:1042A0000449088010BD0000FC06002000127A00BE
:1042B000A8060020AA0600200146114A12884A4397
:1042C0004FF0E0235A6100229A611A46126942F0C7
:1042D00001021A6100BF4FF0E022106900F00102F4
:1042E0001AB100F48032002AF5D04FF0E0221269B2
:1042F00022F001024FF0E0231A6100229A61704718
:10430000AA0600200146114A12784A434FF0E023E2
:104310005A6100229A611A46126942F001021A613A
:1043200000BF4FF0E022106900F001021AB100F462
:104330008032002AF5D04FF0E022126922F001020B
:104340004FF0E0231A6100229A617047A80600200E
:1043500038B5044664B120208DF8000028208DF87F
:10436000010030208DF8020038208DF8030004E0B1
:10437000A32204216846FCF719F86A46042140F696
:104380009E2002F03FF801F02FFC38BD3EB50446F8
:1043900002208DF80000CA208DF80100E3208DF87E
:1043A000020009208DF803006A460421682002F00B
:1043B00029F8A3208DF8000004F0400048B1C02087
:1043C0008DF80100C8208DF80200C2208DF803008E
:1043D00006E0A3208DF801008DF802008DF803009F
:1043E00004F4C07048B1C4208DF80400CC208DF8CE
:1043F0000500C6208DF8060006E0A3208DF8040015
:104400008DF805008DF80600A3208DF807008DF8C3
:1044100008008DF809006A460A2140F6A72001F03D
:10442000F1FF04F0030018B120208DF8000002E035
:10443000D8208DF800006A46012140F6B62001F030
:10444000E1FF04F0200018B1012000F0ADF802E017
:10445000002000F0A9F804F4C07008B304F48070E0
:1044600060B1B2208DF800008B208DF80100B620DD
:104470008DF802009B208DF803000BE0B0208DF832
:10448000000080208DF80100B4208DF802009020FB
:104490008DF803006A46042140F6A22001F0B2FF25
:1044A00004F0010020B3F8208DF800006A460121D5
:1044B0004FF40B6001F0A6FFFA21072000F046FB45
:1044C000072000F00DFB012000F02DFB642000F020
:1044D0000DFC4FF4FA7000F01CFCC821304800F0CD
:1044E000BDFA282000F0D6FA0A2000F0E6FA08E02B
:1044F000D8208DF800006A4601214FF40B6001F0CE
:1045000081FF04F0020018B1D9208DF8000002E00C
:10451000D8208DF800006A46012140F23D7001F07C
:1045200071FF04F0040018B1012000F069F802E006
:10453000002000F065F804F0100018B10120FFF72A
:1045400007FF02E00020FFF703FF44F008001549D1
:10455000488101F049FB00201249887304F04000B3
:1045600018B10846807B801D887304F4C07020B1A8
:104570000C48807B801D0B49887304F0140020B127
:104580000848807B10300749887304F0030020B18D
:104590000448807B001D0349887300203EBD000055
:1045A00009E3CA02880B00203EB504466CB10EA197
:1045B000D1E900208968CDE9002002916A460921ED
:1045C0004FF4976001F01EFF3EBD0AA2D2E9001031
:1045D0009268CDE9010200916A4609214FF4976083
:1045E00001F010FFF0E70000B8AAB38DB4980D35C4
:1045F0005D000000B8AAAAAAB088C3C5C700000021
:1046000038B5044664B1C0208DF80000C2208DF892
:104610000100C4208DF80200C6208DF8030004E0DC
:104620008B2204216846FBF7C1FE6A46042140F64E
:10463000982001F0E7FE01F0D7FA38BD10B5C82385
:104640004FF48062024940F6F63001F0C1F910BD26
:10465000FC94000870B588B0064601A801F00CF87B
:10466000BDF804000021C90341EA5045C403444891
:10467000007A00F0030056F8200005904048007AC8
:1046800000F0040010B10598404205903C48007AC3
:10469000C0F3C10056F8200006903948007A00F0B7
:1046A000200010B10698404206903548007AC0F3C9
:1046B000811056F8200007903148008900F480707E
:1046C00010B10798404207900598C117A0FB04233A
:1046D00001FB043100FB0510810041EA9270059056
:1046E0000698C117A0FB042301FB043100FB051051
:1046F000810041EA927006900798C117A0FB04233D
:1047000001FB043100FB0510810041EA9270079023
:104710000598000E8DF808000598000C8DF809002A
:104720000598000A8DF80A000598C0B28DF80B00B4
:104730000698000E8DF80C000698000C8DF80D0000
:104740000698000A8DF80E000698C0B28DF80F008A
:104750000798000E8DF810000798000C8DF81100D6
:104760000798000A8DF812000798C0B28DF8130060
:1047700002AA0C214FF4257001F044FE08B070BD70
:10478000880B002030B585B0044616A207CA02ABDC
:1047900007C3C82C03DD4FF0FF3005B030BDC82083
:1047A00090FBF4F0401E85B2280A8DF80000E8B2B4
:1047B0008DF801006A46022140F2162001F022FE27
:1047C00010B14FF0FF30E8E702AA0C2140F6C120FB
:1047D00001F018FE10B14FF0FF30DEE7044884818D
:1047E0000020DAE7FEF2ABC4AAF1DFDFBBAFDFDF08
:1047F000880B00201FB504464848007A00F00300EB
:1048000054F8200001904548007A00F0040010B1EF
:104810000198404201904148007AC0F3C10054F829
:10482000200002903D48007A00F0200010B102986C
:10483000404202903948007AC0F3811054F82000B9
:1048400003903648008900F4807010B1039840420C
:1048500003903349019880FB0101800F40EA8100F9
:1048600001902F49029880FB0110820042EA91706A
:1048700002902B49039880FB0110820042EA91705C
:1048800003900198000E8DF800000198000C8DF83F
:1048900001000198000A8DF802000198C0B28DF85D
:1048A00003006A4604214FF4747001F0ABFD18B1A7
:1048B0004FF0FF3004B010BD0298000E8DF80000DC
:1048C0000298000C8DF801000298000A8DF8020091
:1048D0000298C0B28DF803006A4604214FF4757047
:1048E00001F090FD10B14FF0FF30E3E70398000EA8
:1048F0008DF800000398000C8DF801000398000A61
:104900008DF802000398C0B28DF803006A460421B6
:104910004FF4767001F076FDCCE70000880B0020A4
:1049200009E3CA0210B586B0044647A000680390A8
:1049300046A00068029046A00068019045A000686B
:10494000009004F0030003A9085C8DF8140003A88C
:10495000C4F3C101405C8DF8150003A8C4F38111B4
:10496000405C8DF8160004F0030002A9085C8DF885
:10497000100002A8C4F3C101405C8DF8110002A828
:10498000C4F38111405C8DF8120005AA032140F2A6
:10499000264001F037FD18B14FF0FF3006B010BDD2
:1049A00004AA032140F22A4001F02CFD10B14FF07F
:1049B000FF30F3E7019805900098049004F004009C
:1049C00058B19DF8140040F001008DF814009DF8D6
:1049D000100040F001008DF8100004F0200058B1E4
:1049E0009DF8150040F001008DF815009DF81100AC
:1049F00040F001008DF8110004F4807058B19DF86A
:104A0000160040F001008DF816009DF8120040F0ED
:104A100001008DF8120005AA03214FF4886001F00F
:104A2000F1FC10B14FF0FF30B8E704AA032140F2C7
:104A3000314001F0E7FC10B14FF0FF30AEE706481F
:104A400004810020AAE700004CCD6C000CC92C00AA
:104A50003656760026466600880B0020F8B50546D7
:104A60000E464FF47A7095FBF0F000FB06F4200E32
:104A70008DF80000200C8DF80100200A8DF802004E
:104A8000E0B28DF803006A4604214FF4AE7001F0E5
:104A9000B9FCF8BD38B50446052094FBF0F084B2AB
:104AA00020128DF80000E0B28DF801006A46022164
:104AB0004FF4AD7001F0A6FC38BD38B504460520B2
:104AC00094FBF0F084B220128DF80000E0B28DF873
:104AD00001006A4602214FF4AC7001F093FC38BD2E
:104AE00038B504460020009004F0010020B19DF884
:104AF000000040F03000009004F0020020B19DF86A
:104B0000000040F00C00009004F0040020B19DF87B
:104B1000000040F0030000906A4601214FF4A470A9
:104B200001F070FC38BD38B50446012C01DA0124CF
:104B300002E0042C00DD0424601EC0B200906A462E
:104B4000012140F24F1001F05DFC38BD2DE9FC471A
:104B500006460F4606F0070010B1B7F5C86F03DD33
:104B60004FF0FF30BDE8FC87384603F055FE814624
:104B7000594903F007FD8046684600F057FD9DF84F
:104B80000000022806D0042816D0082826D01028B5
:104B900048D135E04FF08D41404603F085FE814617
:104BA00003F002FE84B24D49404603F07DFE81468B
:104BB00003F0FAFD85B238E04FF08C41404603F037
:104BC00073FE814603F0F0FD84B24549404603F090
:104BD0006BFE814603F0E8FD85B226E04FF08B4185
:104BE000404603F061FE814603F0DEFD84B23D499C
:104BF000404603F059FE814603F0D6FD85B214E02D
:104C00004FF08A41404603F04FFE814603F0CCFD51
:104C100084B23549404603F047FE814603F0C4FDA7
:104C200085B202E04FF0FF309CE700BF20128DF804
:104C30000400E0B28DF8050028128DF80600E8B2F5
:104C40008DF8070006F00100A0B101AA02214FF47F
:104C5000EA7001F0D7FB10B14FF0FF3082E70DF1A1
:104C6000060202214FF4927001F0CCFB10B14FF01C
:104C7000FF3077E706F00200A0B101AA02214FF44D
:104C8000EC7001F0BFFB10B14FF0FF306AE70DF19F
:104C9000060202214FF4947001F0B4FB10B14FF002
:104CA000FF305FE706F00400A0B101AA02214FF433
:104CB000EE7001F0A7FB10B14FF0FF3052E70DF19D
:104CC000060202214FF4967001F09CFB10B14FF0E8
:104CD000FF3047E7002045E700004843000040461A
:104CE0000000C045000040450000C04438B50446FF
:104CF000052094FBF0F085B228128DF80000E8B290
:104D00008DF801006A4602214FF4EF7001F07AFB42
:104D100038BD38B50446052094FBF0F085B2281262
:104D20008DF80000E8B28DF801006A4602214FF4C8
:104D3000ED7001F067FB38BD0D4A12785AB900BF1B
:104D40000C4A128802F04002002AF9D0C2B2094B84
:104D50001B1D1A800AE000BF074A128802F04002B9
:104D6000002AF9D0C2B2044B1B1D1A807047000004
:104D7000B606002000480040003801407CB50546DA
:104D800028494968087801AB04220D2100F014FB82
:104D900008B107207CBD9DF80700C0F301109DF805
:104DA000041001F0E00140EAE1008DF800009DF8F8
:104DB0000700C0F381009DF8051001F0E00140EA12
:104DC000E1008DF801009DF8070000F003009DF858
:104DD000061001F0E00140EAE1008DF80200002435
:104DE0001CE01DF8040018B9002045F8240013E069
:104DF0000D4845F8240006E055F824000B4903F05F
:104E000053FD45F824001DF80400401EC0B20DF803
:104E100004000028F0D100BF601CC4B2032CE0DB0A
:104E20000020B7E7680600207B14AE3E1D5A843F81
:104E30002DE9F04F87B005460C46914601208DF8CC
:104E4000100000208DF81100FE4A1268917CFD4A86
:104E50005268107804AB022200F0E9FA20B14FF05A
:104E6000FF3007B0BDE8F08FC820FFF725FA00201B
:104E70008DF81000F34A1268D17BF24A526810781C
:104E800004AB012200F0D3FA10B14FF0FF30E8E795
:104E9000EC4A12685179EB4A5268107804AB01224F
:104EA00000F0C5FA10B14FF0FF30DAE7E54A1268BA
:104EB000917CE44A5268107804AB012200F0B7FA02
:104EC00010B14FF0FF30CCE7DE4A1268D17DDD4AE9
:104ED0005268107804AB012200F0A9FA10B14FF02B
:104EE000FF30BEE7D74A12681179D64A5268107867
:104EF00004AB012200F09BFA10B14FF0FF30B0E795
:104F00000C208DF81000CF4A12681179CD4A5268F2
:104F1000107804AB012200F08AFA10B14FF0FF3094
:104F20009FE70F20FFF7C8F9C648806A407A8DF8DE
:104F30001000C44A12689178C24A5268107804ABD3
:104F4000012200F074FA10B14FF0FF3089E7BD483C
:104F5000806A007A8DF81000BA4A12685178B94A0E
:104F60005268107804AB012200F061FA10B14FF0E2
:104F7000FF3076E7B9F1000F07D0B248806A807A37
:104F800040F0E0008DF8100004E0AE48806A807ABE
:104F90008DF81000AB4A12689179AA4A52681078CD
:104FA00004AB012200F043FA10B14FF0FF3058E794
:104FB000B9F1000F07D0A348806AC07A40F0E00042
:104FC0008DF8100003E0A048C07A8DF810009D4ACB
:104FD0001268D1799B4A5268107804AB012200F024
:104FE00026FA10B14FF0FF303BE7B9F1000F02D0C5
:104FF000C820FFF761F940208DF81000914A12682F
:105000001179904A5268107804AB012200F00FFA2F
:1050100010B14FF0FF3024E778208DF81000894A56
:1050200012685179874A5268107804AB012200F067
:10503000FEF910B14FF0FF3013E783498889FFF77D
:105040003BF900208DF810007E4A126851797D4AA4
:105050005268107804AB012200F0E9F910B14FF06A
:10506000FF30FEE6774A1268917A764A52681078E5
:1050700004AB022200F0A0F910B14FF0FF30F0E6CF
:105080009DF811009DF8101040EA012B0C209BFBAD
:10509000F0F0C6B20020A86068602860A060606080
:1050A0002060824665E0674A1268D17A654A526894
:1050B000107804AB0C2200F07FF910B14FF0FF30F4
:1050C000CFE69DF811009DF8101040EA012000B2D3
:1050D000ADF808009DF813009DF8121040EA012079
:1050E00000B2ADF80A009DF815009DF8141040EAD2
:1050F000012000B2ADF80C00BDF90810206808448A
:105100002060BDF90A10606808446060BDF90C10A9
:10511000A0680844A0609DF817009DF8161040EAAA
:10512000012000B2ADF800009DF819009DF818109C
:1051300040EA012000B2ADF802009DF81B009DF886
:105140001A1040EA012000B2ADF80400BDF90010C9
:10515000286808442860BDF902106868084468603F
:10516000BDF90410A8680844A8600AF1010000F025
:10517000FF0AB24597DB3448D0F800C02868C11751
:10518000090441EA10410704624600233846FBF750
:1051900040F832460023CDE90201FBF73AF82860D7
:1051A0002948D0F800C06868C117090441EA1041D5
:1051B0000704624600233846FBF72BF832460023EB
:1051C000CDE90201FBF725F868601F48D0F800C060
:1051D000A868C117090441EA104107046246002388
:1051E0003846FBF716F832460023CDE90201FBF7FB
:1051F00010F8A8601448D0F804C02168C81700044B
:1052000040EA11480F046246002338464146FBF746
:1052100000F832460023CDE90201FAF7FAFF2060D8
:105220000948D0F804C06068C117090441EA104178
:105230000704624600233846FAF7EBFF32460023A4
:1052400004E0000068060020D4940008CDE90201C3
:10525000FAF7DFFF60601148D0F804C0A068C117FA
:10526000090441EA10410704624600233846FAF770
:10527000D0FF32460023CDE90201FAF7CAFFA06051
:10528000A068002804DDA068A0F58030A06003E0DD
:10529000A06800F58030A0600020E2E5D49400080A
:1052A0002DE9FC5F0746884600263F494968087893
:1052B00001AB03220D2100F07FF810B10720BDE8FB
:1052C000FC9F9DF8040000F01F008DF804009DF87D
:1052D000050000F01F008DF805009DF8060000F0A5
:1052E0001F008DF80600002459E057F8240058F8F4
:1052F0002410A0EB010BBBF1000F01DB594601E0CC
:10530000CBF10001084603F06FFA4FF08F41009097
:1053100003F038F9824601A8005D78B32349086894
:1053200003F07AFA83465946214803F02BF9814667
:1053300004E02049484603F0B7FA814601A8005D21
:10534000401EC0B201A908550028F2D14946504676
:1053500003F018F983464FF07E5103F0ADFB05468C
:1053600000BF25F00040834610488169584603F08D
:1053700067FB13D20120A04006430FE0FFE70B4874
:105380000169504603F05CFA05D30848416950466C
:1053900003F056FB02D20120A0400643641C032CFC
:1053A000A3DB30468BE7000068060020D494000899
:1053B00000B04C4554E3853F2DE9F04106460F46C9
:1053C00014461D46FCF710F910B90120BDE8F08124
:1053D0007106080EFCF7D6F8FCF75EF918B9FCF771
:1053E00037F90120F2E73846FCF7CCF8FCF754F91E
:1053F000FCF7FAF8012101EB4601C8B2FCF7C2F84C
:10540000FCF74AF90DE0012C04D10020FCF782F8EA
:10541000287003E00120FCF77DF828706D1C601EE9
:10542000C4B2002CEFD1FCF713F90020CEE72DE930
:10543000F04105460E4617469846FCF7D5F810B9D8
:105440000120BDE8F0816906080EFCF79BF8FCF727
:1054500023F918B9FCF7FCF80120F2E73046FCF715
:1054600091F8FCF719F900240BE018F80400FCF798
:1054700089F8FCF711F918B9FCF7EAF80020E0E721
:10548000641CBC42F1DBFCF7E3F80020D9E770B5FF
:105490000546284600F00FF80446E81C00F00BF81B
:1054A00044EAC00084B2A81D00F005F844EA801068
:1054B00084B2204670BD014691F90020002A01DD2A
:1054C00000201EE091F90020002A01DA042018E0F3
:1054D00091F90120002A01DD012012E091F901205B
:1054E000002A01DA05200CE091F90220002A01DDF2
:1054F000022006E091F90220002A01DA062000E0ED
:10550000072070474FF4A060FCF7CAFC0220FCF7AC
:1055100097F90120FCF794F9FEF7ACFE4FF4FA304E
:1055200002F0A4F84FF4164002F04CF8FCF726FB0A
:10553000FCF79EF9FBF7D0F8002141F61F40FCF77D
:1055400007FCFBF737FCFBF785FCFBF7A7FFFCF735
:105550007BFBFBF7DFF8FCF7B5FDFCF75FF94721B4
:105560004FF6FF70FDF7D8FCFCF7BCFB1CE000F029
:1055700091FF01F0C3F80D480078012804D1FBF732
:105580001BFD0020094908700948007808B1FBF7A5
:10559000C9F901200749087000200749087000BFB9
:1055A000044800780028FBD1E1E70000E80600206D
:1055B000B6060020E5060020E406002070B504468B
:1055C000002624F00104184890F8240008B10020B7
:1055D00070BD1548807A10B94FF0FF30F8E71248D7
:1055E000057C807A2040104908740846007CA0425F
:1055F00002D04FF0FF3600E0002614B90A48007DC3
:1056000018B1012001F0A2FE02E0002001F09EFE90
:105610003CB100F0E9FA20B1034805744FF0FF30C7
:10562000D6E73046D4E7000068060020014611485E
:10563000407A30B1012807D0022808D003280CD1C5
:1056400008E0022008700BE00420087008E0082041
:10565000087005E01020087002E04FF0FF3070473E
:1056600000BF0448C07C18B108784006000E0870DE
:105670000020F4E76806002001461348407A30B164
:10568000012808D002280AD0032810D10BE04FF4DB
:10569000804008800EE041F69C7008800AE04FF4DC
:1056A0008050088006E04FF40060088002E04FF070
:1056B000FF30704700BF0448C07C10B1088840101C
:1056C00008800020F5E70000680600200146024837
:1056D000007C0870002070476806002001460F48D3
:1056E000007A30B1012807D0022809D003280FD151
:1056F0000AE0FA2008800EE04FF4FA7008800AE011
:105700004FF47A70088006E04FF4FA60088002E0F7
:105710000020088000BF00BF0020704768060020FE
:1057200001460E48007A30B1012807D0022808D07F
:1057300003280CD108E00A4808600BE0094808601B
:1057400008E00948086005E00848086002E04FF0FA
:10575000FF30704700BF0020FBE700006806002014
:105760000000034300008342333303423333834159
:1057700001461248C07A082817D2DFE800F0170463
:10578000070A0D101318BC20088013E0622008805F
:1057900010E02A2008800DE0142008800AE00A208A
:1057A000088007E00520088004E000BF00BF00205B
:1057B000088000BF00BF002070470000680600207E
:1057C0000146064890F8240010B14FF0FF307047B2
:1057D0000248C08908800020F9E700006806002020
:1057E0001CB580208DF80000654A1268917C644ADF
:1057F000526810786B460122FFF719FE10B14FF086
:10580000FF301CBD6420FEF757FD00208DF800001E
:105810005B4A1268917C5A4A526810786B460122A2
:10582000FFF705FE10B14FF0FF30EAE7544A126867
:10583000917D534A526810786B460622FFF7BCFDF3
:1058400010B14FF0FF30DCE79DF80500C007400FB6
:105850009DF8031001F0010140EA41009DF801109C
:1058600001F0010140EA010494B1012C03D10121AE
:105870004348C17431E0022C03D100214048C17477
:105880002BE021463FA0FAF7E9FC4FF0FF30B8E7E4
:105890003B4A1268D1783A4A526810786B46012226
:1058A000FFF78AFD10B14FF0FF30AAE79DF8000026
:1058B00000F00F042CB93D48FAF7D0FC4FF0FF3050
:1058C0009FE7042C06D13AA0FAF7C8FC01212C4826
:1058D000C17402E000212A48C174FF212848817266
:1058E000FF2027490872FF2125484172C1724FF6F7
:1058F000FF71C181FF21017481740121017380F85E
:105900002210002180F823104175017516300160C6
:1059100041608160163880F8241080F82510C18419
:105920004FF4FA6000F0FCFB10B14FF0FF3068E775
:10593000022000F0C5FA10B14FF0FF3061E72A20D5
:1059400000F068FC10B14FF0FF305AE7322000F051
:10595000A3FC10B14FF0FF3053E70020FFF72EFEFD
:1059600010B14FF0FF304CE7002000F0EBFA10B11F
:105970004FF0FF3045E7002000F0DCFC002040E75E
:1059800068060020556E737570706F7274656420C0
:10599000736F6674776172652070726F647563747B
:1059A000207265762025642E0A00000020A20008DF
:1059B00048616C662073656E736974697669747981
:1059C000207061727420666F756E642E0D0A00007F
:1059D0002DE9F04385B005460E4690469946294884
:1059E00090F8250020B14FF0FF3005B0BDE8F083FE
:1059F00016B94FF0FF30F8E7002423E0281B1028E9
:105A000001DD102000E0281B87B2321939462046FC
:105A100000F0F8FC10B14FF0FF30E6E701AA39467C
:105A2000204600F0A1F810B14FF0FF30DDE730194B
:105A30003A4601A9FAF78EFC10B16FF00100D4E7E5
:105A4000E01984B2AC42D9DB4FEA28208DF800007F
:105A500008F0FF008DF801000A4A1268917E094A99
:105A6000526810786B460222FFF7E1FC10B14FF04C
:105A7000FF30BAE70121034880F82510A0F82690EE
:105A80000020B2E76806002038B50446282C02DD65
:105A90004FF0FF3038BDDCB9002000F085FB00205E
:105AA0008DF8000007208DF801002E4A1268917CC5
:105AB0002C4A526810786B460222FFF7B8FC10B1EE
:105AC0004FF0FF30E6E70021264801750020E1E7AE
:105AD000012000F069FB20208DF80000012C06D188
