:020000040800F2
:10000000A804002001010008C30E0008D10D00085B
:10001000C10E00086D0100089510000800000000E6
:10002000000000000000000000000000C70E0008F3
:100030006F01000800000000C50E0008C90E00088E
:100040001B0100081B0100081B0100081B01000820
:100050001B0100081B0100081B0100081B01000810
:100060001B0100081B0100081B0100081B01000800
:100070001B0100081B0100081B0100081B010008F0
:100080001B0100081B0100081B0100081B010008E0
:100090001B0100081B0100081B0100081B010008D0
:1000A0001B0100081B0100081B0100081B010008C0
:1000B0001B0100081B0100081B0100081B010008B0
:1000C0001B0100081B0100081B0100081B010008A0
:1000D0001B010008891000081B0100081B01000813
:1000E0001B0100081B0100081B010008DFF80CD0F1
:1000F00000F02AF800480047D5100008A8040020A6
:100100000648804706480047FEE7FEE7FEE7FEE7B1
:10011000FEE7FEE7FEE7FEE7FEE7FEE7150F000855
:10012000ED000008D2B201E000F8012B491EFBD21D
:1001300070470022F6E710B513460A4604461946F2
:10014000FFF7F0FF204610BD064C074D06E0E068C3
:1001500040F0010394E8070098471034AC42F6D30E
:10016000FFF7C8FF0411000824110008FEE77047DC
:100170007047000010B590F821100024022903D028
:100180000421816301243DE001680A6822F00E0227
:100190000A6001680A6822F001020A601A4A0168CE
:1001A000914201D1012121E0174A1432914201D13B
:1001B00010211BE0144A2832914201D1891515E023
:1001C000114A3C32914201D189140FE00E4A50325B
:1001D000914202D14FF4803108E00B4A64329142DF
:1001E00002D14FF4801101E04FF08071064A083AC5
:1001F0005160012180F82110002180F82010416B0E
:1002000001B18847204610BD080002402DE9F84F93
:10021000DFF8B891002409F1040A0AF1040B23461F
:100220000F270BF1040EC9E00125A5402A40AA4280
:100230007DD1674ED1F804C0ACEB0608B44532D08E
:1002400014DCBCF1030F3AD009DCBCF1000F2AD05A
:10025000BCF1010F1CD0BCF1020F31D11DE0BCF18B
:10026000110F17D0BCF1120F2AD119E0B8F5881F71
:1002700019D006DCB8F5803F15D0B8F5801F1FD126
:1002800011E0B8F5001F0ED0B8F5041F18D10AE030
:10029000CB6815E0CB681B1D12E0CB6808330FE07C
:1002A000CB680C330CE08B682BB1012B4FF00803AB
:1002B00003D0456104E0042302E0056100E000236F
:1002C000FF2A01D8064601E000F104064FEA840542
:1002D00001D9A5F12005D6F8008007FA05FC28EA27
:1002E0000C0803FA05F548EA0508C6F800804D68D1
:1002F000ED0062D5374DAE6946F00106AE61AD69DD
:1003000024F0030605F001050095334D06EB050CBE
:10031000DCF80850A607360F07FA06F825EA0805A4
:10032000DFF8B880404503D14FF0000817E044E003
:10033000DFF8AC80404502D14FF001080FE0DFF854
:10034000A480404502D14FF0020808E0DFF8988011
:10035000404502D14FF0030801E04FF0040808FACD
:1003600006F848EA0508CCF808804D68D9F800601E
:10037000ED034D4601D5164300E096432E604D68CF
:10038000DAF80060AD03554601D5164300E0964308
:100390002E604D68DBF80060ED025D4601D5164326
:1003A00000E096432E604D68DEF80060AD027546B1
:1003B00001D5164300E096432E60641C0D682A4662
:1003C000E5407FF431AFBDE8F88F00000004014044
:1003D0000000111000100240000001400008014020
:1003E000000C014000100140001401400AB10161FD
:1003F00070470904FBE7000001488068704700006F
:100400000000002002488168027811448160704732
:1004100000000020074810B5016841F0100101609C
:10042000032000F075F8002000F006F800F024F832
:10043000002010BD0020024070B50D4D04464FF461
:100440007A712878B1FBF0F00A490968B1FBF0F045
:1004500000F086FB48B9102C07D200222146501E1E
:1004600000F036F800206C6070BD012070BD000007
:10047000000000200C0000200C4808B5816941F004
:1004800001018161816901F001010091C16941F0BF
:100490008051C161C06900F08050009004484168FB
:1004A00021F0E06141F00071416008BD00100240A0
:1004B00000000140002809DB00F01F0201219140EB
:1004C0004009800000F1E020C0F8001170470000F2
:1004D000F0B40E4B1B680C46C3F30223C3F10705AF
:1004E000042D00D90425191D072901D2002300E09D
:1004F000DB1E012606FA05F1491E214099409E4067
:10050000761E16403143F0BC00F0C5BD0CED00E096
:10051000064900F0070208684FF6FF03184040EA5A
:100520000220034A10430860704700000CED00E011
:100530000000FA052DE9F0470F46050061D0434E53
:10054000306800F00700B84209D2306820F0070098
:1005500038433060306800F00700B84251D1286855
:100560003B4C810712D5400703D5606840F4E0603A
:1005700060602878000703D5606840F460506060D0
:100580006068A96820F0F000084360602878C00720
:1005900028D06868012810D02168022810D0890767
:1005A00000292EDA616821F0030101436160FFF741
:1005B00023FF804641F288390DE021688903EFE787
:1005C0008901EDE7FFF718FFA0EB0801494502D9C3
:1005D0000320BDE8F0876068696800F00C00B0EBAC
:1005E000810FEFD1306800F00700B8420BD93068B6
:1005F00020F0070038433060306800F00700B84250
:1006000001D00120E5E72878400705D56068E96852
:1006100020F4E060084360602878000706D5606831
:10062000296920F4605040EAC100606000F038F8A9
:100630006168084AC1F30311515CC840064908606B
:1006400006480068FFF7F8FE0020C2E700200240DD
:1006500000100240EA1000080C00002004000020F6
:100660000448054900684968044AC1F30221515C05
:10067000C84070470C00002000100240FA1000082B
:100680000448054900684968044AC1F3C221515C25
:10069000C84070470C00002000100240FA1000080B
:1006A00012A185B00FC98DE80F0014A0144A00688C
:1006B00004905168134801F00C03042B10D0082B50
:1006C0000ED1C1F38343C9031DF803000AD5516855
:1006D00004AAC1F34041515C0A4A5043B0FBF1F017
:1006E00005B0704708494843FAE7000002030405D3
:1006F000060708090A0B0C0D0E0F1010010200006E
:100700000010024000127A0000093D002DE9F84F68
:10071000040070D02078C04DC00749D06868C0F38D
:100720008100012807D06868C0F38100022809D140
:100730006868C00306D52868800339D5606800283A
:10074000E7D035E06068B0F5803F0BD010B1B0F570
:10075000A02F11D0286820F480302860286820F469
:10076000802002E0286840F480302860606890B102
:10077000FFF742FE06460AE0286840F48020286021
:10078000F0E700BFFFF738FE801B642873D82868A5
:100790008003F7D50CE0FFF72FFE064605E000BF0B
:1007A000FFF72AFE801B6428F0D828688003F7D45E
:1007B00020789A4E80074FF001094FF0000839D594
:1007C000686810F00C0F07D06868C0F38100022839
:1007D00009D16868C00306D42868800714D5206949
:1007E000012808D110E02069B0B1C6F80090FFF7E9
:1007F00003FE074605E00AE1FFF7FEFDC01B0228E5
:10080000C4D828688007F7D52868616920F0F80007
:1008100040EAC10028600DE0C6F80080FFF7ECFD5B
:10082000074604E0FFF7E8FDC01B022823D828682C
:100830008007F7D4207800072CD57948A169D9B171
:10084000C0F80090FFF7D8FD074604E0FFF7D4FD9D
:10085000C01B02280FD8686A8007F7D571484FF48B
:10086000FA510068B0FBF1F0009000BF0098411E03
:100870000091FAD20EE080E0C0F80080FFF7BCFDE6
:10088000074604E0FFF7B8FDC01B022875D8686A68
:100890008007F7D42078400760D5E8690027C000BA
:1008A00008D4E86940F08050E861E869012700F069
:1008B000805000905C480168C90513D401688346E4
:1008C00041F480710160FFF797FD824606E000BFAA
:1008D000FFF792FDA0EB0A0064284ED8DBF8000079
:1008E000C005F5D5E06801280AD008B1052813D065
:1008F000286A20F001002862286A20F0040002E043
:10090000286A40F001002862E06841F2883B98B113
:10091000FFF772FD82460BE0286A40F0040028626F
:10092000EEE700BFFFF768FDA0EB0A0159455AD872
:10093000286A8007F6D50CE0FFF75EFD824605E0E9
:10094000FFF75AFDA0EB0A0159454CD8286A8007E9
:10095000F6D41FB1E86920F08050E861E06988B3FF
:100960006968C1F38101022944D00228C6F8608079
:1009700004D0FFF741FD044638E034E0FFF73CFDCA
:10098000074604E0FFF738FDC01B02282BD8286873
:100990008001F7D4206AB0F5803F05D16868A1686E
:1009A00020F4003008436860D4E90801084369680E
:1009B00021F4741108436860C6F86090FFF71CFDCD
:1009C000044606E025E000BFFFF716FD001B0228E5
:1009D00009D828688001F7D51BE000BFFFF70CFDA0
:1009E000001B022802D90320BDE8F88F2868800187
:1009F000F4D40EE00128F7D06868226A00F4803150
:100A0000914204D1616A00F47010884201D0012043
:100A1000EAE70020E8E70000001002400000424240
:100A2000800442420C0000200070004070B50400B9
:100A300009D0606A002540B125616561A56294F81E
:100A4000510040B10CE0012070BD6068B0F5827FBC
:100A5000F4D0E561F2E784F85050204600F040F809
:100A6000022084F851002068016821F040010160F3
:100A7000A088218900F4827001F404410843A1890F
:100A800001F400610843217C01F002010843217D4B
:100A900001F001010843218B01F400710843217F1B
:100AA00001F03801084394F8201001F08001084358
:100AB000218D01F40051084321680860A0690421D8
:100AC00001EA1040216848602068C16921F4006192
:100AD000C1616565012084F85100002070BD0000EF
:100AE00030B585B00024009401940294039400680A
:100AF000174988422AD11748816941F480518161A0
:100B0000816901F480510491816941F0080181619A
:100B10008069114D00F00800049028200090022008
:100B200001900320039069462846FFF76FFB1020D1
:100B3000CDE90004694628460294FFF767FB0748A1
:100B4000416841F0E06141F00101416005B030BD14
:100B50000030014000100240000C01400000014044
:100B600010B5401EB0F1807F01D3012010BD4FF0C1
:100B7000E02460610F21601700F08DFA0020A06171
:100B800007202061002010BD7047000070B502688A
:100B900004461068D168536910F00F0F52D003F06B
:100BA000010501F490762E435FD0C20705D0CA0537
:100BB00003D5E26B42F00102E263420705D5DA0792
:100BC00003D0E26B42F00202E263820705D5DA0746
:100BD00003D0E26B42F00402E263020707D501F0A2
:100BE00020022A4303D0E26B42F00802E263E26B88
:100BF000002A33D0800604D5880602D5204600F0AE
:100C0000A0F920684069E16BC0F38010090700D4A7
:100C100028B3204600F087F92068416949061AD5B3
:100C2000416921F040014161606BA0B12D494163F0
:100C3000606BFFF79FFA002810D0606B416BBDE836
:100C400070400847830610D58B060ED52046BDE8B8
:100C5000704000F076B92046FFF796FF70BD204641
:100C6000FFF792FF0020E06370BD03062BD50B0653
:100C700029D594F839002128F6D1A068B0F5805F15
:100C800001D12069B0B1206A411C2162216800783D
:100C90004860E08C401E0004000CE084E4D1206831
:100CA000C16821F08001C1602068C16841F0400145
:100CB000C16070BD206A0088C0F308005060206ADF
:100CC000801C2062E5E74006F3D54806F1D5D168DF
:100CD000204621F04001D160202184F8391000F035
:100CE00076F870BD170F000870B5040004D094F8B2
:100CF0003900002510B106E0012070BD84F838509D
:100D0000204600F023F8242084F839002068C168C8
:100D100021F40051C160204600F05AF920680169B1
:100D200021F4904101612068416921F02A0141616B
:100D30002068C16841F40051C160E563202084F857
:100D4000390084F83A00002070BD000030B585B04D
:100D50000024009401940294039400681849884286
:100D60002CD11848816941F480418161816901F485
:100D700080410491816941F0040181618069124DD3
:100D800000F0040004904FF40070009002200190E5
:100D90000320039069462846FFF738FA2815CDE965
:100DA0000004694628460294FFF730FA00221146F3
:100DB0002520FFF78DFB2520FFF77CFB05B030BD1C
:100DC00000380140001002400008014070477047A1
:100DD000FEE7000030B585B0002418480094019467
:100DE00002940394816941F020018161816901F0DD
:100DF00020010491816941F004018161816901F060
:100E000004010491816941F00801816180690C4D00
:100E100000F008000490012278212846FFF7E6FA46
:100E2000782000900120CDE9010403200390694659
:100E30002846FFF7EBF905B030BD00000010024076
:100E4000000801400F4810B50D4901604FF4827150
:100E5000416000218160C1604FF400720161C0E90E
:100E60000512C1610162416281620A21C162FFF71C
:100E7000DDFD002803D0BDE81040FFF779B910BDB3
:100E800000300140100000200C4810B50A490160F4
:100E90004FF4E1314160002181600C22C160C0E962
:100EA00004128161C161FFF71FFF002803D0BDE874
:100EB0001040FFF75DB910BD003801406800002008
:100EC000FEE7704770477047FFF79CBA30B58FB0A8
:100ED00028216846FFF72DF914210AA8FFF729F900
:100EE0000121080400240491CDE90010CDE9080493
:100EF0000294022507956846FFF708FC0F200A9028
:100F0000CDE90B540D9400210AA80E94FFF712FBB3
:100F10000FB030BD704710B5406A0021C185C18453
:100F2000FFF732FE10BD0168CA6822F49072CA60F1
:100F300001684A6922F001024A61202180F83A10D2
:100F4000704710B590F83A10222901D0022010BD48
:100F500082684FF480539A4201D1016921B1816ABC
:100F60009A421BD04AB10AE00268816A5268C2F311
:100F700008020A80816A891C08E0026972B102686D
:100F8000526802F07F020A70816A491C8162C18D39
:100F9000491E0904090CC18503D016E00268526895
:100FA000F1E70168CA6822F02002CA600168CA68D5
:100FB00022F48072CA6001684A6922F001024A6123
:100FC000202180F83A10FFF701FF002010BD00003B
:100FD00070B5044600680169E26821F4405111438C
:100FE00001612169A0680843616908432168CA68F2
:100FF00041F20C639A430243CA6020684169A269C6
:1010000021F44071114341611E492068884202D198
:10101000FFF736FB01E0FFF723FB00EBC00101EB1C
:101020000012606864218000B2FBF0F3B3FBF1F3BF
:101030006FF018067343B2FBF0F5B2FBF0F605EB68
:101040008305322303EB0515B5FBF1F5B6FBF1F68D
:1010500005F0F00505EB0615B2FBF0F6B2FBF0F07B
:10106000B0FBF1F06FF01802504306EB800003EB89
:101070000010B0FBF1F0216800F00F0028448860F8
:1010800070BD0000003801400148FFF77FBD00003F
:1010900068000020FEE70907090E002804DB00F1C4
:1010A000E02080F80014704700F00F0000F1E0200D
:1010B00080F8141D704702E008C8121F08C1002AFA
:1010C000FAD170477047002001E001C1121F002AC9
:1010D000FBD17047FFF79EF9FFF7F8FEFFF77AFEA6
:1010E000FFF7D2FEFFF7AEFEFEE7000000000000B3
:1010F00000000102030406070809000000000102C5
:10110000030400002411000800000020100000006B
:10111000B6100008341100081000002098040000E8
:10112000C6100008010000001000000000000000D0
:041130000024F400A3
:04000005080000ED02
:00000001FF
