:020000040800F2
:1000000080070020CD0100088D0400088504000849
:10001000890400087502000857100008000000005D
:10002000000000000000000000000000B10800080F
:100030007902000800000000990700089D090008E7
:10004000E7010008E7010008E7010008E7010008F0
:10005000E7010008E70100087D020008E701000849
:10006000E7010008E7010008E7010008E7010008D0
:10007000E7010008E7010008E7010008E7010008C0
:10008000E7010008E7010008E7010008E7010008B0
:10009000E7010008E7010008E7010008E7010008A0
:1000A000E7010008E7010008E7010008E701000890
:1000B000010A0008B50A0008E7010008E701000886
:1000C000E7010008E7010008E7010008E701000870
:1000D000E7010008A50E0008E7010008E701000895
:1000E000E7010008E7010008E7010008E701000850
:1000F000E7010008E7010008E7010008E701000840
:10010000E7010008E7010008E7010008E70100082F
:10011000E7010008E7010008E7010008E70100081F
:10012000E7010008E7010008E7010008E70100080F
:1001300000F002F800F03AF80AA090E8000C8244BF
:100140008344AAF10107DA4501D100F02FF8AFF29C
:10015000090EBAE80F0013F0010F18BFFB1A43F0A5
:1001600001031847F816000018170000103A24BFC2
:1001700078C878C1FAD8520724BF30C830C144BF0C
:1001800004680C607047000000230024002500264E
:10019000103A28BF78C1FBD8520728BF30C148BFEA
:1001A0000B6070471FB51FBD10B510BD00F033F8D0
:1001B0001146FFF7F7FF00F053FF00F051F803B4CA
:1001C000FFF7F2FF03BC00F048FF0000094880473A
:1001D00009480047FEE7FEE7FEE7FEE7FEE7FEE729
:1001E000FEE7FEE7FEE7FEE704480549054A064B41
:1001F00070470000A10900083101000880010020BB
:100200008007002080030020800300207047704793
:10021000704770477047754600F028F8AE460500F5
:100220006946534620F00700854618B020B5FFF711
:10023000DBFFBDE820404FF000064FF000074FF015
:1002400000084FF0000B21F00701AC46ACE8C009F4
:10025000ACE8C009ACE8C009ACE8C0098D467047FD
:100260000446AFF300802046FFF7A9FF004870471F
:100270001C01002000BFFEE77047000010B54FF4DE
:10028000805000F013F840B104480068401C034956
:1002900008604FF4805000F003F810BD18000020F3
:1002A0000149086070470000140401400146002025
:1002B0000022074B1B6803EA0102054B14331B683D
:1002C0000B4013B10AB1012000E00020704700008C
:1002D000000401402DE9F0410246002500260020DF
:1002E00000230024002791F803C00CF00F0591F8BB
:1002F00003C00CF0100CBCF1000F03D091F802C049
:100300004CEA050591F800C0BCF1000F31D014682B
:1003100000202BE04FF0010C0CFA00F3B1F800C004
:100320000CEA03069E4220D183004FF00F0C0CFA1A
:1003300003F7BC4305FA03FC4CEA040491F803C03C
:10034000BCF1280F06D14FF0010C0CFA00FCC2F8EA
:1003500014C00AE091F803C0BCF1480F05D14FF07A
:10036000010C0CFA00FCC2F810C0401C0828D1D3C4
:100370001460B1F800C0BCF1FF0F34DD54680020F8
:100380002EE000F1080C4FF0010808FA0CF3B1F868
:1003900000C00CEA03069E4221D183004FF00F0CEF
:1003A0000CFA03F7BC4305FA03FC4CEA040491F889
:1003B00003C0BCF1280F05D100F1080C08FA0CF8B5
:1003C000C2F8148091F803C0BCF1480F07D100F1C6
:1003D000080C4FF0010808FA0CF8C2F81080401C15
:1003E0000828CED35460BDE8F0810000F0B50A467D
:1003F000002300240021002500F00046B6F1004F44
:1004000002D11D4EF16901E01B4E7168C0F3034536
:1004100083B200F44016B6F5401F08D121F0706198
:10042000154E766826F07066134F7E6012E000F479
:100430008016B6F5801F06D1032606FA05F4A143FF
:1004400041F0706106E0460D360103FA06F6B1434D
:1004500041F0706122B1460D360103FA06F63143D0
:1004600000F00046B6F1004F02D1034EF16101E009
:10047000014E7160F0BD0000000001404161704715
:100480000161704700BFFEE700BFFEE77047000054
:1004900070B5002100230F22C47804B3154C2468E2
:1004A00004F4E064C4F5E064210AC1F10403CA4025
:1004B000447804FA03F184781440214309010E4C76
:1004C0000678A155047804F01F050124AC40057896
:1004D0006D11AD0005F1E025C5F8004109E0047893
:1004E00004F01F050124AC40044D0678761145F850
:1004F000264070BD0CED00E000E400E080E100E08B
:1005000002490143024A1160704700000000FA05E9
:100510000CED00E070B5002419E004F1B001C8B2A0
:10052000002100F0F7F80021022000F0F3F800218C
:10053000102000F0EFF8002505E00121002000F078
:10054000E9F8681CC5B2802DF7DB601CC4B2082C2A
:10055000E3DB70BD08B50121082000F02FF94FF44E
:100560007840ADF8000010208DF8030003208DF8CE
:10057000020069465848FFF7ADFE4FF478415648EF
:10058000FFF77EFF0320ADF8000069465348FFF7F0
:10059000A1FE03215148FFF773FF4FF40040ADF86F
:1005A000000069464E48FFF795FE4FF400414C4865
:1005B000FFF766FF4FF400514748FFF761FF4FF424
:1005C00000514548FFF75AFF4FF400514248FFF7EA
:1005D00057FF0021AE2000F09DF80021022000F01E
:1005E00099F80021102000F095F80021402000F03B
:1005F00091F80021812000F08DF80021CF2000F03B
:1006000089F80021A12000F085F80021C82000F021
:1006100081F80021A62000F07DF80021A82000F03C
:1006200079F800213F2000F075F80021812000F0CA
:1006300071F80021FF2000F06DF80021D32000F0B8
:1006400069F80021084600F065F80021D52000F087
:1006500061F80021802000F05DF80021D92000F031
:1006600059F80021F12000F055F80021DA2000F0BF
:1006700051F80021122000F04DF80021DB2000F09D
:1006800049F80021402000F045F80021202000F02A
:1006900041F80021022000F03DF800218D2000F0FB
:1006A00039F80021142000F035F80021A42000F0D2
:1006B00031F80021A62000F02DF80021AF2000F035
:1006C00029F80021AF2000F025F8FFF723FF0021D3
:1006D000084600F007F808BD000C0140001001407A
:1006E0000020014070B504460D4605F1B001C8B2C6
:1006F000002100F00FF8102141EA1410002100F051
:1007000009F804F00F0141F00100002100F002F8A7
:1007100070BD000070B504460E462EB14FF48051F6
:100720001C48FFF7ADFE04E04FF480511948FFF775
:10073000A5FE4FF400611748FFF7A0FE00251BE05F
:100740004FF400411348FFF799FE04F0800028B1F0
:100750004FF480410F48FFF793FE04E04FF48041CF
:100760000C48FFF78BFE4FF400410A48FFF788FE64
:100770006006040E681CC5B2082DE1DB4FF4006171
:100780000448FFF77DFE4FF480510248FFF778FEE2
:1007900070BD0000000C01407047000029B1064AFE
:1007A000D2690243044BDA6104E0034AD26982430E
:1007B000014BDA61704700000010024029B1064A7F
:1007C00092690243044B9A6104E0034A92698243AE
:1007D000014B9A61704700000010024030B50021C3
:1007E0000022002400232D4D6D6805F00C0121B17D
:1007F000042905D0082923D105E0294D056022E010
:10080000274D05601FE0254D6D6805F47012234DDE
:100810006D6805F48034022505EB92421CB9214D28
:10082000554305600BE01D4D6D6805F400351DB1A5
:100830001C4D5543056002E0194D5543056002E02B
:10084000174D056000BF00BF144D6D6805F0F00145
:100850000909154D6B5C0568DD4045600F4D6D68FD
:1008600005F4E061090A104D6B5C4568DD40856068
:100870000A4D6D6805F46051C90A0B4D6B5C456803
:10088000DD40C560054D6D6805F44041890B074D9D
:100890006B5CC568B5FBF3F5056130BD0010024027
:1008A00000127A0000093D003400002044000020BE
:1008B000704710B500F002F810BD00000CB5002024
:1008C000019000903348006840F48030314908605E
:1008D00000BF3048006800F4003000900198401CD0
:1008E0000190009818B90198B0F5A06FF1D129488E
:1008F000006800F4003010B10120009001E00020F9
:1009000000900098012843D12348006840F010006F
:10091000214908600846006820F003000860084686
:10092000006840F0020008601A48406819494860B1
:100930000846406848600846406840F48060486067
:100940000846406820F47C1048600846406840F43F
:10095000E81048600846006840F08070086000BFFA
:100960000C48006800F000700028F9D00948406881
:1009700020F00300074948600846406840F0020044
:10098000486000BF0348406800F00C000828F9D117
:100990000CBD000000100240002002407047000023
:1009A00010B51348006840F001001149086008467E
:1009B0004068104908400E494860084600680E49E2
:1009C00008400B4908600846006820F48020086051
:1009D0000846406820F4FE0048604FF41F0088601D
:1009E000FFF767FF4FF000600449086010BD00008A
:1009F000001002400000FFF8FFFFF6FE08ED00E0E7
:100A000010B50121880700F0DEF840B10448006805
:100A1000401C034908600121880700F0C5F810BD9B
:100A20000800002030B589B005460C460121084673
:100A3000FFF7B4FE01210520FFF7C0FE01211B488E
:100A4000FFF7D4FC0420ADF8200018208DF8230017
:100A500003208DF8220008A91548FFF73BFCADF8EC
:100A60001850ADF814400020ADF81A00ADF816008B
:100A700005A94FF0804000F0C3F97020ADF80400E4
:100A80000120ADF806000020ADF80C0001A94FF0E0
:100A9000804000F009F90821C80600F055F901214D
:100AA000880700F084F809B030BD0000000118008C
:100AB0000008014010B50121064800F084F840B15B
:100AC0000121044800F070F803480078401C0249F6
:100AD000087010BD000400402100002030B589B02E
:100AE00005460C4601210220FFF758FE01210D208A
:100AF000FFF764FE01212848FFF778FC2320ADF8BA
:100B0000200018208DF8230003208DF8220008A96A
:100B10002248FFF7DFFB4020ADF8200018208DF8B9
:100B2000230003208DF8220008A91D48FFF7D2FBFF
:100B3000ADF81850ADF814400020ADF81A00ADF82B
:100B4000160005A9174800F05BF97020ADF8040005
:100B50000120ADF806000020ADF80C0001A91148F5
:100B600000F042F808210F4800F090F801A90D4864
:100B700000F09AF808210B4800F0E6F801A90948AE
:100B800000F0ECF80821074800F026F9012105489B
:100B900000F00DF809B030BD00081A00000C01404B
:100BA0000010014000040040CA430282704721B196
:100BB000028842F00102028004E002884FF6FE73D0
:100BC0001A400280704730B50246002000230024FE
:100BD000158A05EA0103958905EA010413B10CB1F0
:100BE000012000E0002030BD70B500240022002369
:100BF000058C4FF6EF7635400584028C8388048B94
:100C000048F6FF752C404FF6FF452C400D884FF6F7
:100C1000FF7606EA05252C434FF6DF752A400D893D
:100C200006EA05152A434D8806EA05152A43154D9F
:100C3000A84202D0144DA8421DD14FF67F752A401C
:100C40004D894FF6FF7606EA05152A434FF6BF7524
:100C50002A408D8806EA05152A434FF6FF352B40BA
:100C60004FF2FF752B408D8906EA85052B43CD8910
:100C700006EA85052B4383800483CD88058702849B
:100C800070BD0000002C0140003401400A460021E4
:100C9000018B4FF2FF7319404FF6FF7303EA0223F3
:100CA000194301837047000070B50024002200231F
:100CB000058C4FF6FF6635400584028C8388848B53
:100CC0004FF68F752C404FF6FC752C400D882C4349
:100CD0004FF6FF552A400D894FF6FF7606EA0525A7
:100CE0002A434D8806EA05252A43154DA84202D01D
:100CF000144DA8421DD14FF2FF752A404D894FF681
:100D0000FF7606EA05252A434FF6FF352A408D88EF
:100D100006EA05252A434EF6FF752B404DF6FF7572
:100D20002B408D8906EA05152B43CD8906EA05156A
:100D30002B4383808483CD888587028470BD000027
:100D4000002C0140003401400A460021818B4FF6FF
:100D5000F7731940114381837047000070B500227A
:100D600000230024058C4EF6FF7635400584038C65
:100D70008488828B48F6FF752A404FF6FF452A404B
:100D80000D884FF6FF7606EA05252A434DF6FF75D6
:100D90002B400D8906EA05352B434D8806EA0535BB
:100DA0002B430B4DA84202D00A4DA84208D14BF666
:100DB000FF752C408D894FF6FF7606EA85152C438A
:100DC00084808283CD88A0F84050038470BD0000E9
:100DD000002C0140003401400A460021818B4FF273
:100DE000FF7319404FF6FF7303EA0223194381830F
:100DF00070470187704781877047A0F8401070479F
:100E0000002202881D4B98420ED01D4B98420BD0F9
:100E1000B0F1804F08D01B4B984205D01A4B984236
:100E200002D01A4B984204D14FF68F731A404B8868
:100E30001A43174B984207D0164B984204D04FF6EE
:100E4000FF431A40CB881A4302808B8883850B8826
:100E500003850A4B98420BD0094B984208D00E4BA1
:100E6000984205D00D4B984202D00D4B984201D1CB
:100E70000B7A03860123838270470000002C014017
:100E8000003401400004004000080040000C004015
:100E900000100040001400400040014000440140A8
:100EA0000048014010B540F22551034800F012F807
:100EB00008B100F077F910BD0038014021B18289F6
:100EC00042F40052828104E082894DF6FF731A4099
:100ED0008281704770B5024600240023002500205F
:100EE00040F66A16B14200D100BFC1F3421501F0CD
:100EF0001F03012606FA03F3012D02D19689334020
:100F000006E0022D02D1168A334001E0968A334072
:100F10000C12012606FA04F41688344013B10CB101
:100F2000012000E0002070BDF0B50346002400263B
:100F30000025002040F66A17B94200D100BF1846CC
:100F4000C1F3421401F01F06012707FA06F5012C30
:100F500001D10C3004E0022C01D1103000E014303B
:100F60001AB107682F43076002E00768AF430760C4
:100F7000F0BD00002DE9F04786B005460E4600247E
:100F8000A24600BFA1460027B08900B100BF2F468E
:100F90002C8A4CF6FF700440F08804432C82AC8904
:100FA0004EF6F3100440B088318908437189084334
:100FB0000443AC81AC8A4FF6FF400440B08904433F
:100FC000AC8201A8FFF70AFC1F48874202D1DDF876
:100FD00010A001E0DDF80CA0A88900F4004040B1A9
:100FE0000AEBCA0000EB0A1031684900B0FBF1F8C7
:100FF00007E00AEBCA0000EB0A1031688900B0FB79
:10100000F1F86420B8FBF0F004012009642101FB31
:101010001089A88900F4004040B1322000EBC900DB
:10102000B0FBF1F000F00700044308E0322000EBD1
:1010300009106421B0FBF1F000F00F0004432C8193
:1010400006B0BDE8F08700000038014001468888FE
:10105000C0F30800704700BFFEE7014600BF7047BD
:10106000FFF778FA4FF4A060FFF74AFA41F61F4104
:10107000C720FFF733FD41F61F41C720FFF7D2FC21
:101080004FF4165000F000F9B72038490870C1201D
:101090003749087069E03748007801282AD1364876
:1010A000008800F085FA0746344900F09FF90646AB
:1010B0004FF0834100F090FA0546314900F034F9D1
:1010C000044600F055FA294908702E48008800F0BF
:1010D0006FFA07462C4900F089F906462B4900F0C3
:1010E0007BFA05462A4900F01FF9044600F040FA51
:1010F0001F4908701E480078B22802DAB2201C4945
:1011000008701B480078C12802DDC120184908700A
:1011100020480078012803D1B0201F49087002E060
:10112000B7201D49087012480078C0F5B670401EFF
:101130001A49087008460078AB2801DAAB2008701D
:101140000B4801781648FFF754FE144801781448FC
:10115000FFF751FE054801784FF08040FFF74BFE46
:101160000D4801780E48FFF748FE94E70000002084
:1011700001000020320000202E00002000007A43F1
:1011800000002F433000002000007F430000A041FA
:101190000000324320000020030000200200002055
:1011A0000004004010B53048FFF750FF2F49088079
:1011B0002F480078062854D2DFE800F00316262EC8
:1011C000363E2A480088FF280AD1012028490870A5
:1011D000264800882749088001202749087002E036
:1011E0000020234908703CE020480088FE2807D1F1
:1011F00002201F4908701D4800881E49488002E0EF
:1012000000201B4908702CE003201949087017487A
:1012100000881849888024E0042015490870134884
:1012200000881449C8801CE00520114908700F4847
:1012300000881049088114E00C480088FD280CD172
:101240000C4880880D4908800A48C0880C490880ED
:101250000848007A0B49087002E000200449087031
:1012600000BF00BF10BD0000003801402A00002070
:101270002C00002010010020320000202E00002051
:10128000300000202000002010B586B00446012167
:1012900044F20400FFF792FA4FF40070ADF8140026
:1012A00003208DF8160018208DF8170005A91C489A
:1012B000FFF710F84FF48060ADF8140004208DF8AB
:1012C000170005A91648FFF705F825208DF800003E
:1012D00003208DF801008DF8020001208DF8030035
:1012E0006846FFF7D5F801940020ADF80800ADF886
:1012F0000A00ADF80C00ADF810000C20ADF80E009F
:1013000001A90848FFF736FE012240F225510548A1
:10131000FFF70AFE01210348FFF7D0FD06B010BD1C
:10132000000801400038014090EA010F48BF81F0F9
:10133000004100F12482421A3CBF801A89184FEA0A
:10134000D0524FF07F4C1CEA410FA2EBD15318BF93
:101350009CEA026F00F03B804FF0004C4CEA00200A
:101360004CEA012121FA03FC10EB0C0C1ED202F115
:10137000FF325FEA1C2040EBC25038BF70471CF0C0
:101380007F0F4FEA400C18BFBCF17F4F38BF70474A
:10139000C3F12003994008BF20F00100BCF17F4F4A
:1013A00038BF7047A0F1C04000F0DDB94FEA3C0003
:1013B000000A40EBC25028BF1CF0FF0F4FEA400C60
:1013C000E6D018BFBCF17F4F38BF7047EAE79CEA10
:1013D000026F05D010EA5C0F08BF00F000407047B4
:1013E00010B500F07AF900BF64FBBE3E4FF47F0CED
:1013F0001CEAD0121EBF1CEAD11392EA0C0F93EA2A
:101400000C0F00F0858090EA010F48BF42F4807213
:1014100040F4000C41F400002CF07F4120F07F40AC
:1014200000B58142A2EB03020FF2081CACEB504E58
:10143000C0F100009EF800E04FEA4E0E00FB0EFCEB
:1014400038BF49004FEA2C1C02F5FA020CFB0EF3E0
:101450004FEACE1E4FEA112C4FEAC1210EEB635E1C
:1014600042EB22420EFB0CFC4FEA1C5300FB031123
:101470004FEA112C4FEA01310EFB0CFC4FEADC4C19
:1014800000FB0C11C14228BF09184CEB03335DF877
:1014900004EB10EB410143EBC250B2F57C0F38BFB7
:1014A000704729D512F0F00F1CBF00F1C04000F0CA
:1014B00000407047008182838485868788898B8C71
:1014C0008D8E8F919293959697999A9C9D9FA0A2AD
:1014D000A3A5A7A8AAACAEB0B2B3B5B7B9BCBEC0FD
:1014E000C2C5C7C9CCCED1D4D7D9DCDFE2E6E9EC9E
:1014F000F0F3F7FAFE0000004FEA400C0CF1807C9C
:10150000BCF17E4F28BF7047B0F1C04000F02BB94E
:1015100090EA010F0CEAD11348BF42F48072624591
:1015200038BF634507D213F47F0F16D080EA01005D
:1015300000F00040704710B500F0CFF8097EFC3E87
:1015400000F005B880EA010000F00040704780EA32
:10155000010000F0004000F006B912F47F0F04BF54
:101560000248704780EA010000F0FDB80000C07F2B
:10157000C10DD1F19E0206DB4FEA002343F0004388
:1015800023FA02F07047004207D54FEA4001B1F15B
:10159000FE4F02D24FF00000704710B500F09DF8EA
:1015A00049922480002070476FEA200070470000B5
:1015B000B0FA80F310FA03F2C3F19D030AD0D90503
:1015C00001EB1220530638BF704700F1010008BF3D
:1015D00020F00100704700004FF47F0C1CEAD0128D
:1015E0001EBF1CEAD11392EA0C0F93EA0C0F00F015
:1015F000478090EA010F48BF42F480724FF0004CE0
:101600004CEA00204CEA012102EB0302A0FB01138B
:10161000A2F50002002918BF43F001035B0028BFB8
:101620004FEA330342EB22425FEA132C4CEBC250E9
:101630002EBFBCEB436FB2F57C0F70474FEA036CD3
:10164000BCF1004F08BF20F00100B2F57C0F38BF9D
:1016500070470BD582F0FF0212F5803FC8BF70477C
:1016600000F1C040D8BF00F00040704700F5000C0A
:101670005FEA4C0C48BF7047B0F1C04000F073B84F
:1016800090EA010F0CEAD11348BF42F48072624520
:1016900038BF634504D280EA010000F00040704783
:1016A00010B500F01AF800BF8900013E00F007B83D
:1016B00000F009B85FEA410C5FEA1C6C08D080EAD0
:1016C000010000F050B85FEA400C5FEA1C6CF6D1F4
:1016D0004FF00040A0F5800070470EF1020E2EF092
:1016E000030E5EF8044B244204D44FEA4102B2F1E7
:1016F0007F4F11D84FEA4003B3F17F4F0CD80ED182
:101700004FEAD07CB2F17F4F0CEB4C0C0CF1020C89
:1017100008BF4CEBD17C04E04FF0080C01E04FEA2D
:10172000D17C0CEB4C0324FA03F404F00704B4F16D
:10173000040C06D20EEB840CBDE810404CF0010CFA
:101740006047DFE80CF0070802024FF00040A0F508
:10175000800010BD0846420018BFD2F1807288BFD9
:1017600000F0004010BDFF2141EAD050C005704795
:1017700090EA010F48BF81F000413FF5DCAD421A0D
:1017800004D882F00042A0EB020011444FEAD0528C
:101790004FF07F4C1CEA410FA2EBD15318BF9CEADB
:1017A000026F4AD04FF0004C4CEA00204CEA012175
:1017B00021FA03FCB0EB0C0C0FD412F0FE0F36D064
:1017C0005FEA4C001DD5001240EBC25038BF704795
:1017D0001CF03F0F18BF70470BE0A2F101025FEA57
:1017E0001C2040EBC25038BF70471CF07F0F18BF61
:1017F0007047C3F12003994014BF401E20F0010040
:10180000704780084FEA122308BF7047B0FA80FC87
:10181000A2EB0C02CCF1280C60FA0CF093EA122F28
:1018200004BF00EBC25070474FEAC3707047130A01
:101830005FEADC1008BF7047F6E79CEA026F04D04D
:1018400010EA5C0F08BF0020704710B5FFF745FF96
:1018500040DFF63E81F00040704700007C18000831
:1018600000000020480000006C010008C4180008B7
:101870004800002038070000880100080000000030
:101880000000000000000000000000000000000058
:101890000000000000000000000000000000000048
:1018A0000000000000000000000000000000000038
:1018B00000000000010203040102030406070809F6
:0418C0000204060810
:04000005080001CD21
:00000001FF
