:020000040800F2
:10000000E80500200101000893220008151B0008E4
:10001000912200089708000801270008000000004E
:10002000000000000000000000000000872300081E
:1000300099080008000000008523000889230008B3
:100040001B0100081B0100081B0100081B01000820
:100050001B0100081B0100081B0100081B01000810
:100060001B0100081B0100081B0100081B01000800
:100070001B0100081B0100081B0100081B010008F0
:100080001B0100081B0100081B0100081B010008E0
:100090001B0100081B0100081B0100081B010008D0
:1000A0001B0100081B0100081B0100081B010008C0
:1000B000ED230008F92300081B0100081B010008BC
:1000C0001B0100081B0100081B0100081B010008A0
:1000D0001B0100081B0100081B0100081B01000890
:1000E0001B0100081B0100081B010008DFF80CD0F1
:1000F00000F0A8FB00480047692C0008E805002034
:100100000648804706480047FEE7FEE7FEE7FEE7B1
:10011000FEE7FEE7FEE7FEE7FEE7FEE7EB2300086B
:10012000ED000008202A04DB203A21FA02F0002129
:10013000704721FA02F3D040C2F1200291400843F7
:100140001946704740EA01039B0703D009E008C93C
:10015000121F08C0042AFAD203E011F8013B00F88C
:10016000013B521EF9D27047D2B201E000F8012BD8
:10017000491EFBD270470022F6E710B513460A4627
:1001800004461946FFF7F0FF204610BDF0B480EAA0
:100190000102D40F4200B2EB410F02D202460846E0
:1001A00011464A0042D0C30DDDB2C1F3C752AD1AA9
:1001B000202D35DAC1F3160141F4000204B1524298
:1001C000C5F1200602FA06F12A411044B3EBD05FD4
:1001D00023D0C4B1012DA0EBC35009DCF0BC4FF01B
:1001E000004202EAC352DBB200F5000000F09EBA02
:1001F000400000F1807000EBC350A0F1807040EA35
:10020000D170490009E0490841EAC071A0EBC35030
:1002100000F50000400800EBC350F0BC00F07DBAD0
:100220006142012202EB4101001BF6E7F0BC70477E
:1002300081F00041AAE780F00040A7E780EA0102D0
:1002400010B502F00043400022D04A001FD0010E3A
:1002500001EB1261C0F35600C2F3560240F40000F5
:1002600042F40002A0FB022000047F39140400D0F5
:10027000401C50EA124001D44000491EC2B20C0694
:1002800004EBD010401C4008802A02D003E000207C
:1002900010BD20F00100002900DA0020184310BD35
:1002A00030B480EA010202F0004530F0004221F053
:1002B000004013D090B1C30DD40DC2F31601C0F3AA
:1002C0001600E41A41F4000140F400027D3491422A
:1002D00001D3641C00E04900002C02DA30BC00208D
:1002E00070474FF400000023914201D3891A034361
:1002F00040084FEA4101F7D151B1914202D14FF08C
:10030000004105E002D24FF0010101E06FF0010170
:1003100003EBC450284430BC00F0FFB92DE9FE4F78
:10032000804681EA0300C00F0C46009021F0004196
:1003300023F00045B8EB0200A94105D24046214612
:1003400090461C460B46024623F00040104347D01F
:10035000270DC7F30A00C3F30A510290401A019017
:1003600040286BDAC3F3130040F4801B00989246D8
:1003700020B10023D2EB030A63EB0B0B0198594623
:10038000C0F14002504600F0A7F906460D4650461F
:100390005946019A00F0AFF910EB080061410024C2
:1003A00087EA115284EAE7731A4340D0009A62B395
:1003B000019A012A4FEA075215DC001B61EB02018A
:1003C0004FF0004202EA0752CDE90042001C41F51D
:1003D000801132462B4600F0E6F903B0BDE8F08FFD
:1003E00040462146F9E7001B61EB0201001C41F584
:1003F000801300185B412018A2F5001747EB03019A
:1004000040EAD570B6196D4111E06D084FEA360625
:1004100045EAC0754FEA0752001B61EB0201001C60
:1004200041F5801149084FEA300000195141324628
:100430002B4603B0BDE8F04F00F0A6B900980122AA
:1004400040000023D0EB020263EBE07300982146EA
:100450004FEAE074B8EB000061EB0401E9E783F0D8
:1004600000435BE781F0004158E72DE9FE4F81EA48
:10047000030404F0004421F0004100944FF0000B0D
:1004800023F0004350EA01045ED052EA03045BD03B
:10049000C3F30A54C1F30A552C44A4F2F334019473
:1004A000A0FB0254C1F3130141F48011C3F3130301
:1004B00043F4801301FB024400FB034E840A970AB5
:1004C00044EA815447EA8357A4FB076802958D0AE2
:1004D00005FB07854FEA932C04FB0C542705029D6E
:1004E0004FEA065847EA1637B5EB08056EEB070CDE
:1004F000870E920E47EA811742EA8312A7FB020198
:10050000B6EB0B0164EB00042B0D43EA0C335E18D1
:1005100044EB1C50DA465146E7FB0201C5F31304D5
:100520004FEA0B3343EA14534FEA0432019C43EA87
:100530000603A4F10C040294009CCDE900B400F081
:1005400032F903B0BDE8F08F00200146F9E72DE94C
:10055000F04D81EA030404F0004B21F000451446FD
:100560004FF0000A23F0004150EA050220D054EA7F
:1005700001021DD0C5F30A570246C5F31303C1F3A8
:100580001300C1F30A5640F4801543F48013A7EB1F
:100590000608101BD64608F2FD3873EB050002D39F
:1005A00008F1010801E092185B41B8F1000F03DA8D
:1005B00000200146BDE8F08D00204FF48011064672
:1005C00084460EE0171B73EB050705D3121B63EB84
:1005D000050306434CEA010C49084FEA3000921823
:1005E0005B4150EA0107EDD152EA030012D082EAE2
:1005F000040083EA0501084305D0101BAB4106D275
:100600000122002306E000224FF0004302E06FF0D9
:10061000010253101AEB06004CEB085110EB0A00D4
:1006200041EB0B01BDE8F04D00F0AEB8C10F80EA20
:10063000E0700844CA079623002100F077B896239B
:100640000022114600F072B800F0004220F0004095
:10065000C10DC0F3160040F400007F2901DA00202C
:100660007047962903DCC1F19601C84001E0963934
:100670008840002AF4D04042704700F0004230F039
:1006800000400AD0C10D01F56071C0F3160042EAC6
:100690000151C208400711437047002001467047CE
:1006A00001F0004330B421F0004150EA010206D0CD
:1006B0000A0DA2F56072C1F31301002A02DC30BCFE
:1006C00000207047440F44EAC104C100E01830BC68
:1006D00000EBC25000F021B8202A04DB203A00FAD7
:1006E00002F1002070479140C2F1200320FA03F389
:1006F000194390407047202A06DBCB17203A41FA75
:1007000002F043EAE07306E041FA02F3D040C2F19E
:10071000200291400843194670470029A8BF70473E
:10072000401C490008BF20F00100704710B4B0FA27
:1007300080FC00FA0CF050EA010404BF10BC7047C2
:1007400049B1CCF1200421FA04F411FA0CF118BFDC
:10075000012121430843A3EB0C01CB1D4FEA0061AB
:100760004FEA102042BF002010BC704700EBC3507E
:1007700010440029A4BF10BC7047401C490008BFAA
:1007800020F0010010BC704710B5141E73F1000476
:1007900008DA401C41F1000192185B411A4301D173
:1007A00020F0010010BD2DE9F04D92469B4611B19D
:1007B000B1FA81F202E0B0FA80F220329046FFF7FF
:1007C0008BFF04460F4640EA0A0041EA0B015346FC
:1007D0005A46084313D0114653EA010019D0C8F114
:1007E00040025046FFF79EFC05460E4650465946CD
:1007F0004246FFF771FF084305D0012004E0204680
:100800003946BDE8F08D0020054346EAE0762C43EA
:1008100037430A986305E40AA0EB08000022FD0AAA
:1008200044EA47540A3002D500200146E9E70105B1
:1008300010196941DDE9084500196941BDE8F04D2D
:10084000A2E70000064C074D06E0E06840F0010317
:1008500094E8070098471034AC42F6D3FFF74AFCFF
:10086000A82D0008C82D000870B521F000430343EF
:100870000CD0C1F30A550024D5EB040564EB040346
:10088000D617AD1AB34102DB0020014670BD201817
:1008900041EB025170BDFEE7704772B6FEE7000003
:1008A0002DE9F04105464621D02001F034F90446F7
:1008B0004521D02001F02FF904EB0020FFF7BFFE07
:1008C000404C4021E062D02001F025F906463F214E
:1008D000D02001F020F906EB0020FFF7B0FEA06267
:1008E0003E21D02001F017F906463D21D02001F02D
:1008F00012F906EB0020FFF7A2FE20623C21D02077
:1009000001F009F906463B21D02001F004F906EB7D
:100910000020FFF794FE06466062E06A4FF08E47C3
:100920004FF08F48B84203DD4146FFF781FCE0629B
:10093000A06AB84203DD4146FFF77AFCA062BE42DE
:1009400004DD41463046FFF773FC6062A06AFFF7A2
:1009500094FE06460F46606AFFF78FFE32463B461E
:1009600002F0B0F80022184BFFF77FFD174A184B32
:10097000FFF7EDFDFFF794FE06462062E06AFFF701
:100980007CFE4FF06632134BFFF7E1FDFFF788FE68
:10099000E062012D04D0022D04D0032D08D00CE01C
:1009A000E6610AE080F00041304601F073FA04E0AD
:1009B00080F00041304601F0A5FEE069A061BDE88D
:1009C000F081000000000020008066404AD8124DEF
:1009D000FB210940666630402DE9F84FDFF8B891F9
:1009E000002409F1040A0AF1040B23460F270BF136
:1009F000040EC9E00125A5402A40AA427DD1674ED8
:100A0000D1F804C0ACEB0608B44532D014DCBCF11C
:100A1000030F3AD009DCBCF1000F2AD0BCF1010F62
:100A20001CD0BCF1020F31D11DE0BCF1110F17D069
:100A3000BCF1120F2AD119E0B8F5881F19D006DCD5
:100A4000B8F5803F15D0B8F5801F1FD111E0B8F57B
:100A5000001F0ED0B8F5041F18D10AE0CB6815E0CE
:100A6000CB681B1D12E0CB6808330FE0CB680C335A
:100A70000CE08B682BB1012B4FF0080303D04561CC
:100A800004E0042302E0056100E00023FF2A01D80E
:100A9000064601E000F104064FEA840501D9A5F1FC
:100AA0002005D6F8008007FA05FC28EA0C0803FAAE
:100AB00005F548EA0508C6F800804D68ED0062D5E6
:100AC000374DAE6946F00106AE61AD6924F003060C
:100AD00005F001050095334D06EB050CDCF80850D8
:100AE000A607360F07FA06F825EA0805DFF8B880EA
:100AF000404503D14FF0000817E044E0DFF8AC8038
:100B0000404502D14FF001080FE0DFF8A4804045D6
:100B100002D14FF0020808E0DFF89880404502D18A
:100B20004FF0030801E04FF0040808FA06F848EA1D
:100B30000508CCF808804D68D9F80060ED034D46F3
:100B400001D5164300E096432E604D68DAF8006048
:100B5000AD03554601D5164300E096432E604D681F
:100B6000DBF80060ED025D4601D5164300E09643D8
:100B70002E604D68DEF80060AD02754601D5164363
:100B800000E096432E60641C0D682A46E5407FF421
:100B900031AFBDE8F88F00000004014000001110E3
:100BA000001002400000014000080140000C01401C
:100BB00000100140001401400AB1016170470904AE
:100BC000FBE70000014880687047000080000020BB
:100BD00070B5040004D094F83900002510B106E087
:100BE000012070BD84F83850204600F065FF2420B5
:100BF00084F839002068C16821F40051C1602046A2
:100C000001F022FD2068016921F490410161206812
:100C1000416921F0220141612068416941F00801E8
:100C200041612068C16841F40051C160E563202042
:100C300084F8390084F83A00002070BD02488168C9
:100C4000027811448160704780000020074810B589
:100C5000016841F010010160032000F075F80020E8
:100C600000F006F800F024F8002010BD002002403B
:100C700070B50D4D04464FF47A712878B1FBF0F051
:100C80000A490968B1FBF0F000F0ECFA48B9102C01
:100C900007D200222146501E00F036F800206C607A
:100CA00070BD012070BD0000800000208C0000207D
:100CB0000C4808B5816941F001018161816901F049
:100CC00001010091C16941F08051C161C06900F02A
:100CD000805000900448416821F0E06141F00071CB
:100CE000416008BD0010024000000140002809DBFF
:100CF00000F01F02012191404009800000F1E02036
:100D0000C0F8001170470000F0B40E4B1B680C4691
:100D1000C3F30223C3F10705042D00D90425191DCF
:100D2000072901D2002300E0DB1E012606FA05F1A7
:100D3000491E214099409E40761E16403143F0BC2A
:100D400001F02EBD0CED00E0064900F00702086836
:100D50004FF6FF03184040EA0220034A10430860A0
:100D6000704700000CED00E00000FA052DE9F047A7
:100D70000F46050061D0434E306800F00700B842CE
:100D800009D2306820F0070038433060306800F046
:100D90000700B84251D128683B4C810712D5400763
:100DA00003D5606840F4E06060602878000703D5F0
:100DB000606840F4605060606068A96820F0F000EE
:100DC000084360602878C00728D06868012810D0E0
:100DD0002168022810D0890700292EDA616821F0E5
:100DE000030101436160FFF7EDFE804641F288395F
:100DF0000DE021688903EFE78901EDE7FFF7E2FEE7
:100E0000A0EB0801494502D90320BDE8F0876068DE
:100E1000696800F00C00B0EB810FEFD1306800F092
:100E20000700B8420BD9306820F007003843306023
:100E3000306800F00700B84201D00120E5E72878CB
:100E4000400705D56068E96820F4E0600843606009
:100E50002878000706D56068296920F4605040EAC8
:100E6000C100606000F038F86168084AC1F30311FE
:100E7000515CC8400649086006480068FFF7F8FE64
:100E80000020C2E70020024000100240EC2C0008C5
:100E90008C0000208400002004480549006849684F
:100EA000044AC1F30221515CC84070478C00002005
:100EB00000100240FC2C00080448054900684968FD
:100EC000044AC1F3C221515CC84070478C00002025
:100ED00000100240FC2C000812A185B00FC98DE85B
:100EE0000F0014A0144A006804905168134801F0E0
:100EF0000C03042B10D0082B0ED1C1F38343C9037C
:100F00001DF803000AD5516804AAC1F34041515CA1
:100F10000A4A5043B0FBF1F005B070470849484316
:100F2000FAE7000002030405060708090A0B0C0D86
:100F30000E0F1010010200000010024000127A0093
:100F400000093D002DE9F84F040070D02078C04D15
:100F5000C00749D06868C0F38100012807D06868DD
:100F6000C0F38100022809D16868C00306D528684B
:100F7000800339D560680028E7D035E06068B0F5B7
:100F8000803F0BD010B1B0F5A02F11D0286820F40D
:100F900080302860286820F4802002E0286840F42F
:100FA00080302860606890B1FFF70CFE06460AE0CA
:100FB000286840F480202860F0E700BFFFF702FEB9
:100FC000801B642873D828688003F7D50CE0FFF7EE
:100FD000F9FD064605E000BFFFF7F4FD801B64281D
:100FE000F0D828688003F7D420789A4E80074FF015
:100FF00001094FF0000839D5686810F00C0F07D0D0
:101000006868C0F38100022809D16868C00306D46B
:101010002868800714D52069012808D110E02069CC
:10102000B0B1C6F80090FFF7CDFD074605E00AE134
:10103000FFF7C8FDC01B0228C4D828688007F7D571
:101040002868616920F0F80040EAC10028600DE0DE
:10105000C6F80080FFF7B6FD074604E0FFF7B2FDD3
:10106000C01B022823D828688007F7D420780007FF
:101070002CD57948A169D9B1C0F80090FFF7A2FD3D
:10108000074604E0FFF79EFDC01B02280FD8686AE0
:101090008007F7D571484FF4FA510068B0FBF1F0C2
:1010A000009000BF0098411E0091FAD20EE080E04F
:1010B000C0F80080FFF786FD074604E0FFF782FDD9
:1010C000C01B022875D8686A8007F7D420784007CB
:1010D00060D5E8690027C00008D4E86940F0805076
:1010E000E861E869012700F0805000905C480168E1
:1010F000C90513D40168834641F480710160FFF78C
:1011000061FD824606E000BFFFF75CFDA0EB0A0030
:1011100064284ED8DBF80000C005F5D5E06801284A
:101120000AD008B1052813D0286A20F001002862EF
:10113000286A20F0040002E0286A40F001002862DA
:10114000E06841F2883B98B1FFF73CFD82460BE036
:10115000286A40F004002862EEE700BFFFF732FD86
:10116000A0EB0A0159455AD8286A8007F6D50CE049
:10117000FFF728FD824605E0FFF724FDA0EB0A01FA
:1011800059454CD8286A8007F6D41FB1E86920F089
:101190008050E861E06988B36968C1F38101022980
:1011A00044D00228C6F8608004D0FFF70BFD044647
:1011B00038E034E0FFF706FD074604E0FFF702FDE4
:1011C000C01B02282BD828688001F7D4206AB0F50C
:1011D000803F05D16868A16820F40030084368604A
:1011E000D4E908010843696821F474110843686070
:1011F000C6F86090FFF7E6FC044606E025E000BF75
:10120000FFF7E0FC001B022809D828688001F7D509
:101210001BE000BFFFF7D6FC001B022802D9032009
:10122000BDE8F88F28688001F4D40EE00128F7D0DB
:101230006868226A00F48031914204D1616A00F446
:101240007010884201D00120EAE70020E8E70000A2
:101250000010024000004242800442428C00002004
:101260000070004010B5401EB0F1807F01D3012016
:1012700010BD4FF0E02460610F21601701F090FA7B
:101280000020A06107202061002010BD704770473A
:1012900010B590F83C20012A22D0012280F83C2091
:1012A000CA688C6822F4407222434C6822F480623F
:1012B00022430C6822F4006222430C6922F480521B
:1012C00022434C6922F400522243C969002322F4CC
:1012D00080420A4301684A6480F83C30002010BD17
:1012E000022010BD70B590F83C20012A26D00124C0
:1012F00080F83C40022280F83D2003685A689D68CF
:1013000022F070060A6832435A600D4B02689A4216
:1013100008D0B2F1804F05D00A4B9A4202D00A4B56
:101320009A4204D1496825F080031943916080F8FE
:101330003D40002180F83C10084670BD022070BD81
:10134000002C0140000400400008004010B50400DB
:1013500003D094F83D0010B107E0012010BD00203B
:1013600084F83C00204600F01FF8022084F83D007D
:10137000211D206801F046F8012084F8460084F819
:101380003E0084F83F0084F8400084F8410084F86F
:10139000420084F8430084F8440084F8450084F84F
:1013A0003D00002010BD000008B500680B498842D0
:1013B00012D10B48C16941F00201C161C06900222C
:1013C00000F00200009011461D20FFF79DFCBDE8D3
:1013D00008401D20FFF78ABC08BD00000004004043
:1013E0000010024090F83D10012901D00120704703
:1013F000022180F83D100168CA6842F00102CA600B
:1014000000680B49884208D0B0F1804F05D00949E7
:10141000884202D00849884204D1816801F007015E
:10142000062903D0016841F00101016000207047E6
:10143000002C0140000400400008004070B5044644
:1014400090F83C00012817D0012584F83C50022078
:1014500084F83D002068826822F0770222F47F42FF
:1014600082600868502830D00DDC20284DD005DC83
:1014700098B310283BD148E0022070BD302844D0FA
:10148000402834D139E0602828D0702806D0B0F543
:10149000805F2CD0B0F5005F29D10AE0CB68D1E99C
:1014A0000121206800F0F1FF2068816841F0770198
:1014B00009E0CB68D1E90121206800F0E6FF20684F
:1014C000816841F48041816011E0CA684968206800
:1014D00001F096F85021206807E016E0CA684968D4
:1014E000206801F09EF86021206800F0D8FF84F8A1
:1014F0003D50002084F83C0070BDCA6849682068EF
:1015000001F07EF840212068EFE72268014610468E
:10151000EBE72DE9F0410D46040003D094F83D00BF
:1015200018B108E00120BDE8F081002084F83C00FB
:10153000204600F041F8022084F83D0020688168D0
:1015400044F2070291438160211D206800F05AFF98
:10155000226890689169166A2B68AF69034340F26C
:101560000330814341EA0721A868EF6908434FF639
:10157000FC418843E96840EA0720014328692F6A53
:10158000000140EA0730084369686D6926F02206C9
:1015900046EA0515294393602268906154F8460B8A
:1015A0000162012004F81F09E0752076E0762077BB
:1015B000A0750020B7E7000000B585B000210091BC
:1015C0000191029103910068B0F1804F1ED1104843
:1015D000C16941F00101C161C16901F001010491DA
:1015E000816941F0040181618069694600F004006D
:1015F0000490032000900748FFF7EEF900221146FF
:101600001C20FFF781FB1C20FFF770FB05B000BD1D
:10161000001002400008014070B590F83E6004469A
:1016200090F83F5090F8423090F84320022021B1CA
:1016300004290ED0012E1BD114E0012E18D1012B4C
:1016400016D184F83E0084F842000122002120686F
:1016500020E0012D0CD1012A0AD184F83F0084F842
:10166000430014E0012D03D1012B01D1012A01D047
:10167000012070BD84F83E0084F83F0084F84200E9
:1016800084F8430001220021206800F0F1FE0122CD
:101690000421206800F0ECFE2068016841F001019F
:1016A0000160002070BD704770B504460068016994
:1016B0004FF00005C943890715D4C168C94389079C
:1016C00011D4E91E0161012020772068806980071C
:1016D000204602D0FFF7E7FF04E000F0C1F8204603
:1016E00000F064F9257720680169C943490717D4D8
:1016F000C168C943490713D46FF004010161022096
:1017000020772068806910F4407F204602D0FFF7E0
:10171000CAFF04E000F0A4F8204600F047F925775E
:1017200020680169C943090716D4C168C94309077C
:1017300012D46FF008010161042020772068C0698D
:101740008007204602D0FFF7AEFF04E000F088F8E3
:10175000204600F02BF9257720680169C943C906A6
:1017600017D4C168C943C90613D46FF010010161D1
:10177000082020772068C06910F4407F204602D0FE
:10178000FFF791FF04E000F06BF8204600F00EF93F
:10179000257720680169C943C90708D1C168C943D1
:1017A000C90704D1891E0161204600F04FF9206865
:1017B0000169C943090609D4C168C943090605D4AA
:1017C0006FF0800101612046FFF760FD206801692C
:1017D000C943490609D4C168C943490605D46FF015
:1017E00040010161204600F065F920680169C943A4
:1017F00089060BD4C168C943890607D46FF020015C
:1018000001612046BDE87040FFF741BD70BD00009A
:1018100000B585B00021009101910291039100680B
:101820000C49884213D10C48816941F0040181615F
:101830008069694600F0040004904FF480700090C5
:1018400002200190032003900448FFF7C5F805B07B
:1018500000BD0000002C01400010024000080140C3
:10186000704770B5044690F83C000D4601280AD038
:10187000012084F83C0042B1042A18D0082A2AD05A
:101880000C2A4DD139E0022070BD206800F010FE16
:101890002068816941F0080181612068816921F037
:1018A00004018161206881692A69114311E020687F
:1018B00000F026FE2068816941F4006181612068A2
:1018C000816921F480618161206881692A6941EA26
:1018D0000221816124E0206800F03EFE2068C16999
:1018E00041F00801C1612068C16921F00401C161B2
:1018F0002068C1692A69114311E0206800F058FE90
:101900002068C16941F40061C1612068C16921F4A6
:101910008061C1612068C1692A6941EA0221C1610F
:10192000002084F83C0070BD10B5040003D094F88A
:101930003D0010B107E0012010BD002084F83C00FC
:10194000204600F01FF8022084F83D00211D206889
:1019500000F058FD012084F8460084F83E0084F829
:101960003F0084F8400084F8410084F8420084F885
:10197000430084F8440084F8450084F83D000020CA
:1019800010BD000008B500680649884208D1064825
:10199000816941F400618161806900F40060009018
:1019A00008BD0000002C01400010024070470000FC
:1019B00010B50446022249B104290ED0082913D0DB
:1019C00094F84100012816D0012010BD94F83E0083
:1019D0000128F9D184F83E200FE094F83F00012857
:1019E000F2D184F83F2008E094F840000128EBD1C0
:1019F00084F8402001E084F841200122206800F0B2
:101A000037FD0F492068884203D1426C42F40042FE
:101A100042642068884208D0B0F1804F05D009495F
:101A2000884202D00849884204D1816801F0070148
:101A3000062903D0016841F001010160002010BDBA
:101A4000002C014000040040000800401CB515496E
:101A5000884225D1144CA088401C00B2A0800A28DE
:101A60000AD10022A1F14800A28000680168C943A0
:101A7000C906416A218042620C480068FEF7E4FD15
:101A800034F9081B00B2CDE9000194E80700084BC7
:101A9000083C00F0FFFB6080BDE81C4000F05CBC2F
:101AA0001CBD0000600100206C00002068000020C8
:101AB000900000207047000000B585B00021009123
:101AC00001910291039100680F4988421AD10F4891
:101AD000C16941F40031C161C16901F4003104916F
:101AE000816941F0040181618069694600F0040068
:101AF00004900420009012200190032003900448D9
:101B0000FEF76AFF05B000BD00440040001002402F
:101B100000080140FEE770B50D46044600F0D4F819
:101B2000204600F0A1F800F017F9284600F09CF8D4
:101B300000F012F900F0C8F8641CE0B200F094F86C
:101B400000F00AF9002000F059F8044600F0E4F82B
:101B5000204670BD70B50D4C0025C4F8AC510C4842
:101B6000016821F470610160016841F44071016015
:101B7000C4F8A851012004F5D47401F063F80120E1
:101B8000606001F05FF8656070BD000000002142F8
:101B9000040801400748816941F004018161064859
:101BA000016821F47F410160016841F44C510160FA
:101BB00070470000001002400408014070B50D4C51
:101BC0000025C4F8AC510C48016821F47061016033
:101BD000016841F4407101600126C4F8A8613046F3
:101BE00004F5D47401F02EF86660012001F02AF8A3
:101BF000656070BD00002142040801402DE9F047F6
:101C0000814617480024016821F470610160016871
:101C100041F400610160134E254627464FF001084C
:101C2000C6F8AC71022001F00DF8C6F8AC81600670
:101C3000040ED6F8280108B1641CE4B2022001F0B9
:101C400001F86D1CEDB2082DEAD3B9F1000F02D0F6
:101C5000FFF780FF01E0FFF7B1FF2046BDE8F08706
:101C600004080140000021422DE9F04106461448D5
:101C7000016821F470610160016841F44071016004
:101C8000104C0027C4F8AC713D464FF00108F00934
:101C9000C4F8A8017006060E012000F0D3FFC4F8B6
:101CA000AC81012000F0CEFFC4F8AC71012000F03F
:101CB000C9FF6D1CEDB2082DE9D3BDE8F08100002D
:101CC000040801400000214270B51148016821F468
:101CD00070610160016841F4407101600D4C0120A8
:101CE000C4F8A801D4F8281149B1C4F8AC0100F037
:101CF000A9FF0025C4F8A851D4F8280108B1002094
:101D000070BD012000F09EFFC4F8AC51012070BDF1
:101D100004080140000021420D4810B5016821F47B
:101D200070610160016841F440710160094C00205C
:101D3000C4F8AC01C4F8A801012004F5D47400F083
:101D400081FF012060602060BDE8104000F07ABF94
:101D5000040801400000214270B5134800240168C6
:101D600021F470610160016841F4006101600F4D70
:101D70000126C5F8A861304600F064FFC5F8AC61E3
:101D800007E0641CE4B2322C03D9FFF7C5FF002042
:101D900070BD012000F056FFD5F828010028F0D1D1
:101DA000C5F8AC01012070BD0408014000002142CB
:101DB00010B51446FFF7AFFE2070012010BDF8B536
:101DC00015461C460E4607466A46FFF7F1FF0120FE
:101DD0009DF80010A8400CB1084301E021EA000082
:101DE000C2B28DF800203146384600F02BF8F8BD1D
:101DF0002DE9F84314461D460F4680466A46089E64
:101E0000FFF7D6FF00281BD0611CFF20C4F1080299
:101E100000FA01F12A44521ED0400143C5F10800E6
:101E20008640F2B2C4F10700C2409DF800000840AD
:101E300010438DF80000C2B23946404600F002F867
:101E4000BDE8F88307B502AB012200F001F80EBD32
:101E50002DE9F0411E461546884607460024FFF747
:101E600033FF3846FFF700FFFFF776FF4046FFF7E6
:101E7000FBFEFFF771FF06E0305DFFF7F5FEFFF7B1
:101E80006BFF641CE4B2AC42F6D3FFF745FF0120C0
:101E9000BDE8F0812DE9F34F554C87B0616B04919B
:101EA0000898FEF7C5F961690091FEF7C7F9E16985
:101EB000FEF76CF904F158050390D5F804A0A0686A
:101EC0005146FEF7B5F9D5F808904946FEF7B0F946
:101ED00048490860EA6882F000464E608E60E76814
:101EE000CF6090460099FEF7A9F92968FEF74EF9F0
:101EF000834630460099FEF7A1F906465146FEF7A3
:101F000045F9029030464946FEF740F98246384688
:101F10000099FEF793F94146FEF738F98146039997
:101F20000798FEF785F98046A0632078FEF787FBC7
:101F300059460190FEF782F90646E0635146019842
:101F4000FEF77CF92064059031460198FEF776F99A
:101F50002169FEF71BF90746606439463046FEF7F3
:101F60009FF9A064009039460598FEF799F9C4E9F5
:101F700013060746DDE90101FEF760F9606501908F
:101F800031460098FEF75AF95946FEF754F9286091
:101F9000DDE90001FEF752F90299FEF74CF968609D
:101FA00031463846FEF74AF95146FEF744F9A86033
:101FB00038460199FEF742F94946FEF73CF9E860D8
:101FC00041460098FEF73AF90399FEF7DFF8E06121
:101FD00041463846FEF732F90499FEF7D7F8014634
:101FE00060630898FEF724F9206309B0BDE8F08F1C
:101FF00000000020B000002010B5022000F011F811
:10200000032000F020F8002000F014F8002000F079
:102010002FF8002000F026F8BDE81040002000F066
:102020001BB808B50323009002226B21D020FFF7D4
:10203000DFFE08BD08B50223009004221C21D02039
:10204000FFF7D6FE08BD08B50223009004221B212D
:10205000D020FFF7CDFE08BD034601223721D02056
:10206000FFF7ADBE034605226A21D020FFF7A7BEC9
:10207000034606226B21D020FFF7A1BE30B585B004
:10208000002417480094019402940394816941F05C
:1020900020018161816901F020010491816941F091
:1020A0000401816180690F4D00F004000122049059
:1020B00051022846FEF780FD00224FF44061284679
:1020C000FEF77AFD4FF4606000900120CDE9010435
:1020D0000320039069462846FEF77EFC05B030BD1C
:1020E000001002400008014010B592B000240F9487
:1020F0001C2108A81094FEF73EF820216846FEF740
:102100003AF820481E49C0E9001440F28331C0E982
:102110000241046144618461FFF706FC08B1FEF7E7
:10212000BCFB0F940FA917481094FFF7DBF808B118
:10213000FEF7B3FB6020CDE908040220CDE90A04D4
:102140000C940D94002208A90E480E94FFF789FB09
:1021500008B1FEF7A2FB00944FF40050CDE9044013
:10216000029401940394694606480794FFF790F897
:1021700008B1FEF792FB0348FFF74AFB12B010BD0F
:10218000002C0140D000002010B58CB024216846FE
:10219000FDF7F1FF0024154809944FF080410A949F
:1021A000C0E900144FF6FF71C0E902410461846187
:1021B0000120CDE90004CDE902040494CDE90540F5
:1021C0000794694609480894FFF7A3F908B1FEF798
:1021D00064FB099409A905480A94FFF783F80028CD
:1021E00001D0FEF75AFB0CB010BD00001801002012
:1021F00010B586B00024174800940194029403940B
:1022000004941349059401604721C0E9011440F288
:10221000E731C0E9031480218161FFF797F808B125
:10222000FEF73BFB4FF48050009069460948FFF7EA
:1022300005F908B1FEF731FB049404A9054805949B
:10224000FFF750F8002801D0FEF727FB06B010BDBD
:1022500000040040600100200C4810B50A490160EC
:102260004FF4E1314160002181600C22C160C0E97E
:1022700004128161C161FEF7ABFC002803D0BDE808
:102280001040FEF70ABB10BD00440040A80100202A
:10229000FEE7FEE72DE9F04788460746DDE908013D
:1022A000401A05B21D84B3F922601C469246A81B51
:1022B000FEF7BCF93946FDF7C1FF8146E0602846CC
:1022C000FEF7B4F907461A494046FDF7E9FF3946DB
:1022D000FDF7B4FF80462061B4F924007142284420
:1022E00000EB4100FEF7A2F95146FDF7A7FF0746B4
:1022F00060617019E0846584A58441464846FDF715
:1023000045FF3946FDF742FFFEF79EF92083618BBA
:10231000084400B26083B4F91C10884203DCB4F9AD
:102320001E10884200DA6183B4F91A00BDE8F08714
:102330000000C84200B58BB0282205496846FDF769
:1023400001FF282269460348FDF7FCFE0BB000BDE3
:10235000C42C00089000002010B5041E08484FF45B
:10236000007104DD0122FEF727FCA0B204E0002288
:10237000FEF722FC604280B2BDE8104000F03AB99E
:102380000008014070477047FEF758BC30B58FB069
:1023900028216846FDF7EFFE14210AA8FDF7EBFEA1
:1023A00001210804CDE900100024029402250491C3
:1023B000CDE907504FF4E01009906846FEF7C2FDE2
:1023C00008B172B6FEE70F20CDE90A054FF4806030
:1023D000CDE90C4002210AA80E94FEF7C7FC0028A4
:1023E00001D072B6FEE70FB030BD70470148FFF76D
:1023F0005BB90000180100200148FFF755B9000043
:1024000060010020F0B50268164B174C174D4FF0D5
:102410008047984205D0B84203D0A04201D0A842DC
:1024200003D122F070064A683243984205D0B84280
:1024300003D0A04201D0A84203D122F44074CA685C
:1024400022434C6922F08002224302608A68C26201
:102450000A688262984201D10969016301214161E0
:10246000F0BD0000002C01400004004000080040C6
:1024700010B501F01F030121046A99408C430462E6
:10248000016A9A401143016210BD10B5846842EAA6
:10249000032224F47F440A432243826010BD8268F1
:1024A00022F070020A4342F0070181607047000089
:1024B00030B5026A22F001020262026A436884694E
:1024C00024F073050C682C4322F002058A682A4325
:1024D0000A4DA8420BD122F00805CA6823F44073C4
:1024E0002A434D6922F004021D438B692B4343604C
:1024F000846149684163026230BD0000002C0140E4
:1025000030B5026A22F010020262026A43688469EE
:102510000D6824F4E64444EA05248D6822F0200284
:1025200042EA05120B4DA8420ED1CD6822F080027E
:1025300042EA05124D6923F4406343EA85038D693D
:1025400022F0400243EA8503436084614968816365
:10255000026230BD002C014030B5026A22F4807264
:102560000262036A4268C46923F4007324F07305AD
:102570000C682C438D6843EA05230C4DA8420ED10C
:10258000CD6823F4006343EA05234D6922F44052E9
:1025900042EA05128D6923F4806342EA0512426023
:1025A000C4614968C163036230BD0000002C014072
:1025B00030B5026A22F480520262046A4268C3693A
:1025C0000D6823F4E64343EA05238D6824F40054A0
:1025D00044EA0534064DA84204D14D6922F48042F4
:1025E00042EA85124260C36149680164046230BDF9
:1025F000002C01400149086070470000342C014064
:1026000010B5036A046A24F001040462846924F0AA
:10261000F00444EA021423F00A020A4384610262CD
:1026200010BD10B5036A23F0100303628369046AC6
:1026300023F4704343EA023224F0A00343EA011179
:102640008261016210BD000070B504460068016936
:10265000E26821F44051114301612169A0680843F7
:10266000616908432168CA6841F20C639A430243D6
:10267000CA6020684169A26921F440711143416137
:102680001E492068884202D1FEF716FC01E0FEF7E1
:1026900003FC00EBC00101EB0012606864218000C4
:1026A000B2FBF0F3B3FBF1F36FF018067343B2FB28
:1026B000F0F5B2FBF0F605EB8305322303EB0515CD
:1026C000B5FBF1F5B6FBF1F605F0F00505EB0615E7
:1026D000B2FBF0F6B2FBF0F0B0FBF1F06FF01802D5
:1026E000504306EB800003EB0010B0FBF1F02168D3
:1026F00000F00F002844886070BD000000380140E1
:10270000FEE700002DE9F04180460846FDF7B5FFE1
:10271000164A174BFDF7A9FE164D06460C46E8690A
:10272000FDF7ABFF32462346FDF7F8FD0C4669681E
:1027300007460E464FF07E50FDF77AFDFDF79DFFF0
:102740003A462346FDF791FE07460C463146404681
:10275000FDF774FDFDF791FF3A462346FDF7DEFDD8
:10276000FDF79EFFE861BDE8F08100007B14AE47F5
:10277000E17A743F00000020490050EAC12018BFF0
:1027800004204A0D18BF40F0010040F2FF72B2EB86
:10279000515F08BF40F00200012808BF05207047C4
:1027A0000907090E002804DB00F1E02080F800147E
:1027B000704700F00F0000F1E02080F8141D704712
:1027C0002DE9F0414F1E00EBC7010446D1E900019D
:1027D00015461E4637F006020DD02A463346FDF751
:1027E00044FE7F1E04EBC703D3E90023FDF796FDEB
:1027F00037F00602F1D1022F25D0042F13D0062F77
:1028000018BFBDE8F0812A463346FDF72EFED4E915
:102810000A23FDF783FD2A463346FDF726FED4E959
:102820000823FDF77BFD2A463346FDF71EFED4E95B
:102830000623FDF773FD2A463346FDF716FED4E95D
:102840000423FDF76BFD2A463346FDF70EFED4E95F
:102850000223FDF763FD2A463346FDF706FED4E961
:102860000023BDE8F041FDF759BD0122FDF7FCBF93
:10287000FDF754BD024A00201107FDF7F5BF000027
:1028800001FDFFFF02E008C8121F08C1002AFAD1AB
:1028900070477047002001E001C1121F002AFBD1E0
:1028A000704700002DE9F84F04460D4621F0004026
:1028B00000917349814211DC7249884201DC06D1E2
:1028C0002CB120462946BDE8F84FFFF7CEBF6E4831
:1028D000002DCCBF6D496E49BDE8F88F6D4981422E
:1028E00011DD6D498142D8BF4FF0FF366DDD2046C6
:1028F0002946FFF741FF042808BFFFF7BBFF20462A
:102900002946BDE8F88F6549654F25F000458142AD
:1029100033DD6449814219DD002632464FF08043A1
:1029200020462946FDF7FAFC80468A4601222046C9
:102930002946FDF799FF00223B46FDF790FD4246F0
:102940005346FDF704FE04460D463EE001260022F4
:10295000BA463B4620462946FDF7E0FC80460F4636
:102960000022534620462946FDF779FD42463B4664
:10297000FDF7EDFD04460D4627E04B4981421BDD86
:10298000DFF828A102260022534620462946FDF7FB
:102990006CFD00223B46FDF7C1FC80460F4600223D
:1029A000534620462946FDF75AFD42463B46FDF771
:1029B000CEFD04460D4608E0032622462B460020A5
:1029C0003B49FDF7C4FD04460D4622462B46104602
:1029D0001946FDF74AFD8B46824602460B46FDF737
:1029E00044FD07460246334888460B460621784494
:1029F000FFF7E6FE52465B46FDF737FD82462E485E
:102A00008B463A46434605217844FFF7D9FE3A46BD
:102A10004346FDF72AFD02460B46002E5046594616
:102A20000CDAFDF77BFC22462B46FDF71EFD01B0BC
:102A300022462B46BDE8F04FFDF714BDFDF76EFCB6
:102A400022462B46FDF711FD1C4A7A4402EBC603D1
:102A5000D3E90023FDF703FD22462B46FDF7FFFCDB
:102A6000174A7A4402EBC603D3E90023FDF7FAFCC8
:102A7000009A002AB8BF81F00041BDE8F88F00003D
:102A8000000010440000F07F182D4454FB21F93F52
:102A9000FB21F9BF0000DC3F0000203E0000F33FB7
:102AA0000000F03F0000E63F008003400000F83FD8
:102AB0000000F0BF7E0300003C030000DA020000CB
:102AC000A20200002DE9F04D9446CCF1000423F061
:102AD00000464CEA0404524F46EAD4749A468846AB
:102AE00021F00042BC4206D8454240EA050442EAD1
:102AF000D474BC4204D9BDE8F04D6246FFF7B8BEBD
:102B0000AAF14055A5F17F6555EA0C040BD00224CB
:102B100004EAAA74434DDFF810E144EAD87452EA9B
:102B2000000B04D00CE0BDE8F04DFFF7BBBE002C5D
:102B300014BF012CBDE8F08D022C30D0032C32D014
:102B400056EA0C0B0AD0BE4220D1BA4209D126F077
:102B5000804622F080423346114617E000291ADBF6
:102B600025E0DFF8C8B0FB44002C04BFDBE900011E
:102B7000BDE8F08D012C02BFDBE9000181F00041CE
:102B8000BDE8F08D022C0AD0032C0CD0BA4212D131
:102B9000B8F1000F0BDA23482549BDE8F08D28462F
:102BA0002449BDE8F08D28467146BDE8F08D1D48EA
:102BB0002149BDE8F08D921B12153C2AC4BF19486B
:102BC0001D490EDCBAF1000FBEBF12F13C0F002010
:102BD000014606DB6246FDF7BAFC21F00041FFF733
:102BE00061FE002C08BFBDE8F08D012C04BF81F010
:102BF0000041BDE8F08D114A114B022C07D0FDF7C2
:102C00002EFC2A46BDE8F04D0A4BFDF728BCFDF727
:102C100026FC2A46BDE8F04D064BFDF723BC00001C
:102C20000000F07F182D4454FB2109C0360200003B
:102C3000FB21F9BFFB210940FB21F93F075C14335D
:102C400026A6A13C00EBC0014FF0E020416100212D
:102C50008161012202610269D30701D0D203FAD552
:102C60000161816170470000FDF7F0FFFFF78EFB07
:102C7000FFF704FAFFF738FAFFF786FAFFF7B8FA1A
:102C8000FFF7EAFAFEF786FFFFF7B6F900210948D9
:102C9000FEF78EFE0848FEF7A5FB3C210748FEF72D
:102CA000BBFCFFF747FB064C0320FDF7F9FD206056
:102CB000FAE70000D0000020600100201801002089
:102CC000680000200000C842000000000000000072
:102CD00000000000000000000000000000000000F4
:102CE0002003E0FC000000000000000000000000E5
:102CF00000000000010203040607080900000000AC
:102D000001020304000000004FBB610567ACDD3F1A
:102D1000182D4454FB21E93F9BF681D20B73EF3F02
:102D2000182D4454FB21F93FE2652F227F2B7A3C7A
:102D3000075C143326A6813CBDCBF07A8807703C33
:102D4000075C143326A6913CC4EB98999999C9BFA6
:102D5000711623FEC671BCBF6D9A74AFF2B0B3BFDB
:102D60009AFDDE522DDEADBF2F6C6A2C44B4A2BF9B
:102D70000D5555555555D53FFF8300922449C23F07
:102D80006E204CC5CD45B73F513DD0A0660DB13F3B
:102D9000EB0D76244B7BA93F11DA22E33AAD903F4D
:102DA0000000000000000000C82D00080000002006
:102DB0009000000084280008582E00089000002091
:102DC0005805000094280008010000000AD7A33C21
:102DD0006F12833AA69B443B0000003F0AD7A33BF7
:102DE00000000000000000000000000000000000E3
:102DF00000000000000000000000000000000000D3
:102E000000000000000000000000000000000000C2
:102E100000000000000000000000000000000000B2
:102E20000000803F00000000000000000000803F24
:102E30000000000000000000000000000000484208
:102E40000000C84200000000010000001000000067
:082E5000000000000024F40062
:04000005080000ED02
:00000001FF
