:020000040800F2
:100000008805002001010008271800081B160008B9
:100010002518000801040008F91C00080000000071
:100020000000000000000000000000001B19000894
:100030000304000800000000191900081D19000839
:100040001B0100081B0100081B0100081B01000820
:100050001B0100081B0100081B0100081B01000810
:100060001B0100081B0100081B0100081B01000800
:100070001B0100081B0100081B0100081B010008F0
:100080001B0100081B0100081B0100081B010008E0
:100090001B0100081B0100081B0100081B010008D0
:1000A0001B0100081B0100081B0100081B010008C0
:1000B000811900088D1900081B0100081B010008A8
:1000C0001B0100081B0100081B0100081B010008A0
:1000D0001B0100081B0100081B0100081B01000890
:1000E0001B0100081B0100081B010008DFF80CD0F1
:1000F00000F074F900480047D51E0008880500206C
:100100000648804706480047FEE7FEE7FEE7FEE7B1
:10011000FEE7FEE7FEE7FEE7FEE7FEE77F190008E1
:10012000ED00000840EA01039B0703D009E008C97D
:10013000121F08C0042AFAD203E011F8013B00F8AC
:10014000013B521EF9D27047D2B201E000F8012BF8
:10015000491EFBD270470022F6E710B513460A4647
:1001600004461946FFF7F0FF204610BDF0B480EAC0
:100170000102D40F4200B2EB410F02D20246084600
:1001800011464A0042D0C30DDDB2C1F3C752AD1AC9
:10019000202D35DAC1F3160141F4000204B15242B8
:1001A000C5F1200602FA06F12A411044B3EBD05FF4
:1001B00023D0C4B1012DA0EBC35009DCF0BC4FF03B
:1001C000004202EAC352DBB200F5000000F0D7B8EB
:1001D000400000F1807000EBC350A0F1807040EA55
:1001E000D170490009E0490841EAC071A0EBC35051
:1001F00000F50000400800EBC350F0BC00F0B6B8BA
:100200006142012202EB4101001BF6E7F0BC70479E
:1002100081F00041AAE780F00040A7E780EA0102F0
:1002200010B502F00043400022D04A001FD0010E5A
:1002300001EB1261C0F35600C2F3560240F4000015
:1002400042F40002A0FB022000047F39140400D015
:10025000401C50EA124001D44000491EC2B20C06B4
:1002600004EBD010401C4008802A02D003E000209C
:1002700010BD20F00100002900DA0020184310BD55
:1002800030B480EA010202F0004530F0004221F073
:10029000004013D090B1C30DD40DC2F31601C0F3CA
:1002A0001600E41A41F4000140F400027D3491424A
:1002B00001D3641C00E04900002C02DA30BC0020AD
:1002C00070474FF400000023914201D3891A034381
:1002D00040084FEA4101F7D151B1914202D14FF0AC
:1002E000004105E002D24FF0010101E06FF0010191
:1002F00003EBC450284430BC00F038B8C10F80EA8A
:10030000E0700844CA079623002100F038B800F0D6
:10031000004220F00040C10DC0F3160040F4000080
:100320007F2901DA00207047962903DCC1F196018C
:10033000C84001E096398840002AF4D04042704716
:1003400030B50B46014600202022012409E021FAA5
:1003500002F59D4205D303FA02F5491B04FA02F5A2
:100360002844151EA2F10102F1DC30BD0029A8BF0E
:100370007047401C490008BF20F00100704710B4CE
:10038000B0FA80FC00FA0CF050EA010404BF10BC83
:10039000704749B1CCF1200421FA04F411FA0CF1B0
:1003A00018BF012121430843A3EB0C01CB1D4FEAE9
:1003B00000614FEA102042BF002010BC704700EBE4
:1003C000C35010440029A4BF10BC7047401C490012
:1003D00008BF20F0010010BC70470000064C074D1C
:1003E00006E0E06840F0010394E807009847103405
:1003F000AC42F6D3FFF77EFE981F0008B81F000836
:10040000FEE7704772B6FEE770B5044600F004F9E7
:100410000546601C02D004480078044400F0FCF853
:10042000401BA042FAD370BD140000202DE9F84F04
:10043000DFF8B891002409F1040A0AF1040B2346FD
:100440000F270BF1040EC9E00125A5402A40AA425E
:100450007DD1674ED1F804C0ACEB0608B44532D06C
:1004600014DCBCF1030F3AD009DCBCF1000F2AD038
:10047000BCF1010F1CD0BCF1020F31D11DE0BCF169
:10048000110F17D0BCF1120F2AD119E0B8F5881F4F
:1004900019D006DCB8F5803F15D0B8F5801F1FD104
:1004A00011E0B8F5001F0ED0B8F5041F18D10AE00E
:1004B000CB6815E0CB681B1D12E0CB6808330FE05A
:1004C000CB680C330CE08B682BB1012B4FF0080389
:1004D00003D0456104E0042302E0056100E000234D
:1004E000FF2A01D8064601E000F104064FEA840520
:1004F00001D9A5F12005D6F8008007FA05FC28EA05
:100500000C0803FA05F548EA0508C6F800804D68AE
:10051000ED0062D5374DAE6946F00106AE61AD69BA
:1005200024F0030605F001050095334D06EB050C9C
:10053000DCF80850A607360F07FA06F825EA080582
:10054000DFF8B880404503D14FF0000817E044E0E1
:10055000DFF8AC80404502D14FF001080FE0DFF832
:10056000A480404502D14FF0020808E0DFF89880EF
:10057000404502D14FF0030801E04FF0040808FAAB
:1005800006F848EA0508CCF808804D68D9F80060FC
:10059000ED034D4601D5164300E096432E604D68AD
:1005A000DAF80060AD03554601D5164300E09643E6
:1005B0002E604D68DBF80060ED025D4601D5164304
:1005C00000E096432E604D68DEF80060AD0275468F
:1005D00001D5164300E096432E60641C0D682A4640
:1005E000E5407FF431AFBDE8F88F00000004014022
:1005F00000001110001002400000014000080140FE
:10060000000C014000100140001401400AB10161DA
:1006100070470904FBE7000001488068704700004C
:100620001400002070B5040004D094F839000025AF
:1006300010B106E0012070BD84F83850204600F06B
:1006400065FF242084F839002068C16821F4005136
:10065000C160204601F0C2FA2068016921F490418E
:1006600001612068416921F02201416120684169EE
:1006700041F0080141612068C16841F40051C16046
:10068000E563202084F8390084F83A00002070BD2A
:10069000024881680278114481607047140000208C
:1006A000074810B5016841F010010160032000F017
:1006B00075F8002000F006F800F024F8002010BDC6
:1006C0000020024070B50D4D04464FF47A71287831
:1006D000B1FBF0F00A490968B1FBF0F000F0ECFA68
:1006E00048B9102C07D200222146501E00F036F8DF
:1006F00000206C6070BD012070BD0000140000205F
:10070000200000200C4808B5816941F00101816199
:10071000816901F001010091C16941F08051C1611D
:10072000C06900F0805000900448416821F0E06109
:1007300041F00071416008BD00100240000001401E
:10074000002809DB00F01F020121914040098000D0
:1007500000F1E020C0F8001170470000F0B40E4B2B
:100760001B680C46C3F30223C3F10705042D00D90F
:100770000425191D072901D2002300E0DB1E0126F4
:1007800006FA05F1491E214099409E40761E16400A
:100790003143F0BC01F0C2BA0CED00E0064900F0B4
:1007A000070208684FF6FF03184040EA0220034A98
:1007B00010430860704700000CED00E00000FA05EF
:1007C0002DE9F0470F46050061D0434E306800F038
:1007D0000700B84209D2306820F007003843306083
:1007E000306800F00700B84251D128683B4C8107BF
:1007F00012D5400703D5606840F4E0606060287857
:10080000000703D5606840F4605060606068A968C4
:1008100020F0F000084360602878C00728D068689E
:10082000012810D02168022810D0890700292EDA6B
:10083000616821F0030101436160FFF7EDFE80462E
:1008400041F288390DE021688903EFE78901EDE77E
:10085000FFF7E2FEA0EB0801494502D90320BDE8FD
:10086000F0876068696800F00C00B0EB810FEFD191
:10087000306800F00700B8420BD9306820F007005C
:1008800038433060306800F00700B84201D00120E2
:10089000E5E72878400705D56068E96820F4E0605E
:1008A000084360602878000706D56068296920F44D
:1008B000605040EAC100606000F038F86168084AA2
:1008C000C1F30311515CC84006490860064800683E
:1008D000FFF7F8FE0020C2E70020024000100240AF
:1008E000801F00082000002018000020044805494F
:1008F00000684968044AC1F30221515CC84070474E
:100900002000002000100240901F00080448054904
:1009100000684968044AC1F3C221515CC84070476D
:100920002000002000100240901F000812A185B096
:100930000FC98DE80F0014A0144A00680490516894
:10094000134801F00C03042B10D0082B0ED1C1F377
:100950008343C9031DF803000AD5516804AAC1F3F3
:100960004041515C0A4A5043B0FBF1F005B070477A
:1009700008494843FAE7000002030405060708098E
:100980000A0B0C0D0E0F10100102000000100240A7
:1009900000127A0000093D002DE9F84F040070D0E4
:1009A0002078C04DC00749D06868C0F38100012895
:1009B00007D06868C0F38100022809D16868C003C5
:1009C00006D52868800339D560680028E7D035E06F
:1009D0006068B0F5803F0BD010B1B0F5A02F11D0FA
:1009E000286820F480302860286820F4802002E005
:1009F000286840F480302860606890B1FFF70CFEF2
:100A000006460AE0286840F480202860F0E700BF2E
:100A1000FFF702FE801B642873D828688003F7D58F
:100A20000CE0FFF7F9FD064605E000BFFFF7F4FD17
:100A3000801B6428F0D828688003F7D420789A4E69
:100A400080074FF001094FF0000839D5686810F0B1
:100A50000C0F07D06868C0F38100022809D16868CC
:100A6000C00306D42868800714D52069012808D15E
:100A700010E02069B0B1C6F80090FFF7CDFD074641
:100A800005E00AE1FFF7C8FDC01B0228C4D82868AA
:100A90008007F7D52868616920F0F80040EAC100B6
:100AA00028600DE0C6F80080FFF7B6FD074604E0B9
:100AB000FFF7B2FDC01B022823D828688007F7D4AF
:100AC000207800072CD57948A169D9B1C0F80090E9
:100AD000FFF7A2FD074604E0FFF79EFDC01B0228BA
:100AE0000FD8686A8007F7D571484FF4FA5100684B
:100AF000B0FBF1F0009000BF0098411E0091FAD2C7
:100B00000EE080E0C0F80080FFF786FD074604E0B5
:100B1000FFF782FDC01B022875D8686A8007F7D4EA
:100B20002078400760D5E8690027C00008D4E8694C
:100B300040F08050E861E869012700F080500090A3
:100B40005C480168C90513D40168834641F480718B
:100B50000160FFF761FD824606E000BFFFF75CFD24
:100B6000A0EB0A0064284ED8DBF80000C005F5D5DC
:100B7000E06801280AD008B1052813D0286A20F0BF
:100B800001002862286A20F0040002E0286A40F090
:100B900001002862E06841F2883B98B1FFF73CFD14
:100BA00082460BE0286A40F004002862EEE700BFAE
:100BB000FFF732FDA0EB0A0159455AD8286A800791
:100BC000F6D50CE0FFF728FD824605E0FFF724FD8F
:100BD000A0EB0A0159454CD8286A8007F6D41FB10A
:100BE000E86920F08050E861E06988B36968C1F382
:100BF0008101022944D00228C6F8608004D0FFF7A2
:100C00000BFD044638E034E0FFF706FD074604E03C
:100C1000FFF702FDC01B02282BD828688001F7D4FB
:100C2000206AB0F5803F05D16868A16820F40030E3
:100C300008436860D4E908010843696821F4741125
:100C400008436860C6F86090FFF7E6FC044606E0DB
:100C500025E000BFFFF7E0FC001B022809D8286848
:100C60008001F7D51BE000BFFFF7D6FC001B022870
:100C700002D90320BDE8F88F28688001F4D40EE083
:100C80000128F7D06868226A00F48031914204D1CB
:100C9000616A00F47010884201D00120EAE7002068
:100CA000E8E7000000100240000042428004424297
:100CB000200000200070004010B5401EB0F1807F81
:100CC00001D3012010BD4FF0E02460610F216017B7
:100CD00001F024F80020A06107202061002010BD51
:100CE0007047704710B590F83C20012A22D00122AD
:100CF00080F83C20CA688C6822F4407222434C6819
:100D000022F4806222430C6822F4006222430C69C0
:100D100022F4805222434C6922F400522243C969D2
:100D2000002322F480420A4301684A6480F83C3080
:100D3000002010BD022010BD70B590F83C20012AA3
:100D400026D0012480F83C40022280F83D20036830
:100D50005A689D6822F070060A6832435A600D4B4B
:100D600002689A4208D0B2F1804F05D00A4B9A42ED
:100D700002D00A4B9A4204D1496825F080031943F6
:100D8000916080F83D40002180F83C10084670BD1D
:100D9000022070BD002C014000040040000800400B
:100DA00010B5040003D094F83D0010B107E0012015
:100DB00010BD002084F83C00204600F01FF80220FF
:100DC00084F83D00211D206800F0E6FD012084F834
:100DD000460084F83E0084F83F0084F8400084F820
:100DE000410084F8420084F8430084F8440084F809
:100DF000450084F83D00002010BD000008B50068E3
:100E00000B49884212D10B48C16941F00201C1610E
:100E1000C069002200F00200009011461D20FFF77B
:100E20009DFCBDE808401D20FFF78ABC08BD0000FE
:100E3000000400400010024090F83D10012901D04C
:100E400001207047022180F83D100168CA6842F015
:100E50000102CA6000680B49884208D0B0F1804F97
:100E600005D00949884202D00849884204D18168E6
:100E700001F00701062903D0016841F0010101607A
:100E800000207047002C0140000400400008004092
:100E900070B5044690F83C00012817D0012584F86D
:100EA0003C50022084F83D002068826822F07702DE
:100EB00022F47F4282600868502830D00DDC202860
:100EC0004DD005DC98B310283BD148E0022070BD1E
:100ED000302844D0402834D139E0602828D0702808
:100EE00006D0B0F5805F2CD0B0F5005F29D10AE0C4
:100EF000CB68D1E90121206800F091FD206881686C
:100F000041F0770109E0CB68D1E90121206800F0C8
:100F100086FD2068816841F48041816011E0CA68E3
:100F20004968206800F036FE5021206807E016E08E
:100F3000CA684968206800F03EFE6021206800F021
:100F400078FD84F83D50002084F83C0070BDCA68EC
:100F50004968206800F01EFE40212068EFE7226803
:100F600001461046EBE72DE9F0410D46040003D0A1
:100F700094F83D0018B108E00120BDE8F0810020A0
:100F800084F83C00204600F041F8022084F83D003F
:100F90002068816844F2070291438160211D206826
:100FA00000F0FAFC226890689169166A2B68AF69B4
:100FB000034340F20330814341EA0721A868EF6907
:100FC00008434FF6FC418843E96840EA07200143A3
:100FD00028692F6A000140EA0730084369686D6993
:100FE00026F0220646EA051529439360226890619F
:100FF00054F8460B0162012004F81F09E0752076C1
:10100000E0762077A0750020B7E7000000B585B036
:10101000002100910191029103910068B0F1804F8D
:101020001ED11048C16941F00101C161C16901F0DF
:1010300001010491816941F004018161806969467F
:1010400000F004000490032000900748FFF7EEF939
:10105000002211461C20FFF781FB1C20FFF770FBCC
:1010600005B000BD001002400008014070B590F8C6
:101070003E60044690F83F5090F8423090F843208C
:10108000022021B104290ED0012E1BD114E0012E23
:1010900018D1012B16D184F83E0084F842000122B9
:1010A0000021206820E0012D0CD1012A0AD184F80A
:1010B0003F0084F8430014E0012D03D1012B01D13E
:1010C000012A01D0012070BD84F83E0084F83F0061
:1010D00084F8420084F8430001220021206800F0D7
:1010E00091FC01220421206800F08CFC206801683A
:1010F00041F001010160002070BD704770B50446E9
:10110000006801694FF00005C943890715D4C1681B
:10111000C943890711D4E91E0161012020772068A5
:1011200080698007204602D0FFF7E7FF04E000F067
:10113000C1F8204600F064F9257720680169C943A9
:10114000490717D4C168C943490713D46FF0040194
:101150000161022020772068806910F4407F2046DA
:1011600002D0FFF7CAFF04E000F0A4F8204600F028
:1011700047F9257720680169C943090716D4C16872
:10118000C943090712D46FF00801016104202077D8
:101190002068C0698007204602D0FFF7AEFF04E058
:1011A00000F088F8204600F02BF9257720680169C7
:1011B000C943C90617D4C168C943C90613D46FF01F
:1011C00010010161082020772068C06910F4407F79
:1011D000204602D0FFF791FF04E000F06BF82046B4
:1011E00000F00EF9257720680169C943C90708D1C5
:1011F000C168C943C90704D1891E0161204600F0B6
:101200004FF920680169C943090609D4C168C94377
:10121000090605D46FF0800101612046FFF760FDEB
:1012200020680169C943490609D4C168C943490610
:1012300005D46FF040010161204600F065F9206897
:101240000169C94389060BD4C168C943890607D41B
:101250006FF0200101612046BDE87040FFF741BDFD
:1012600070BD000000B585B0002100910191029190
:10127000039100680C49884213D10C48816941F000
:10128000040181618069694600F0040004904FF414
:101290008070009002200190032003900448FFF723
:1012A000C5F805B000BD0000002C01400010024050
:1012B00000080140704770B5044690F83C000D46A8
:1012C00001280AD0012084F83C0042B1042A18D039
:1012D000082A2AD00C2A4DD139E0022070BD20689E
:1012E00000F0B0FB2068816941F00801816120684D
:1012F000816921F004018161206881692A691143B3
:1013000011E0206800F0C6FB2068816941F40061AB
:1013100081612068816921F480618161206881692F
:101320002A6941EA0221816124E0206800F0DEFBA5
:101330002068C16941F00801C1612068C16921F0DC
:101340000401C1612068C1692A69114311E0206864
:1013500000F0F8FB2068C16941F40061C1612068B8
:10136000C16921F48061C1612068C1692A6941EACB
:101370000221C161002084F83C0070BD10B504005A
:1013800003D094F83D0010B107E0012010BD00200B
:1013900084F83C00204600F01FF8022084F83D004D
:1013A000211D206800F0F8FA012084F8460084F836
:1013B0003E0084F83F0084F8400084F8410084F83F
:1013C000420084F8430084F8440084F8450084F81F
:1013D0003D00002010BD000008B5006806498842A5
:1013E00008D10648816941F400618161806900F497
:1013F0000060009008BD0000002C01400010024079
:101400007047000010B50446022249B104290ED0ED
:10141000082913D094F84100012816D0012010BDEE
:1014200094F83E000128F9D184F83E200FE094F8AA
:101430003F000128F2D184F83F2008E094F84000F2
:101440000128EBD184F8402001E084F841200122FA
:10145000206800F0D7FA0F492068884203D1426C17
:1014600042F4004242642068884208D0B0F1804FC4
:1014700005D00949884202D00849884204D18168D0
:1014800001F00701062903D0016841F00101016064
:10149000002010BD002C0140000400400008004066
:1014A0001CB51549884225D14831154C13480860B0
:1014B000E088401C00B2E0800A280AD10022A1F195
:1014C0009000E28000680168C943C906416A218032
:1014D0004262B4F90010B4F90400CDE9000104F14E
:1014E0000800084B07C800F09FF96080BDE81C4069
:1014F00000F0FCB91CBD0000B80000200000C8428C
:1015000000000020680100207047000000B585B091
:101510000021009101910291039100680F498842D6
:101520001AD10F48C16941F40031C161C16901F4A8
:1015300000310491816941F004018161806969464B
:1015400000F0040004900420009012200190032079
:1015500003900448FEF76AFF05B000BD0044004058
:1015600000100240000801402DE9F843044690F8BD
:1015700039001F4616460D4620284CD1C5B1BEB1D4
:1015800094F83800012846D0012084F838004FF044
:101590000008C4F83C80212084F83900FFF73CF8AB
:1015A000A6848146E684A068B0F5805F03D004E09D
:1015B0000120BDE8F883206928B12E465FF00005C0
:1015C00084F838800EE00026FAE78021204600F0FB
:1015D00061FBA0B9AEB116F8010B21684860E08C40
:1015E000401EE084E08C4B464FF00002009700283C
:1015F000EBD14FF04001204600F04CFB30B103200E
:10160000D7E735F8020BC0F30800E6E7202084F89E
:1016100039000020CDE70220CBE7FEE770B586B0A9
:10162000002414480094019402940394816941F0C9
:1016300020018161816901F020010491816941F0FB
:10164000040181618069012200F004000A4E550204
:10165000049029463046FEF7D9FF01200095CDE9D8
:1016600001040320039069463046FEF7DFFE06B012
:1016700070BD0000001002400008014010B592B09B
:1016800000240F941C2108A81094FEF764FD20216B
:101690006846FEF760FD20481E49C0E9001440F28C
:1016A0008331C0E90241046144618461FFF766FE51
:1016B00008B1FEF7A7FE0F940FA917481094FFF783
:1016C0003BFB08B1FEF79EFE6020CDE90804022036
:1016D000CDE90A040C940D94002208A90E480E943A
:1016E000FFF7E9FD08B1FEF78DFE00944FF40050BE
:1016F000CDE9044002940194039469460648079496
:10170000FFF7F0FA08B1FEF77DFE0348FFF7AAFDE8
:1017100012B010BD002C01402800002010B58CB084
:1017200024216846FEF717FD0024154809944FF060
:1017300080410A94C0E900144FF6FF71C0E90241EC
:10174000046184610120CDE90004CDE90204049420
:10175000CDE905400794694609480894FFF703FC62
:1017600008B1FEF74FFE099409A905480A94FFF74E
:10177000E3FA002801D0FEF745FE0CB010BD0000D2
:101780007000002010B586B0002417480094019422
:101790000294039404941349059401604721C0E91D
:1017A000011440F2E731C0E9031480218161FFF7A1
:1017B000F7FA08B1FEF726FE4FF480500090694614
:1017C0000948FFF765FB08B1FEF71CFE049404A965
:1017D00005480594FFF7B0FA002801D0FEF712FE85
:1017E00006B010BD00040040B80000200C4810B541
:1017F0000A4901604FF4E1314160002181600C220F
:10180000C160C0E904128161C161FEF70BFF0028CD
:1018100003D0BDE81040FEF7F5BD10BD0044004008
:1018200028010020FEE7FEE72DE9F047884607463D
:10183000DDE90801401A05B21D84B3F922601C4697
:101840009246A81BFEF75AFD3946FEF7E7FC814693
:10185000E0602846FEF752FD07461A494046FEF76B
:101860000FFD3946FEF7DAFC80462061B4F924000A
:101870007142284400EB4100FEF740FD5146FEF75F
:10188000CDFC074660617019E0846584A5844146FB
:101890004846FEF76BFC3946FEF768FCFEF737FD5D
:1018A0002083618B084400B26083B4F91C10884225
:1018B00003DCB4F91E10884200DA6183B4F91A001F
:1018C000BDE8F0870000C84200B58BB0282205496A
:1018D0006846FEF727FC282269460348FEF722FCEB
:1018E0000BB000BD581F00086801002010B5041E91
:1018F00008484FF4007104DD0122FEF787FEA0B214
:1019000004E00022FEF782FE604280B2BDE8104093
:1019100000F03AB90008014070477047FEF7B8BEC2
:1019200030B58FB028216846FEF715FC14210AA8AF
:10193000FEF711FC01210804CDE9001000240294F7
:1019400002250491CDE907504FF4E0100990684654
:10195000FFF722F808B172B6FEE70F20CDE90A05BD
:101960004FF48060CDE90C4002210AA80E94FEF7E6
:1019700027FF002801D072B6FEE70FB030BD7047D8
:101980000148FFF7BBBB0000700000200148FFF7D3
:10199000B5BB0000B8000020F0B50268164B174C2C
:1019A000174D4FF08047984205D0B84203D0A0426F
:1019B00001D0A84203D122F070064A68324398420F
:1019C00005D0B84203D0A04201D0A84203D122F4EE
:1019D0004074CA6822434C6922F0800222430260AC
:1019E0008A68C2620A688262984201D10969016309
:1019F00001214161F0BD0000002C014000040040C5
:101A00000008004010B501F01F030121046A99404D
:101A10008C430462016A9A401143016210BD10B503
:101A2000846842EA032224F47F440A43224382600A
:101A300010BD826822F070020A4342F00701816003
:101A40007047000030B5026A22F001020262026AA9
:101A50004368846924F073050C682C4322F0020566
:101A60008A682A430A4DA8420BD122F00805CA68A9
:101A700023F440732A434D6922F004021D438B690D
:101A80002B434360846149684163026230BD0000BA
:101A9000002C014030B5026A22F010020262026A94
:101AA000436884690D6824F4E64444EA05248D689B
:101AB00022F0200242EA05120B4DA8420ED1CD6859
:101AC00022F0800242EA05124D6923F4406343EAA2
:101AD00085038D6922F0400243EA850343608461F7
:101AE00049688163026230BD002C014030B5026A52
:101AF00022F480720262036A4268C46923F40073AC
:101B000024F073050C682C438D6843EA05230C4DC3
:101B1000A8420ED1CD6823F4006343EA05234D6942
:101B200022F4405242EA05128D6923F4806342EAAE
:101B300005124260C4614968C163036230BD0000A0
:101B4000002C014030B5026A22F480520262046A1D
:101B50004268C3690D6823F4E64343EA05238D68B0
:101B600024F4005444EA0534064DA84204D14D69DA
:101B700022F4804242EA85124260C36149680164EE
:101B8000046230BD002C014001490860704700002C
:101B9000342C014010B5036A046A24F00104046285
:101BA000846924F0F00444EA021423F00A020A4390
:101BB0008461026210BD10B5036A23F01003036252
:101BC0008369046A23F4704343EA023224F0A003D9
:101BD00043EA01118261016210BD000070B5044644
:101BE00000680169E26821F44051114301612169F3
:101BF000A0680843616908432168CA6841F20C6320
:101C00009A430243CA6020684169A26921F4407185
:101C1000114341611E492068884202D1FEF776FED9
:101C200001E0FEF763FE00EBC00101EB001260680B
:101C300064218000B2FBF0F3B3FBF1F36FF0180600
:101C40007343B2FBF0F5B2FBF0F605EB83053223EC
:101C500003EB0515B5FBF1F5B6FBF1F605F0F00564
:101C600005EB0615B2FBF0F6B2FBF0F0B0FBF1F0BD
:101C70006FF01802504306EB800003EB0010B0FB3E
:101C8000F1F0216800F00F002844886070BD00006A
:101C9000003801402DE9F041984617460E460446AB
:101CA000069D1DE0681C1BD02DB1FEF7B5FCA0EB16
:101CB0000800A84214D92068C16821F4D071C1601D
:101CC0002068416921F001014161202084F8390038
:101CD00084F83A00002084F838000320BDE8F08141
:101CE0002068006836EA000004D00020B842D9D04D
:101CF0000020F3E70120F9E7FEE700000FB4054BF1
:101D000010B503A9044A029800F028F810BC5DF849
:101D100014FB0000B11E0008240000200907090E72
:101D2000002804DB00F1E02080F80014704700F088
:101D30000F0000F1E02080F8141D704702E008C891
:101D4000121F08C1002AFAD170477047002001E035
:101D500001C1121F002AFBD1704700002DE9FF4F7F
:101D600089B09B460446002506E025280BD05A463C
:101D70000B999047641C6D1C20780028F5D10DB09C
:101D80002846BDE8F08F0027B8460122474900E009
:101D9000074314F8013F203B02FA03F00842F7D151
:101DA00020782E2819D114F8010F47F004072A28AB
:101DB0000ED06FF02F022078A0F1300109290CD845
:101DC00008EB880102EB410100EB0108641CF2E71B
:101DD0000A98641C50F8048B0A9020780028CED012
:101DE000642808D0692806D075281ED05A460B9959
:101DF00090476D1C58E00A994FF00A0901C90A91F1
:101E0000002802DA40422D2102E0390504D52B21B9
:101E10008DF82010012103E0F90704D02021F7E715
:101E20008A4608AE0DE00021FAE70A994FF00A0948
:101E300001C90A91F7E74946FEF782FA303106F800
:101E4000011D0028F7D1ADEB060000F1200978074D
:101E500001D44FF00108C84502DDA8EB090000E0FD
:101E600000208046002706E008A85A46C05D0B996E
:101E700090476D1C7F1C5745F6DB04E030205A4626
:101E80000B9990476D1CB8F10001A8F10108F5DC31
:101E900005E016F8010B5A460B9990476D1CB9F1F5
:101EA0000001A9F10109F4DC641C65E709280100BF
:101EB00013B54FF6FF73012269460548FFF754FB3F
:101EC000034800680168C9434906FBD400981CBD5B
:101ED00028010020FEF7E4FBFFF722FDFFF79EFB41
:101EE000FFF7CCFBFFF71AFCFFF74CFCFFF77EFC7B
:101EF00000210D48FFF786FA0C48FEF79DFF3C21B4
:101F00000B48FFF7B3F8FFF7DFFC0A4C0A4D00BFA0
:101F1000B4F90020B5F9001008A0FFF7EFFE642027
:101F2000FEF772FAF4E7000028000020B800002055
:101F30007000002002000020000000204E6F775348
:101F400070656564203A202564202050574D203A62
:101F50002025640D0A0000000000C84200000000B7
:101F60000000000000000000000000000000000071
:101F7000000000002003E0FC000000000000000062
:101F80000000000000000000010203040607080929
:101F90000000000001020304B81F00080000002038
:101FA000280000003C1D0008E01F00082800002059
:101FB000600500004C1D000800000000CEFF00007E
:101FC000000048420000C84200000000010000007C
:101FD00010000000000000000024F40000000000D9
:04000005080000ED02
:00000001FF
