:020000040800F2
:100000003005002001010008F71200081D1100084A
:10001000F51200086D0100084116000800000000FC
:10002000000000000000000000000000FB120008BB
:100030006F01000800000000F9120008FD1200081E
:100040001B0100081B0100081B0100081B01000820
:100050001B0100081B0100081B0100081B01000810
:100060001B0100081B0100081B0100081B01000800
:100070001B0100081B0100081B0100081B010008F0
:100080001B0100081B0100081B0100081B010008E0
:100090001B0100081B0100081B0100081B010008D0
:1000A0001B0100081B0100081B0100081B010008C0
:1000B0001B010008611300081B0100081B01000858
:1000C0001B0100081B0100081B0100081B010008A0
:1000D0001B0100081B0100081B0100081B01000890
:1000E0001B0100081B0100081B010008DFF80CD0F1
:1000F00000F02AF80048004781160008300500206B
:100100000648804706480047FEE7FEE7FEE7FEE7B1
:10011000FEE7FEE7FEE7FEE7FEE7FEE75F13000807
:10012000ED000008D2B201E000F8012B491EFBD21D
:1001300070470022F6E710B513460A4604461946F2
:10014000FFF7F0FF204610BD064C074D06E0E068C3
:1001500040F0010394E8070098471034AC42F6D30E
:10016000FFF7C8FFC0160008E0160008FEE770475A
:1001700072B6FEE72DE9F84FDFF8B891002409F1D7
:10018000040A0AF1040B23460F270BF1040EC9E001
:100190000125A5402A40AA427DD1674ED1F804C06E
:1001A000ACEB0608B44532D014DCBCF1030F3AD0F6
:1001B00009DCBCF1000F2AD0BCF1010F1CD0BCF14E
:1001C000020F31D11DE0BCF1110F17D0BCF1120F9D
:1001D0002AD119E0B8F5881F19D006DCB8F5803FA0
:1001E00015D0B8F5801F1FD111E0B8F5001F0ED053
:1001F000B8F5041F18D10AE0CB6815E0CB681B1DC9
:1002000012E0CB6808330FE0CB680C330CE08B684E
:100210002BB1012B4FF0080303D0456104E0042308
:1002200002E0056100E00023FF2A01D8064601E054
:1002300000F104064FEA840501D9A5F12005D6F89E
:10024000008007FA05FC28EA0C0803FA05F548EADD
:100250000508C6F800804D68ED0062D5374DAE69DF
:1002600046F00106AE61AD6924F0030605F0010514
:100270000095334D06EB050CDCF80850A607360F49
:1002800007FA06F825EA0805DFF8B880404503D1EB
:100290004FF0000817E044E0DFF8AC80404502D1A1
:1002A0004FF001080FE0DFF8A480404502D14FF085
:1002B000020808E0DFF89880404502D14FF00308BB
:1002C00001E04FF0040808FA06F848EA0508CCF8FF
:1002D00008804D68D9F80060ED034D4601D51643FE
:1002E00000E096432E604D68DAF80060AD03554695
:1002F00001D5164300E096432E604D68DBF80060A0
:10030000ED025D4601D5164300E096432E604D6830
:10031000DEF80060AD02754601D5164300E0964355
:100320002E60641C0D682A46E5407FF431AFBDE8BD
:10033000F88F00000004014000001110001002407E
:100340000000014000080140000C01400010014085
:10035000001401400148806870470000040000203C
:1003600070B5040004D094F83900002510B106E0FF
:10037000012070BD84F83850204600F0A1FE2420F2
:1003800084F839002068C16821F40051C16020461A
:1003900001F0FAF82068016921F4904101612068B8
:1003A000416921F0220141612068416941F0080161
:1003B00041612068C16841F40051C160E5632020BB
:1003C00084F8390084F83A00002070BD0248816842
:1003D000027811448160704704000020074810B57E
:1003E000016841F010010160032000F075F8002061
:1003F00000F006F800F024F8002010BD00200240B4
:1004000070B50D4D04464FF47A712878B1FBF0F0C9
:100410000A490968B1FBF0F000F0ECFA48B9102C79
:1004200007D200222146501E00F036F800206C60F2
:1004300070BD012070BD00000400002010000020ED
:100440000C4808B5816941F001018161816901F0C1
:1004500001010091C16941F08051C161C06900F0A2
:10046000805000900448416821F0E06141F0007143
:10047000416008BD0010024000000140002809DB77
:1004800000F01F02012191404009800000F1E020AE
:10049000C0F8001170470000F0B40E4B1B680C460A
:1004A000C3F30223C3F10705042D00D90425191D48
:1004B000072901D2002300E0DB1E012606FA05F120
:1004C000491E214099409E40761E16403143F0BCA3
:1004D00001F0B7B80CED00E0064900F0070208682B
:1004E0004FF6FF03184040EA0220034A1043086019
:1004F000704700000CED00E00000FA052DE9F04720
:100500000F46050061D0434E306800F00700B84246
:1005100009D2306820F0070038433060306800F0BE
:100520000700B84251D128683B4C810712D54007DB
:1005300003D5606840F4E06060602878000703D568
:10054000606840F4605060606068A96820F0F00066
:10055000084360602878C00728D06868012810D058
:100560002168022810D0890700292EDA616821F05D
:10057000030101436160FFF7EDFE804641F28839D7
:100580000DE021688903EFE78901EDE7FFF7E2FE5F
:10059000A0EB0801494502D90320BDE8F087606857
:1005A000696800F00C00B0EB810FEFD1306800F00B
:1005B0000700B8420BD9306820F00700384330609C
:1005C000306800F00700B84201D00120E5E7287844
:1005D000400705D56068E96820F4E0600843606082
:1005E0002878000706D56068296920F4605040EA41
:1005F000C100606000F038F86168084AC1F3031177
:10060000515CC8400649086006480068FFF7F8FEDC
:100610000020C2E70020024000100240A816000897
:1006200010000020080000200448054900684968BF
:10063000044AC1F30221515CC840704710000020F9
:1006400000100240B81600080448054900684968CF
:10065000044AC1F3C221515CC84070471000002019
:1006600000100240B816000812A185B00FC98DE82D
:100670000F0014A0144A006804905168134801F058
:100680000C03042B10D0082B0ED1C1F38343C903F4
:100690001DF803000AD5516804AAC1F34041515C1A
:1006A0000A4A5043B0FBF1F005B07047084948438F
:1006B000FAE7000002030405060708090A0B0C0DFF
:1006C0000E0F1010010200000010024000127A000C
:1006D00000093D002DE9F84F040070D02078C04D8E
:1006E000C00749D06868C0F38100012807D0686856
:1006F000C0F38100022809D16868C00306D52868C4
:10070000800339D560680028E7D035E06068B0F52F
:10071000803F0BD010B1B0F5A02F11D0286820F485
:1007200080302860286820F4802002E0286840F4A7
:1007300080302860606890B1FFF70CFE06460AE042
:10074000286840F480202860F0E700BFFFF702FE31
:10075000801B642873D828688003F7D50CE0FFF766
:10076000F9FD064605E000BFFFF7F4FD801B642895
:10077000F0D828688003F7D420789A4E80074FF08D
:1007800001094FF0000839D5686810F00C0F07D048
:100790006868C0F38100022809D16868C00306D4E4
:1007A0002868800714D52069012808D110E0206945
:1007B000B0B1C6F80090FFF7CDFD074605E00AE1AD
:1007C000FFF7C8FDC01B0228C4D828688007F7D5EA
:1007D0002868616920F0F80040EAC10028600DE057
:1007E000C6F80080FFF7B6FD074604E0FFF7B2FD4C
:1007F000C01B022823D828688007F7D42078000778
:100800002CD57948A169D9B1C0F80090FFF7A2FDB5
:10081000074604E0FFF79EFDC01B02280FD8686A58
:100820008007F7D571484FF4FA510068B0FBF1F03A
:10083000009000BF0098411E0091FAD20EE080E0C7
:10084000C0F80080FFF786FD074604E0FFF782FD51
:10085000C01B022875D8686A8007F7D42078400743
:1008600060D5E8690027C00008D4E86940F08050EE
:10087000E861E869012700F0805000905C48016859
:10088000C90513D40168834641F480710160FFF704
:1008900061FD824606E000BFFFF75CFDA0EB0A00A9
:1008A00064284ED8DBF80000C005F5D5E0680128C3
:1008B0000AD008B1052813D0286A20F00100286268
:1008C000286A20F0040002E0286A40F00100286253
:1008D000E06841F2883B98B1FFF73CFD82460BE0AF
:1008E000286A40F004002862EEE700BFFFF732FDFF
:1008F000A0EB0A0159455AD8286A8007F6D50CE0C2
:10090000FFF728FD824605E0FFF724FDA0EB0A0172
:1009100059454CD8286A8007F6D41FB1E86920F001
:100920008050E861E06988B36968C1F381010229F8
:1009300044D00228C6F8608004D0FFF70BFD0446BF
:1009400038E034E0FFF706FD074604E0FFF702FD5C
:10095000C01B02282BD828688001F7D4206AB0F584
:10096000803F05D16868A16820F4003008436860C2
:10097000D4E908010843696821F4741108436860E8
:10098000C6F86090FFF7E6FC044606E025E000BFED
:10099000FFF7E0FC001B022809D828688001F7D582
:1009A0001BE000BFFFF7D6FC001B022802D9032082
:1009B000BDE8F88F28688001F4D40EE00128F7D054
:1009C0006868226A00F48031914204D1616A00F4BF
:1009D0007010884201D00120EAE70020E8E700001B
:1009E00000100240000042428004424210000020F9
:1009F0000070004010B5401EB0F1807F01D301208F
:100A000010BD4FF0E02460610F21601700F019FE67
:100A10000020A06107202061002010BD70477047B2
:100A200010B590F83C20012A22D0012280F83C2009
:100A3000CA688C6822F4407222434C6822F48062B7
:100A400022430C6822F4006222430C6922F4805293
:100A500022434C6922F400522243C969002322F444
:100A600080420A4301684A6480F83C30002010BD8F
:100A7000022010BD70B590F83C20012A26D0012438
:100A800080F83C40022280F83D2003685A689D6847
:100A900022F070060A6832435A600D4B02689A428F
:100AA00008D0B2F1804F05D00A4B9A4202D00A4BCF
:100AB0009A4204D1496825F080031943916080F877
:100AC0003D40002180F83C10084670BD022070BDFA
:100AD000002C0140000400400008004010B5040054
:100AE00003D094F83D0010B107E0012010BD0020B4
:100AF00084F83C00204600F01FF8022084F83D00F6
:100B0000211D206800F032FC012084F8460084F8A2
:100B10003E0084F83F0084F8400084F8410084F8E7
:100B2000420084F8430084F8440084F8450084F8C7
:100B30003D00002010BD000008B500680B49884248
:100B400012D10B48C16941F00201C161C0690022A4
:100B500000F00200009011461D20FFF79DFCBDE84B
:100B600008401D20FFF78ABC08BD000000040040BB
:100B70000010024090F83D10012901D0012070477B
:100B8000022180F83D100168CA6842F00102CA6083
:100B900000680B49884208D0B0F1804F05D0094960
:100BA000884202D00849884204D1816801F00701D7
:100BB000062903D0016841F001010160002070475F
:100BC000002C0140000400400008004070B50446BD
:100BD00090F83C00012817D0012584F83C500220F1
:100BE00084F83D002068826822F0770222F47F4278
:100BF00082600868502830D00DDC20284DD005DCFC
:100C000098B310283BD148E0022070BD302844D072
:100C1000402834D139E0602828D0702806D0B0F5BB
:100C2000805F2CD0B0F5005F29D10AE0CB68D1E914
:100C30000121206800F0D0FB2068816841F0770135
:100C400009E0CB68D1E90121206800F0C5FB2068EC
:100C5000816841F48041816011E0CA684968206878
:100C600000F06EFC5021206807E016E0CA68496871
:100C7000206800F076FC6021206800F0B7FB84F863
:100C80003D50002084F83C0070BDCA684968206867
:100C900000F056FC40212068EFE72268014610462C
:100CA000EBE72DE9F0410D46040003D094F83D0038
:100CB00018B108E00120BDE8F081002084F83C0074
:100CC000204600F041F8022084F83D002068816849
:100CD00044F2070291438160211D206800F046FB29
:100CE000226890689169166A2B68AF69034340F2E5
:100CF0000330814341EA0721A868EF6908434FF6B2
:100D0000FC418843E96840EA0720014328692F6ACB
:100D1000000140EA0730084369686D6926F0220641
:100D200046EA0515294393602268906154F8460B02
:100D30000162012004F81F09E0752076E076207733
:100D4000A0750020B7E7000000B585B00021009134
:100D50000191029103910068B0F1804F18D10D48C4
:100D6000C16941F00101C161C16901F00101049152
:100D7000816941F0040181618069694600F00400E5
:100D8000049003200090012002900348FFF7F2F93D
:100D900005B000BD0010024000080140704770B56A
:100DA0000446006801694FF00005C943890715D45E
:100DB000C168C943890711D4E91E01610120207768
:100DC000206880698007204602D0FFF7E7FF04E033
:100DD00000F0C0F8204600F063F92577206801692B
:100DE000C943490717D4C168C943490713D46FF0F1
:100DF00004010161022020772068806910F4407F9F
:100E0000204602D0FFF7CAFF04E000F0A3F8204616
:100E100000F046F9257720680169C943090716D40F
:100E2000C168C943090712D46FF0080101610420A9
:100E300020772068C0698007204602D0FFF7AEFF08
:100E400004E000F087F8204600F02AF925772068B2
:100E50000169C943C90617D4C168C943C90613D477
:100E60006FF010010161082020772068C06910F43C
:100E7000407F204602D0FFF791FF04E000F06AF8BF
:100E8000204600F00DF9257720680169C943C9079C
:100E900008D1C168C943C90704D1891E0161204630
:100EA00000F000F920680169C943090609D4C16846
:100EB000C943090605D46FF0800101612046FFF7A0
:100EC000ADFD20680169C943490609D4C168C94319
:100ED000490605D46FF040010161204600F0EEF8AC
:100EE00020680169C94389060BD4C168C9438906D2
:100EF00007D46FF0200101612046BDE87040FFF784
:100F00008EBD70BD00B585B00021009101910291A8
:100F1000039100680C49884213D10C48816941F063
:100F2000040181618069694600F0040004904FF477
:100F30008070009002200190032003900448FFF786
:100F400019F905B000BD0000002C0140001002405E
:100F500000080140704770B5044690F83C000D460B
:100F600001280AD0012084F83C0042B1042A18D09C
:100F7000082A2AD00C2A4DD139E0022070BD206801
:100F800000F03CFA2068816941F008018161206825
:100F9000816921F004018161206881692A69114316
:100FA00011E0206800F052FA2068816941F4006184
:100FB00081612068816921F4806181612068816993
:100FC0002A6941EA0221816124E0206800F06AFA7E
:100FD0002068C16941F00801C1612068C16921F040
:100FE0000401C1612068C1692A69114311E02068C8
:100FF00000F084FA2068C16941F40061C161206891
:10100000C16921F48061C1612068C1692A6941EA2E
:101010000221C161002084F83C0070BD10B50400BD
:1010200003D094F83D0010B107E0012010BD00206E
:1010300084F83C00204600F01FF8022084F83D00B0
:10104000211D206800F092F9012084F8460084F800
:101050003E0084F83F0084F8400084F8410084F8A2
:10106000420084F8430084F8440084F8450084F882
:101070003D00002010BD000008B500680649884208
:1010800008D10648816941F400618161806900F4FA
:101090000060009008BD0000002C014000100240DC
:1010A000704700000349884203D103490888401C67
:1010B00008807047A4000020000000207047000056
:1010C00000B585B000210091019102910391006863
:1010D0000F4988421AD10F48C16941F40031C161FA
:1010E000C16901F400310491816941F00401816119
:1010F0008069694600F004000490042000901220EA
:101100000190032003900448FFF734F805B000BDB8
:10111000004400400010024000080140FEE70000CB
:10112000094808B5816941F020018161816901F0B8
:1011300020010091816941F004018161806900F022
:101140000400009008BD00000010024010B592B0ED
:1011500000240F941C2108A81094FEF7EAFF202118
:101160006846FEF7E6FF20481E49C0E9001440F239
:101170008331C0E90241046144618461FFF74EFF9D
:1011800008B1FEF7F5FF0F940FA917481094FFF769
:1011900071FC08B1FEF7ECFF6020CDE908040220E5
:1011A000CDE90A040C940D94002208A90E480E946F
:1011B000FFF7D1FE08B1FEF7DBFF00944FF40050BB
:1011C000CDE90440029401940394694606480794CB
:1011D000FFF726FC08B1FEF7CBFF0348FFF792FEAE
:1011E00012B010BD002C01401400002010B58CB0CE
:1011F00024216846FEF79DFF0024154809944FF00E
:1012000080410A94C0E900144FF6FF71C0E9024121
:10121000046184610120CDE90004CDE90204049455
:10122000CDE905400794694609480894FFF739FD60
:1012300008B1FEF79DFF099409A905480A94FFF734
:1012400019FC002801D0FEF793FF0CB010BD000080
:101250005C00002010B586B000241748009401946B
:101260000294039404941349059401604721C0E952
:10127000011440F2E731C0E903148461FFF72EFC4A
:1012800008B1FEF775FF4FF48050009069460A4898
:10129000FFF79CFC08B1FEF76BFF049404A9064815
:1012A0000594FFF7E7FB002801D0FEF761FF06B0C9
:1012B00010BD000000040040A40000200C4810B540
:1012C0000A4901604FF4E1314160002181600C2244
:1012D000C160C0E904128161C161FFF741F80028D3
:1012E00003D0BDE81040FEF743BF10BD00440040EE
:1012F000EC000020FEE7FEE770477047FFF766B896
:1013000030B58FB028216846FEF713FF14210AA8D4
:10131000FEF70FFF01210804CDE90010002402941C
:1013200002250491CDE907504FF4E010099068467A
:10133000FFF7D0F908B172B6FEE70F20CDE90A0534
:101340004FF48060CDE90C4002210AA80E94FFF70B
:10135000D5F8002801D072B6FEE70FB030BD704757
:101360000148FFF71CBD0000A4000020F0B5026892
:10137000164B174C174D4FF08047984205D0B84296
:1013800003D0A04201D0A84203D122F070064A68DF
:101390003243984205D0B84203D0A04201D0A842BF
:1013A00003D122F44074CA6822434C6922F08002BF
:1013B000224302608A68C2620A688262984201D14E
:1013C0000969016301214161F0BD0000002C014069
:1013D000000400400008004010B5846842EA03227F
:1013E00024F47F440A432243826010BD826822F0C5
:1013F00070020A4342F007018160704730B5026A0B
:1014000022F001020262026A4368846924F07305D3
:101410000C682C4322F002058A682A430A4DA84230
:101420000BD122F00805CA6823F440732A434D69A2
:1014300022F004021D438B692B4343608461496899
:101440004163026230BD0000002C014030B5026AE9
:1014500022F010020262026A436884690D6824F473
:10146000E64444EA05248D6822F0200242EA05128F
:101470000B4DA8420ED1CD6822F0800242EA05123F
:101480004D6923F4406343EA85038D6922F04002ED
:1014900043EA85034360846149688163026230BD29
:1014A000002C014030B5026A22F480720262036AA5
:1014B0004268C46923F4007324F073050C682C435C
:1014C0008D6843EA05230C4DA8420ED1CD6823F464
:1014D000006343EA05234D6922F4405242EA0512B3
:1014E0008D6923F4806342EA05124260C461496851
:1014F000C163036230BD0000002C014030B5026AB8
:1015000022F480520262046A4268C3690D6823F4BF
:10151000E64343EA05238D6824F4005444EA053485
:10152000064DA84204D14D6922F4804242EA851258
:101530004260C36149680164046230BD002C01400F
:1015400010B5036A046A24F001040462846924F07B
:10155000F00444EA021423F00A020A43846102629E
:1015600010BD10B5036A23F0100303628369046A97
:1015700023F4704343EA023224F0A00343EA01114A
:101580008261016210BD000070B504460068016907
:10159000E26821F44051114301612169A0680843C8
:1015A000616908432168CA6841F20C639A430243A7
:1015B000CA6020684169A26921F440711143416108
:1015C0001E492068884202D1FFF73EF801E0FFF78C
:1015D0002BF800EBC00101EB001260686421800071
:1015E000B2FBF0F3B3FBF1F36FF018067343B2FBF9
:1015F000F0F5B2FBF0F605EB8305322303EB05159E
:10160000B5FBF1F5B6FBF1F605F0F00505EB0615B7
:10161000B2FBF0F6B2FBF0F0B0FBF1F06FF01802A5
:10162000504306EB800003EB0010B0FBF1F02168A3
:1016300000F00F002844886070BD000000380140B1
:10164000FEE70907090E002804DB00F1E02080F81E
:101650000014704700F00F0000F1E02080F8141D26
:10166000704702E008C8121F08C1002AFAD170476B
:101670007047002001E001C1121F002AFBD1704712
:10168000FEF7ACFEFFF73CFEFFF74AFDFFF75EFDFD
:10169000FFF7ACFDFFF7DEFDFFF710FE0148FFF797
:1016A00069FAFEE7A400002000000000000000002E
:1016B00001020304060708090000000001020304F8
:1016C000E016000800000020140000006216000868
:1016D000F4160008140000201C0500007216000813
:1016E00000000000010000001000000000000000E9
:0416F0000024F400DE
:04000005080000ED02
:00000001FF
