:020000040800F2
:10000000C0050020010100089B3000086F1F000898
:1000100099300008010400086D3500080000000058
:100020000000000000000000000000008F31000808
:1000300003040008000000008D3100089131000821
:100040001B0100081B0100081B0100081B01000820
:100050001B0100081B0100081B0100081B01000810
:100060001B0100081B0100081B0100081B01000800
:100070001B0100081B0100081B0100081B010008F0
:100080001B0100081B0100081B0100081B010008E0
:100090001B0100081B0100081B0100081B010008D0
:1000A0001B0100081B0100081B0100081B010008C0
:1000B000F5310008013200081B0100087D1F00080F
:1000C000711F00081B0100081B0100081B0100082C
:1000D0001B0100081B0100081B0100081B01000890
:1000E0001B0100081B0100081B010008DFF80CD0F1
:1000F00000F074F90048004749370008C0050020A7
:100100000648804706480047FEE7FEE7FEE7FEE7B1
:10011000FEE7FEE7FEE7FEE7FEE7FEE7F331000855
:10012000ED00000840EA01039B0703D009E008C97D
:10013000121F08C0042AFAD203E011F8013B00F8AC
:10014000013B521EF9D27047D2B201E000F8012BF8
:10015000491EFBD270470022F6E710B513460A4647
:1001600004461946FFF7F0FF204610BDF0B480EAC0
:100170000102D40F4200B2EB410F02D20246084600
:1001800011464A0042D0C30DDDB2C1F3C752AD1AC9
:10019000202D35DAC1F3160141F4000204B15242B8
:1001A000C5F1200602FA06F12A411044B3EBD05FF4
:1001B00023D0C4B1012DA0EBC35009DCF0BC4FF03B
:1001C000004202EAC352DBB200F5000000F0D7B8EB
:1001D000400000F1807000EBC350A0F1807040EA55
:1001E000D170490009E0490841EAC071A0EBC35051
:1001F00000F50000400800EBC350F0BC00F0B6B8BA
:100200006142012202EB4101001BF6E7F0BC70479E
:1002100081F00041AAE780F00040A7E780EA0102F0
:1002200010B502F00043400022D04A001FD0010E5A
:1002300001EB1261C0F35600C2F3560240F4000015
:1002400042F40002A0FB022000047F39140400D015
:10025000401C50EA124001D44000491EC2B20C06B4
:1002600004EBD010401C4008802A02D003E000209C
:1002700010BD20F00100002900DA0020184310BD55
:1002800030B480EA010202F0004530F0004221F073
:10029000004013D090B1C30DD40DC2F31601C0F3CA
:1002A0001600E41A41F4000140F400027D3491424A
:1002B00001D3641C00E04900002C02DA30BC0020AD
:1002C00070474FF400000023914201D3891A034381
:1002D00040084FEA4101F7D151B1914202D14FF0AC
:1002E000004105E002D24FF0010101E06FF0010191
:1002F00003EBC450284430BC00F038B8C10F80EA8A
:10030000E0700844CA079623002100F038B800F0D6
:10031000004220F00040C10DC0F3160040F4000080
:100320007F2901DA00207047962903DCC1F196018C
:10033000C84001E096398840002AF4D04042704716
:1003400030B50B46014600202022012409E021FAA5
:1003500002F59D4205D303FA02F5491B04FA02F5A2
:100360002844151EA2F10102F1DC30BD0029A8BF0E
:100370007047401C490008BF20F00100704710B4CE
:10038000B0FA80FC00FA0CF050EA010404BF10BC83
:10039000704749B1CCF1200421FA04F411FA0CF1B0
:1003A00018BF012121430843A3EB0C01CB1D4FEAE9
:1003B00000614FEA102042BF002010BC704700EBE4
:1003C000C35010440029A4BF10BC7047401C490012
:1003D00008BF20F0010010BC70470000064C074D1C
:1003E00006E0E06840F0010394E807009847103405
:1003F000AC42F6D3FFF77EFE0C3800082C3800081C
:10040000FEE7704772B6FEE710B590F821100024A1
:10041000022903D00421816301243DE001680A68B8
:1004200022F00E020A6001680A6822F001020A60E6
:100430001A4A0168914201D1012121E0174A143280
:10044000914201D110211BE0144A2832914201D17E
:10045000891515E0114A3C32914201D189140FE00F
:100460000E4A5032914202D14FF4803108E00B4ADB
:100470006432914202D14FF4801101E04FF080715B
:10048000064A083A5160012180F82110002180F8C5
:100490002010416B01B18847204610BD0800024082
:1004A00090F821007047000070B5044600F004F990
:1004B0000546601C02D004480078044400F0FCF8B3
:1004C000401BA042FAD370BD1C0000202DE9F84F5C
:1004D000DFF8B891002409F1040A0AF1040B23465D
:1004E0000F270BF1040EC9E00125A5402A40AA42BE
:1004F0007DD1674ED1F804C0ACEB0608B44532D0CC
:1005000014DCBCF1030F3AD009DCBCF1000F2AD097
:10051000BCF1010F1CD0BCF1020F31D11DE0BCF1C8
:10052000110F17D0BCF1120F2AD119E0B8F5881FAE
:1005300019D006DCB8F5803F15D0B8F5801F1FD163
:1005400011E0B8F5001F0ED0B8F5041F18D10AE06D
:10055000CB6815E0CB681B1D12E0CB6808330FE0B9
:10056000CB680C330CE08B682BB1012B4FF00803E8
:1005700003D0456104E0042302E0056100E00023AC
:10058000FF2A01D8064601E000F104064FEA84057F
:1005900001D9A5F12005D6F8008007FA05FC28EA64
:1005A0000C0803FA05F548EA0508C6F800804D680E
:1005B000ED0062D5374DAE6946F00106AE61AD691A
:1005C00024F0030605F001050095334D06EB050CFC
:1005D000DCF80850A607360F07FA06F825EA0805E2
:1005E000DFF8B880404503D14FF0000817E044E041
:1005F000DFF8AC80404502D14FF001080FE0DFF892
:10060000A480404502D14FF0020808E0DFF898804E
:10061000404502D14FF0030801E04FF0040808FA0A
:1006200006F848EA0508CCF808804D68D9F800605B
:10063000ED034D4601D5164300E096432E604D680C
:10064000DAF80060AD03554601D5164300E0964345
:100650002E604D68DBF80060ED025D4601D5164363
:1006600000E096432E604D68DEF80060AD027546EE
:1006700001D5164300E096432E60641C0D682A469F
:10068000E5407FF431AFBDE8F88F00000004014081
:10069000000011100010024000000140000801405D
:1006A000000C014000100140001401400AB101613A
:1006B00070470904FBE700000148806870470000AC
:1006C0001C00002070B5040004D094F83900002507
:1006D00010B106E0012070BD84F83850204601F0CA
:1006E000BFFB242084F839002068C16821F4005140
:1006F000C160204602F0ACFE2068016921F49041FF
:1007000001612068416921F022014161206841694D
:1007100041F0080141612068C16841F40051C160A5
:10072000E563202084F8390084F83A00002070BD89
:10073000704770472DE9F041016804464A694E68E8
:1007400090F83E000025D743FA050BD4F243D205BA
:1007500008D46FF4807201254A6121680A6842F466
:1007600000420A60B90508D4F143C90505D42268DE
:100770006FF4007145F002055161790525D4F1430C
:10078000C90522D4638D94F83D10226B202808D12E
:100790003BB9212910D029290ED0282901D1212A9D
:1007A0000AD022686FF48061516145F00405102879
:1007B00006D0402804D008E0204602F087F804E084
:1007C0002068016841F400710160380508D4F043E5
:1007D000C00505D421686FF4006045F00805486144
:1007E000002D07D0206C284320642046BDE8F0414E
:1007F00001F028BCBDE8F0812DE9F0410268002439
:100800005168C76A90F83E5090F83D60102D1CD09A
:10081000402D1AD0036C002B7ED053694FF0280571
:10082000DB439F0779D4CF43BF0576D4016C01B178
:10083000946990F83D3000219D430B466ED0C91E4F
:10084000516180F83C30BDE8F081946953694FF400
:100850002A0CDB435FEAC37E4FF02A4604D067458B
:10086000F1D0B742EFD010E0CF43BF050DD4C16A3D
:10087000614501D1012103E0C16AB14201D10821E2
:10088000C162BDE8F04101F00DBF1E0716D4CE4392
:10089000B60513D4416CC9B21161416B11B9826BB9
:1008A000002AD0D0896A19B9816B896A0029CAD017
:1008B0000068416841F400614160C4E79E0706D4C6
:1008C000CE43B60503D4BDE8F04101F03FBEE4439A
:1008D000526864074FEA02521BD4002AB3DB1A069F
:1008E00008D4CA43520505D45A0705D5BDE8F041DE
:1008F00001F0D0BD5A07A6D4C9438905A3D4102D51
:1009000003D0BDE8F04101F013BFBDE8F04101F0B4
:1009100087BD002A97DB02E015E029E015E05A06C2
:1009200008D4CA43520505D45A0705D5BDE8F0419D
:1009300001F0B4BC5A0786D4C943890583D4BDE805
:10094000F04101F042BC946967E7556825F4806581
:100950005560E243540700D50121120601D5828972
:1009600000E0028B80F83C3092B2FFF7E2FE6AE7CB
:10097000DC0606D4CC43A40503D4BDE8F04101F065
:10098000E7BF212E27D0292E25D05C0655D4CC4395
:10099000640552D45B0752D590F83D10438D002B6F
:1009A0008BD01269436A1A70426A521C4262428DAD
:1009B000521E4285428D002AD9D12A29D7D10168F9
:1009C0004A6822F480624A602221016380F83D5027
:1009D00000F00CFB37E71C0623D4CC43640520D47D
:1009E0005B0720D590F83D10438D002BBFD0436AA4
:1009F0001B781361426A521C4262428D521E42852C
:100A0000428D002AB3D12929B1D101684A6822F464
:100A100080624A602121016380F83D5000F0E7FACE
:100A200011E75B07A3D4C9438905A0D4418D0029F0
:100A30009DD0416A097811610AE05B0797D4C943E8
:100A4000890594D4418D002991D01169426A1170B1
:100A5000416A491C4162418D491E4185F3E6704758
:100A600070B5040025D094F83D00002520B984F825
:100A70003C50204600F07CFA242084F83D00206899
:100A8000016821F0010101602068016841F4004122
:100A900001602068016821F40041016000F0D6FB8C
:100AA0004D4A6168914201D84C4900E04C49884266
:100AB00001D2012070BD4B492368B0FBF1F15E68A3
:100AC00026F03F060E435E606368934206D94FF4FA
:100AD000967359434FF47A73B1FBF3F12368491CC1
:100AE0001E6A26F03F06314319626168914210D8B0
:100AF0004900401EB0FBF1F2521CC2F30B02042A63
:100B000001D2042022E0B0FBF1F0401CC0F30B0046
:100B10001CE0A268F2B301EBC10303EB0116431E14
:100B2000B3FBF6F35B1C43F480431B0549D092B33F
:100B300001EBC10202EB0111401EB0FBF1F0401CC1
:100B4000C0F30B0040F4804040F400402168CA69C3
:100B50004CF6FF739A431043C861D4E90710014370
:100B60002068026822F0C00211430160D4E9030149
:100B700001432068826848F2FF339A431143816041
:100B8000D4E9050108432168CA6822F0FF02104336
:100B9000C86001E00EE016E02068016841F0010144
:100BA00001602564202084F83D00256384F83E50D0
:100BB000002070BD01EB4106431EB3FBF6F35B1C46
:100BC000B3E70120C2E701EB4101401EB0FBF1F0A9
:100BD000401CC0F30B00B7E7A086010080841E0014
:100BE00000093D0040420F00704770477047000009
:100BF0002DE9F84F1F4690468A460446DDF82890B6
:100C0000FFF75AFD054694F83D0020287FD11923AF
:100C1000012240492046009501F06EFF002876D160
:100C200094F83C00012872D0012084F83C00206830
:100C30000168C90703D1016841F001010160206822
:100C4000016821F400610160212084F83D0010203A
:100C500084F83E0000262664C4F824806785608DF1
:100C600020852D48E0622B464A465146204601F039
:100C700089FB90B9206841698069009036E02A4676
:100C80004946204601F0EAFF50B1206C042804D107
:100C90002068016841F4007101600120BDE8F88F0F
:100CA000606A216800780861606A401C6062618D3A
:100CB000491E6185218D491E89B2218522685369AB
:100CC000DB435B070BD451B100781061606A401CB4
:100CD0006062608D401E6085208D401E20852A4602
:100CE0004946204601F0E2FE0028CED1208D0028A2
:100CF000C5D154F83D0B016841F40071016020201A
:100D000004F81E09E67766770020C7E7FFE70220B0
:100D1000C4E70000020010000000FFFF70477047AA
:100D20002DE9FF4F83B00025DDE910799A469346FF
:100D30000446DDF848800095FFF7BEFC064694F8AF
:100D40003D0020287CD119230122854920460096A8
:100D500001F0D2FE0028F5D194F83C0001286FD0B4
:100D6000012084F83C0020680168C90703D10168AC
:100D700041F0010101602068016821F40061016017
:100D8000222084F83D00402084F83E0025646762FC
:100D9000A4F82A90608D20857248E062CDE9008633
:100DA00053465A462046049901F012FD00287DD191
:100DB000208DDFF8B491202768B1012814D00228D3
:100DC000206801681ED041F480610160206841699B
:100DD00080690090B6E020684169816900910168EE
:100DE00041F400710160ADE02068016821F4806188
:100DF000016072B62068416981690091016841F41F
:100E000000710AE041F40061016072B62068416936
:100E100081690091016821F48061016062B691E00E
:100E2000032868D801280CD0022843464FF000025E
:100E30004946204600960FD001F05EFEB0BB10E0A0
:100E40008BE032464146204601F0D5FE70BB20685B
:100E50000069616A08706CE001F04EFE30BB72B64A
:100E600034E02068016821F48061016072B6206876
:100E70000069616A0870606A401C6062208D401ED3
:100E80002085608D401E6085384846F2A8110068B4
:100E9000B0FBF1F0C0EBC00000EB80000090401E02
:100EA000009008D020684069C04300E029E0400776
:100EB0000CD50098F3E744F8305F6773A573206999
:100EC00040F02000206162B625731AE020680168B6
:100ED00041F40071016020680069616A0870606A0D
:100EE000401C6062218D491E2185618D491E6185EE
:100EF00062B621681BE032464146204601F07BFE87
:100F000018B1012007B0BDE8F08F20680069616A60
:100F10000870606A401C6062218D491E2185618DC8
:100F2000491E618521684A69D24352070AD409697A
:100F30000170606A401C6062208D401E2085608DBB
:100F4000401E6085208D00287FF46AAF84F83D70D4
:100F500084F83E5084F83C50D4E70220D2E70000E9
:100F6000020010000000FFFF040001002800002024
:100F700010B586B0002100910191029103910068A3
:100F8000174988422AD1174CA06940F00800A06197
:100F9000A069694600F008000490C020009012206B
:100FA0000190032003901048FFF790FAE06940F4A5
:100FB0000010E061E069002200F400100490114686
:100FC0001F2000F07BF81F2000F06AF80022114675
:100FD000202000F073F8202000F062F806B010BD69
:100FE0000054004000100240000C01407047704760
:100FF0000248816802781144816070471C0000201B
:10100000074810B5016841F010010160032000F0AD
:1010100075F8002000F006F800F024F8002010BD5C
:101020000020024070B50D4D04464FF47A712878C7
:10103000B1FBF0F00A490968B1FBF0F000F0ECFAFE
:1010400048B9102C07D200222146501E00F036F875
:1010500000206C6070BD012070BD00001C000020ED
:10106000280000200C4808B5816941F00101816128
:10107000816901F001010091C16941F08051C161B4
:10108000C06900F0805000900448416821F0E061A0
:1010900041F00071416008BD0010024000000140B5
:1010A000002809DB00F01F02012191404009800067
:1010B00000F1E020C0F8001170470000F0B40E4BC2
:1010C0001B680C46C3F30223C3F10705042D00D9A6
:1010D0000425191D072901D2002300E0DB1E01268B
:1010E00006FA05F1491E214099409E40761E1640A1
:1010F0003143F0BC02F04CBA0CED00E0064900F0C0
:10110000070208684FF6FF03184040EA0220034A2E
:1011100010430860704700000CED00E00000FA0585
:101120002DE9F0470F46050061D0434E306800F0CE
:101130000700B84209D2306820F007003843306019
:10114000306800F00700B84251D128683B4C810755
:1011500012D5400703D5606840F4E06060602878ED
:10116000000703D5606840F4605060606068A9685B
:1011700020F0F000084360602878C00728D0686835
:10118000012810D02168022810D0890700292EDA02
:10119000616821F0030101436160FFF78DFA804629
:1011A00041F288390DE021688903EFE78901EDE715
:1011B000FFF782FAA0EB0801494502D90320BDE8F8
:1011C000F0876068696800F00C00B0EB810FEFD128
:1011D000306800F00700B8420BD9306820F00700F3
:1011E00038433060306800F00700B84201D0012079
:1011F000E5E72878400705D56068E96820F4E060F5
:10120000084360602878000706D56068296920F4E3
:10121000605040EAC100606000F038F86168084A38
:10122000C1F30311515CC8400649086006480068D4
:10123000FFF7F8FE0020C2E7002002400010024045
:10124000F437000828000020200000200448054949
:1012500000684968044AC1F30221515CC8407047E4
:101260002800002000100240043800080448054906
:1012700000684968044AC1F3C221515CC840704704
:1012800028000020001002400438000812A185B098
:101290000FC98DE80F0014A0144A0068049051682B
:1012A000134801F00C03042B10D0082B0ED1C1F30E
:1012B0008343C9031DF803000AD5516804AAC1F38A
:1012C0004041515C0A4A5043B0FBF1F005B0704711
:1012D00008494843FAE70000020304050607080925
:1012E0000A0B0C0D0E0F101001020000001002403E
:1012F00000127A0000093D002DE9F84F040070D07B
:101300002078C04DC00749D06868C0F3810001282B
:1013100007D06868C0F38100022809D16868C0035B
:1013200006D52868800339D560680028E7D035E005
:101330006068B0F5803F0BD010B1B0F5A02F11D090
:10134000286820F480302860286820F4802002E09B
:10135000286840F480302860606890B1FFF7ACF9ED
:1013600006460AE0286840F480202860F0E700BFC5
:10137000FFF7A2F9801B642873D828688003F7D58B
:101380000CE0FFF799F9064605E000BFFFF794F976
:10139000801B6428F0D828688003F7D420789A4E00
:1013A00080074FF001094FF0000839D5686810F048
:1013B0000C0F07D06868C0F38100022809D1686863
:1013C000C00306D42868800714D52069012808D1F5
:1013D00010E02069B0B1C6F80090FFF76DF907463C
:1013E00005E00AE1FFF768F9C01B0228C4D82868A5
:1013F0008007F7D52868616920F0F80040EAC1004D
:1014000028600DE0C6F80080FFF756F9074604E0B3
:10141000FFF752F9C01B022823D828688007F7D4A9
:10142000207800072CD57948A169D9B1C0F800907F
:10143000FFF742F9074604E0FFF73EF9C01B022818
:101440000FD8686A8007F7D571484FF4FA510068E1
:10145000B0FBF1F0009000BF0098411E0091FAD25D
:101460000EE080E0C0F80080FFF726F9074604E0B0
:10147000FFF722F9C01B022875D8686A8007F7D4E5
:101480002078400760D5E8690027C00008D4E869E3
:1014900040F08050E861E869012700F0805000903A
:1014A0005C480168C90513D40168834641F4807122
:1014B0000160FFF701F9824606E000BFFFF7FCF884
:1014C000A0EB0A0064284ED8DBF80000C005F5D573
:1014D000E06801280AD008B1052813D0286A20F056
:1014E00001002862286A20F0040002E0286A40F027
:1014F00001002862E06841F2883B98B1FFF7DCF810
:1015000082460BE0286A40F004002862EEE700BF44
:10151000FFF7D2F8A0EB0A0159455AD8286A80078C
:10152000F6D50CE0FFF7C8F8824605E0FFF7C4F8EF
:10153000A0EB0A0159454CD8286A8007F6D41FB1A0
:10154000E86920F08050E861E06988B36968C1F318
:101550008101022944D00228C6F8608004D0FFF738
:10156000ABF8044638E034E0FFF7A6F8074604E09D
:10157000FFF7A2F8C01B02282BD828688001F7D4F7
:10158000206AB0F5803F05D16868A16820F400307A
:1015900008436860D4E908010843696821F47411BC
:1015A00008436860C6F86090FFF786F8044606E0D6
:1015B00025E000BFFFF780F8001B022809D8286843
:1015C0008001F7D51BE000BFFFF776F8001B02286B
:1015D00002D90320BDE8F88F28688001F4D40EE01A
:1015E0000128F7D06868226A00F48031914204D162
:1015F000616A00F47010884201D00120EAE70020FF
:10160000E8E700000010024000004242800442422D
:10161000280000200070004010B5401EB0F1807F0F
:1016200001D3012010BD4FF0E02460610F2160174D
:1016300001F0AEFF0020A06107202061002010BD56
:101640007047704710B590F83C20012A22D0012243
:1016500080F83C20CA688C6822F4407222434C68AF
:1016600022F4806222430C6822F4006222430C6957
:1016700022F4805222434C6922F400522243C96969
:10168000002322F480420A4301684A6480F83C3017
:10169000002010BD022010BD70B590F83C20012A3A
:1016A00026D0012480F83C40022280F83D200368C7
:1016B0005A689D6822F070060A6832435A600D4BE2
:1016C00002689A4208D0B2F1804F05D00A4B9A4284
:1016D00002D00A4B9A4204D1496825F0800319438D
:1016E000916080F83D40002180F83C10084670BDB4
:1016F000022070BD002C01400004004000080040A2
:1017000010B5040003D094F83D0010B107E00120AB
:1017100010BD002084F83C00204600F01FF8022095
:1017200084F83D00211D206801F070FD012084F83F
:10173000460084F83E0084F83F0084F8400084F8B6
:10174000410084F8420084F8430084F8440084F89F
:10175000450084F83D00002010BD000008B5006879
:101760000B49884212D10B48C16941F00201C161A5
:10177000C069002200F00200009011461D20FFF712
:101780009DFCBDE808401D20FFF78ABC08BD000095
:10179000000400400010024090F83D10012901D0E3
:1017A00001207047022180F83D100168CA6842F0AC
:1017B0000102CA6000680B49884208D0B0F1804F2E
:1017C00005D00949884202D00849884204D181687D
:1017D00001F00701062903D0016841F00101016011
:1017E00000207047002C0140000400400008004029
:1017F00070B5044690F83C00012817D0012584F804
:101800003C50022084F83D002068826822F0770274
:1018100022F47F4282600868502830D00DDC2028F6
:101820004DD005DC98B310283BD148E0022070BDB4
:10183000302844D0402834D139E0602828D070289E
:1018400006D0B0F5805F2CD0B0F5005F29D10AE05A
:10185000CB68D1E90121206801F01BFD2068816877
:1018600041F0770109E0CB68D1E90121206801F05E
:1018700010FD2068816841F48041816011E0CA68F0
:101880004968206801F0C0FD5021206807E016E09B
:10189000CA684968206801F0C8FD6021206801F02D
:1018A00002FD84F83D50002084F83C0070BDCA68F9
:1018B0004968206801F0A8FD40212068EFE7226810
:1018C00001461046EBE72DE9F0410D46040003D038
:1018D00094F83D0018B108E00120BDE8F081002037
:1018E00084F83C00204600F041F8022084F83D00D6
:1018F0002068816844F2070291438160211D2068BD
:1019000001F084FC226890689169166A2B68AF69BF
:10191000034340F20330814341EA0721A868EF699D
:1019200008434FF6FC418843E96840EA0720014339
:1019300028692F6A000140EA0730084369686D6929
:1019400026F0220646EA0515294393602268906135
:1019500054F8460B0162012004F81F09E075207657
:10196000E0762077A0750020B7E7000000B585B0CD
:10197000002100910191029103910068B0F1804F24
:101980001ED11048C16941F00101C161C16901F076
:1019900001010491816941F0040181618069694616
:1019A00000F004000490032000900748FEF78EFD2D
:1019B000002211461C20FFF781FB1C20FFF770FB63
:1019C00005B000BD001002400008014070B590F85D
:1019D0003E60044690F83F5090F8423090F8432023
:1019E000022021B104290ED0012E1BD114E0012EBA
:1019F00018D1012B16D184F83E0084F84200012250
:101A00000021206820E0012D0CD1012A0AD184F8A0
:101A10003F0084F8430014E0012D03D1012B01D1D4
:101A2000012A01D0012070BD84F83E0084F83F00F7
:101A300084F8420084F8430001220021206801F06C
:101A40001BFC01220421206801F016FC20680168BB
:101A500041F001010160002070BD704770B504467F
:101A6000006801694FF00005C943890715D4C168B2
:101A7000C943890711D4E91E01610120207720683C
:101A800080698007204602D0FFF7E7FF04E000F0FE
:101A9000C1F8204600F064F9257720680169C94340
:101AA000490717D4C168C943490713D46FF004012B
:101AB0000161022020772068806910F4407F204671
:101AC00002D0FFF7CAFF04E000F0A4F8204600F0BF
:101AD00047F9257720680169C943090716D4C16809
:101AE000C943090712D46FF008010161042020776F
:101AF0002068C0698007204602D0FFF7AEFF04E0EF
:101B000000F088F8204600F02BF92577206801695D
:101B1000C943C90617D4C168C943C90613D46FF0B5
:101B200010010161082020772068C06910F4407F0F
:101B3000204602D0FFF791FF04E000F06BF820464A
:101B400000F00EF9257720680169C943C90708D15B
:101B5000C168C943C90704D1891E0161204600F04C
:101B60004FF920680169C943090609D4C168C9430E
:101B7000090605D46FF0800101612046FFF760FD82
:101B800020680169C943490609D4C168C9434906A7
:101B900005D46FF040010161204600F05FF9206834
:101BA0000169C94389060BD4C168C943890607D4B2
:101BB0006FF0200101612046BDE87040FFF741BD94
:101BC00070BD000000B585B0002100910191029127
:101BD000039100680C49884213D10C48816941F097
:101BE000040181618069694600F0040004904FF4AB
:101BF0008070009002200190032003900448FEF7BB
:101C000065FC05B000BD0000002C01400010024042
:101C100000080140704770B5044690F83C000D463E
:101C200001280AD0012084F83C0042B1042A18D0CF
:101C3000082A2AD00C2A4DD139E0022070BD206834
:101C400001F03AFB2068816941F008018161206858
:101C5000816921F004018161206881692A69114349
:101C600011E0206801F050FB2068816941F40061B7
:101C700081612068816921F48061816120688169C6
:101C80002A6941EA0221816124E0206801F068FBB1
:101C90002068C16941F00801C1612068C16921F073
:101CA0000401C1612068C1692A69114311E02068FB
:101CB00001F082FB2068C16941F40061C1612068C4
:101CC000C16921F48061C1612068C1692A6941EA62
:101CD0000221C161002084F83C0070BD10B50400F1
:101CE00003D094F83D0010B107E0012010BD0020A2
:101CF00084F83C00204600F01FF8022084F83D00E4
:101D0000211D206801F082FA012084F8460084F841
:101D10003E0084F83F0084F8400084F8410084F8D5
:101D2000420084F8430084F8440084F8450084F8B5
:101D30003D00002010BD000008B50068064988423B
:101D400008D10648816941F400618161806900F42D
:101D50000060009008BD0000002C0140001002400F
:101D60007047000010B50446022249B104290ED084
:101D7000082913D094F84100012816D0012010BD85
:101D800094F83E000128F9D184F83E200FE094F841
:101D90003F000128F2D184F83F2008E094F8400089
:101DA0000128EBD184F8402001E084F84120012291
:101DB000206801F061FA0F492068884203D1426C23
:101DC00042F4004242642068884208D0B0F1804F5B
:101DD00005D00949884202D00849884204D1816867
:101DE00001F00701062903D0016841F001010160FB
:101DF000002010BD002C01400004004000080040FD
:101E00001CB51349884222D1124CE088401C00B214
:101E1000E0800A280AD10022A1F14800E28000688F
:101E20000168C943C906416A21804262B4F90010C1
:101E3000B4F90400CDE9000104F10800064B07C81D
:101E400001F02CF96080BDE81C4001F089B91CBD8F
:101E500034010020080000203000002070470000FE
:101E600000B585B0002100910191029103910068B5
:101E70000F4988421AD10F48C16941F40031C1614C
:101E8000C16901F400310491816941F0040181616B
:101E90008069694600F0040004900420009012203C
:101EA0000190032003900448FEF710FB05B000BD2D
:101EB0000044004000100240000801402DE9F843B2
:101EC000044690F839001F4616460D4620284CD18E
:101ED000C5B1BEB194F83800012846D0012084F87D
:101EE00038004FF00008C4F83C80212084F8390005
:101EF000FEF7E2FBA6848146E684A068B0F5805F29
:101F000003D004E00120BDE8F883206928B12E4603
:101F10005FF0000584F838800EE00026FAE78021A3
:101F2000204601F0F1FAA0B9AEB116F8010B216814
:101F30004860E08C401EE084E08C4B464FF000028D
:101F400000970028EBD14FF04001204601F0DCFA69
:101F500030B10320D7E735F8020BC0F30800E6E7FD
:101F6000202084F839000020CDE70220CBE7FEE7EF
:101F70000148FEF7DFBB0000500000200148FEF7DB
:101F80003BBC00005000002038B5406A002190F8AA
:101F90003D202B4B46F2A8141B68B3FBF4F3C3EBB4
:101FA000C30303EB830300933BB15B1E0093036801
:101FB0001B689B0505D5009BF6E7036C43F02003E7
:101FC0000364436B03B19962836B03B19962036845
:101FD0001C6824F480641C604185436B03B1596321
:101FE000836B03B1596303681C6824F001041C600F
:101FF00090F83D402023602C0BD0282434EA0202C4
:102000000FD080F83D3080F83E1000BFFEF727FD6E
:1020100038BD80F83D3080F83E100164FEF788FB43
:1020200038BD0268136843F0010313600268136847
:1020300043F480631360016380F83D40E6E70000ED
:102040002800002070B5044690F83D0094F83E103A
:10205000102901D0402906D1222804D121680A681C
:1020600022F400620A60282131EA00024FF00005E4
:102070004FF0200626D021684968090505D460285C
:1020800003D084F83D6084F83E50256320684168A1
:10209000090537D5416821F400614160606B3D4915
:1020A00090F82120012A11D04163606BFEF7ACF952
:1020B00038B32068016821F00101016084F83D60B7
:1020C000606B1CE0256384F83D10DFE7A06B416383
:1020D000A06BFEF799F9A0B120684169C943490690
:1020E00005D40069616A0870606A401C60622068FB
:1020F000016821F00101016084F83D60A06B416B33
:10210000884710E094F83D10602910D04169C94318
:10211000490605D40069616A0870606A401C606203
:102120002046FEF79CFC206CC1071CD115E084F80A
:102130003D6025644169C943490605D40069616A67
:102140000870606A401C60622068016821F001012B
:1021500001602046FEF7ECFAE5E7810703D441076A
:1021600001D4000704D52068416821F4E061416092
:1021700094F83D00216C49070BD5282809D1064861
:10218000E062256384F83D6084F83E502046FEF707
:102190002BFD70BD891F00080000FFFF01684A6920
:1021A000D24352050FD46FF480624A61002140F897
:1021B000301F202242738173026942F004020261DF
:1021C0000173012070470020704710B5C26A438D2B
:1021D0000168042B06D0438D032B08D0438D022BBE
:1021E0001DD012E04A6822F480624A600CE04B681D
:1021F00023F480634B60042A06D0022A04D00168CD
:102200000A6822F480620A6001680969426A1170F2
:10221000416A491C4162418D491E418510BD012A18
:1022200030D0102A2ED0042A30D0022A2ED00A68AC
:1022300042F400720A6001680969426A1170416AD9
:10224000491C4162428D521E4285026812690A7021
:10225000416A491C4162418D491E418501684A68B5
:1022600022F440724A60202180F83D1090F83E2010
:102270000021402A80F83E100CD012210163FEF7A5
:10228000B4FC10BD0A6822F48062D3E70A6842F405
:102290008062CFE70163FEF741FD10BD38B590F8CD
:1022A0003D10222914D1418D032912D901680969F1
:1022B000426A1170416A491C4162418D491E418543
:1022C000418D032904D10068416821F48061416097
:1022D00038BDC26A022AFBD0012901D00029F7D1FA
:1022E000274946F2A81300220968B1FBF3F101EB7C
:1022F0008101009101682023009C641E009422D07B
:102300000C68A405F8D40C6824F480640C6001689F
:102310004C6824F4E0644C6001680969446A2170E7
:10232000416A491C4162418D491E418580F83D301A
:1023300090F83E1080F83E2040291DD01221016304
:10234000FEF753FC38BD046C44F0200404644C6870
:1023500024F4E0644C6001680969446A2170416AB0
:10236000491C4162418D491E418580F83D3080F80D
:102370003E20FEF774FB38BD0263FEF7CFFC38BD8C
:1023800028000020F8B50446C06A1E460D461746D0
:10239000082807D0012805D010F5803F02D0206B17
:1023A000122804D12068016841F48071016013464D
:1023B00000224FF001112046009600F09DFB40B135
:1023C00020680068C00502D54FF400702064032027
:1023D000F8BD2069B0F5804F0ED00620216800EAD4
:1023E000D51040F0F000086133463A460B492046CC
:1023F00000F0B6FB78B902E005F0FE0000E0E8B2BC
:1024000021680861054933463A46891F204600F095
:10241000A7FB0028DCD00120F8BD00000800010067
:1024200010B5C16A90F83D20212A0BD1428D52B1DE
:10243000416A026809781161416A491C4162418D13
:10244000491E418510BD00222023082910D02029D3
:102450000ED011F5803F0BD001684C6824F4E06485
:102460004C601121016380F83E2080F83D300EE081
:1024700001684C6824F4E0644C6001680C6844F422
:1024800000740C60026380F83D3080F83E20FEF757
:10249000ADFB10BD10B590F83D1090F83E30C26A0B
:1024A000048DB4B1212903D0402B11D122290FD1A1
:1024B000418DE1B390F83E10402942D0416A026854
:1024C00009781161416A491C4162418D491E41856B
:1024D00010BD2129E8D120230021082A13D0202A69
:1024E00011D012F5803F0ED00268546824F4E064E5
:1024F00054601122026380F83E1080F83D3000BF26
:10250000FEF774FB10BD0268546824F4E064546064
:102510000268146844F400741460016380F83D306C
:1025200090F83E2080F83E10402AE9D100E002E019
:10253000FEF7F5FB10BD0068416821F48061416041
:1025400010BDBDE8104000F0F3B8000078B590F879
:102550003E50C26A046B90F83D6000230168222E51
:1025600073D1066D0EB9402D6FD0056D1DB905698B
:10257000B5F5404F1BD0458D95B3468D484D012E86
:1025800020D0448D022C4DD00C6844F480640C6043
:1025900001684C68240579D5AA4273D0012A71D00C
:1025A000082A6FD0102A6DD0202A6BD06EE04A69BD
:1025B0008A6900920A6842F480720A60016D491CBF
:1025C000016578BDAA4214D10A6822F480620A60CB
:1025D00001684A68120504D50A6822F4806217E08F
:1025E000FFE74A698A6900920A6842F400720A6049
:1025F00050E0082A10D0202A0ED0122C0AD0042A2B
:1026000003D0022A01D0102AE6D10A6842F480627F
:102610000A603BE0012ADFD00A6822F480620A6087
:102620000168DEE7042A11D0022A0FD0102A0DD04B
:102630000C6844F400640C6001684C698C69009477
:102640000C6824F480640C6008E025E00C6844F415
:1026500080640C6001684C698969009101684C686C
:10266000240517D5AA4207D0012A05D0082A03D08D
:10267000102A01D0202A0DD14A6842F480524A60C3
:1026800008E0FFE74A6842F480524A6001684A69FC
:1026900089690091036578BD48698869009078BDB3
:1026A0000000FFFF90F83E10402910D00169B1F5FD
:1026B000804F19D0016DA9B3016D012910D1416C72
:1026C0005FF0F10201F4407142EAD11106E0016DC0
:1026D0000029416C05D0C9B241F0010100680161D7
:1026E000704701F0FE01F9E790F83D102129416C97
:1026F00009D0C9B241F0010102681161416B29B1F1
:10270000896A49B902E001F0FE01F5E7816B002911
:10271000E6D0896A0029E3D00068416841F400618D
:1027200041607047FFE7416CF02201F44071CBE754
:1027300010B590F83D10026D22B3026D012A2FD022
:10274000026D022A1DD1222931D0428D0AB12129E0
:1027500033D0428D002A14D1212912D101684A6850
:1027600022F4E0624A6001680A6842F400720A607A
:1027700000210163202280F83D2080F83E10FEF702
:10278000CEFA10BDC16C0129816C02D0C1F30721C2
:1027900008E00268C9B21161016D891C016510BDB4
:1027A000816CC9B202681161016D491CF6E70068CD
:1027B000016841F48071016010BD416A02680978C6
:1027C0001161416A491C4162418D491E418510BD1C
:1027D0002DE9F84F0446006889460B9D016898462C
:1027E000174641F4806101602068016841F48071FE
:1027F000016000954FF0011B0022594620460A9BBC
:1028000000F07AF94FF4007A40B120680068C00502
:1028100001D5C4F840A00320BDE8F88F216809F075
:10282000FE0008612B46284920460A9A00F098F9D4
:10283000F0BB20684169806900902A4620460A99C9
:1028400000F00CFA40B1206C04283AD120680168ED
:1028500041F40071016034E0FEB2B8F1010F09D01B
:102860002168380A08612A4620460A9900F0F6F9DC
:102870000028E8D1206806612A4620460A9900F01F
:10288000EDF90028DFD12068016841F48071016012
:1028900000950022594620460A9B00F02DF9002899
:1028A000B3D1216809F0FF0040F00100086100E0A9
:1028B00007E02B46044920460A9A00F051F9002807
:1028C000AAD00120A8E70000020001002DE9F04194
:1028D00090F83D40C26A002320261C4F01686FF427
:1028E0008065082A01D0202A01D1282C04D0212C6F
:1028F00016D04D61BDE8F081C7624A6822F4E062FB
:102900004A6001684D6101680A6822F480620A60C9
:10291000036380F83D6080F83E30FEF765F9E9E733
:10292000C7622122026380F83D6080F83E304A6829
:1029300022F4E0624A6001684D6101680A6822F48D
:1029400080620A60FEF753FBD4E700000000FFFF3F
:10295000F8B590F83D6004460068416821F4E061F4
:1029600041602068002541690091016841F0010142
:1029700001602068016821F480610160206841687D
:10298000090520D5474F222E48D02A2E46D0616B0C
:10299000096849686185618D19B1216C41F00401B4
:1029A0002164416821F400614160606BFDF778FDAE
:1029B000012808D0606B4763606BFDF725FD10B1FF
:1029C000606B416B8847608D08B320684169C943DB
:1029D000490708D40069616A0870606A401C606237
:1029E000608D401E608520684169C943490608D44E
:1029F0000069616A0870606A401C6062608D401EF8
:102A00006085608D18B1206C40F004002064206C5B
:102A100000B32046BDE8F840FFF714BBA16B09687E
:102A200049686185618D19B1216C41F0040121640F
:102A3000416821F400614160A06BFDF731FD012880
:102A4000C1D0A06B4763A06BFDF7DEFC0028BAD0B5
:102A5000A06BB6E72A2E06D12563282084F83D0016
:102A60002046FEF7C3FA94F83D10202028290DD007
:102A7000216B222901D0222E07D1256384F83D0045
:102A800084F83E502046FEF7B1FAF8BD0649E162EF
:102A9000256384F83D0084F83E502046FEF7A4F8F4
:102AA000F8BD0000891F00080000FFFF70B5164642
:102AB0000D4604460DE02046FFF770FB08B10120EB
:102AC00070BD681C05D0FDF7F7FD801BA84207D834
:102AD00035B120684069C0434007ECD4002070BD88
:102AE000002044F8300F20216173A073216941F068
:102AF000200121612073E2E72DE9F0471E46904650
:102B00000D460446C1F30747DDF8209008E0701C2D
:102B100006D0FDF7D1FDA0EB0900B0420FD876B189
:102B20002068012F18D0806925EA00000004000CFD
:102B300014D000214145EAD00020BDE8F0870020F4
:102B400044F8300F20216173A073216941F0200106
:102B5000216120730120F0E74069E5E70121E9E701
:102B60002DE9F0479A4691460E46044600254FF05F
:102B70002008C1F3074725E020684069C0434005AD
:102B800014D42068016841F40071016021686FF479
:102B900080604861256384F83D8084F83E50206C55
:102BA00040F00400206484F83C501FE0B9F1FF3F7E
:102BB00008D0FDF781FDA0EB0A0149450CD8B9F119
:102BC000000F09D02068012F13D0806926EA000089
:102BD0000004000C0BD0CFE744F8305F84F80D8080
:102BE000A573206940F02000206125730120BDE815
:102BF000F0874069EAE72DE9F041002590460E464E
:102C00000446202717E04069C043C0060CD454F89E
:102C1000301B6FF01000486144F810596777A577B2
:102C2000206A2062257717E0FDF746FDA0EB08003B
:102C3000B04208D83EB120684169C9434906E2D490
:102C40000020BDE8F08144F8305F6773A573206908
:102C500040F02000206125730120F2E770B5164690
:102C60000D4604460DE02046FFF798FA08B1012012
:102C700070BD681C05D0FDF71FFD801BA84207D85A
:102C800035B120684069C0430006ECD4002070BD17
:102C9000002044F8300F20216173A073216941F0B6
:102CA000200121612073E2E77CB514460D460646FB
:102CB0006B4606223B21D02000F064F800280BD19F
:102CC000BDF8001049BA3180BDF8021049BA298018
:102CD000BDF8041049BA21807CBD08B580226B2163
:102CE000D02000F09DF8C720FDF7DEFB00226B210D
:102CF000D02000F095F8032000F05AF8002000F0F2
:102D000051F8322000F073F800223821D02000F072
:102D100087F800226A21D02000F082F800222321C7
:102D2000D02000F07DF880223721D02000F078F804
:102D30006A467521D02000F015F89DF8000068283B
:102D400001D0012008BD01226B21D02000F068F8DD
:102D500000226C21D02000F063F8322000F047F808
:102D6000002008BD3EB50A2300920124CDE90143AD
:102D70000A46014623460248FDF7D2FF3EBD000049
:102D8000500000203EB502EB8204CDE900320A4635
:102D900064000146029401230148FDF7C1FF3EBDD6
:102DA00050000020C006020E1C21D02000F038B8D0
:102DB000C006020E1B21D02000F032B8BC2801D37F
:102DC000012210E0622801D302220CE02A2801D35C
:102DD000032208E0142801D3042204E00A2801D3C6
:102DE000052200E006221A21D02000F019B810B503
:102DF00004464FF47A70844201D9044602E0042C60
:102E000000D20424B0FBF4F0401EC2B21921D0203D
:102E100000F006F86008BDE81040FFF7CFBF0000E3
:102E20001CB502238DF804100A2100918DF80520AD
:102E3000014601AA0148FDF7DBFE1CBD5000002041
:102E400070B586B00024184800940194029403944D
:102E5000816941F020018161816901F020010491C3
:102E6000816941F004018161816901F004010491EB
:102E7000816941F0080181618069012200F0080048
:102E80000A4E5502049029463046FDF70FFC0120FA
:102E90000095CDE901040320039069463046FDF713
:102EA00015FB06B070BD0000001002400008014094
:102EB0000D4810B50B4901600C49416000214FF4E9
:102EC00080428160C0E9031241618161C161016298
:102ED000FDF7C6FD002803D0BDE81040FDF792BA0B
:102EE00010BD00000054004050000020801A060071
:102EF00010B592B000240F941C2108A81094FDF77F
:102F00002AF920216846FDF726F920481E49C0E924
:102F1000001440F28331C0E90241046144618461DC
:102F2000FEF7DCFE08B1FDF76DFA0F940FA9174804
:102F30001094FEF7B1FB08B1FDF764FA6020CDE90B
:102F400008040220CDE90A040C940D94002208A97B
:102F50000E480E94FEF75FFE08B1FDF753FA009499
:102F60004FF40050CDE90440029401940394694663
:102F700006480794FEF766FB08B1FDF743FA0348DD
:102F8000FEF720FE12B010BD002C0140A40000206E
:102F900010B58CB024216846FDF7DDF800241548F3
:102FA00009944FF080410A94C0E900144FF6FF7174
:102FB000C0E90241046184610120CDE90004CDE94A
:102FC00002040494CDE90540079469460948089431
:102FD000FEF779FC08B1FDF715FA099409A905482F
:102FE0000A94FEF759FB002801D0FDF70BFA0CB04C
:102FF00010BD0000EC00002010B586B0002417487A
:10300000009401940294039404941349059401607C
:103010004721C0E9011440F2E731C0E903148021DF
:103020008161FEF76DFB08B1FDF7ECF94FF48050BC
:10303000009069460948FEF7DBFB08B1FDF7E2F9AD
:10304000049404A905480594FEF726FB002801D046
:10305000FDF7D8F906B010BD00040040340100208F
:103060000C4810B50A4901604FF4E131416000217C
:1030700081600C22C160C0E904128161C161FDF769
:1030800021FB002803D0BDE81040FDF7BBB910BDFF
:10309000004400407C010020FEE7FEE72DE9F047F8
:1030A00088460746DDE90801401A05B21D84B3F9D8
:1030B00022601C469246A81BFDF720F93946FDF711
:1030C000ADF88146E0602846FDF718F907461A4931
:1030D0004046FDF7D5F83946FDF7A0F88046206157
:1030E000B4F924007142284400EB4100FDF706F9D1
:1030F0005146FDF793F8074660617019E0846584D6
:10310000A58441464846FDF731F83946FDF72EF8CB
:10311000FDF7FDF82083618B084400B26083B4F9A9
:103120001C10884203DCB4F91E10884200DA618367
:10313000B4F91A00BDE8F0870000C84200B58BB0B2
:10314000282205496846FCF7EDFF28226946034816
:10315000FCF7E8FF0BB000BDCC37000830000020C2
:1031600010B5041E08484FF4007104DD0122FDF77C
:103170009DFAA0B204E00022FDF798FA604280B206
:10318000BDE8104000F03AB90008014070477047B0
:10319000FDF72EBF30B58FB028216846FCF7DBFF66
:1031A00014210AA8FCF7D7FF01210804CDE900107B
:1031B0000024029402250491CDE907504FF4E01059
:1031C00009906846FEF798F808B172B6FEE70F203E
:1031D000CDE90A054FF48060CDE90C4002210AA830
:1031E0000E94FDF79DFF002801D072B6FEE70FB0E8
:1031F00030BD70470148FEF731BC0000EC000020F4
:103200000148FEF72BBC000034010020F0B5026835
:10321000164B174C174D4FF08047984205D0B842D7
:1032200003D0A04201D0A84203D122F070064A6820
:103230003243984205D0B84203D0A04201D0A84200
:1032400003D122F44074CA6822434C6922F0800200
:10325000224302608A68C2620A688262984201D18F
:103260000969016301214161F0BD0000002C0140AA
:10327000000400400008004010B501F01F030121C8
:10328000046A99408C430462016A9A4011430162C6
:1032900010BD10B5846842EA032224F47F440A4337
:1032A0002243826010BD826822F070020A4342F01D
:1032B000070181607047000030B5026A22F0010208
:1032C0000262026A4368846924F073050C682C4327
:1032D00022F002058A682A430A4DA8420BD122F047
:1032E0000805CA6823F440732A434D6922F004029A
:1032F0001D438B692B4343608461496841630262CB
:1033000030BD0000002C014030B5026A22F01002EE
:103310000262026A436884690D6824F4E64444EA60
:1033200005248D6822F0200242EA05120B4DA842C6
:103330000ED1CD6822F0800242EA05124D6923F4D5
:10334000406343EA85038D6922F0400243EA850326
:103350004360846149688163026230BD002C014092
:1033600030B5026A22F480720262036A4268C4695C
:1033700023F4007324F073050C682C438D6843EA32
:1033800005230C4DA8420ED1CD6823F4006343EA17
:1033900005234D6922F4405242EA05128D6923F457
:1033A000806342EA05124260C4614968C1630362F6
:1033B00030BD0000002C014030B5026A22F480527A
:1033C0000262046A4268C3690D6823F4E64343EA73
:1033D00005238D6824F4005444EA0534064DA842C0
:1033E00004D14D6922F4804242EA85124260C361F1
:1033F00049680164046230BD002C01400149086045
:1034000070470000342C014010B5036A046A24F0B0
:1034100001040462846924F0F00444EA021423F0F5
:103420000A020A438461026210BD10B5036A23F0E8
:10343000100303628369046A23F4704343EA02328F
:1034400024F0A00343EA01118261016210BD000073
:1034500070B5044600680169E26821F440511143E7
:1034600001612169A0680843616908432168CA684D
:1034700041F20C639A430243CA6020684169A26921
:1034800021F44071114341611E492068884202D1F4
:10349000FDF7ECFE01E0FDF7D9FE00EBC00101EB0A
:1034A0000012606864218000B2FBF0F3B3FBF1F31B
:1034B0006FF018067343B2FBF0F5B2FBF0F605EBC4
:1034C0008305322303EB0515B5FBF1F5B6FBF1F6E9
:1034D00005F0F00505EB0615B2FBF0F6B2FBF0F0D7
:1034E000B0FBF1F06FF01802504306EB800003EBE5
:1034F0000010B0FBF1F0216800F00F002844886054
:1035000070BD0000003801402DE9F0419846174693
:103510000E460446069D1DE0681C1BD02DB1FDF72C
:10352000CBF8A0EB0800A84214D92068C16821F4A8
:10353000D071C1602068416921F001014161202002
:1035400084F8390084F83A00002084F83800032019
:10355000BDE8F0812068006836EA000004D0002051
:10356000B842D9D00020F3E70120F9E7FEE70000D8
:103570000FB4054B10B503A9044A029800F028F8CF
:1035800010BC5DF814FB0000253700082C0000205B
:103590000907090E002804DB00F1E02080F8001480
:1035A000704700F00F0000F1E02080F8141D704714
:1035B00002E008C8121F08C1002AFAD170477047FC
:1035C000002001E001C1121F002AFBD1704700005A
:1035D0002DE9FF4F89B09B460446002506E02528CB
:1035E0000BD05A460B999047641C6D1C207800281C
:1035F000F5D10DB02846BDE8F08F0027B84601226E
:10360000474900E0074314F8013F203B02FA03F06A
:103610000842F7D120782E2819D114F8010F47F06D
:1036200004072A280ED06FF02F022078A0F1300175
:1036300009290CD808EB880102EB410100EB0108D5
:10364000641CF2E70A98641C50F8048B0A902078F6
:103650000028CED0642808D0692806D075281ED04E
:103660005A460B9990476D1C58E00A994FF00A0989
:1036700001C90A91002802DA40422D2102E03905F1
:1036800004D52B218DF82010012103E0F90704D087
:103690002021F7E78A4608AE0DE00021FAE70A99F3
:1036A0004FF00A0901C90A91F7E74946FCF748FEBD
:1036B000303106F8011D0028F7D1ADEB060000F10E
:1036C0002009780701D44FF00108C84502DDA8EBB6
:1036D000090000E000208046002706E008A85A46BE
:1036E000C05D0B9990476D1C7F1C5745F6DB04E0CD
:1036F00030205A460B9990476D1CB8F10001A8F193
:103700000108F5DC05E016F8010B5A460B999047C5
:103710006D1CB9F10001A9F10109F4DC641C65E735
:103720000928010013B54FF6FF73012269460548C9
:10373000FEF7C4FB034800680168C9434906FBD48F
:1037400000981CBD7C010020FDF75AFCFFF722FD0C
:10375000FFF776FBFFF7CCFBFFF71AFCFFF74CFCFB
:10376000FFF77EFCFFF7A4FBFFF7B7FA0021104834
:10377000FEF7F8FA0F48FEF70FF83C210E48FEF767
:1037800025F9FFF7DBFC0D4C0C4A121D911E881E1B
:10379000FFF78AFA6420FCF787FEB4F90430B4F925
:1037A0000220B4F9001006A0FFF7E2FEECE70000EB
:1037B000A400002034010020EC00002000000020C4
:1037C00025642025642025640D0A00000000C842FD
:1037D00000000000000000000000000000000000E9
:1037E00000000000000000002003E0FC00000000DA
:1037F00000000000000000000000000001020304BF
:103800000607080900000000010203042C38000824
:103810000000002030000000B03500085C380008CF
:103820003000002090050000C035000800000000B6
:103830000000000000000000CEFF00000000484231
:103840000000C8420000000001000000100000005D
:0C385000000000000024F4000000000054
:04000005080000ED02
:00000001FF
