:020000040800F2
:10000000A8070020CD010008AD0900081D0900085F
:10001000A9090008FB0300080B10000800000000FD
:10002000000000000000000000000000510B00086C
:10003000A105000800000000210A0008D50C0008F6
:10004000E7010008E7010008E7010008E7010008F0
:10005000E7010008E7010008E7010008A305000820
:10006000AD050008B7050008C1050008E701000854
:10007000E7010008E7010008E7010008E7010008C0
:10008000E7010008E7010008E7010008E7010008B0
:10009000E7010008E7010008E7010008E7010008A0
:1000A000E7010008390D0008E7010008E701000832
:1000B000550D00086D0D0008890D0008E7010008C6
:1000C000E7010008E7010008E7010008E701000870
:1000D000E7010008E90D0008E7010008E701000852
:1000E000E7010008E7010008E7010008E701000850
:1000F000E7010008E7010008E7010008E701000840
:10010000E7010008E7010008A50D0008E701000865
:10011000E7010008E7010008E7010008E70100081F
:10012000E7010008E7010008E7010008E70100080F
:1001300000F002F800F03AF80AA090E8000C8244BF
:100140008344AAF10107DA4501D100F02FF8AFF29C
:10015000090EBAE80F0013F0010F18BFFB1A43F0A5
:10016000010318475C1500007C150000103A24BFFD
:1001700078C878C1FAD8520724BF30C830C144BF0C
:1001800004680C607047000000230024002500264E
:10019000103A28BF78C1FBD8520728BF30C148BFEA
:1001A0000B6070471FB51FBD10B510BD00F033F8D0
:1001B0001146FFF7F7FF01F051F800F051F803B4D2
:1001C000FFF7F2FF03BC00F02EFF00000948804754
:1001D00009480047FEE7FEE7FEE7FEE7FEE7FEE729
:1001E000FEE7FEE7FEE7FEE704480549054A064B41
:1001F00070470000D90C000831010008A801002058
:10020000A8070020A8030020A8030020704770471B
:10021000704770477047754600F028F8AE460500F5
:100220006946534620F00700854618B020B5FFF711
:10023000DBFFBDE820404FF000064FF000074FF015
:1002400000084FF0000B21F00701AC46ACE8C009F4
:10025000ACE8C009ACE8C009ACE8C0098D467047FD
:100260000446AFF300802046FFF7A9FF004870471F
:100270004801002021B1826842F00102826003E05F
:10028000826822F001028260704721B1826842F4E4
:100290008072826003E0826822F48072826070471C
:1002A000014600208A6802F004020AB1012000E041
:1002B00000207047014600208A6802F008020AB157
:1002C000012000E00020704730B5024600200023E6
:1002D00050680F4C20400D790C6844EA05242043F7
:1002E000506090680B4C2040D1E902542C434D796A
:1002F00044EA450420439060D06A20F470000C7CEE
:10030000641EE4B2234340EA0350D06230BD0000D3
:10031000FFFEF0FFFDF7F1FFF0B504460D460020AB
:100320000021092D11DDE068A5F10A0606EB46075C
:10033000072606FA07F18843A5F10A0606EB4606EA
:1003400003FA06F10843E0600CE0206905EB45077D
:10035000072606FA07F1884305EB450603FA06F17E
:1003600008432061072A0FDA606B561E06EB8607EA
:100370001F2606FA07F18843561E06EB860605FA85
:1003800006F10843606322E00D2A0FDA206BD61FC6
:1003900006EB86071F2606FA07F18843D61F06EBF1
:1003A000860605FA06F10843206310E0E06AA2F130
:1003B0000D0606EB86071F2606FA07F18843A2F111
:1003C0000D0606EB860605FA06F10843E062F0BD6D
:1003D000816841F008018160704721B1826842F470
:1003E000A002826003E0826822F4A002826070476B
:1003F000816841F004018160704700BFFEE721B1D0
:10040000026842F00102026004E002684FF6FE73E7
:100410001A4002607047000001684FF6FE721140FA
:1004200001600021016041608160C1604B498842E8
:1004300008D14A490839496841F00F01474A083A4A
:1004400051608AE045491431884208D1434908394E
:10045000496841F0F001414A083A51607DE03F4966
:100460002831884208D13D490839496841F4706112
:100470003A4A083A516070E038493C31884208D124
:1004800036490839496841F47041344A083A5160A4
:1004900063E032495031884208D13049083949680F
:1004A00041F470212D4A083A516056E02B496431DD
:1004B000884208D129490839496841F47001274A1E
:1004C000083A516049E025497831884208D12349EA
:1004D0000839496841F07061204A083A51603CE0AF
:1004E0001F49884206D1011F096841F00F01021F10
:1004F000116032E01A491431884208D11849091FA5
:10050000096841F0F001164A121F116025E01449F4
:100510002831884208D11249091F096841F47061E5
:100520000F4A121F116018E00D493C31884208D172
:100530000B49091F096841F47041094A121F1160F3
:100540000BE007495031884207D10549091F096866
:1005500041F47021024A121F1160704708000240E6
:100560000804024010B50022026847F6F0739A436F
:100570000C6A8B6823430C6923434C6923438C69C1
:100580002343CC6923434C6A23438C6A23431A4395
:100590000260CB6843600B6883604B68C36010BD2A
:1005A000704710B5022000F011F810BD10B50420FE
:1005B00000F00CF810BD10B5082000F007F810BDD1
:1005C00010B5102000F002F810BD000001490860CD
:1005D00070470000140401402DE9F0410246002557
:1005E0000026002000230024002791F803C00CF00F
:1005F0000F0591F803C00CF0100CBCF1000F03D0F4
:1006000091F802C04CEA050591F800C0BCF1000F5A
:1006100031D0146800202BE04FF0010C0CFA00F3ED
:10062000B1F800C00CEA03069E4220D183004FF0CF
:100630000F0C0CFA03F7BC4305FA03FC4CEA040464
:1006400091F803C0BCF1280F06D14FF0010C0CFA51
:1006500000FCC2F814C00AE091F803C0BCF1480FD6
:1006600005D14FF0010C0CFA00FCC2F810C0401C80
:100670000828D1D31460B1F800C0BCF1FF0F34DDFD
:10068000546800202EE000F1080C4FF0010808FA31
:100690000CF3B1F800C00CEA03069E4221D183009E
:1006A0004FF00F0C0CFA03F7BC4305FA03FC4CEABD
:1006B000040491F803C0BCF1280F05D100F1080C27
:1006C00008FA0CF8C2F8148091F803C0BCF1480F86
:1006D00007D100F1080C4FF0010808FA0CF8C2F835
:1006E0001080401C0828CED35460BDE8F081000083
:1006F000F0B50A46002300240021002500F0004642
:10070000B6F1004F02D11D4EF16901E01B4E716838
:10071000C0F3034583B200F44016B6F5401F08D17C
:1007200021F07061154E766826F07066134F7E607A
:1007300012E000F48016B6F5801F06D1032606FAF3
:1007400005F4A14341F0706106E0460D360103FA5D
:1007500006F6B14341F0706122B1460D360103FA4D
:1007600006F6314300F00046B6F1004F02D1034EC9
:10077000F16101E0014E7160F0BD00000000014038
:100780000246002093680B400BB1012000E00020DE
:100790007047012A03D101238B40C36003E001238A
:1007A0008B40DB43C360704730B5304C031BA04225
:1007B00026D009DC2E4B03446BB1B3F5806F11D00A
:1007C000B3F5006F31D114E0B3F5806F1FD0B3F5EE
:1007D000006F2AD122E0274B9B6943F00403254C8C
:1007E000A36122E0234B9B6943F00803214CA361E2
:1007F0001BE0204B9B6943F010031E4CA36114E0E7
:100800001C4B9B6943F020031A4CA3610DE0194B6C
:100810009B6943F04003174CA36106E0154B9B69AD
:1008200043F08003134CA36100BF00BF08290CDA1A
:1008300003688D000F24AC40A34303608B0002FAD1
:1008400003F30468234303600FE04368A1F1080445
:10085000A5000F24AC40A3434360A1F108039B0013
:1008600002FA03F344682343436030BD001401409F
:1008700000F8FEBF0010024010B503460022002120
:100880000AE0581E032404FB0100074C34F8100052
:10089000104482B2481CC1B20A29F2DB0A2092FB42
:1008A000F0F080B210BD00000C0100202DE9F041F5
:1008B00000240120FFF7E0FF0446204600F020FE60
:1008C0000746064900F03AFD0646054900F02CFEB1
:1008D000054600F0F5FDC0B2BDE8F08100F07F45AF
:1008E00000007F432DE9F04100240220FFF7C4FF00
:1008F0000446204600F004FE0746064900F01EFDAF
:100900000646054900F010FE054600F0D9FDC0B2CC
:10091000BDE8F08100F07F4500007F4300BFFEE7A7
:1009200010B5082211461348FFF73EFF08220D219B
:100930001148FFF739FF08220E210F48FFF734FF57
:1009400008220F210C48FFF72FFF01220821094838
:10095000FFF71FFF01220D210748FFF71AFF0122B1
:100960000E210548FFF715FF01220F210248FFF76E
:1009700010FF10BD00080140000C014008B5012126
:10098000082000F06BF81820ADF8000010208DF85A
:10099000030003208DF8020069460248FFF71CFEA1
:1009A00008BD0000000C014000BFFEE770470000DA
:1009B00070B5002100230F22C47804B3154C2468BD
:1009C00004F4E064C4F5E064210AC1F10403CA4000
:1009D000447804FA03F184781440214309010E4C51
:1009E0000678A155047804F01F050124AC40057871
:1009F0006D11AD0005F1E025C5F8004109E004786E
:100A000004F01F050124AC40044D0678761145F82A
:100A1000264070BD0CED00E000E400E080E100E065
:100A20007047000001460020034A506820F440400F
:100A300008435060704700000010024029B1064A88
:100A400052690243044B5A6104E0034A52698243EB
:100A5000014B5A61704700000010024029B1064A5C
:100A600092690243044B9A6104E0034A926982430B
:100A7000014B9A61704700000010024030B5002120
:100A80000022002400232D4D6D6805F00C0121B1DA
:100A9000042905D0082923D105E0294D056022E06D
:100AA000274D05601FE0254D6D6805F47012234D3C
:100AB0006D6805F48034022505EB92421CB9214D86
:100AC000554305600BE01D4D6D6805F400351DB103
:100AD0001C4D5543056002E0194D5543056002E089
:100AE000174D056000BF00BF144D6D6805F0F001A3
:100AF0000909154D6B5C0568DD4045600F4D6D685B
:100B000005F4E061090A104D6B5C4568DD408560C5
:100B10000A4D6D6805F46051C90A0B4D6B5C456860
:100B2000DD40C560054D6D6805F44041890B074DFA
:100B30006B5CC568B5FBF3F5056130BD0010024084
:100B400000127A0000093D002A0000203A0000202F
:100B50007047000030B503460D461446FF210C488F
:100B600000F055FAFE210A4800F051FA19460848EB
:100B700000F04DFA2946064800F049FA214604489B
:100B800000F045FAFD21024800F041FA30BD0000B6
:100B90000038014010B500F001F810BD0CB5002080
:100BA000019000903348006840F48030314908607B
:100BB00000BF3048006800F4003000900198401CED
:100BC0000190009818B90198B0F5A06FF1D12948AB
:100BD000006800F4003010B10120009001E0002016
:100BE00000900098012843D12348006840F010008D
:100BF000214908600846006820F0030008600846A4
:100C0000006840F0020008601A48406819494860CE
:100C10000846406848600846406840F48060486084
:100C20000846406820F47C1048600846406840F45C
:100C3000E81048600846006840F08070086000BF17
:100C40000C48006800F000700028F9D0094840689E
:100C500020F00300074948600846406840F0020061
:100C6000486000BF0348406800F00C000828F9D134
:100C70000CBD0000001002400020024010B5012110
:100C80000846FFF7EBFE01210748FFF731FD00F0B2
:100C9000CDF9FFF773FEFFF743FE4FF4165000F057
:100CA000FDFA00F00BFA10BD00023000042808D154
:100CB0004FF0E021096941F004014FF0E022116199
:100CC00007E04FF0E021096921F004014FF0E02234
:100CD000116170477047000010B51348006840F07C
:100CE00001001149086008464068104908400E4953
:100CF0004860084600680E4908400B4908600846ED
:100D0000006820F4802008600846406820F4FE0057
:100D100048604FF41F008860FFF73CFF4FF0006011
:100D20000449086010BD0000001002400000FFF8F8
:100D3000FFFFF6FE08ED00E010B50121044800F0C9
:100D400042F818B10121024800F03AF810BD000045
:100D5000002C014010B50121880700F034F818B1CB
:100D60000121880700F02CF810BD000010B501210A
:100D7000044800F028F818B10121024800F020F8DA
:100D800010BD00000004004010B50121044800F02F
:100D90001AF818B10121024800F012F810BD000045
:100DA0000008004010B50121044800F00CF818B10B
:100DB0000121024800F004F810BD0000000C0040C2
:100DC000CA430282704730B5024600200023002447
:100DD000158A05EA0103958905EA010413B10CB1EE
:100DE000012000E0002030BD10B540F225511D4823
:100DF00000F04AF810B31B4800F002F9C4B21A48D8
:100E0000008800F40040C8B91748008800F480400A
:100E100060B10A2C03D000201349088020E012485A
:100E2000008840F400401049088019E00D2C06D1DC
:100E30000D48008840F480400B49088010E00A48C3
:100E40000088C0F30D0009490C5407480088401C75
:100E50000549088008460088C72801DD0020088071
:100E600010BD000000380140280000204400002090
:100E700021B1828942F40052828104E082894DF6D8
:100E8000FF731A408281704770B502460024002328
:100E90000025002040F66A16B14200D100BFC1F320
:100EA000421501F01F03012606FA03F3012D02D1BA
:100EB0009689334006E0022D02D1168A334001E0C4
:100EC000968A33400C12012606FA04F41688344040
:100ED00013B10CB1012000E0002070BDF0B5034655
:100EE000002400260025002040F66A17B94200D1F0
:100EF00000BF1846C1F3421401F01F06012707FA8C
:100F000006F5012C01D10C3004E0022C01D1103087
:100F100000E014301AB107682F43076002E0076849
:100F2000AF430760F0BD00002DE9F04786B00546ED
:100F30000E460024A24600BFA1460027B08900B19A
:100F400000BF2F462C8A4CF6FF700440F088044303
:100F50002C82AC894EF6F3100440B08831890843E6
:100F6000718908430443AC81AC8A4FF6FF400440CA
:100F7000B0890443AC8201A8FFF780FD1F48874277
:100F800002D1DDF810A001E0DDF80CA0A88900F482
:100F9000004040B10AEBCA0000EB0A10316849007A
:100FA000B0FBF1F807E00AEBCA0000EB0A10316869
:100FB0008900B0FBF1F86420B8FBF0F004012009CF
:100FC000642101FB1089A88900F4004040B132205F
:100FD00000EBC900B0FBF1F000F00700044308E0AB
:100FE000322000EB09106421B0FBF1F000F00F009B
:100FF00004432C8106B0BDE8F087000000380140B2
:1010000001468888C0F30800704700BFFEE70288E9
:1010100022F040020280818000BF028802F040027C
:10102000002AFAD0704700BF7047000010B56FF07B
:101030000400FFF73BFE0A4800680A49B0FBF1F0E4
:10104000094908700846007800EB4001C1EBC01068
:101050004FF6FF7101EAC0000449088010BD00008E
:101060000C00002000127A00200000202200002046
:101070000146114A12884A434FF0E0235A61002288
:101080009A611A46126942F001021A6100BF4FF0DC
:10109000E022106900F001021AB100F48032002A47
:1010A000F5D04FF0E022126922F001024FF0E02368
:1010B0001A6100229A6170472200002000B591B0A9
:1010C00001214FF40170FFF7C9FC01210846FFF729
:1010D000B5FC4FF40040FFF7A5FC0620ADF840003A
:1010E00000208DF8430010A93A48FFF775FA3A48F6
:1010F000FFF792F93948059039480690002007908B
:101100001E2008900020099080200A9040000B903B
:1011100080000C9020200D904FF440500E90002045
:101120000F9005A92C48FFF71DFA01212A48FFF767
:1011300066F90020009001208DF804008DF805006C
:101140004FF4602002900020039003208DF81000DF
:10115000694622484C38FFF7B7F8072301221146A9
:101160001E484C38FFF7D8F80723022211461B48C7
:101170004C38FFF7D1F807230322114617484C38A3
:10118000FFF7CAF8012115484C38FFF77EF8012116
:1011900012484C38FFF76EF810484C38FFF718F932
:1011A00000BF0E484C38FFF785F80028F9D10B48EE
:1011B0004C38FFF71DF900BF08484C38FFF770F8AE
:1011C0000028F9D1012105484C38FFF706F911B084
:1011D00000BD000000080140080002404C2401400E
:1011E0000C01002010B51A48007820B101280DD05C
:1011F00002282AD11DE04FF480711648FFF7C0FA8B
:1012000018B901201249087020E000BF4FF4807126
:101210001048FFF7B5FA30B902200D4908700120D7
:101220000D49087012E00020094908700A49087049
:101230000CE04FF480710748FFF7A2FA012803D1B0
:1012400000200349087001E000BF00BF00BF10BDCF
:101250003E0000200008014007000020FFF70EFDBF
:1012600014E0FFF7BFFFFFF721FB09490870FFF704
:1012700039FB084908700A20FFF7FAFE0648027891
:101280000448017802480078FFF764FCE9E70000B1
:1012900000000020010000200700002010B586B0EB
:1012A0000446012144F20400FFF7D8FB4FF400701C
:1012B000ADF8140003208DF8160018208DF81700E3
:1012C00005A91C48FFF788F94FF48060ADF81400B9
:1012D00004208DF8170005A91648FFF77DF9252091
:1012E0008DF8000003208DF801008DF80200012028
:1012F0008DF803006846FFF75BFB01940020ADF812
:101300000800ADF80A00ADF80C00ADF810000C2094
:10131000ADF80E0001A90848FFF706FE012240F2D1
:1013200025510548FFF7DAFD01210348FFF7A0FD2D
:1013300006B010BD00080140003801404FF47F0C9A
:101340001CEAD0121EBF1CEAD11392EA0C0F93EADA
:101350000C0F00F0858090EA010F48BF42F48072C4
:1013600040F4000C41F400002CF07F4120F07F405D
:1013700000B58142A2EB03020FF2081CACEB504E09
:10138000C0F100009EF800E04FEA4E0E00FB0EFC9C
:1013900038BF49004FEA2C1C02F5FA020CFB0EF391
:1013A0004FEACE1E4FEA112C4FEAC1210EEB635ECD
:1013B00042EB22420EFB0CFC4FEA1C5300FB0311D4
:1013C0004FEA112C4FEA01310EFB0CFC4FEADC4CCA
:1013D00000FB0C11C14228BF09184CEB03335DF828
:1013E00004EB10EB410143EBC250B2F57C0F38BF68
:1013F000704729D512F0F00F1CBF00F1C04000F07B
:1014000000407047008182838485868788898B8C21
:101410008D8E8F919293959697999A9C9D9FA0A25D
:10142000A3A5A7A8AAACAEB0B2B3B5B7B9BCBEC0AD
:10143000C2C5C7C9CCCED1D4D7D9DCDFE2E6E9EC4E
:10144000F0F3F7FAFE0000004FEA400C0CF1807C4C
:10145000BCF17E4F28BF7047B0F1C04000F02BB9FF
:1014600090EA010F0CEAD11348BF42F48072624542
:1014700038BF634507D213F47F0F16D080EA01000E
:1014800000F00040704710B500F0CFF8097EFC3E38
:1014900000F005B880EA010000F00040704780EAE3
:1014A000010000F0004000F006B912F47F0F04BF05
:1014B0000248704780EA010000F0FDB80000C07FDC
:1014C000C10DD1F19E0206DB4FEA002343F0004339
:1014D00023FA02F07047004207D54FEA4001B1F10C
:1014E000FE4F02D24FF00000704710B500F09DF89B
:1014F00049922480002070476FEA20007047000066
:10150000B0FA80F310FA03F2C3F19D030AD0D905B3
:1015100001EB1220530638BF704700F1010008BFED
:1015200020F00100704700004FF47F0C1CEAD0123D
:101530001EBF1CEAD11392EA0C0F93EA0C0F00F0C5
:10154000478090EA010F48BF42F480724FF0004C90
:101550004CEA00204CEA012102EB0302A0FB01133C
:10156000A2F50002002918BF43F001035B0028BF69
:101570004FEA330342EB22425FEA132C4CEBC2509A
:101580002EBFBCEB436FB2F57C0F70474FEA036C84
:10159000BCF1004F08BF20F00100B2F57C0F38BF4E
:1015A00070470BD582F0FF0212F5803FC8BF70472D
:1015B00000F1C040D8BF00F00040704700F5000CBB
:1015C0005FEA4C0C48BF7047B0F1C04000F073B800
:1015D00090EA010F0CEAD11348BF42F480726245D1
:1015E00038BF634504D280EA010000F00040704734
:1015F00010B500F01AF800BF8900013E00F007B8EE
:1016000000F009B85FEA410C5FEA1C6C08D080EA80
:10161000010000F050B85FEA400C5FEA1C6CF6D1A4
:101620004FF00040A0F5800070470EF1020E2EF042
:10163000030E5EF8044B244204D44FEA4102B2F197
:101640007F4F11D84FEA4003B3F17F4F0CD80ED132
:101650004FEAD07CB2F17F4F0CEB4C0C0CF1020C3A
:1016600008BF4CEBD17C04E04FF0080C01E04FEADE
:10167000D17C0CEB4C0324FA03F404F00704B4F11E
:10168000040C06D20EEB840CBDE810404CF0010CAB
:101690006047DFE80CF0070802024FF00040A0F5B9
:1016A000800010BD0846420018BFD2F1807288BF8A
:1016B00000F0004010BDFF2141EAD050C005704746
:1016C000E016000800000020440000006C01000843
:1016D0002417000844000020640700008801000867
:1016E00000000000000000000000000000A24A040A
:1016F00000000000000000000102030406070809C2
:1017000000000000000000000000000000000102D6
:101710000304010203040607080902040608000086
:0417200001000000C4
:04000005080001CD21
:00000001FF
