:020000040800F2
:1000000040070020CD01000821050008E904000890
:100010001D05000875020008570B000800000000CD
:10002000000000000000000000000000C9080008F7
:100030007902000800000000A5080008B5090008C2
:10004000E7010008E7010008E7010008E7010008F0
:10005000E7010008E7010008E7010008E7010008E0
:10006000E7010008E70100087D020008E701000839
:10007000E7010008E7010008E7010008E7010008C0
:10008000E7010008E7010008E7010008E7010008B0
:10009000E7010008E7010008E7010008E7010008A0
:1000A000E7010008E7010008E7010008E701000890
:1000B000E7010008E7010008190A0008E701000845
:1000C000E7010008E7010008E7010008E701000870
:1000D000E7010008710A0008E7010008E7010008CD
:1000E000E7010008E7010008E7010008E701000850
:1000F000E7010008E7010008E7010008E701000840
:10010000E7010008E7010008E7010008E70100082F
:10011000E7010008E7010008E7010008E70100081F
:10012000E7010008E7010008E7010008E70100080F
:1001300000F002F800F03AF80AA090E8000C8244BF
:100140008344AAF10107DA4501D100F02FF8AFF29C
:10015000090EBAE80F0013F0010F18BFFB1A43F0A5
:1001600001031847A4130000C4130000103A24BF71
:1001700078C878C1FAD8520724BF30C830C144BF0C
:1001800004680C607047000000230024002500264E
:10019000103A28BF78C1FBD8520728BF30C148BFEA
:1001A0000B6070471FB51FBD10B510BD00F033F8D0
:1001B0001146FFF7F7FF00F071FD00F051F803B4AE
:1001C000FFF7F2FF03BC00F0C8FC000009488047BD
:1001D00009480047FEE7FEE7FEE7FEE7FEE7FEE729
:1001E000FEE7FEE7FEE7FEE704480549054A064B41
:1001F00070470000B90900083101000840010020E3
:100200004007002040030020400300207047704753
:10021000704770477047754600F028F8AE460500F5
:100220006946534620F00700854618B020B5FFF711
:10023000DBFFBDE820404FF000064FF000074FF015
:1002400000084FF0000B21F00701AC46ACE8C009F4
:10025000ACE8C009ACE8C009ACE8C0098D467047FD
:100260000446AFF300802046FFF7A9FF004870471F
:10027000E000002000BFFEE77047000010B510202E
:1002800000F012F838B104480088401C0249088088
:10029000102000F003F810BD06000020014908609E
:1002A0007047000014040140014600200022074B63
:1002B0001B6803EA0102054B14331B680B4013B1A2
:1002C0000AB1012000E00020704700000004014056
:1002D0002DE9F041024600250026002000230024DD
:1002E000002791F803C00CF00F0591F803C00CF043
:1002F000100CBCF1000F03D091F802C04CEA0505C8
:1003000091F800C0BCF1000F31D0146800202BE040
:100310004FF0010C0CFA00F3B1F800C00CEA030630
:100320009E4220D183004FF00F0C0CFA03F7BC4320
:1003300005FA03FC4CEA040491F803C0BCF1280F51
:1003400006D14FF0010C0CFA00FCC2F814C00AE010
:1003500091F803C0BCF1480F05D14FF0010C0CFA25
:1003600000FCC2F810C0401C0828D1D31460B1F8BA
:1003700000C0BCF1FF0F34DD546800202EE000F116
:10038000080C4FF0010808FA0CF3B1F800C00CEAB1
:1003900003069E4221D183004FF00F0C0CFA03F7A5
:1003A000BC4305FA03FC4CEA040491F803C0BCF119
:1003B000280F05D100F1080C08FA0CF8C2F81480D7
:1003C00091F803C0BCF1480F07D100F1080C4FF0C1
:1003D000010808FA0CF8C2F81080401C0828CED397
:1003E0005460BDE8F0810246002093680B400BB1D9
:1003F000012000E00020704741617047012A03D1CD
:1004000001238B40C36003E001238B40DB43C360C7
:10041000704701617047000030B5304C031BA042AB
:1004200026D009DC2E4B03446BB1B3F5806F11D09D
:10043000B3F5006F31D114E0B3F5806F1FD0B3F581
:10044000006F2AD122E0274B9B6943F00403254C1F
:10045000A36122E0234B9B6943F00803214CA36175
:100460001BE0204B9B6943F010031E4CA36114E07A
:100470001C4B9B6943F020031A4CA3610DE0194B00
:100480009B6943F04003174CA36106E0154B9B6941
:1004900043F08003134CA36100BF00BF08290CDAAE
:1004A00003688D000F24AC40A34303608B0002FA65
:1004B00003F30468234303600FE04368A1F10804D9
:1004C000A5000F24AC40A3434360A1F108039B00A7
:1004D00002FA03F344682343436030BD0014014033
:1004E00000F8FEBF0010024000BFFEE708B5012182
:1004F000082000F0D9F928208DF8030003208DF89A
:1005000002000220ADF800000120ADF800006946AD
:100510000148FFF7DDFE08BD000C014000BFFEE70B
:100520007047000002490143024A11607047000011
:100530000000FA050CED00E070B5002419E004F1AC
:10054000B001C8B2002100F069F90021022000F0DA
:1005500065F90021102000F061F9002505E0012176
:10056000002000F05BF9681CC5B2802DF7DB601C31
:10057000C4B2082CE3DB70BD10B5032208215C482F
:10058000FFF74AFF03220D215A48FFF745FF0322D8
:100590000E215848FFF740FF03220F215548FFF76F
:1005A0003BFF012208215248FFF728FF01220D21BD
:1005B0005048FFF723FF01220E214E48FFF71EFF90
:1005C00001220F214B48FFF719FF4FF480414948A2
:1005D000FFF71FFF4FF480414648FFF70DFF4FF430
:1005E00080414448FFF715FF0021AE2000F016F9C6
:1005F0000021022000F012F90021102000F00EF975
:100600000021402000F00AF90021812000F006F9C5
:100610000021CF2000F002F90021A12000F0FEF817
:100620000021C82000F0FAF80021A62000F0F6F81A
:100630000021A82000F0F2F800213F2000F0EEF8A1
:100640000021812000F0EAF80021FF2000F0E6F808
:100650000021D32000F0E2F80021084600F0DEF887
:100660000021D52000F0DAF80021802000F0D6F833
:100670000021D92000F0D2F80021F12000F0CEF8BE
:100680000021DA2000F0CAF80021122000F0C6F89C
:100690000021DB2000F0C2F80021402000F0BEF86D
:1006A0000021202000F0BAF80021022000F0B6F866
:1006B00000218D2000F0B2F80021142000F0AEF8E7
:1006C0000021A42000F0AAF80021A62000F0A6F83E
:1006D0000021AF2000F0A2F80021AF2000F09EF82A
:1006E000FFF72AFF0021084600F006F810BD0000C1
:1006F00000080140000C014070B504460D4605F1AC
:10070000B001C8B2002100F089F8102141EA1410AC
:10071000002100F083F804F00F0141F001000021F6
:1007200000F07CF870BD00002DE9F04107460E4650
:10073000904600250024A8F12000C5B27F2F02DDDD
:100740000027B01CC6B231463846FFF7D5FF00245B
:1007500008E004EB05110F4A505C012100F05EF83F
:10076000601CC4B2082CF4DB701CC1B23846FFF721
:10077000C3FF002409E004EB05110831054A505C71
:10078000012100F04BF8601CC4B2082CF3DBBDE87B
:10079000F0810000160F00082DE9FF5F0746914623
:1007A0001D460E9E4FF0000A002433E0281B401E19
:1007B000C1B20A2000F090FAB9FBF0F00A21B0FBB8
:1007C000F1F201FB1208BAF1000F13D1681EA0422A
:1007D00010DDB8F1000F0BD1B34606EBDB71491009
:1007E00001FB0471C8B220220199FFF79DFF0FE0C1
:1007F0004FF0010AB34606EBDB71491001FB0471AF
:10080000C8B208F13001CAB20199FFF78DFF00BFED
:10081000601CC4B2AC42C9DBBDE8FF9F70B50446A2
:100820000E462EB14FF400511C48FFF7F2FD04E0D4
:100830004FF400511948FFF7DFFD4FF4004118480D
:10084000FFF7DAFD00251BE04FF480711448FFF735
:10085000D3FD04F0800028B14FF400410F48FFF7AA
:10086000D8FD04E04FF400410C48FFF7C5FD4FF4FC
:1008700080710B48FFF7CDFD6006040E681CC5B201
:10088000082DE1DB4FF400410548FFF7C2FD4FF4AE
:1008900000510248FFF7BDFD70BD0000000C014093
:1008A000000801407047000029B1064A92690243DE
:1008B000044B9A6104E0034A92698243014B9A61B6
:1008C0007047000000100240704710B500F002F8B9
:1008D00010BD00000CB50020019000903348006866
:1008E00040F480303149086000BF3048006800F4AF
:1008F000003000900198401C0190009818B90198B0
:10090000B0F5A06FF1D12948006800F4003010B1B3
:100910000120009001E0002000900098012843D1C0
:100920002348006840F0100021490860084600682C
:1009300020F0030008600846006840F002000860EC
:100940001A484068194948600846406848600846A7
:10095000406840F4806048600846406820F47C109D
:1009600048600846406840F4E8104860084600685F
:1009700040F08070086000BF0C48006800F0007014
:100980000028F9D00948406820F003000749486072
:100990000846406840F00200486000BF03484068D5
:1009A00000F00C000828F9D10CBD00000010024036
:1009B000002002407047000010B51348006840F066
:1009C00001001149086008464068104908400E4976
:1009D0004860084600680E4908400B490860084610
:1009E000006820F4802008600846406820F4FE007B
:1009F00048604FF41F008860FFF767FF4FF000600A
:100A00000449086010BD0000001002400000FFF81B
:100A1000FFFFF6FE08ED00E010B50121084800F0E8
:100A200016F860B10121064800F00EF8054800787C
:100A3000401C0449087000F0B9F800F0F3F810BD4C
:100A40000008004002000020CA430282704730B50F
:100A50000246002000230024158A05EA0103958937
:100A600005EA010413B10CB1012000E0002030BD03
:100A700010B540F225511D4800F03EF810B31B4858
:100A800000F064F8C4B21A48008800F40040C8B905
:100A90001748008800F4804060B10A2C03D0002081
:100AA0001349088020E01248008840F400401049B3
:100AB000088019E00D2C06D10D48008840F48040D4
:100AC0000B49088010E00A480088C0F30D0009496E
:100AD0000C5407480088401C0549088008460088D7
:100AE000C72801DD0020088010BD0000003801404B
:100AF000140000201800002070B5024600240023D6
:100B00000025002040F66A16B14200D100BFC1F3B3
:100B1000421501F01F03012606FA03F3012D02D14D
:100B20009689334006E0022D02D1168A334001E057
:100B3000968A33400C12012606FA04F416883440D3
:100B400013B10CB1012000E0002070BD014688887F
:100B5000C0F30800704700BFFEE7014600BF7047C2
:100B60000146114A12884A434FF0E0235A6100229D
:100B70009A611A46126942F001021A6100BF4FF0F1
:100B8000E022106900F001021AB100F48032002A5C
:100B9000F5D04FF0E022126922F001024FF0E0237D
:100BA0001A6100229A6170470C00002010B51A48A3
:100BB000007820B101280DD002282AD11EE04FF480
:100BC00080511648FFF70FFC012802D11249087026
:100BD00020E000BF4FF480511048FFF704FC0128CB
:100BE00008D102200C4908700D48008814380C49BF
:100BF00008800FE00020084908700BE04FF4805196
:100C00000648FFF7F0FB18B900200349087001E01F
:100C100000BF00BF00BF10BD080000200008014059
:100C20000000002010B51A48007820B101280DD02E
:100C300002282AD11EE04FF400611648FFF7D3FBCB
:100C4000012802D11249087020E000BF4FF4006172
:100C50001048FFF7C8FB012808D102200C49087092
:100C60000D48008814300C4908800FE00020084926
:100C700008700BE04FF400610648FFF7B4FB18B9A9
:100C800000200349087001E000BF00BF00BF10BD95
:100C900009000020000801400000002008B54FF4C2
:100CA000A060FFF73FFCFFF767FCFFF71FFCC820C1
:100CB000084908800DE0FFF779FF0C20042300901D
:100CC0000448028800210846FFF766FD3220FFF73E
:100CD00047FFF0E70000002010B50246012000E0C9
:100CE00050430B00A1F10104E1B2F9D110BD0000A5
:100CF000000000000000002F0000000007000700B7
:100D000000147F147F1400242A7F2A1200626408D2
:100D1000132300364955225000000503000000004F
:100D20001C224100000041221C000014083E08144F
:100D30000008083E0808000000A06000000808083D
:100D40000808000060600000002010080402003E57
:100D50005149453E0000427F4000004261514946F2
:100D6000002141454B31001814127F1000274545E2
:100D70004539003C4A4949300001710905030036F4
:100D80004949493600064949291E00003636000007
:100D9000000056360000000814224100001414140C
:100DA0001414000041221408000201510906003207
:100DB0004959513E007C1211127C007F4949493645
:100DC000003E41414122007F4141221C007F4949B0
:100DD0004941007F09090901003E4149497A007FE4
:100DE0000808087F0000417F4100002040413F018A
:100DF000007F08142241007F40404040007F020CE9
:100E0000027F007F0408107F003E4141413E007F89
:100E100009090906003E4151215E007F0919294652
:100E20000046494949310001017F0101003F40402E
:100E3000403F001F2040201F003F4038403F0063DC
:100E400014081463000708700807006151494543FE
:100E500000007F41410000552A552A5500004141BC
:100E60007F000004020102040040404040400000B6
:100E700001020400002054545478007F4844443850
:100E800000384444442000384444487F00385454D7
:100E9000541800087E0901020018A4A4A47C007F55
:100EA000080404780000447D4000004080847D00F8
:100EB000007F102844000000417F4000007C04189F
:100EC0000478007C0804047800384444443800FC6A
:100ED000242424180018242418FC007C0804040886
:100EE00000485454542000043F444020003C4040FB
:100EF000207C001C2040201C003C4030403C004432
:100F000028102844001CA0A0A07C004464544C4439
:100F10001414141414140000000000000000000059
:100F2000000000000000000000F8000000000000C9
:100F300000333000000000100C06100C060000000A
:100F400000000000000040C07840C0784000043F2E
:100F500004043F040400007088FC083000000018FE
:100F600020FF211E0000F008F000E0180000002122
:100F70001C031E211E0000F00888700000001E21C6
:100F800023241927211010160E0000000000000075
:100F9000000000000000000000E018040200000053
:100FA00000071820400000020418E0000000004084
:100FB000201807000000404080F0804040000202FE
:100FC000010F01020200000000F00000000001011A
:100FD000011F01010100000000000000000080B0BE
:100FE0007000000000000000000000000000000190
:100FF00001010101010100000000000000000030BB
:101000003000000000000000000080601804006054
:1010100018060100000000E010080810E000000FB2
:10102000102020100F00001010F800000000002019
:10103000203F202000000070080808887000003061
:101040002824222130000030088888483000001809
:10105000202020110E000000C02010F80000000722
:101060000424243F240000F8088888080800001998
:10107000212020110E0000E0108888180000000FC9
:10108000112020110E0000380808C83808000000A0
:10109000003F000000000070880808887000001CF5
:1010A000222121221C0000E010080810E0000000AE
:1010B000312222110F00000000C0C000000000001B
:1010C0000030300000000000008000000000000040
:1010D0008060000000000000804020100800000137
:1010E00002040810200040404040404040000404FA
:1010F00004040404040000081020408000000020C4
:10110000100804020100007048080808F000000000
:10111000003036010000C030C828E810E000071891
:10112000272423140B000000C038E0000000203CFE
:1011300023020227382008F8888888700000203FA2
:10114000202020110E00C0300808080838000718B9
:1011500020202010080008F808080810E000203FB0
:10116000202020100F0008F88888E8081000203F91
:1011700020202320180008F88888E8081000203F65
:10118000200003000000C0300808083800000718DD
:101190002020221E020008F808000008F808203F5E
:1011A000210101213F20000808F808080000002064
:1011B000203F2020000000000808F8080800C08038
:1011C00080807F00000008F888C028180800203FB1
:1011D00020012638200008F8080000000000203F09
:1011E00020202020300008F8F800F8F80800203F00
:1011F000003F003F200008F830C00008F808203FFA
:10120000200007183F00E01008080810E0000F1049
:10121000202020100F0008F808080808F000203FE0
:10122000210101010000E01008080810E0000F187B
:10123000242438504F0008F8888888887000203FA0
:101240002000030C3020007088080808380000389F
:10125000202121221C00180808F8080818000000A6
:10126000203F2000000008F808000008F808001FD0
:10127000202020201F000878880000C838080000BF
:1012800007380E010000F80800F80008F800033CD9
:101290000700073C030008186880806818082030A1
:1012A0002C03032C30200838C800C8380800000080
:1012B000203F2000000010080808C8380800203827
:1012C000262120201800000000FE0202020000007B
:1012D000007F40404000000C30C0000000000000D3
:1012E00000010638C00000020202FE0000000040BB
:1012F00040407F00000000000402020204000000E1
:1013000000000000000000000000000000008080DD
:1013100080808080808000020204000000000000C5
:1013200000000000000000008080808000000019A4
:10133000242222223F2008F8008080000000003F85
:10134000112020110E000000008080800000000E9F
:10135000112020201100000000808088F800000E7D
:10136000112020103F200000808080800000001F9E
:10137000222222221300008080F088888818002012
:10138000203F202000000000808080808000006BD3
:1013900094949493600008F8008080800000203FBF
:1013A000210000203F2000809898000000000020CD
:1013B000203F20200000000000809898000000C01E
:1013C0008080807F000008F8000080808000203F3F
:1013D00024022D302000000808F800000000002042
:1013E000203F202000008080808080808000203F7F
:1013F00020003F20003F8080008080800000203F50
:10140000210000203F200000808080800000001F1D
:10141000202020201F00808000808000000080FFAE
:10142000A12020110E000000008080808000000EAE
:10143000112020A0FF8080808000808080002020FC
:101440003F21200001000000808080808000003368
:10145000242424241900008080E080800000000003
:10146000001F202000008080000000808000001FFE
:10147000202020103F20808080000080808000019C
:101480000E300806010080800080008080800F30D0
:101490000C030C300F000080800080808000002052
:1014A000312E0E312000808080000080808080817D
:1014B0008E701806010000808080808080000021EE
:1014C000302C2221300000000000807C020200004D
:1014D0000000003F404000000000FF00000000004E
:1014E0000000FF0000000002027C800000000040BD
:1014F000403F000000000006010102020404000059
:101500000000000000000000281500080000002076
:10151000180000006C0100084015000818000020A9
:1015200028070000880100080000000000000000FB
:1015300000000000000000000000000000000000AB
:04000005080001CD21
:00000001FF
