:020000040800F2
:100000008806002045010008AD190008AF19000856
:10001000B3190008B7190008BB1900080000000058
:10002000000000000000000000000000BF190008F0
:10003000C119000800000000C3190008C519000814
:100040005F0100085F0100085F0100085F01000810
:100050005F0100085F0100085F0100085F01000800
:100060005F0100085F0100085F0100085F010008F0
:100070005F0100085F0100085F0100085F010008E0
:100080005F0100085F0100085F0100085F010008D0
:100090005F0100085F0100085F0100085F010008C0
:1000A0005F0100085F0100085F0100085F010008B0
:1000B0005F0100085F010008C71900085F01000820
:1000C0005F0100085F0100085F0100085F01000890
:1000D0005F0100085F0100085F0100085F01000880
:1000E0005F0100085F0100085F0100085F01000870
:1000F0005F0100085F0100085F0100085F01000860
:100100005F0100085F0100085F0100085F0100084F
:100110005F0100085F0100085F0100085F0100083F
:100120005F0100085F0100085F0100085F0100082F
:10013000DFF80CD006F028F9004800474119000804
:10014000880600200648804706480047FEE7FEE78D
:10015000FEE7FEE7FEE7FEE7FEE7FEE7FEE7FEE777
:1001600047020008310100080CB500200190009002
:100170006C48006840F480306A49086000BF6948F4
:10018000006800F4003000900198401C0190009835
:1001900018B90198B0F5A06FF1D16248006800F479
:1001A000003010B10120009001E000200090009884
:1001B000012843D15C48006840F010005A490860AB
:1001C0000846006820F0030008600846006840F018
:1001D0000200086053484068524948600846406839
:1001E00048600846406840F48060486008464068BF
:1001F00020F47C1048600846406840F4E8104860ED
:100200000846006840F08070086000BF45480068FC
:1002100000F000700028F9D04248406820F0030048
:10022000404948600846406840F00200486000BF0E
:100230003C48406800F00C000828F9D10CBD10B50E
:10024000FFF792FF10BD10B53648006840F001007E
:1002500034490860084640683449084031494860DC
:1002600008460068324908402E4908600846006880
:1002700020F4802008600846406820F4FE004860B2
:100280004FF41F008860FFF7DAFF4FF00060294944
:10029000086010BD10B5002100200022214B5B68D2
:1002A00003F00C0121B1042906D0082928D107E068
:1002B000214B224C236027E01F4B204C236023E07E
:1002C000184B5B6803F47010164B5B6803F48032C4
:1002D000022303EB904022B9194B4343174C236090
:1002E0000DE0104B5B6803F4003323B1144B434320
:1002F000124C236003E0104B4343104C236003E097
:100300000D4B0E4C236000BF00BF064B5B68C3F370
:1003100003130C4CE15C094B1B68CB40074C23607A
:1003200010BD000000100240002002400000FFF855
:10033000FFFFF6FE08ED00E000127A00000000204A
:1003400000093D000400002031490143314A116099
:10035000704770B5002100230F22C47804B32D4CE0
:10036000246804F4E064C4F5E064210AC1F10403E4
:10037000CA40447804FA03F1847814402143090107
:10038000254C0678A155047804F01F050124AC40E3
:1003900005786D11AD0005F1E025C5F8004109E0D3
:1003A000047804F01F050124AC401C4D067876113A
:1003B00045F8264070BD1A4A0A400243154B1B1FE0
:1003C0001A60704739B1134A121D12680243114B6B
:1003D0001B1D1A6006E00F4A121D126882430D4B66
:1003E0001B1D1A607047042808D14FF0E0210969ED
:1003F00041F004014FF0E022116107E04FF0E021ED
:10040000096921F004014FF0E022116170470000FA
:100410000000FA050CED00E000E400E080E100E0FF
:1004200080FFFF1F10B50446CC48844208D101214B
:10043000042000F02DFB0021042000F029FB46E001
:10044000C748844208D10121082000F021FB002187
:10045000082000F01DFB3AE0C248844208D1012187
:10046000102000F015FB0021102000F011FB2EE001
:10047000BD48844208D10121202000F009FB002161
:10048000202000F005FB22E0B848844208D1012179
:10049000402000F0FDFA0021402000F0F9FA16E0BB
:1004A000B348844208D10121802000F0F1FA0021F4
:1004B000802000F0EDFA0AE0AE48844207D1012125
:1004C000801500F0E5FA0021A01500F0E1FA10BD5A
:1004D00010B50121084600F0DBFA0021012000F0F0
:1004E000D7FA10BD2DE9F041024600250026002074
:1004F00000230024002791F803C00CF00F0591F8A9
:1005000003C00CF0100CBCF1000F03D091F802C036
:100510004CEA050591F800C0BCF1000F31D0146819
:1005200000202BE04FF0010C0CFA00F3B1F800C0F2
:100530000CEA03069E4220D183004FF00F0C0CFA08
:1005400003F7BC4305FA03FC4CEA040491F803C02A
:10055000BCF1280F06D14FF0010C0CFA00FCC2F8D8
:1005600014C00AE091F803C0BCF1480F05D14FF068
:10057000010C0CFA00FCC2F810C0401C0828D1D3B2
:100580001460B1F800C0BCF1FF0F34DD54680020E6
:100590002EE000F1080C4FF0010808FA0CF3B1F856
:1005A00000C00CEA03069E4221D183004FF00F0CDD
:1005B0000CFA03F7BC4305FA03FC4CEA040491F877
:1005C00003C0BCF1280F05D100F1080C08FA0CF8A3
:1005D000C2F8148091F803C0BCF1480F07D100F1B4
:1005E000080C4FF0010808FA0CF8C2F81080401C03
:1005F0000828CED35460BDE8F0814FF6FF7101802A
:10060000022181700421C170704702460020936866
:100610000B400BB1012000E00020704701468868C4
:1006200080B2704702460020D3680B400BB1012016
:1006300000E0002070470146C86880B27047016141
:100640007047416170470AB1016100E04161704744
:10065000C16070474FF480320A43826181618261D8
:1006600082698269704702460020434B18684FF642
:100670008073184040EA021008433F4B18607047EF
:100680003E49C8617047F0B50A46002300240021A6
:10069000002500F00046B6F1004F02D1364EF16958
:1006A00001E0354E7168C0F3034583B200F4401693
:1006B000B6F5401F08D121F070612F4E766826F004
:1006C00070662D4F7E6012E000F48016B6F5801F34
:1006D00006D1032606FA05F4A14341F0706106E055
:1006E000460D360103FA06F6B14341F0706122B1BE
:1006F000460D360103FA06F6314300F00046B6F126
:10070000004F02D11C4EF16101E01B4E7160F0BD43
:1007100030B500228B071C0F0F2303FA04F2164B8F
:1007200008338C1053F824309343134C08348D1045
:1007300044F8253023468C1053F824308C07240FBE
:1007400000FA04F423430C4C08348D1044F825308F
:1007500030BD0A49DC3108607047000000080140E4
:10076000000C01400010014000140140001801403D
:10077000001C014000200140000001400000204218
:10078000DF48006840F00100DD4908600846406825
:10079000DC490840DA49486008460068DA49084000
:1007A000D74908600846006820F4802008600846A1
:1007B000406820F4FE0048604FF41F0088607047D6
:1007C000CF49096821F48031CD4A1160114609688A
:1007D00021F480211160B0F5803F03D0B0F5802F67
:1007E0000ED106E0C649096841F48031C44A11605F
:1007F00007E0C349096841F4A021C14A116000E043
:1008000000BF00BF704710B5014600220023002042
:100810004A11012A02D1BA4C236806E0022A02D109
:10082000B74C236A01E0B64C636A01F01F02012451
:1008300094401C400CB1012000E0002010BD38B5F0
:10084000002000900024002500BF3120FFF7DBFFCF
:1008500005460098401C00900098B0F5A06F01D0AC
:10086000002DF2D03120FFF7CEFF08B1012400E0C7
:100870000024204638BD01460020A14A106820F01F
:10088000F80040EAC10010607047A0490860704756
:10089000024600209A4B586820F47C1042EA01037B
:1008A0001843974B5860704798490866704701464F
:1008B0000020934A506820F00300084350607047BE
:1008C0008F48406800F00C007047014600208C4AB9
:1008D000506820F0F0000843506070470146002047
:1008E000874A506820F4E060084350607047014632
:1008F0000020834A506820F4605040EAC1005060F4
:10090000704729B17E4A527A02437D4B5A7204E005
:100910007B4A527A82437A4B5A7270477B49D8316C
:100920000860704701460020754A506820F4404036
:100930000843506070470021714A20321170704A9C
:1009400082F82010012802D004280AD104E00121F5
:100950006B4A2032117005E00521694A203211707E
:1009600000E000BF00BF70476949086070476449F4
:10097000096A0143624A1162704765494439086057
:10098000704730B500210022002400235C4D6D68C3
:1009900005F00C0121B1042905D0082923D105E077
:1009A0005C4D056022E05B4D05601FE0544D6D68B5
:1009B00005F47012524D6D6805F48034022505EB84
:1009C00092421CB9544D554305600BE04C4D6D6887
:1009D00005F400351DB1504D5543056002E04D4D05
:1009E0005543056002E04B4D056000BF00BF444D1C
:1009F0006D6805F0F0010909484D6B5C0568DD4044
:100A000045603F4D6D6805F4E061090A434D6B5C3C
:100A10004568DD4085603A4D6D6805F46051C90A4E
:100A20003E4D6B5C4568DD40C560354D6D6805F435
:100A30004041890B3A4D6B5CC568B5FBF3F5056128
:100A400030BD29B12E4A526902432D4B5A6104E050
:100A50002B4A526982432A4B5A61704729B1284A6E
:100A600092690243264B9A6104E0254A92698243C7
:100A7000234B9A61704729B1214AD2690243204B26
:100A8000DA6104E01E4AD26982431D4BDA61704785
:100A900029B11B4AD2680243194BDA6004E0184AB4
:100AA000D2688243164BDA60704729B1144A126942
:100AB0000243134B1A6104E0114A12698243104B3E
:100AC0001A61704712494039086070470F49C8647D
:100AD00070470B49C87170470948406A40F0807000
:100AE00007494862704701460020054A92680A405B
:100AF0000AB1012000E00020704701498872704768
:100B0000001002400000FFF8FFFFF6FE0000424226
:100B10008004424200127A0000093D0014000020C7
:100B20002400002010B50446FE48844208D101216B
:100B3000C014FFF7ADFF0021E014FFF7A9FFC4E0E8
:100B4000B4F1804F08D101210846FFF7AEFF002124
:100B50000120FFF7AAFFB8E0F348844208D1012141
:100B60000220FFF7A2FF00210220FFF79EFFACE06A
:100B7000EE48844208D101210420FFF796FF0021AE
:100B80000420FFF792FFA0E0E948844208D1012148
:100B90000820FFF78AFF00210820FFF786FF94E076
:100BA000E448844208D101211020FFF77EFF002194
:100BB0001020FFF77AFF88E0DF48844208D1012146
:100BC0002020FFF772FF00212020FFF76EFF7CE05E
:100BD000DA48844208D101214014FFF759FF00216F
:100BE0006014FFF755FF70E0D548844209D1012118
:100BF000C804FFF74DFF00214FF40020FFF748FF26
:100C000063E0D048844209D101210805FFF740FF85
:100C100000214FF48010FFF73BFF56E0CA488442A2
:100C200009D101214805FFF733FF00214FF40010DF
:100C3000FFF72EFF49E0C548844208D1012140203A
:100C4000FFF733FF00214020FFF72FFF3DE0C048B2
:100C5000844208D101218020FFF727FF0021802056
:100C6000FFF723FF31E0BB48844208D10121801502
:100C7000FFF71BFF0021A015FFF717FF25E0B6487F
:100C8000844209D101210804FFF702FF00214FF43B
:100C90008030FFF7FDFE18E0B048844209D1012101
:100CA0004804FFF7F5FE00214FF40030FFF7F0FE97
:100CB0000BE0AB48844208D101218804FFF7E8FE2D
:100CC00000214FF48020FFF7E3FE10BD00220288D0
:100CD000944B98420ED0994B98420BD0B0F1804F74
:100CE00008D0914B984205D0904B984202D0904B3F
:100CF000984204D14FF68F731A404B881A438D4B9C
:100D0000984207D08C4B984204D04FF6FF431A40CC
:100D1000CB881A4302808B8883850B880385814B9F
:100D200098420BD0854B984208D08B4B984205D007
:100D30008A4B984202D08A4B984201D10B7A0386A3
:100D400001238382704770B5002400220023058CA4
:100D50004FF6FE7635400584028C8388048B4FF66F
:100D60008F752C40B51E2C400D882C43751E2A40D3
:100D70000D892A434D882A436A4DA8420BD06F4DF6
:100D8000A84208D0744DA84205D0744DA84202D0A4
:100D9000734DA84213D14FF6F7752A404D892A4367
:100DA0004FF6FB752A408D882A434FF6FF652B408E
:100DB0004FF6FF552B408D892B43CD892B438380E4
:100DC0000483CD888586028470BD70B5002400221E
:100DD0000023058C4FF6EF7635400584028C83881E
:100DE000048B48F6FF752C404FF6FF452C400D88CC
:100DF0004FF6FF7606EA05252C434FF6DF752A40AD
:100E00000D8906EA05152A434D8806EA05152A4389
:100E1000444DA84202D0494DA8421DD14FF67F75DE
:100E20002A404D894FF6FF7606EA05152A434FF60C
:100E3000BF752A408D8806EA05152A434FF6FF350F
:100E40002B404FF2FF752B408D8906EA85052B4319
:100E5000CD8906EA85052B4383800483CD880587E9
:100E6000028470BD70B5002400220023058C4FF66B
:100E7000FF6635400584028C8388848B4FF68F751E
:100E80002C404FF6FC752C400D882C434FF6FF5537
:100E90002A400D894FF6FF7606EA05252A434D883C
:100EA00006EA05252A431F4DA84202D0234DA84239
:100EB0001DD14FF2FF752A404D894FF6FF7606EAA5
:100EC00005252A434FF6FF352A408D8806EA052579
:100ED0002A434EF6FF752B404DF6FF752B408D894A
:100EE00006EA05152B43CD8906EA05152B438380B9
:100EF0008483CD888587028470BD70B5002200236D
:100F00000024058C4EF6FF7635400584038C8488DA
:100F1000828B48F6FF752A404FF6FF452A400D8820
:100F200020E00000002C01400004004000080040C8
:100F3000000C00400010004000140040003401404C
:100F4000004C014000500140005401400018004096
:100F5000001C0040002000400040014000440140CF
:100F6000004801404FF6FF7606EA05252A434DF674
:100F7000FF752B400D8906EA05352B434D8806EA9F
:100F800005352B43FA4DA84202D0FA4DA84208D1AC
:100F90004BF6FF752C408D894FF6FF7606EA8515D6
:100FA0002C4384808283CD88A0F84050038470BD98
:100FB000828B4FF2FF331A408283828B4FF6FF738E
:100FC00003EA01231A4382837047F0B50C461546A5
:100FD000002200210026078C4EF6FF7C07EA0C0752
:100FE0000784828B018C4FF6FF7707EA043640F6C0
:100FF000FF473A404FF6FF7707EA05273A434FF697
:10100000FF7707EA03373A43D94FB8420ED0D94F9A
:10101000B8420BD0B0F1804F08D0D74FB84205D0BE
:10102000D64FB84202D0D64FB84206D14DF6FF7720
:10103000394046F48057394305E047F6FF573940B9
:1010400044F48057394382830184F0BD828B4FF68C
:10105000F3731A408283828B0A4382837047F0B510
:101060000C461546002200210026078C4FF6FF6C27
:1010700007EA0C070784828B018C4FF6FF7707EA9B
:1010800004264FF60C773A404FF6FF7707EA03172E
:101090002F433A43B64FB8420ED0B64FB8420BD0AA
:1010A000B0F1804F08D0B44FB84205D0B34FB8422A
:1010B00002D0B34FB84206D14FF6FF57394046F43D
:1010C0008077394305E04FF2FF57394044F4807789
:1010D000394382830184F0BD028B4FF2FF331A4003
:1010E0000283028B4FF6FF7303EA01231A43028344
:1010F0007047F0B50C461546002200210026078CEB
:101100004FF6EF7C07EA0C070784028B018C4FF641
:10111000FF7707EA041640F6FF473A404FF6FF779D
:1011200007EA03373A434FF6FF7707EA05273A43C2
:101130008F4FB8420ED08F4FB8420BD0B0F1804FD6
:1011400008D08D4FB84205D08C4FB84202D08C4F9A
:10115000B84206D14FF6DF77394046F010073943E1
:1011600005E04FF65F77394044F0100739430283BA
:101170000184F0BD028B4FF6F3731A400283028B99
:101180000A4302837047F0B50C4615460022002141
:10119000068C4FF6FE773E400684028B018C4FF69C
:1011A0000C7632407E1C06EA03162E433243704E04
:1011B000B0420ED06F4EB0420BD0B0F1804F08D08D
:1011C0006D4EB04205D06D4EB04202D06C4EB04272
:1011D00006D14FF6FD76314044F00106314305E07B
:1011E0004FF6F576314044F0010631430283018425
:1011F000F0BD70B505460C465D4885420ED05D4891
:1012000085420BD0B5F1804F08D05B48854205D0B0
:101210005A48854202D05A48854200D100E000BFBA
:10122000208850B92389A28861882846FFF7ABFF40
:10123000E1882846FFF79EFF25E0208804280AD190
:101240002389A28861882846FFF753FFE188284652
:10125000FFF742FF17E0208808280AD12389A288D7
:1012600061882846FFF7FBFEE1882846FFF7EEFE7F
:1012700009E02389A28861882846FFF7A6FEE18855
:101280002846FFF795FE70BD2DE9F04105460C4656
:1012900000260127608808B9022600E00026A08801
:1012A000012801D1022700E001272088A0B9238965
:1012B000A28861882846FFF766FFE1882846FFF785
:1012C00059FF23893A4631462846FFF712FFE18845
:1012D0002846FFF701FF13E02389A288618828468A
:1012E000FFF707FFE1882846FFF7F6FE23893A4615
:1012F00031462846FFF747FFE1882846FFF73AFFC7
:10130000BDE8F0810A884B881A438B881A43CB8842
:101310001A430B891A434B891A438B891A43A0F845
:10132000442070474FF6FF71818000210180C18009
:101330004180017270470021018041808180C1801D
:10134000018141818181C1817047002101804180FB
:10135000012181800021C18001817047002101802D
:1013600041808180C180018141818181704700007D
:10137000002C0140003401400004004000080040FF
:10138000000C004021B1028842F00102028004E01A
:1013900002884FF6FE731A400280704731B1B0F8F0
:1013A000442042F40042A0F8442005E0B0F8442074
:1013B000C2F30E02A0F8442070471AB183890B4390
:1013C000838102E083898B438381704781827047E8
:1013D00041EA0203A0F8483070471AB183890B43F1
:1013E000838102E083898B438381704701894FF6B3
:1013F000F8721140018170470A46002101894FF6B9
:101400008F73194011430181704730B504460D4672
:1014100029462046FFF7F0FF208940F00700208191
:1014200030BD2DE9F04104460D4616461F46602D9D
:1014300006D13B46012231462046FFF75AFE05E021
:101440003B46012231462046FFF79DFE29462046B5
:10145000FFF7D2FF208940F007002081BDE8F0812E
:1014600030B50C4600210189C9B24FF6FF7505EA77
:101470000325154325432943018130BD2DE9F04162
:1014800005460E4617469846002443463A463146DE
:101490002846FFF7E5FF2C894FF6F870044044F02A
:1014A00007044FF68F70044044F070042C81BDE8AF
:1014B000F081F0B504460D4616461F463B463246BF
:1014C00029462046FFF7CCFF208940F48040208148
:1014D000F0BD0185828270470A46002101884FF6DF
:1014E0008F731940114301807047F0B50C461546C3
:1014F0001E460021002200230189028B038C4FF637
:10150000F877394021434FF6FC473A4040F2011743
:101510003A434FF6DD773B404FF6FF7707EA061771
:101520002F433B43018102830384F0BD0A4600211F
:10153000018B4FF68F7319401143018370470A46A0
:101540000021018B48F6FF7319404FF6FF7303EA41
:1015500002231943018370470A460021818B4FF60D
:101560008F7319401143818370470A460021818B94
:1015700048F6FF7319404FF6FF7303EA022319433D
:101580008183704721B1028842F08002028004E02A
:1015900002884FF67F731A400280704721B182881B
:1015A00042F00402828004E082884FF6FB731A4006
:1015B0008280704721B1828842F00802828004E074
:1015C00082884FF6F7731A408280704721B1828873
:1015D00042F00102828004E082884FF6FE731A40D6
:1015E000828070470A460021018B4FF6F77319403D
:1015F0001143018370470A460021018B4FF2FF73AC
:1016000019404FF6FF7303EA022319430183704721
:101610000A460021818B4FF6F773194011438183ED
:1016200070470A460021818B4FF2FF7319404FF635
:10163000FF7303EA02231943818370470A4600219E
:10164000018B4FF6FB7319401143018370470A4623
:101650000021018B4FF6FF3319404FF6FF7303EA69
:1016600002231943018370470A460021818B4FF6FC
:10167000FB7319401143818370470A460021818B17
:101680004FF6FF3319404FF6FF7303EA0223194365
:10169000818370470A460021018B4FF67F73194002
:1016A0001143018370470A460021018BC1F30E01EB
:1016B0004FF6FF7303EA02231943018370470A467A
:1016C0000021818B4FF67F7319401143818370474E
:1016D0000A460021818BC1F30E014FF6FF7303EA26
:1016E00002231943818370470A460021018C4FF67B
:1016F000FD7319401143018470470A460021018C93
:101700004FF6F77319401143018470470A460021D0
:10171000018C4FF6DF7319404FF6FF7303EA021393
:101720001943018470470A460021018C4FF67F73EC
:1017300019404FF6FF7303EA0213194301847047FF
:101740000A460021018C4FF6FF5319404FF6FF73F4
:1017500003EA02231943018470470A460021018CE1
:101760004FF2FF7319404FF6FF7303EA0223194348
:10177000018470470A460021018C4DF6FF73194021
:101780004FF6FF7303EA023319430184704730B503
:10179000002301248C40A3B2048C9C430484048C59
:1017A00002FA01F5ADB22C43048430BD30B50023FC
:1017B00004248C40A3B2048C9C430484048C02FA5D
:1017C00001F5ADB22C43048430BD70B50346002052
:1017D00000241846183001258D40ACB21D8CA5435D
:1017E0001D8409B1082909D100EB6100056825F0C5
:1017F000700505600568154305600EE00D1FC5F313
:101800004E052844056825F4E045056005684FF657
:10181000FF7606EA02263543056070BD21B10288D5
:1018200042F00202028004E002884FF6FD731A4083
:101830000280704721B1028842F00402028004E075
:1018400002884FF6FB731A400280704721B18288EC
:1018500042F08002828004E082884FF67F731A4053
:101860008280704702884FF6F7731A400280028820
:101870000A430280704782884FF68F731A40828035
:1018800082880A438280704702894FF6F8731A40B3
:10189000028102890A430281704702894FF67F73F1
:1018A0001A40028102890A4302817047818470478D
:1018B00081857047818670470187704781877047AF
:1018C000A0F84010704702884FF6FF431A4002808C
:1018D00002880A43028070470146888E704701469D
:1018E000088F70470146888F70470146B1F8400065
:1018F00070470146888C70470146088D7047024644
:101900000020138A0B400BB1012000E0002070473B
:10191000CA430282704730B50246002000230024EB
:10192000158A05EA0103958905EA010413B10CB192
:10193000012000E0002030BDCA4302827047000051
:101940001CB5482003F028FE00F095FA00F0C2F81C
:1019500003F0F7FC472142F20F7004F06AF807E049
:101960000DA20021142000F01DF9C82003F076FE1E
:1019700002F014FB0028F3D10CE002F06FFC102001
:1019800003210223CDE900100748062102680F2039
:1019900000F0C5F9F1E700004D50553630353020E4
:1019A0004572726F7200000014020020704700BF81
:1019B000FEE700BFFEE700BFFEE700BFFEE770479F
:1019C00070477047704710B501210748FFF7A3FF24
:1019D00040B106480068401C0449086001210248E3
:1019E000FFF7AAFF10BD00000008004028000020FB
:1019F00070B504460E462EB14FF48051F948FEF7FB
:101A00001EFE04E04FF48051F648FEF71AFE4FF434
:101A10000061F448FEF715FE00251BE04FF400417D
:101A2000F048FEF70EFE04F0800028B14FF480412C
:101A3000EC48FEF704FE04E04FF48041E948FEF76D
:101A400000FE4FF40041E748FEF7F9FD6006040E82
:101A5000681CC5B2082DE1DB4FF40061E148FEF7D8
:101A6000EEFD4FF48051DF48FEF7E9FD70BD70B523
:101A700004460D4605F1B001C8B20021FFF7B8FFDA
:101A8000102141EA14100021FFF7B2FF04F00F010A
:101A900041F001000021FFF7ABFF70BD10B5002140
:101AA0008D20FFF7A5FF00211420FFF7A1FF0021E3
:101AB000AF20FFF79DFF10BD10B500218D20FFF76F
:101AC00097FF00211020FFF793FF0021AE20FFF7C2
:101AD0008FFF10BD70B5002419E004F1B001C8B249
:101AE0000021FFF785FF00210220FFF781FF002181
:101AF0001020FFF77DFF002505E001210020FFF702
:101B000077FF681CC5B2802DF7DB601CC4B2082CBF
:101B1000E3DB70BD2DE9F0410446204604F0DAFA1B
:101B200006460022134604F0E9FA02D284F000458A
:101B300000E025462846BDE8F0812DE9F041074642
:101B40000E46904600250024A8F12000C5B27F2F44
:101B500002DD0027B01CC6B231463846FFF787FFCA
:101B6000002408E004EB05119F4A505C0121FFF7B7
:101B70003FFF601CC4B2082CF4DB701CC1B23846B5
:101B8000FFF775FF002409E004EB05110831964AC0
:101B9000505C0121FFF72CFF601CC4B2082CF3DB62
:101BA000BDE8F0812DE9F04104460F4615460026B8
:101BB0000EE0AA5D39462046FFF7BFFF04F108009A
:101BC000C4B2782C02DD0024B81CC7B2701CC6B2A7
:101BD000A85D0028EDD1BDE8F08170B505460E4640
:101BE00014462CB181A231462846FFF7DBFF04E002
:101BF0007FA231462846FFF7D5FF70BD10B50246DB
:101C0000012000E050430B00A1F10104E1B2F9D141
:101C100010BD2DE9FF5F074691461D460E9E4FF011
:101C2000000A002433E0281B401EC1B20A20FFF73F
:101C3000E5FFB9FBF0F00A21B0FBF1F201FB12085D
:101C4000BAF1000F13D1681EA04210DDB8F1000FE9
:101C50000BD1B34606EBDB71491001FB0471C8B22E
:101C600020220199FFF769FF0FE04FF0010AB34608
:101C700006EBDB71491001FB0471C8B208F13001B9
:101C8000CAB20199FFF759FF00BF601CC4B2AC4251
:101C9000C9DBBDE8FF9F2DE9FC5F04468A46154677
:101CA0001E46DDE90C78284604F000FA83463346E8
:101CB0005A4651462046CDF80080FFF7AAFF584605
:101CC00004F0C5F92946019003F0BDFF05464FF029
:101CD000000908E04749284603F0B8FF054609F126
:101CE000010000F0FF09B945F4DB082101FB0641C2
:101CF000C8B241A25146FFF755FF284604F0D6F975
:101D000004F10801082202FB0611CDE90080C8B2E7
:101D10003B465146019AFFF77CFFBDE8FC9F2DE949
:101D2000FC470446884615469946DDE90A670021C6
:101D3000284604F021FA0FD8002241462046FFF73A
:101D40004CFF04F11001C8B24B462A464146CDE98A
:101D50000067FFF7A0FF12E0012241462046FFF78F
:101D60003CFF2846FFF7D6FE824604F11001C8B2B8
:101D70004B4652464146CDE90067FFF78CFFBDE870
:101D8000FC872DE9F04180460E4615460027314676
:101D90004046FFF76CFE00240AE0184A02EB85116A
:101DA000085D0121FFF724FE781CC7B2601CC4B295
:101DB000102CF2DB701CC1B24046FFF758FE002425
:101DC0000CE06900491C0D4A02EB4111085D01213C
:101DD000FFF70EFE781CC7B2601CC4B2102CF0DBFB
:101DE000BDE8F081000C0140027300082D000000E6
:101DF00020000000000020412E00000044000020D0
:101E00002DE9F05F06460F4690461C46DDF828A0F7
:101E10004FF0000BE11704EB5171C910A4EBC101A5
:101E200031B92046E11704EB5171C1F3C70506E053
:101E30002046E11704EB5171C910491CCDB23D4653
:101E400015E029463046FFF712FEB1460BE0594631
:101E50000BF1010B1AF801000121FFF7C9FD09F18F
:101E6000010000F0FF09C145F1DB681CC5B2A542C5
:101E7000E7DBBDE8F09F08B501210820FEF7EEFD85
:101E80004FF47840ADF8000010208DF803000320D7
:101E90008DF8020069465948FEF724FB4FF478415B
:101EA0005648FEF7CCFB0320ADF8000069465448C5
:101EB000FEF718FB03215248FEF7C1FB4FF4004028
:101EC000ADF8000069464F48FEF70CFB4FF40041A7
:101ED0004C48FEF7B4FB4FF400514848FEF7AFFB07
:101EE0004FF400514548FEF7ACFB4FF40051434816
:101EF000FEF7A5FB0021AE20FFF77AFD00210220AE
:101F0000FFF776FD00211020FFF772FD0021402031
:101F1000FFF76EFD00218120FFF76AFD0021CF2031
:101F2000FFF766FD0021A120FFF762FD0021C82018
:101F3000FFF75EFD0021A620FFF75AFD0021A82033
:101F4000FFF756FD00213F20FFF752FD00218120C1
:101F5000FFF74EFD0021FF20FFF74AFD0021D320AF
:101F6000FFF746FD00210846FFF742FD0021D5207E
:101F7000FFF73EFD00218020FFF73AFD0021D92028
:101F8000FFF736FD0021F120FFF732FD0021DA20B6
:101F9000FFF72EFD00211220FFF72AFD0021DB2094
:101FA000FFF726FD00214020FFF722FD0021202021
:101FB000FFF71EFD00210220FFF71AFD00218D20F2
:101FC000FFF716FD00211420FFF712FD0021A420C9
:101FD000FFF70EFD0021A620FFF70AFD0021AF202C
:101FE000FFF706FD0021AF20FFF702FDFFF772FDAE
:101FF00000210846FFF73BFD08BD0000000C014032
:10200000001001400020014038B50446F74890F820
:102010002400C0B114B10220009001E00020009023
:10202000F24A1268D17BF14A526810786B4601225D
:1020300003F079FA10B14FF0FF3038BD9DF8001071
:10204000EA48417423E0E948807A10B94FF0FF3044
:10205000F3E724B1E548407C08B10020EDE714B176
:102060000120009001E000200090E04A1268D17B3E
:10207000DE4A526810786B46012203F054FA10B120
:102080004FF0FF30D9E79DF80010D8484174002088
:10209000D3E738B500241FE0D4480068C07AA042D6
:1020A00004D0D2480068407DA04200D112E0CF4960
:1020B000496808786B460122214603F07FF910B188
:1020C0004FF0FF3038BD9DF800202146C8A004F035
:1020D000F9F900BF601CC4B2C44840680079A0424E
:1020E000DADC0020EEE770B504460D46BF48006814
:1020F000C07AA04204D0BD480068407DA04202D111
:102100004FF0FF3070BDB94840680079A04202DC52
:102110004FF0FF30F6E7B549496808782B460122B1
:10212000214603F04BF9EDE738B50446AF4890F887
:102130002300A04201D1002038BD14B1302000900E
:1021400001E000200090A948807C20B19DF80000AB
:1021500040F002000090A54890F8220020B19DF8C0
:10216000000040F080000090A04A1268117D9F4A54
:10217000526810786B46012203F0D5F910B14FF088
:10218000FF30D9E7994880F823400020D4E738B5DC
:10219000044604F0700010B10120009005E014B175
:1021A0000020009001E040200090904A1268917C4D
:1021B0008E4A526810786B46012203F0B4F920B1C0
:1021C00000218A488172481E38BD9DF8000020F029
:1021D0004001864801730020009004F0400020B9BF
:1021E0009DF8000040F00400009004F0200020B9A9
:1021F0009DF8000040F00200009004F0100020B9AB
:102200009DF8000040F00100009004F0080020B9A3
:102210009DF8000040F038000090744A1268D17CAC
:10222000724A526810786B46012203F07CF920B1A3
:1022300000216E488172481EC6E724B1082C02D0E6
:102240000020FFF771FF6948847200210175322078
:1022500003F004FA0020B7E738B504466348807CF1
:10226000A04201D1002038BD002C46D05F4A126840
:1022700011795E4A526810786B46012203F09EF88D
:1022800010B14FF0FF30EEE79DF8000020F0200085
:102290000090564A12681179544A526810786B4679
:1022A000012203F040F910B14FF0FF30DBE70320CB
:1022B00003F0D4F9022000904C4890F8220020B19D
:1022C0009DF8000040F080000090484890F82300FE
:1022D00020B19DF8000040F030000090434A1268A1
:1022E000117D424A526810786B46012203F01BF9B7
:1022F000002851D04FF0FF30B5E73C4A1268117901
:102300003A4A526810786B46012203F057F810B130
:102310004FF0FF30A7E73548807A00F0010028B180
:102320009DF8000040F02000009004E09DF80000BF
:1023300020F0200000902D4A126811792B4A526833
:1023400010786B46012203F0EEF810B14FF0FF3029
:1023500089E7032003F082F9244890F8220010B1A5
:102360008020009001E000200090204890F8230099
:1023700020B19DF8000040F0300000901B4A126828
:10238000117D1A4A526810786B46012203F0CBF88F
:1023900010B14FF0FF3066E714488474002062E704
:1023A00008B51248807A10B94FF0FF3008BD002000
:1023B00000900E4A1268D17B0C4A526810786B4626
:1023C000012203F0B0F810B14FF0FF30EEE7074AFA
:1023D00012685179054A526810786B46012203F061
:1023E000A2F868B14FF0FF30E0E7000030020020B3
:1023F000252335783A20252335780D0A0000000082
:10240000F84A12681179F74A526810786B4601222F
:1024100003F089F810B14FF0FF30C7E7F14890F8AA
:102420002400002853D00C200090EE4A1268117945
:10243000EC4A526810786B46012203F074F810B130
:102440004FF0FF30B2E7322003F008F9C0200090CF
:10245000E448807A00F0010020B19DF8000040F0CF
:1024600020000090DF4A12681179DE4A5268107825
:102470006B46012203F057F810B14FF0FF3095E79B
:10248000D848407C10B10220009001E0002000906C
:10249000D44A1268D17BD34A526810786B46012225
:1024A00003F041F810B14FF0FF307FE700200090BB
:1024B000CC4A12685179CB4A526810786B46012297
:1024C00003F031F8002855D04FF0FF306EE70420BC
:1024D0000090C44A12681179C24A526810786B465B
:1024E000012203F020F810B14FF0FF305EE7BD4845
:1024F000807C20B9BB48807A00F0010010B94020F0
:10250000009001E060200090B64A12681179B54A47
:10251000526810786B46012203F005F810B14FF0B5
:10252000FF3043E7322003F099F8AE48407C10B109
:102530000120009001E000200090AA4A1268D17B9F
:10254000A84A526810786B46012202F0ECFF10B1E5
:102550004FF0FF302AE7A34A12685179A14A526826
:102560001078A04B1033012202F0DDFF10B14FF0C4
:10257000FF301BE7002019E770B50446002624F061
:102580000104984890F8240008B1002070BD9548D7
:10259000807A10B94FF0FF30F8E79248057C807AD6
:1025A0002040904908740846007CA04202D04FF0B9
:1025B000FF3600E0002614B98A48007D18B10120DA
:1025C000FFF722FD02E00020FFF71EFD3CB1FFF700
:1025D000E7FE20B1834805744FF0FF30D6E7304660
:1025E000D4E738B504467F48807A10B94FF0FF3001
:1025F00038BDBC2C02DB0120009015E0622C02DB10
:102600000220009010E02A2C02DB032000900BE057
:10261000142C02DB0420009006E00A2C02DB0520CB
:10262000009001E0062000906E48C07A9DF80010EE
:10263000884201D10020DBE76A4A12689178694A32
:10264000526810786B46012202F06DFF10B14FF016
:10265000FF30CDE79DF800106248C1720020C7E747
:1026600038B50446282C02DD4FF0FF3038BDDCB908
:102670000020FFF759FD00208DF8000007208DF89D
:102680000100584A1268917C564A526810786B468D
:10269000022202F048FF10B14FF0FF30E6E70021C0
:1026A000504801750020E1E70120FFF73DFD2020A3
:1026B0008DF80000012C06D100208DF801000520C6
:1026C000FFF78FFF17E0052C06DC01208DF80100D5
:1026D0000520FFF786FF0EE0142C06DC02208DF8A3
:1026E00001000A20FFF77DFF05E003208DF80100BF
:1026F0001420FFF776FF9DF80100072101EB801001
:10270000C0B28DF80100374A1268917C354A526890
:1027100010786B46022202F006FF10B14FF0FF3036
:10272000A4E708212F48817200210173012101755E
:102730000020FFF721FF002098E738B5044629481C
:10274000807A10B94FF0FF3038BD264890F8240049
:1027500010B14FF0FF30F7E72248007D50B134B19F
:10276000282C04DCE0B2FFF77BFF0020ECE7002020
:10277000FFF776FF042C01DA042404E0B4F57A7F35
:1027800001DD4FF47A744FF47A7090FBF4F0401E40
:10279000C0B20090134A12685178124A52681078F9
:1027A0006B46012202F0BFFE10B14FF0FF30CBE7C5
:1027B0009DF80000401C4FF47A7191FBF0F081B25B
:1027C0000848C1810146C9894810FFF70AFF002067
:1027D000BAE738B504460348807A28B94FF0FF308D
:1027E00038BD000030020020022C06D0042C07D097
:1027F000082C08D0102C0CD108E0002000900BE031
:102800000820009008E01020009005E018200090BB
:1028100002E04FF0FF30E3E700BFFA48407A9DF84E
:102820000010B0EBE10F01D10020D9E7F54A1268A2
:10283000D179F44A526810786B46012202F073FE97
:1028400010B14FF0FF30CBE79DF80000C110ED480C
:1028500041720020C4E738B50446EA48807A10B9CE
:102860004FF0FF3038BDFA2C09D0B4F5FA7F09D00B
:10287000B4F57A7F09D0B4F5FA6F0CD108E00020E6
:1028800000900BE00820009008E01020009005E088
:102890001820009002E04FF0FF30E3E700BFD94876
:1028A000007A9DF80010B0EBE10F01D10020D9E7CC
:1028B000D44A12689179D34A526810786B46012243
:1028C00002F031FE10B14FF0FF30CBE79DF8000071
:1028D000C010CC4908720020C4E71CB580208DF8D8
:1028E0000000C84A1268917CC64A526810786B464C
:1028F000012202F018FE10B14FF0FF301CBD642021
:1029000002F0ACFE00208DF80000BE4A1268917CF7
:10291000BC4A526810786B46012202F004FE10B1E6
:102920004FF0FF30EAE7B74A1268917DB54A526826
:1029300010786B46062202F041FD10B14FF0FF30D7
:10294000DCE79DF80500C007400F9DF8031001F07B
:10295000010140EA41009DF8011001F0010140EA47
:10296000010494B1012C03D10121A648C1742BE0CC
:10297000022C03D10021A348C17425E02146A2A066
:1029800003F0A0FD4FF0FF30B8E79E4A1268D178FF
:102990009C4A526810786B46012202F00FFD10B17C
:1029A0004FF0FF30AAE79DF8000000F00F0414B9C3
:1029B0004FF0FF30A2E7042C03D101219148C174EC
:1029C00002E000218F48C174FF218E488172FF20F0
:1029D0008C490872FF218B484172C1724FF6FF711A
:1029E000C181FF21017481740121017380F82210DB
:1029F000002180F823104175017516300160416097
:102A00008160163880F8241080F82510C1844FF4B6
:102A1000FA60FFF720FF10B14FF0FF306EE70220A1
:102A2000FFF7D7FE10B14FF0FF3067E72A20FFF71E
:102A3000D8FD10B14FF0FF3060E73220FFF77DFE88
:102A400010B14FF0FF3059E70020FFF795FD10B1AE
:102A50004FF0FF3052E70020FFF7FEFB10B14FF0C0
:102A6000FF304BE70020FFF792FB002046E770475E
:102A70007CB504460D466348807A00F0700010B9BA
:102A80004FF0FF307CBD5F4A1268117B5D4A52688F
:102A900010786B46062202F091FC10B14FF0FF3027
:102AA000F0E79DF801009DF8001040EA012000B217
:102AB00020809DF803009DF8021040EA012000B23A
:102AC00060809DF805009DF8041040EA012000B2E6
:102AD000A08015B12846FFF7CAFF0020D2E77CB5D9
:102AE00004460D464748807A00F0080010B94FF0C0
:102AF000FF307CBD434A1268517B424A52681078CD
:102B00006B46062202F05AFC10B14FF0FF30F0E79E
:102B10009DF801009DF8001040EA012000B22080DD
:102B20009DF803009DF8021040EA012000B2608089
:102B30009DF805009DF8041040EA012000B2A08035
:102B400015B12846FFF793FF0020D2E72DE9FE4F8D
:102B500005460C462B48807A18B94FF0FF30BDE887
:102B6000FE8F284A1268917B264A5268107802AB81
:102B7000022202F023FC10B14FF0FF30EFE79DF886
:102B800009009DF8081040EA012006B214B1204661
:102B9000FFF76DFF1B494968C88803F058FA1949C7
:102BA00001904968B1F9080003F048FA83463046BD
:102BB00003F044FA5946009003F042F88246019926
:102BC00003F076F881461A4902F0E8FF80464FF09C
:102BD0008F4103F03BF8074603F04FFA28600020CE
:102BE000BDE710B588B004461CB94FF0FF3008B0FF
:102BF00010BD2068F0B96068E0B9A068D0B90020C5
:102C0000F5E7000030020020556E737570706F722A
:102C100074656420736F6674776172652070726F7B
:102C200064756374207265762025642E0A000000A6
:102C300000000C42FA494968087806AB03221146A5
:102C400002F0BCFB10B14FF0FF30D0E79DF8180048
:102C5000082101EB201000F00F00ADF800009DF8F6
:102C6000190001EB201000F00F00ADF802009DF8F4
:102C70001A0001EB201000F00F00ADF804002068EE
:102C80004100BDF90000403091FBF0F000B2ADF81A
:102C9000100060684100BDF90200403091FBF0F087
:102CA00000B2ADF81200A0684100BDF90400403048
:102CB00091FBF0F000B2ADF81400D94949680878EA
:102CC00006AB0622114602F079FB10B14FF0FF303F
:102CD0008DE79DF819009DF8181040EA012000B218
:102CE000ADF808009DF81B009DF81A1040EA01207D
:102CF00000B2ADF80A009DF81D009DF81C1040EAD6
:102D0000012000B2ADF80C00BDF81000BDF80810AD
:102D1000084400B2ADF81000BDF81200BDF80A106A
:102D2000084400B2ADF81200BDF81400BDF80C1054
:102D3000084400B2ADF81400BDF81000000A8DF888
:102D40001800BDF81000C0B28DF81900BDF81200CF
:102D5000000A8DF81A00BDF81200C0B28DF81B00F1
:102D6000BDF81400000A8DF81C00BDF81400C0B2B4
:102D70008DF81D00AA494968087806AB062211465D
:102D800002F0D1FB10B14FF0FF3030E700202EE70A
:102D90000146A348007A30B1012807D0022809D0A3
:102DA00003280FD10AE0FA2008800EE04FF4FA70F1
:102DB00008800AE04FF47A70088006E04FF4FA6069
:102DC000088002E00020088000BF00BF002070479C
:102DD00001469348407A30B1012807D0022808D034
:102DE00003280CD108E0022008700BE004200870D2
:102DF00008E00820087005E01020087002E04FF09D
:102E0000FF30704700BF8648C07C18B10878400684
:102E1000000E08700020F4E701468148C07A0828B7
:102E200017D2DFE800F01704070A0D101318BC20B2
:102E3000088013E06220088010E02A2008800DE05E
:102E4000142008800AE00A20088007E00520088096
:102E500004E000BF00BF0020088000BF00BF0020CA
:102E6000704701466E4890F8240010B14FF0FF30D3
:102E700070476B48C08908800020F9E701460020B0
:102E80000880401E704701464FF0FF3070470146F2
:102E90006348007A30B1012807D0022808D00328FF
:102EA0000CD108E05F4808600BE05F48086008E06C
:102EB0005E48086005E05E48086002E04FF0FF30C1
:102EC000704700BF0020FBE701465548407A30B10B
:102ED000012808D002280AD0032810D10BE04FF4B3
:102EE000804008800EE041F69C7008800AE04FF4B4
:102EF0008050088006E04FF40060088002E04FF048
:102F0000FF30704700BF4648C07C10B108884010B1
:102F100008800020F5E701464148007C0870002049
:102F2000704701463E48807A10B10120087001E0E8
:102F3000002008700020704738B504463848807A71
:102F400010B94FF0FF3038BD354A1268117C344A51
:102F5000526810786B46022202F030FA10B14FF03E
:102F6000FF30F0E79DF801009DF8001040EA0120D5
:102F700000B220800020E6E72DE9FE4F0746884694
:102F800092461D46DDF830B000260024244890F813
:102F9000240010B1601EBDE8FE8F0020287020487C
:102FA000807A10B94FF0FF30F5E71D48007C10B96A
:102FB0004FF0FF30EFE71A48007C00F0400008B106
:102FC000B01CC6B21648007C00F0200008B1B01C4E
:102FD000C6B21348007C00F0100008B1B01CC6B2A5
:102FE0000F48007C00F0080008B1B01DC6B20C4AC2
:102FF0001268917A0A4A526810786B46022202F0EF
:10300000DDF910B14FF0FF30C5E79DF801009DF8E4
:10301000001040EA0129B1450CDA0020BBE70000AE
:103020003002002000000343000083423333034298
:1030300033338341FC4840684088B9EB600F17DDAB
:10304000F94A1268517CF84A526810786B4601229E
:1030500002F0B4F910B14FF0FF309CE79DF800008A
:1030600000F0100020B1FFF79BF96FF0010092E72C
:103070005046FFF7FCFCEC4A1268D17AEA4A5268E3
:1030800010786B46324602F099F910B14FF0FF30DC
:1030900081E799FBF6F0401E8BF8000000202870B5
:1030A000B4422AD0E048007C00F0080028B3601C3D
:1030B0001DF800001DF8041040EA012000B2A8F835
:1030C0000000E01C1DF80010A01C1DF8000041EAE3
:1030D000002000B2A8F80200601D1DF80010201D9D
:1030E0001DF8000041EA002000B2A8F8040028788A
:1030F00040F008002870A01D84B2B44213D0CA4822
:10310000007C00F0400070B1601C1DF800001DF84C
:10311000041040EA012000B23880287840F04000D6
:103120002870A01C84B2B44213D0BF48007C00F0C9
:10313000200070B1601C1DF800001DF8041040EA6A
:10314000012000B27880287840F020002870A01C70
:1031500084B2B44213D0B448007C00F0100070B1C7
:10316000601C1DF800001DF8041040EA012000B2A8
:10317000B880287840F010002870A01C84B200208D
:1031800009E7F8B504460F461646A74890F824000C
:1031900010B94FF0FF30F8BDA348807A10B94FF056
:1031A000FF30F8E7A04A1268917A9F4A5268107877
:1031B0006B46022202F002F910B14FF0FF30EAE74D
:1031C0009DF801009DF8001040EA0125A54203DAB0
:1031D00000203070401EDEE7934840684088B5EB21
:1031E000600F17DD904A1268517C8F4A5268107840
:1031F0006B46012202F0E2F810B14FF0FF30CAE74F
:103200009DF8000000F0100020B1FFF7C9F86FF042
:103210000100C0E7E2B2844B1B68D97A824B5B683D
:1032200018783B4602F0CAF810B14FF0FF30B2E711
:1032300095FBF4F0401E30700020ACE701467A4860
:1032400080F82210002070477CB505467649496811
:10325000087801AB04220D2102F0B0F808B1072074
:103260007CBD9DF80700C0F301109DF8041001F02B
:10327000E00140EAE1008DF800009DF80700C0F38E
:1032800081009DF8051001F0E00140EAE1008DF8B1
:1032900001009DF8070000F003009DF8061001F002
:1032A000E00140EAE1008DF8020000241CE01DF876
:1032B000040018B9002045F8240013E05B4845F8E5
:1032C000240006E055F82400594902F0BFFC45F8F7
:1032D00024001DF80400401EC0B20DF804000028B0
:1032E000F0D100BF601CC4B2032CE0DB0020B7E7C4
:1032F0002DE9FE4F06460F4600256846FFF7A4FF5E
:10330000002442E056F8240057F82410A0EB010AEC
:10331000BAF1000F01DB514601E0CAF10001084695
:1033200002F08CFE83464FF08F4102F0C1FC8046D4
:103330005DF82400002102F015FF16D05DF824107E
:10334000404602F0B5FC82464FF07E5102F078FC18
:10335000814629F0004A3748416A504602F00CFF86
:1033600012D20120A04005430EE03248C169404618
:1033700002F0F8FE05D32F48016A404602F0FCFE39
:1033800002D20120A0400543641C032CBADB28466E
:10339000BDE8FE8F2DE9FC5F06460F460025224959
:1033A0004968087801AB03220D2102F007F810B13B
:1033B0000720BDE8FC9F9DF8040000F01F008DF879
:1033C00004009DF8050000F01F008DF805009DF831
:1033D000060000F01F008DF80600002462E056F899
:1033E000240057F82410A0EB010BBBF1000F01DB08
:1033F000594601E0CBF10001084602F01FFE4FF0F4
:103400008F41009002F054FC814601A8005DC0B3DA
:103410000849086802F01BFE83465946064802F038
:1034200047FC80460FE00000300200207B14AE3ED7
:103430001D5A843F1C79000800B04C45FE494046A7
:1034400002F004FC804601A8005D401EC0B201A944
:1034500008550028F2D14146484602F029FC83462F
:103460004FF07E5102F0ECFB82462AF0004BF3480D
:103470008169584602F080FE13D20120A040054326
:103480000FE0FFE7ED480169484602F06BFE05D307
:10349000EA484169484602F06FFE02D20120A0408E
:1034A0000543641C032C9ADB284682E72DE9F04F84
:1034B00087B005460C46914601208DF8100000208B
:1034C0008DF81100DE4A1268917CDD4A526810784E
:1034D00004AB022202F027F820B14FF0FF3007B012
:1034E000BDE8F08FC82002F0B9F800208DF8100078
:1034F000D34A1268D17BD24A5268107804AB0122B9
:1035000002F011F810B14FF0FF30E8E7CC4A126832
:103510005179CB4A5268107804AB012202F003F8CB
:1035200010B14FF0FF30DAE7C54A1268917CC44A07
:103530005268107804AB012201F0F5FF10B14FF092
:10354000FF30CCE7BE4A1268D17DBD4A5268107880
:1035500004AB012201F0E7FF10B14FF0FF30BEE7EE
:10356000B74A12681179B64A5268107804AB012242
:1035700001F0D9FF10B14FF0FF30B0E70C208DF80B
:103580001000AF4A12681179AD4A5268107804AB46
:10359000012201F0C8FF10B14FF0FF309FE70F206C
:1035A00002F05CF8A648806A407A8DF81000A44AC0
:1035B00012689178A24A5268107804AB012201F097
:1035C000B2FF10B14FF0FF3089E79D48806A007A62
:1035D0008DF810009A4A12685178994A526810780A
:1035E00004AB012201F09FFF10B14FF0FF3076E7EE
:1035F000B9F1000F07D09248806A807A40F0E0006D
:103600008DF8100004E08E48806A807A8DF81000F2
:103610008B4A126891798A4A5268107804AB012269
:1036200001F081FF10B14FF0FF3058E7B9F1000F02
:1036300007D08348806AC07A40F0E0008DF810001F
:1036400003E07E48C07A8DF810007D4A1268D17977
:103650007B4A5268107804AB012201F064FF10B17C
:103660004FF0FF303BE7B9F1000F02D0C82001F066
:10367000F5FF40208DF81000714A12681179704AE8
:103680005268107804AB012201F04DFF10B14FF0E9
:10369000FF3024E778208DF81000694A12685179CC
:1036A000674A5268107804AB012201F03CFF10B168
:1036B0004FF0FF3013E76149888901F0CFFF002008
:1036C0008DF810005E4A126851795D4A5268107890
:1036D00004AB012201F027FF10B14FF0FF30FEE6EE
:1036E000574A1268917A564A5268107804AB0222FF
:1036F00001F064FE10B14FF0FF30F0E69DF81100CC
:103700009DF8101040EA012B0C209BFBF0F0C6B294
:103710000020A86068602860A06060602060824629
:1037200065E0474A1268D17A454A5268107804AB7E
:103730000C2201F043FE10B14FF0FF30CFE69DF8B0
:1037400011009DF8101040EA012000B2ADF8080009
:103750009DF813009DF8121040EA012000B2ADF868
:103760000A009DF815009DF8141040EA012000B2EF
:10377000ADF80C00BDF90810206808442060BDF9C0
:103780000A10606808446060BDF90C10A068084425
:10379000A0609DF817009DF8161040EA012000B2C5
:1037A000ADF800009DF819009DF8181040EA0120BE
:1037B00000B2ADF802009DF81B009DF81A1040EA17
:1037C000012000B2ADF80400BDF9001028680844DB
:1037D0002860BDF90210686808446860BDF90410EB
:1037E000A8680844A8600AF1010000F0FF0AB24589
:1037F00097DB1248D0F800C02868C117090441EAD5
:103800001041070462460023384602F077F9324639
:103810000023CDE9020102F071F928600748D0F8D1
:1038200000C06868C117090441EA104107046246F4
:103830000023384606E0000054E3853F1C79000869
:103840003002002002F05AF932460023CDE902018D
:1038500002F054F96860FE48D0F800C0A868C117AB
:10386000090441EA1041070462460023384602F089
:1038700045F932460023CDE9020102F03FF9A86084
:10388000F348D0F804C02168C817000440EA114882
:103890000F04624600233846414602F02FF93246B3
:1038A0000023CDE9020102F029F92060E848D0F8B0
:1038B00004C06068C117090441EA10410704624668
:1038C0000023384602F01AF932460023CDE90201FE
:1038D00002F014F96060DE48D0F804C0A068C11797
:1038E000090441EA1041070462460023384602F009
:1038F00005F932460023CDE9020102F0FFF8A0608D
:10390000A068002804DDA068A0F58030A06003E076
:10391000A06800F58030A0600020E0E538B50446DE
:10392000CC4890F82400A04201D1002038BD24B337
:10393000C84890F8250010B94FF0FF30F6E7002096
:10394000FEF762FB0020FEF787FCC249C88CFEF739
:10395000F4FE00200090BF49496808786B460122B8
:10396000232101F0E0FD0121BA4880F82410012054
:10397000FEF74AFBFEF714FD13E00020FEF744FBC0
:10398000B448007C0090B349496808786B4601222E
:10399000232101F0C8FD0021AE4880F82410FEF775
:1039A000FFFC0020C2E72DE9F04F8DB083460F46A3
:1039B00002200C90A74890F8240020B10020FFF7C7
:1039C000ADFF012600E0002603A8FFF7E1F905A8F6
:1039D000FFF7FEF901A8FFF71FFA02A8FFF741FA67
:1039E0009C4890F80AA004A8FFF795FA002407E085
:1039F000002239465846FFF759FD00B902E0641C21
:103A0000022CF5DB00BF022C01D1002528E00024A8
:103A100007E0012206A909A8FFF748FD00B902E066
:103A2000641C022CF5DB00BF022C01D1002517E03D
:103A300006A93846FFF75CFC00F0FF0809A95846C4
:103A4000FFF7A8FC00F0FF090025B9F1000F01D134
:103A500045F00105B8F1000F01D145F0020500BFA6
:103A6000FF207C490872FF217A484172C1724FF6EB
:103A7000FF71C181FF218172017401210173BDF8C1
:103A80000C00FEF7E8FE9DF81400FEF7A2FEBDF85C
:103A90000400FEF7A6FDBDF80800FEF74EFE5046F6
:103AA000FEF775FB9DF81000FEF766FD16B10120CC
:103AB000FFF734FF28460DB0BDE8F08FF8B5044697
:103AC0000D46164616B94FF0FF30F8BD6148807AB2
:103AD00010B94FF0FF30F8E720128DF80000E0B287
:103AE0008DF801009DF8010028445A494968498928
:103AF000884202DD4FF0FF30E7E7564A1268117E38
:103B0000544A526810786B46022201F00CFD10B145
:103B10004FF0FF30D9E7EAB24E4B1B68597D4D4B51
:103B20005B681878334601F0FEFC10B14FF0FF30AF
:103B3000CBE70020C9E7F8B504460D46164616B98E
:103B40004FF0FF30F8BD4348807A10B94FF0FF3096
:103B5000F8E720128DF80000E0B28DF801009DF822
:103B6000010028443B4949684989884202DD4FF0F9
:103B7000FF30E7E7374A1268117E364A52681078FC
:103B80006B46022201F0CFFC10B14FF0FF30D9E7B5
:103B9000EAB2304B1B68597D2E4B5B681878334670
:103BA00001F00CFC10B14FF0FF30CBE70020C9E76B
:103BB0002DE9F04385B005460E46904699462548C6
:103BC00090F8250020B14FF0FF3005B0BDE8F0833C
:103BD00016B94FF0FF30F8E7002423E0281B102827
:103BE00001DD102000E0281B87B23219394620463B
:103BF000FFF764FF10B14FF0FF30E6E701AA394646
:103C00002046FFF798FF10B14FF0FF30DDE7301985
:103C10003A4601A901F0B5FF10B16FF00100D4E7F9
:103C2000E01984B2AC42D9DB4FEA28208DF80000BD
:103C300008F0FF008DF80100064A1268917E054ADF
:103C4000526810786B46022201F06DFC38B103E037
:103C50001C790008300200204FF0FF30B5E7012149
:103C6000FE4880F82510A0F826900020ADE7014618
:103C7000FA4890F824000870002070474FF0FF3099
:103C8000704702464FF0FF30704701464FF0FF305B
:103C90007047F8B505460F461446002C70D0B5F5B0
:103CA000FF5F01DDFF2605E0202D01DA012601E09E
:103CB000C5F3471607B90127282C02DD4FF0FF3066
:103CC000F8BDE648407D28BBE44890F8240038B1B0
:103CD0000020FFF723FE0121E04880F8201003E0D8
:103CE0000021DE4880F82010DC481630FFF750F83D
:103CF000DA481830FFF76CF8D8481A30FFF78CF81C
:103D0000D6481C30FFF7ADF8D448817A81771F3050
:103D1000FFF701F90020FEF777F90020FEF7A0FC7D
:103D200000208DF80000CD4A12689178CB4A526885
:103D300010786B46012201F0F6FB10B14FF0FF3016
:103D4000BEE740208DF80000C44A1268D17BC34A08
:103D5000526810786B46012201F0E5FB00B165E086
:103D60008DF800608DF80170BC4A1268117ABB4A68
:103D7000526810786B46022201F0D5FB08B155E07D
:103D800047E0052001F06AFCB448407A072101EBC6
:103D9000C000C0B28DF80000B04A1268D179AF4AB5
:103DA000526810786B46012201F0BDFB00B13DE086
:103DB00020208DF80000012C03D100208DF8010097
:103DC0000EE0052C03DC01208DF8010008E0142C26
:103DD00003DC02208DF8010002E003208DF80100D1
:103DE0009DF80100072101EB8010C0B28DF80100A1
:103DF0009A4A1268917C994A526810786B4602225E
:103E000001F091FB00B111E00121944841750020BF
:103E100056E7924A1632002103E0505C00B105E0FB
:103E2000491C0C29F9D34FF0FF3049E7FF208B499B
:103E30000872FF2189484172C1724FF6FF71C1813A
:103E4000FF2181720174012101730146887FFEF711
:103E50009EF98249C88AFEF7FEFC8049087EFEF77B
:103E6000B8FC7E49488BFEF7BCFB7C49888BFEF78B
:103E700064FC7A49C87FFEF77FFB784890F8200001
:103E800010B10120FFF74AFD002174484175002060
:103E900016E770B588B002A905A8FFF784FD0446AF
:103EA000032C3ED101A8FEF7F2FF059802F0C6F8F8
:103EB0000646019901F0CAFE054602F0DEF80590BB
:103EC000069802F0BBF80646019901F0BFFE0546D0
:103ED00002F0D3F80690079802F0B0F80646019970
:103EE00001F0B4FE054602F0C8F8079005A800F0FE
:103EF00082FB6846FEF7E8FFBDF8001002984843D1
:103F00000290BDF80010039848430390BDF80010DC
:103F100004984843049002A800F000FC002008B078
:103F200070BD0120FBE7014691F90020002A01DD68
:103F300000201EE091F90020002A01DA042018E098
:103F400091F90120002A01DD012012E091F9012000
:103F5000002A01DA05200CE091F90220002A01DD97
:103F6000022006E091F90220002A01DA062000E092
:103F70000720704710B504462046FFF7D4FF0346DC
:103F8000E01CFFF7D0FF43EAC00083B2A01DFFF79B
:103F9000CAFF43EA801083B2184610BD70B50024F2
:103FA00001F084FBFEF799FC002840D17820FEF751
:103FB000EEF8C4B20CB1012070BD7820FEF7DCFA37
:103FC000C4B20CB10220F7E76420FEF7B6FBC4B21E
:103FD0000CB10320F0E700F073FAC4B20CB1042076
:103FE000EAE71F48FFF7C6FF054600F073FAC4B2C0
:103FF0000CB10520E0E740F2731000F0ACFEC4B253
:104000000CB10620D8E7642000F01EFCC4B20CB14D
:104010000720D1E7FFF73DFF04460CB10820CBE7AE
:104020000120FFF77BFCC4B20CB10920C4E70020DB
:10403000C2E72DE9F04F99B004460D4616464FF001
:104040007E574FF000084FF000094FF0000A12A809
:1040500013A918AB0EAACDE9001003E0300200202E
:104060005C02002014A916A800F0D4FF18B10120AA
:1040700019B0BDE8F08FBDF84C0000F48070002846
:104080007ED00E9801F0DAFF83464FF09D4101F09B
:104090000FFE07460F9801F0D1FF83464FF09D4178
:1040A00001F006FE8046109801F0C8FF83464FF0ED
:1040B0009D4101F0FDFD8146119801F0BFFF83464F
:1040C0004FF09D4101F0F4FD824639464FF08040AB
:1040D00001F0BCFD4946059001F0B8FD414607904E
:1040E0004FF0404001F0B2FD5146059001F0AEFDA9
:1040F0000690079901F052FD834601F0EBFFCDE9F0
:10410000080102F0B3FC4FF06632E24BCDE90A0140
:1041100001F0B3FECDE90C0102F008F82060494639
:104120004FF0804001F092FD4946029001F08EFD73
:10413000414604904FF0404001F088FD4146029016
:1041400001F084FD0390049901F07AFD83464FF05D
:104150007E5101F023FD059001F0BCFFCDE908017F
:1041600039464FF0804001F071FD4146039001F067
:104170006DFD494604904FF0804001F067FD00E07E
:1041800068E05146039001F061FD8346049901F017
:1041900005FD059001F09EFFCDE90601DDE908234C
:1041A00002F0ACFE4FF06632BA4BCDE90A0101F0E5
:1041B00064FECDE90C0101F0B9FF2860514650467C
:1041C00001F044FD49460490484601F03FFD414658
:1041D0000390404601F03AFD39460190384601F01F
:1041E00035FD0090019901F0D9FC0290039901F08E
:1041F00027FD8346049901F023FD059001F06AFF35
:10420000CDE908015146384601F020FD49460490A9
:10421000404601F01BFD0390049901F0BFFC4FF0F4
:104220008041059001F012FD834601F053FFCDE976
:104230000601DDE9082302F061FE4FF06632954B7E
:10424000CDE90A0101F019FECDE90C0101F06EFF84
:10425000306001E002200BE7002009E72DE9F04F74
:104260008FB00CA88C490DAB08AACDE900108B4982
:104270008B4800F0CFFE18B101200FB0BDE8F08FE1
:104280008548008800F4807000287DD0089801F0EF
:10429000D5FE04464FF09D4101F00AFD81490860BA
:1042A000099801F0CBFE04464FF09D4101F000FD5E
:1042B0007D4908600A9801F0C1FE04464FF09D4117
:1042C00001F0F6FC794908600B9801F0B7FE04464E
:1042D0004FF09D4101F0ECFC7549086071480168A0
:1042E0004FF0804001F0B2FC0690704801680698DB
:1042F00001F0ACFC82466C4801684FF0404001F090
:10430000A5FC06906A480168069801F09FFC834668
:10431000514601F043FC079001F0DCFE064602F036
:10432000A5FB80464FF066325A4B01F0A6FD0446CD
:1043300001F0FCFE5F4908605C4801684FF0804076
:1043400001F084FC039059480168039801F07EFC59
:104350008246554801684FF0404001F077FC0390D9
:1043600051480168039801F071FC8346514601F001
:1043700067FC81464FF07E5101F010FC044601F0CD
:10438000A9FECDE9040100E082E0464801684FF053
:10439000804001F05BFC834643480168584601F0C9
:1043A00055FC8146414801684FF0804001F04EFCC9
:1043B00083463F480168584601F048FC824649461A
:1043C00001F0ECFB044601F085FE0746DDE904231D
:1043D00002F094FD4FF066322E4BCDE9060101F05C
:1043E0004CFD054601F0A2FE3349086030480168E3
:1043F000006801F02BFC03902C480168006801F074
:1044000025FC029028480168006801F01FFC8346E3
:1044100024480168006801F019FC5946019001F038
:10442000BDFB8246029901F00BFC8146039901F025
:1044300007FC044601F04EFECDE904011C4801686A
:104440001848006801F002FC8246184801681648C6
:10445000006801F0FBFB8346514601F09FFB81465B
:104460004FF0804101F0F2FB044601F033FE0746B5
:10447000DDE9042302F042FD4FF06632054BCDE941
:10448000060101F0FAFC054601F050FE0B490860F8
:1044900000BFF2E666A64C40100200200A0200208F
:1044A0000402002020020020240200202802002014
:1044B0002C02002014020020180200201C02002000
:1044C00010B5C8234FF48062F74940F6F630FFF785
:1044D0006FFB10BD10B586B00446F4A000680390D1
:1044E000F3A000680290F3A000680190F2A00068B9
:1044F000009004F0030003A9085C8DF8140003A8E1
:10450000C4F3C101405C8DF8150003A8C4F3811108
:10451000405C8DF8160004F0030002A9085C8DF8D9
:10452000100002A8C4F3C101405C8DF8110002A87C
:10453000C4F38111405C8DF8120005AA032140F2FA
:104540002640FFF7BBFA18B14FF0FF3006B010BDA0
:1045500004AA032140F22A40FFF7B0FA10B14FF04D
:10456000FF30F3E7019805900098049004F00400F0
:1045700058B19DF8140040F001008DF814009DF82A
:10458000100040F001008DF8100004F0200058B138
:104590009DF8150040F001008DF815009DF8110000
:1045A00040F001008DF8110004F4807058B19DF8BE
:1045B000160040F001008DF816009DF8120040F042
:1045C00001008DF8120005AA03214FF48860FFF75F
:1045D00075FA10B14FF0FF30B8E704AA032140F29A
:1045E0003140FFF76BFA10B14FF0FF30AEE7B34840
:1045F00004810020AAE71FB50446B048007A00F005
:10460000030054F820000190AC48007A00F0040048
:1046100010B1019840420190A848007AC0F3C1004F
:1046200054F820000290A548007A00F0200010B154
:10463000029840420290A148007AC0F3811054F8D9
:10464000200003909D48008900F4807010B1039809
:10465000404203909A49019880FB0101800F40EA93
:10466000810001909649029880FB0110820042EA85
:10467000917002909249039880FB0110820042EAF7
:10468000917003900198000E8DF800000198000CC5
:104690008DF801000198000A8DF802000198C0B25F
:1046A0008DF803006A4604214FF47470FFF706FA90
:1046B00018B14FF0FF3004B010BD0298000E8DF815
:1046C00000000298000C8DF801000298000A8DF895
:1046D00002000298C0B28DF803006A4604214FF42C
:1046E0007570FFF7EBF910B14FF0FF30E3E7039877
:1046F000000E8DF800000398000C8DF8010003985F
:10470000000A8DF802000398C0B28DF803006A46D3
:1047100004214FF47670FFF7D1F9CCE770B588B07B
:10472000064601A8FEF7D0FBBDF804000021C9032E
:1047300041EA5045C4036148007A00F0030056F88E
:10474000200005905D48007A00F0040010B1059843
:10475000404205905948007AC0F3C10056F8200045
:1047600006905648007A00F0200010B106984042AA
:1047700006905248007AC0F3811056F82000079046
:104780004E48008900F4807010B1079840420790AD
:104790000598C117A0FB042301FB043100FB0510A1
:1047A000810041EA927005900698C117A0FB04238E
:1047B00001FB043100FB0510810041EA9270069074
:1047C0000798C117A0FB042301FB043100FB05106F
:1047D000810041EA927007900598000E8DF808005C
:1047E0000598000C8DF809000598000A8DF80A005C
:1047F0000598C0B28DF80B000698000E8DF80C00DD
:104800000698000C8DF80D000698000A8DF80E0031
:104810000698C0B28DF80F000798000E8DF81000B2
:104820000798000C8DF811000798000A8DF8120007
:104830000798C0B28DF8130002AA0C214FF425701E
:10484000FFF73CF908B070BD30B585B004461DA235
:1048500007CA02AB07C3C82C03DD4FF0FF3005B019
:1048600030BDC82090FBF4F0401E85B2280A8DF8B8
:104870000000E8B28DF801006A46022140F21620DD
:10488000FFF71CF910B14FF0FF30E8E702AA0C2146
:1048900040F6C120FFF712F910B14FF0FF30DEE70C
:1048A000064884810020DAE7447900084CCD6C008A
:1048B0000CC92C003656760026466600740200208D
:1048C00009E3CA02FEF2ABC4AAF1DFDFBBAFDFDF50
:1048D0000146FC4880890880002070472DE9FC478C
:1048E00006460F4606F0070010B1B7F5C86F03DDA6
:1048F0004FF0FF30BDE8FC87384601F0A8FB814649
:10490000F14901F0D5F980466846FEF761FA9DF855
:104910000000022806D0042816D0082826D0102827
:1049200048D135E04FF08D41404601F08FF9814686
:1049300001F0BCFB84B2E549404601F087F98146AD
:1049400001F0B4FB85B238E04FF08C41404601F0F5
:104950007DF9814601F0AAFB84B2DD49404601F0B1
:1049600075F9814601F0A2FB85B226E04FF08B413C
:10497000404601F06BF9814601F098FB84B2D549BD
:10498000404601F063F9814601F090FB85B214E0E6
:104990004FF08A41404601F059F9814601F086FB0B
:1049A00084B2CD49404601F051F9814601F07EFBC9
:1049B00085B202E04FF0FF309CE700BF20128DF877
:1049C0000400E0B28DF8050028128DF80600E8B268
:1049D0008DF8070006F00100A0B101AA02214FF4F2
:1049E000EA70FFF76BF810B14FF0FF3082E70DF17E
:1049F000060202214FF49270FFF760F810B14FF0F9
:104A0000FF3077E706F00200A0B101AA02214FF4BF
:104A1000EC70FFF753F810B14FF0FF306AE70DF17B
:104A2000060202214FF49470FFF748F810B14FF0DE
:104A3000FF305FE706F00400A0B101AA02214FF4A5
:104A4000EE70FFF73BF810B14FF0FF3052E70DF179
:104A5000060202214FF49670FFF730F810B14FF0C4
:104A6000FF3047E7002045E738B5044600200090B6
:104A700004F0010020B19DF8000040F030000090EB
:104A800004F0020020B19DF8000040F00C000090FE
:104A900004F0040020B19DF8000040F003000090F5
:104AA0006A4601214FF4A470FFF708F838BD38B505
:104AB0000446012C01DA012402E0042C00DD042468
:104AC000601EC0B200906A46012140F24F10FEF70E
:104AD000F5FF38BD38B50446052094FBF0F085B2EB
:104AE00028128DF80000E8B28DF801006A46022114
:104AF0004FF4EF70FEF7E2FF38BD38B504460520ED
:104B000094FBF0F085B228128DF80000E8B28DF821
:104B100001006A4602214FF4ED70FEF7CFFF38BD69
:104B2000F8B505460E464FF47A7095FBF0F000FBA1
:104B300006F4200E8DF80000200C8DF80100200AEC
:104B40008DF80200E0B28DF803006A4604214FF4AC
:104B5000AE70FEF7B3FFF8BD38B50446052094FBF0
:104B6000F0F084B220128DF80000E0B28DF8010060
:104B70006A4602214FF4AD70FEF7A0FF38BD38B58C
:104B80000446052094FBF0F084B220128DF800005A
:104B9000E0B28DF801006A4602214FF4AC70FEF7D6
:104BA0008DFF38BD38B5044614B94FF0FF3038BD1D
:104BB0006A4604214FF45870FEF7BDFF10B14FF064
:104BC000FF30F4E79DF8000000069DF8011040EA70
:104BD00001409DF8021040EA01209DF803100843AF
:104BE00020600020E3E738B50446200E8DF8000071
:104BF000200C8DF80100200A8DF80200E0B28DF83B
:104C000003006A4604214FF45870FEF757FF38BD81
:104C100038B5044614B94FF0FF3038BD6A46042158
:104C20004FF47170FEF787FF10B14FF0FF30F4E7DB
:104C30009DF8000000069DF8011040EA01409DF833
:104C4000021040EA01209DF80310084300EB8000A9
:104C5000800020600020E0E738B504461420B4FB53
:104C6000F0F4200E8DF80000200C8DF80100200AD1
:104C70008DF80200E0B28DF803006A4604214FF47B
:104C80007170FEF71BFF38BD38B5044664B12020B3
:104C90008DF8000028208DF8010030208DF80200EA
:104CA00038208DF8030004E0A3220421684600F0B8
:104CB00056FF6A46042140F69E20FEF7FFFEFDF7F0
:104CC0006FFB38BD740200200000484300004046DE
:104CD0000000C045000040450000C04438B504460F
:104CE00064B1C0208DF80000C2208DF80100C420FE
:104CF0008DF80200C6208DF8030004E08B22042109
:104D0000684600F02CFF6A46042140F69820FEF722
:104D1000D5FEFDF745FB38BD3EB504466CB1FDA19F
:104D2000D1E900208968CDE9002002916A46092175
:104D30004FF49760FEF7C2FE3EBDF9A2D2E9001023
:104D40009268CDE9010200916A4609214FF497600B
:104D5000FEF7B4FEF0E73EB5044602208DF80000F1
:104D6000CA208DF80100E3208DF8020009208DF89B
:104D700003006A4604216820FEF7A0FEA3208DF8F8
:104D8000000004F0400048B1C0208DF80100C820A8
:104D90008DF80200C2208DF8030006E0A3208DF8F4
:104DA00001008DF802008DF8030004F4C07048B1D2
:104DB000C4208DF80400CC208DF80500C6208DF8A5
:104DC000060006E0A3208DF804008DF805008DF89C
:104DD0000600A3208DF807008DF808008DF8090063
:104DE0006A460A2140F6A720FEF768FE04F0030099
:104DF00018B120208DF8000002E0D8208DF80000C6
:104E00006A46012140F6B620FEF758FE04F0200065
:104E100018B10120FFF780FF02E00020FFF77CFFC0
:104E200004F4C07008B304F4807060B1B2208DF84F
:104E300000008B208DF80100B6208DF802009B2029
:104E40008DF803000BE0B0208DF8000080208DF875
:104E50000100B4208DF8020090208DF803006A460E
:104E6000042140F6A220FEF729FE04F0010020B341
:104E7000F8208DF800006A4601214FF40B60FEF720
:104E80001DFEFA210720FFF729FD0720FFF7ECFDA3
:104E90000120FFF70CFE6420FFF71CFE4FF4FA70B0
:104EA000FFF72BFEC821A148FFF73AFE2820FFF7A5
:104EB00053FE0A20FFF763FE08E0D8208DF80000BB
:104EC0006A4601214FF40B60FEF7F8FD04F0020082
:104ED00018B1D9208DF8000002E0D8208DF800002C
:104EE0006A46012140F23D70FEF7E8FD04F004003F
:104EF00018B10120FFF7F2FE02E00020FFF7EEFEFE
:104F000004F0100018B10120FFF7BEFE02E00020FF
:104F1000FFF7BAFE44F0080085494881FDF740FAE2
:104F200000208349887304F0400018B10846807B54
:104F3000801D887304F4C07020B17D48807B801D83
:104F40007B49887304F0140020B17948807B1030CD
:104F50007749887304F0030020B17548807B001DF9
:104F60007349887300203EBD01467148408908801E
:104F7000002070472DE9F0410446E07800F0C006BB
:104F8000E07800F03F05607800F0010098B1EF1084
:104F90002846E91705EB5171C910A5EBC101491C61
:104FA00001F0FF086248006820B16148414602688C
:104FB0003846904700BF607800F0080030B15C4888
:104FC000406818B1B0115A4A516888470020BDE8BE
:104FD000F08110B586B0044656A207CA03AB07C3DA
:104FE00057A207CA8DE80700012C09D0022C0ED168
:104FF00003AA0B2140F68220FEF760FD06B010BD2B
:105000006A460B2140F68220FEF758FDF6E74FF086
:10501000FF30F3E72DE9F04F8DB00746884615467F
:105020009946DDE9166B0024002030804049887BDA
:105030005A4605A9FEF7A5F818B1601E0DB0BDE8E7
:10504000F08F3B48807A00F01400002861D09DF872
:10505000140000069DF8151040EA01409DF8161056
:1050600040EA01209DF81710084328609DF81800B9
:1050700000069DF8191040EA01409DF81A1040EA18
:1050800001209DF81B10084368609DF81C00000675
:105090009DF81D1040EA01409DF81E1040EA0120D5
:1050A0009DF81F100843A8609DF8200000069DF899
:1050B000211040EA01409DF8221040EA01209DF8AD
:1050C00023100843E86004F11000C4B228680014FB
:1050D0000190686800140290A86800140390E868C2
:1050E0000014049001984043029901FB01000399C8
:1050F00001FB0100049901FB010ABAF1706F02DBA8
:10510000BAF1885F22DDFDF74BF900203080401EA8
:1051100094E721E0B8AAB38DB4980D355D00000086
:10512000B8AAAAAAB088C3C5C700000009E3CA028A
:1051300074020020D8B1B9F38BA391B609B4D90099
:10514000DAB1B9F38BA391B6DAB4DA00B6F900009C
:1051500040F48070308000BF3448807A00F0400016
:1051600020B305A9601C085C095D40EA012000B27B
:10517000A8F8000005A9E01C095C05AAA01C105CA9
:1051800041EA002000B2A8F8020005A9601D095CF0
:10519000201D105C41EA002000B2A8F80400A01D08
:1051A000C4B2B6F9000040F0080030801F484089C2
:1051B00000F4C07008B305A9601C085C095D40EAF2
:1051C000012000B2388005A9E01C095C05AAA01CDA
:1051D000105C41EA002000B2788005A9601D095CDE
:1051E000201D105C41EA002000B2B880A01DC4B2AE
:1051F000B6F9000040F0700030800C48807A00F072
:10520000030018B105A90819FFF7B4FE4846FDF7D9
:105210002EFC002012E70146044801600020704780
:1052200001460248416000207047000074020020DF
:1052300070B505460C4600F04DFAD02000F008FB92
:1052400000F08DFA18B100F067FA012070BD284611
:1052500000F0FEFA00F083FA204600F0F9FA00F0C0
:105260007EFA18B100F058FA0120EFE700F054FA86
:105270000020EBE770B504460025BC2C01DB0125BE
:1052800010E0622C01DB02250CE02A2C01DB032557
:1052900008E0142C01DB042504E00A2C01DB0525C1
:1052A00000E0062529461A20FFF7C2FF70BD70B541
:1052B0000446B4F57A7F01DD4FF47A74042C00DAE9
:1052C00004244FF47A7090FBF4F0401EC5B22946D6
:1052D0001920FFF7ADFF0546264604EBD671C1F352
:1052E0004F00FFF7C7FF70BD70B5044600F0F2F93C
:1052F000D02000F0ADFA00F032FA204600F0A8FA13
:1053000000F02DFA00F0E6F9D12000F0A1FA00F04B
:1053100026FA002000F0D2FA054600F0FDF92846F2
:1053200070BD10B50446E006010E1C20FFF780FF9B
:1053300010BD10B50446E006010E1B20FFF778FFF4
:1053400010BD10B500F0B2F980216B20FFF770FF9F
:10535000642000F083F900216B20FFF769FF032030
:10536000FFF7E7FF0020FFF7DCFF3220FFF79FFF8A
:1053700000213820FFF75CFF00216A20FFF758FF6B
:1053800000212320FFF754FF80213720FFF750FF33
:105390007520FFF7A9FF0446682C0BD101216B2073
:1053A000FFF746FF00216C20FFF742FFC820FFF700
:1053B0007EFF01E0012010BD0020FCE72DE9F04157
:1053C00006460F4614461D4600F084F9002141EAC6
:1053D0004601C8B200F03CFA00F0C1F920B100F07B
:1053E0009BF90120BDE8F081384600F031FA00F069
:1053F000B6F900F06FF9012101EB4601C8B200F0E7
:1054000027FA00F0ACF90DE0012C04D1002000F0E7
:1054100055FA287003E0012000F050FA2870601E51
:10542000C4B26D1C002CEFD100F076F90020D9E752
:105430002DE9F84F6B46022241216820FFF7BEFF9D
:105440009DF801009DF8001040EA01200FFA80FA53
:10545000504600F001FE804600224B4B00F07FFDDD
:1054600006464A4A4A4B00F061FC044600F05EFEE4
:1054700083464849584600F0E9FB044600F0FDFD2C
:1054800000B2BDE8F88F2DE9FC4104460D461646F2
:105490006B46062243216820FFF790FF0746BFB9FD
:1054A0009DF801009DF8001040EA012000B2208024
:1054B0009DF803009DF8021040EA012000B2288008
:1054C0009DF805009DF8041040EA012000B23080EC
:1054D0003846BDE8FC812DE9FC4104460D461646E0
:1054E0006B4606223B216820FFF768FF0746BFB9DD
:1054F0009DF801009DF8001040EA012000B22080D4
:105500009DF803009DF8021040EA012000B22880B7
:105510009DF805009DF8041040EA012000B230809B
:105520003846BDE8FC812DE9F04105460E46174698
:10553000984600F0CFF8002141EA4501C8B200F0DA
:1055400087F900F00CF920B100F0E6F80120BDE881
:10555000F081304600F07CF900F001F900240CE005
:1055600018F8040000F074F900F0F9F818B100F030
:10557000D3F80120EBE7601CC4B2BC42F0DB00F0C2
:10558000CBF80020E3E7000000407540A4703D0A1E
:10559000D74342400000C84210B504466FF00400F3
:1055A000FAF721FFE11704EB5171C1F3C701394A42
:1055B00011701046007800EB4001C1EBC0104FF6AF
:1055C000FF7101EAC0003449088010BD0146314A2C
:1055D00012784A434FF0E0235A6100229A611A463A
:1055E000126942F001021A6100BF4FF0E022106917
:1055F00000F001021AB100F48032002AF5D04FF019
:10560000E022126922F001024FF0E0231A61002229
:105610009A6170470146204A12884A434FF0E023BE
:105620005A6100229A611A46126942F001021A6117
:1056300000BF4FF0E022106900F001021AB100F43F
:105640008032002AF5D04FF0E022126922F00102E8
:105650004FF0E0231A6100229A61704770B504464A
:105660004FF4077094FBF0F0C6B24FF4077094FB50
:10567000F0F100FB114085B205E04FF40770FFF731
:10568000C9FF701EC6B2002EF7D115B12846FFF72C
:10569000C1FF70BD6602002068020020014600BF05
:1056A0000A00A1F1010399B2FAD1704708B50121AE
:1056B0000820FBF7D3F94FF44070ADF8000010203C
:1056C0008DF8030003208DF802006946C048FAF700
:1056D00009FF08BD00B5BE48001D006820F00F009E
:1056E000BB49091D08600846006840F003000860D7
:1056F0000120B8490860B849C1F8A4016420FFF747
:10570000CDFF0020B34908606420FFF7C7FF0020E9
:10571000B149C1F8A40100BD00B5AD48001D006845
:1057200020F00F00AA49091D08600846006840F0F3
:10573000030008600020A749091D0860A649C1F8B8
:10574000A0016420FFF7AAFF0120A249091D0860FB
:10575000A149C1F8A0016420FFF7A0FF00BD10B56A
:1057600000249B48001D006820F00F009849091D87
:1057700008600846006840F008000860012095496C
:1057800008606420FFF78AFF01209349C1F8A40153
:105790006420FFF783FF07E0601CC4B2FA2C03DD2E
:1057A000FFF7BAFF012010BD8A4880380068002842
:1057B000F2D18849091D086000BFF4E700B5002058
:1057C0008449091D08608248001D006820F00F0010
:1057D0007F49091D08600846006840F00300086022
:1057E00000207D49C1F8A0016420FFF757FF012088
:1057F0007849091D08606420FFF750FF00207649B2
:10580000C1F8A40100BD00B500207249091D08605F
:105810006F48001D006820F00F006D49091D0860E9
:105820000846006840F00300086001206A49C1F89A
:10583000A0016420FFF732FF01206649091D0860BE
:105840006420FFF72BFF00206349C1F8A40100BDCD
:1058500030B504465E48001D006820F00F005C492A
:10586000091D08600846006840F003000860002039
:105870005849091D086000251DE0E00918B1012004
:105880005449086002E00020524908606006040E96
:105890006420FFF703FF01204E49091D08606420C2
:1058A000FFF7FCFE00204C49C1F8A4016420FFF77B
:1058B000F5FE681CC5B2082DDFDB30BD70B50546AE
:1058C00000244348001D006820F00F004049091DD6
:1058D00008600846006840F008000860002617E0ED
:1058E00000203C49091D08606420FFF7D7FE012015
:1058F0003949C1F8A4016006040E364880380068B2
:1059000008B1601CC4B26420FFF7C8FE701CC6B2A8
:10591000082EE5DB15B9FFF776FF01E0FFF74EFF34
:10592000204670BD70B506460C461546FFF7D2FE00
:10593000002141EA4501C8B2FFF78AFF03E0FFF703
:10594000EBFE012070BDFFF70AFF0028F7D13046BB
:10595000FFF77EFFFFF703FF2046FFF779FF03E025
:10596000FFF7DAFE0120EDE7FFF7F9FE0028F7D197
:10597000FFF7D2FE0020E5E770B505460C4600268D
:10598000FFF7A8FE002141EA4401C8B2FFF760FF1B
:1059900003E0FFF7C1FE012070BDFFF7E0FE002825
:1059A000F7D12846FFF754FFFFF7D9FEFFF792FE25
:1059B000012101EB4401C8B2FFF74AFFFFF7CFFE18
:1059C0000020FFF77BFF0646FFF7A6FE3046E3E721
:1059D000000C0140A08121420080214208B5012134
:1059E0000820FBF73BF80220ADF8000010208DF8EE
:1059F000030003208DF8020069463C48FAF772FD67
:105A00004FF48060ADF8000069463848FAF76AFD47
:105A10004FF40060ADF8000069463448FAF762FDC3
:105A20004FF48040ADF8000069463048FAF75AFD5F
:105A300008BD70B504460D46FFF7D0FF2C488069BD
:105A400040F400602A4988610846806940F00400FB
:105A50008861284800684FF20F0188432549086093
:105A6000084600684BF20B010843224908602248AF
:105A70000480001F058020481038008840F4C04092
:105A80001D4910390880081F008840F06000091F78
:105A90000880081D008840F40060091D0880081F68
:105AA000008840F00800091F088013480C3800885F
:105AB00040F4805010490C3908800846008840F0B6
:105AC000010008800C481830008840F400400A4962
:105AD000183108804FF4004007492C3908800846E7
